{
  "contractName": "BoxOfficeMovie",
  "abi": [
    {
      "constant": true,
      "inputs": [],
      "name": "boxOffice",
      "outputs": [
        {
          "name": "",
          "type": "address"
        }
      ],
      "payable": false,
      "stateMutability": "view",
      "type": "function"
    },
    {
      "constant": true,
      "inputs": [],
      "name": "name",
      "outputs": [
        {
          "name": "",
          "type": "string"
        }
      ],
      "payable": false,
      "stateMutability": "view",
      "type": "function"
    },
    {
      "constant": false,
      "inputs": [
        {
          "name": "_spender",
          "type": "address"
        },
        {
          "name": "_value",
          "type": "uint256"
        }
      ],
      "name": "approve",
      "outputs": [
        {
          "name": "",
          "type": "bool"
        }
      ],
      "payable": false,
      "stateMutability": "nonpayable",
      "type": "function"
    },
    {
      "constant": true,
      "inputs": [],
      "name": "totalSupply",
      "outputs": [
        {
          "name": "",
          "type": "uint256"
        }
      ],
      "payable": false,
      "stateMutability": "view",
      "type": "function"
    },
    {
      "constant": true,
      "inputs": [],
      "name": "filmmaker",
      "outputs": [
        {
          "name": "",
          "type": "address"
        }
      ],
      "payable": false,
      "stateMutability": "view",
      "type": "function"
    },
    {
      "constant": false,
      "inputs": [
        {
          "name": "_from",
          "type": "address"
        },
        {
          "name": "_to",
          "type": "address"
        },
        {
          "name": "_value",
          "type": "uint256"
        }
      ],
      "name": "transferFrom",
      "outputs": [
        {
          "name": "",
          "type": "bool"
        }
      ],
      "payable": false,
      "stateMutability": "nonpayable",
      "type": "function"
    },
    {
      "constant": true,
      "inputs": [],
      "name": "decimals",
      "outputs": [
        {
          "name": "",
          "type": "uint8"
        }
      ],
      "payable": false,
      "stateMutability": "view",
      "type": "function"
    },
    {
      "constant": true,
      "inputs": [],
      "name": "availableTickets",
      "outputs": [
        {
          "name": "",
          "type": "uint256"
        }
      ],
      "payable": false,
      "stateMutability": "view",
      "type": "function"
    },
    {
      "constant": true,
      "inputs": [],
      "name": "salesEndDate",
      "outputs": [
        {
          "name": "",
          "type": "uint256"
        }
      ],
      "payable": false,
      "stateMutability": "view",
      "type": "function"
    },
    {
      "constant": true,
      "inputs": [],
      "name": "logline",
      "outputs": [
        {
          "name": "",
          "type": "string"
        }
      ],
      "payable": false,
      "stateMutability": "view",
      "type": "function"
    },
    {
      "constant": false,
      "inputs": [
        {
          "name": "_spender",
          "type": "address"
        },
        {
          "name": "_subtractedValue",
          "type": "uint256"
        }
      ],
      "name": "decreaseApproval",
      "outputs": [
        {
          "name": "",
          "type": "bool"
        }
      ],
      "payable": false,
      "stateMutability": "nonpayable",
      "type": "function"
    },
    {
      "constant": true,
      "inputs": [
        {
          "name": "_owner",
          "type": "address"
        }
      ],
      "name": "balanceOf",
      "outputs": [
        {
          "name": "",
          "type": "uint256"
        }
      ],
      "payable": false,
      "stateMutability": "view",
      "type": "function"
    },
    {
      "constant": true,
      "inputs": [],
      "name": "poster",
      "outputs": [
        {
          "name": "",
          "type": "string"
        }
      ],
      "payable": false,
      "stateMutability": "view",
      "type": "function"
    },
    {
      "constant": true,
      "inputs": [
        {
          "name": "",
          "type": "uint256"
        }
      ],
      "name": "audienceMembers",
      "outputs": [
        {
          "name": "",
          "type": "address"
        }
      ],
      "payable": false,
      "stateMutability": "view",
      "type": "function"
    },
    {
      "constant": true,
      "inputs": [],
      "name": "symbol",
      "outputs": [
        {
          "name": "",
          "type": "string"
        }
      ],
      "payable": false,
      "stateMutability": "view",
      "type": "function"
    },
    {
      "constant": true,
      "inputs": [],
      "name": "price",
      "outputs": [
        {
          "name": "",
          "type": "uint256"
        }
      ],
      "payable": false,
      "stateMutability": "view",
      "type": "function"
    },
    {
      "constant": true,
      "inputs": [],
      "name": "trailer",
      "outputs": [
        {
          "name": "",
          "type": "string"
        }
      ],
      "payable": false,
      "stateMutability": "view",
      "type": "function"
    },
    {
      "constant": false,
      "inputs": [
        {
          "name": "_to",
          "type": "address"
        },
        {
          "name": "_value",
          "type": "uint256"
        }
      ],
      "name": "transfer",
      "outputs": [
        {
          "name": "",
          "type": "bool"
        }
      ],
      "payable": false,
      "stateMutability": "nonpayable",
      "type": "function"
    },
    {
      "constant": true,
      "inputs": [],
      "name": "sales",
      "outputs": [
        {
          "name": "",
          "type": "uint256"
        }
      ],
      "payable": false,
      "stateMutability": "view",
      "type": "function"
    },
    {
      "constant": true,
      "inputs": [],
      "name": "createdTime",
      "outputs": [
        {
          "name": "",
          "type": "uint256"
        }
      ],
      "payable": false,
      "stateMutability": "view",
      "type": "function"
    },
    {
      "constant": true,
      "inputs": [],
      "name": "fund",
      "outputs": [
        {
          "name": "",
          "type": "uint256"
        }
      ],
      "payable": false,
      "stateMutability": "view",
      "type": "function"
    },
    {
      "constant": false,
      "inputs": [
        {
          "name": "_spender",
          "type": "address"
        },
        {
          "name": "_addedValue",
          "type": "uint256"
        }
      ],
      "name": "increaseApproval",
      "outputs": [
        {
          "name": "",
          "type": "bool"
        }
      ],
      "payable": false,
      "stateMutability": "nonpayable",
      "type": "function"
    },
    {
      "constant": true,
      "inputs": [
        {
          "name": "_owner",
          "type": "address"
        },
        {
          "name": "_spender",
          "type": "address"
        }
      ],
      "name": "allowance",
      "outputs": [
        {
          "name": "",
          "type": "uint256"
        }
      ],
      "payable": false,
      "stateMutability": "view",
      "type": "function"
    },
    {
      "inputs": [
        {
          "name": "_filmmaker",
          "type": "address"
        },
        {
          "name": "_salesEndDate",
          "type": "uint256"
        },
        {
          "name": "_availableTickets",
          "type": "uint256"
        },
        {
          "name": "_price",
          "type": "uint256"
        },
        {
          "name": "_ticketSupply",
          "type": "uint256"
        },
        {
          "name": "_movieName",
          "type": "string"
        },
        {
          "name": "_ticketSymbol",
          "type": "string"
        },
        {
          "name": "_logline",
          "type": "string"
        },
        {
          "name": "_poster",
          "type": "string"
        },
        {
          "name": "_trailer",
          "type": "string"
        }
      ],
      "payable": false,
      "stateMutability": "nonpayable",
      "type": "constructor"
    },
    {
      "anonymous": false,
      "inputs": [
        {
          "indexed": false,
          "name": "salesEndDate",
          "type": "uint256"
        },
        {
          "indexed": false,
          "name": "availableTickets",
          "type": "uint256"
        },
        {
          "indexed": false,
          "name": "price",
          "type": "uint256"
        },
        {
          "indexed": false,
          "name": "movieName",
          "type": "string"
        },
        {
          "indexed": false,
          "name": "ticketSymbol",
          "type": "string"
        },
        {
          "indexed": false,
          "name": "logline",
          "type": "string"
        },
        {
          "indexed": false,
          "name": "poster",
          "type": "string"
        },
        {
          "indexed": false,
          "name": "trailer",
          "type": "string"
        }
      ],
      "name": "FilmUpdated",
      "type": "event"
    },
    {
      "anonymous": false,
      "inputs": [
        {
          "indexed": true,
          "name": "holder",
          "type": "address"
        }
      ],
      "name": "TicketSpent",
      "type": "event"
    },
    {
      "anonymous": false,
      "inputs": [
        {
          "indexed": true,
          "name": "owner",
          "type": "address"
        },
        {
          "indexed": true,
          "name": "spender",
          "type": "address"
        },
        {
          "indexed": false,
          "name": "value",
          "type": "uint256"
        }
      ],
      "name": "Approval",
      "type": "event"
    },
    {
      "anonymous": false,
      "inputs": [
        {
          "indexed": true,
          "name": "from",
          "type": "address"
        },
        {
          "indexed": true,
          "name": "to",
          "type": "address"
        },
        {
          "indexed": false,
          "name": "value",
          "type": "uint256"
        }
      ],
      "name": "Transfer",
      "type": "event"
    },
    {
      "constant": false,
      "inputs": [
        {
          "name": "_salesEndDate",
          "type": "uint256"
        },
        {
          "name": "_availableTickets",
          "type": "uint256"
        },
        {
          "name": "_price",
          "type": "uint256"
        },
        {
          "name": "_movieName",
          "type": "string"
        },
        {
          "name": "_ticketSymbol",
          "type": "string"
        },
        {
          "name": "_logline",
          "type": "string"
        },
        {
          "name": "_poster",
          "type": "string"
        },
        {
          "name": "_trailer",
          "type": "string"
        }
      ],
      "name": "updateFilm",
      "outputs": [
        {
          "name": "",
          "type": "bool"
        }
      ],
      "payable": false,
      "stateMutability": "nonpayable",
      "type": "function"
    },
    {
      "constant": false,
      "inputs": [],
      "name": "spendTicket",
      "outputs": [
        {
          "name": "",
          "type": "bool"
        }
      ],
      "payable": false,
      "stateMutability": "nonpayable",
      "type": "function"
    },
    {
      "constant": false,
      "inputs": [
        {
          "name": "buyer",
          "type": "address"
        },
        {
          "name": "quantity",
          "type": "uint256"
        }
      ],
      "name": "buyTickets",
      "outputs": [
        {
          "name": "",
          "type": "bool"
        }
      ],
      "payable": false,
      "stateMutability": "nonpayable",
      "type": "function"
    },
    {
      "constant": false,
      "inputs": [
        {
          "name": "amount",
          "type": "uint256"
        }
      ],
      "name": "withdrawFund",
      "outputs": [
        {
          "name": "",
          "type": "bool"
        }
      ],
      "payable": false,
      "stateMutability": "nonpayable",
      "type": "function"
    },
    {
      "constant": true,
      "inputs": [],
      "name": "getFilmSummary",
      "outputs": [
        {
          "name": "_filmmaker",
          "type": "address"
        },
        {
          "name": "_createdTime",
          "type": "uint256"
        },
        {
          "name": "_salesEndDate",
          "type": "uint256"
        },
        {
          "name": "_availableTickets",
          "type": "uint256"
        },
        {
          "name": "_price",
          "type": "uint256"
        },
        {
          "name": "_movieName",
          "type": "string"
        },
        {
          "name": "_ticketSymbol",
          "type": "string"
        },
        {
          "name": "_logline",
          "type": "string"
        },
        {
          "name": "_poster",
          "type": "string"
        },
        {
          "name": "_trailer",
          "type": "string"
        }
      ],
      "payable": false,
      "stateMutability": "view",
      "type": "function"
    },
    {
      "constant": true,
      "inputs": [],
      "name": "getFilmStats",
      "outputs": [
        {
          "name": "",
          "type": "uint256"
        },
        {
          "name": "",
          "type": "uint256"
        },
        {
          "name": "",
          "type": "uint256"
        },
        {
          "name": "",
          "type": "uint256"
        },
        {
          "name": "",
          "type": "uint256"
        }
      ],
      "payable": false,
      "stateMutability": "view",
      "type": "function"
    },
    {
      "constant": true,
      "inputs": [],
      "name": "getAudienceMembers",
      "outputs": [
        {
          "name": "",
          "type": "address[]"
        }
      ],
      "payable": false,
      "stateMutability": "view",
      "type": "function"
    }
  ],
  "bytecode": "0x60806040523480156200001157600080fd5b5060405162001e2238038062001e228339810160409081528151602080840151928401516060850151608086015160a087015160c088015160e08901516101008a01516101208b01516005805433600160a060020a03199182161790915560068054909116600160a060020a038c16179055426008556000600c819055600d5560098b9055600a889055600b8790556001869055938b018051999b9799969895979096938101959281019491810193910191620000d4916003918801906200017d565b508351620000ea9060049060208701906200017d565b5082516200010090600e9060208601906200017d565b5081516200011690600f9060208501906200017d565b5080516200012c9060109060208401906200017d565b505060015460068054600160a060020a039081166000908152602081815260408083208690559354831682526002815283822060055490931682529190915220555062000222975050505050505050565b828054600181600116156101000203166002900490600052602060002090601f016020900481019282601f10620001c057805160ff1916838001178555620001f0565b82800160010185558215620001f0579182015b82811115620001f0578251825591602001919060010190620001d3565b50620001fe92915062000202565b5090565b6200021f91905b80821115620001fe576000815560010162000209565b90565b611bf080620002326000396000f30060806040526004361061017f5763ffffffff7c01000000000000000000000000000000000000000000000000000000006000350416630641def2811461018457806306fdde03146101b5578063095ea7b31461023f5780630cee17251461027757806318160ddd1461028f5780631d9d844e146102b657806323b872dd146102cb578063313ce567146102f55780633840ab44146103205780633c1db66a146103605780633cfa7e01146104bb578063452d455f146104d05780635d91922d146104e557806366188463146104fa57806370a082311461051e578063809597211461053f578063839dfa1f1461055457806388f57767146105695780638bb4ee1e1461058d57806395d89b41146105a5578063a035b1fe146105ba578063a41c35f0146105cf578063a9059cbb146105e4578063aace52fe14610608578063b2f4bdb01461061d578063b60d428814610632578063d73dd62314610647578063dd62ed3e1461066b578063ee7d837014610692578063f63125cb146108ec575b600080fd5b34801561019057600080fd5b50610199610951565b60408051600160a060020a039092168252519081900360200190f35b3480156101c157600080fd5b506101ca610960565b6040805160208082528351818301528351919283929083019185019080838360005b838110156102045781810151838201526020016101ec565b50505050905090810190601f1680156102315780820380516001836020036101000a031916815260200191505b509250505060405180910390f35b34801561024b57600080fd5b50610263600160a060020a03600435166024356109ee565b604080519115158252519081900360200190f35b34801561028357600080fd5b50610263600435610a55565b34801561029b57600080fd5b506102a4610a9c565b60408051918252519081900360200190f35b3480156102c257600080fd5b50610199610aa3565b3480156102d757600080fd5b50610263600160a060020a0360043581169060243516604435610ab2565b34801561030157600080fd5b5061030a610c27565b6040805160ff9092168252519081900360200190f35b34801561032c57600080fd5b50610335610c2c565b6040805195865260208601949094528484019290925260608401526080830152519081900360a00190f35b34801561036c57600080fd5b50604080516020601f606435600481810135928301849004840285018401909552818452610263948035946024803595604435953695608494930191819084018382808284375050604080516020601f89358b018035918201839004830284018301909452808352979a99988101979196509182019450925082915084018382808284375050604080516020601f89358b018035918201839004830284018301909452808352979a99988101979196509182019450925082915084018382808284375050604080516020601f89358b018035918201839004830284018301909452808352979a99988101979196509182019450925082915084018382808284375050604080516020601f89358b018035918201839004830284018301909452808352979a999881019791965091820194509250829150840183828082843750949750610c819650505050505050565b3480156104c757600080fd5b506102a4611039565b3480156104dc57600080fd5b506102a461103f565b3480156104f157600080fd5b506101ca611045565b34801561050657600080fd5b50610263600160a060020a03600435166024356110a0565b34801561052a57600080fd5b506102a4600160a060020a036004351661118f565b34801561054b57600080fd5b506101ca6111aa565b34801561056057600080fd5b50610263611205565b34801561057557600080fd5b50610263600160a060020a036004351660243561136e565b34801561059957600080fd5b506101996004356114e3565b3480156105b157600080fd5b506101ca61150b565b3480156105c657600080fd5b506102a4611566565b3480156105db57600080fd5b506101ca61156c565b3480156105f057600080fd5b50610263600160a060020a03600435166024356115c7565b34801561061457600080fd5b506102a46116a6565b34801561062957600080fd5b506102a46116ac565b34801561063e57600080fd5b506102a46116b2565b34801561065357600080fd5b50610263600160a060020a03600435166024356116b8565b34801561067757600080fd5b506102a4600160a060020a0360043581169060243516611751565b34801561069e57600080fd5b506106a761177c565b604051808b600160a060020a0316600160a060020a031681526020018a8152602001898152602001888152602001878152602001806020018060200180602001806020018060200186810386528b818151815260200191508051906020019080838360005b8381101561072457818101518382015260200161070c565b50505050905090810190601f1680156107515780820380516001836020036101000a031916815260200191505b5086810385528a5181528a516020918201918c019080838360005b8381101561078457818101518382015260200161076c565b50505050905090810190601f1680156107b15780820380516001836020036101000a031916815260200191505b5086810384528951815289516020918201918b019080838360005b838110156107e45781810151838201526020016107cc565b50505050905090810190601f1680156108115780820380516001836020036101000a031916815260200191505b5086810383528851815288516020918201918a019080838360005b8381101561084457818101518382015260200161082c565b50505050905090810190601f1680156108715780820380516001836020036101000a031916815260200191505b50868103825287518152875160209182019189019080838360005b838110156108a457818101518382015260200161088c565b50505050905090810190601f1680156108d15780820380516001836020036101000a031916815260200191505b509f5050505050505050505050505050505060405180910390f35b3480156108f857600080fd5b50610901611a82565b60408051602080825283518183015283519192839290830191858101910280838360005b8381101561093d578181015183820152602001610925565b505050509050019250505060405180910390f35b600554600160a060020a031681565b6003805460408051602060026001851615610100026000190190941693909304601f810184900484028201840190925281815292918301828280156109e65780601f106109bb576101008083540402835291602001916109e6565b820191906000526020600020905b8154815290600101906020018083116109c957829003601f168201915b505050505081565b336000818152600260209081526040808320600160a060020a038716808552908352818420869055815186815291519394909390927f8c5be1e5ebec7d5bd14f71427d1e84f3dd0314c0f7b2291e5b200ac8c7c3b925928290030190a35060015b92915050565b600554600090600160a060020a03163314610a6f57600080fd5b600d54821115610a7e57600080fd5b600d54610a91908363ffffffff611ae416565b600d55506001919050565b6001545b90565b600654600160a060020a031681565b600160a060020a038316600090815260208190526040812054821115610ad757600080fd5b600160a060020a0384166000908152600260209081526040808320338452909152902054821115610b0757600080fd5b600160a060020a0383161515610b1c57600080fd5b600160a060020a038416600090815260208190526040902054610b45908363ffffffff611ae416565b600160a060020a038086166000908152602081905260408082209390935590851681522054610b7a908363ffffffff611af616565b600160a060020a03808516600090815260208181526040808320949094559187168152600282528281203382529091522054610bbc908363ffffffff611ae416565b600160a060020a03808616600081815260026020908152604080832033845282529182902094909455805186815290519287169391927fddf252ad1be2c89b69c2b068fc378daa952ba7f163c4a11628f55a4df523b3ef929181900390910190a35060019392505050565b600081565b6000806000806000600c54600d54610c58600560009054906101000a9004600160a060020a031661118f565b600654610c6d90600160a060020a031661118f565b600154945094509450945094509091929394565b600654600090600160a060020a03163314610c9b57600080fd5b42891115610ca95760098990555b6001548811610cb857600a8890555b6000871115610cc757600b8790555b600086511115610ce6578551610ce4906003906020890190611b2c565b505b600085511115610d05578451610d03906004906020880190611b2c565b505b600084511115610d24578351610d2290600e906020870190611b2c565b505b600083511115610d43578251610d4190600f906020860190611b2c565b505b600082511115610d62578151610d60906010906020850190611b2c565b505b7f8cb3135083431f1ab0230b1a8e86f6ae45c0113bc0de105a4b738be9f5be4b4b600954600a54600b5460036004600e600f601060405180898152602001888152602001878152602001806020018060200180602001806020018060200186810386528b818154600181600116156101000203166002900481526020019150805460018160011615610100020316600290048015610e415780601f10610e1657610100808354040283529160200191610e41565b820191906000526020600020905b815481529060010190602001808311610e2457829003601f168201915b505086810385528a54600260001961010060018416150201909116048082526020909101908b908015610eb55780601f10610e8a57610100808354040283529160200191610eb5565b820191906000526020600020905b815481529060010190602001808311610e9857829003601f168201915b505086810384528954600260001961010060018416150201909116048082526020909101908a908015610f295780601f10610efe57610100808354040283529160200191610f29565b820191906000526020600020905b815481529060010190602001808311610f0c57829003601f168201915b5050868103835288546002600019610100600184161502019091160480825260209091019089908015610f9d5780601f10610f7257610100808354040283529160200191610f9d565b820191906000526020600020905b815481529060010190602001808311610f8057829003601f168201915b50508681038252875460026000196101006001841615020190911604808252602090910190889080156110115780601f10610fe657610100808354040283529160200191611011565b820191906000526020600020905b815481529060010190602001808311610ff457829003601f168201915b50509d505050505050505050505050505060405180910390a150600198975050505050505050565b600a5481565b60095481565b600e805460408051602060026001851615610100026000190190941693909304601f810184900484028201840190925281815292918301828280156109e65780601f106109bb576101008083540402835291602001916109e6565b336000908152600260209081526040808320600160a060020a03861684529091528120548083106110f457336000908152600260209081526040808320600160a060020a0388168452909152812055611129565b611104818463ffffffff611ae416565b336000908152600260209081526040808320600160a060020a03891684529091529020555b336000818152600260209081526040808320600160a060020a0389168085529083529281902054815190815290519293927f8c5be1e5ebec7d5bd14f71427d1e84f3dd0314c0f7b2291e5b200ac8c7c3b925929181900390910190a35060019392505050565b600160a060020a031660009081526020819052604090205490565b600f805460408051602060026001851615610100026000190190941693909304601f810184900484028201840190925281815292918301828280156109e65780601f106109bb576101008083540402835291602001916109e6565b6000806112113361118f565b1161121b57600080fd5b336000908152602081905260409020546001111561123857600080fd5b3360009081526020819052604090205461125990600163ffffffff611ae416565b3360009081526020819052604080822092909255600554600160a060020a03168152205461128e90600163ffffffff611af616565b600554600160a060020a031660009081526020819052604080822092909255600780546001810182559082527fa66cc928b5edb82af9bd49922954155ab7b0942694bea4ce44661d9a8736c68801805473ffffffffffffffffffffffffffffffffffffffff19163390811790915591517f66f39243fdcc85d7a3250a7546d65477294fa6d541ec404ec0300b0b99eb10de9190a260055460408051600181529051600160a060020a039092169133917fddf252ad1be2c89b69c2b068fc378daa952ba7f163c4a11628f55a4df523b3ef919081900360200190a350600190565b600554600090600160a060020a0316331461138857600080fd5b600654600160a060020a03166000908152602081905260409020548211156113af57600080fd5b600654600160a060020a03166000908152602081905260409020546113da908363ffffffff611ae416565b600654600160a060020a039081166000908152602081905260408082209390935590851681522054611412908363ffffffff611af616565b600160a060020a038416600090815260208190526040902055600a5461143e908363ffffffff611ae416565b600a55600b546114689061145990849063ffffffff611b0316565b600c549063ffffffff611af616565b600c55600b546114929061148390849063ffffffff611b0316565b600d549063ffffffff611af616565b600d55600654604080518481529051600160a060020a038087169316917fddf252ad1be2c89b69c2b068fc378daa952ba7f163c4a11628f55a4df523b3ef919081900360200190a350600192915050565b60078054829081106114f157fe5b600091825260209091200154600160a060020a0316905081565b6004805460408051602060026001851615610100026000190190941693909304601f810184900484028201840190925281815292918301828280156109e65780601f106109bb576101008083540402835291602001916109e6565b600b5481565b6010805460408051602060026001851615610100026000190190941693909304601f810184900484028201840190925281815292918301828280156109e65780601f106109bb576101008083540402835291602001916109e6565b336000908152602081905260408120548211156115e357600080fd5b600160a060020a03831615156115f857600080fd5b33600090815260208190526040902054611618908363ffffffff611ae416565b3360009081526020819052604080822092909255600160a060020a0385168152205461164a908363ffffffff611af616565b600160a060020a038416600081815260208181526040918290209390935580518581529051919233927fddf252ad1be2c89b69c2b068fc378daa952ba7f163c4a11628f55a4df523b3ef9281900390910190a350600192915050565b600c5481565b60085481565b600d5481565b336000908152600260209081526040808320600160a060020a03861684529091528120546116ec908363ffffffff611af616565b336000818152600260209081526040808320600160a060020a0389168085529083529281902085905580519485525191937f8c5be1e5ebec7d5bd14f71427d1e84f3dd0314c0f7b2291e5b200ac8c7c3b925929081900390910190a350600192915050565b600160a060020a03918216600090815260026020908152604080832093909416825291909152205490565b600654600854600954600a54600b5460038054604080516020601f60026000196001871615610100020190951694909404938401819004810282018101909252828152600160a060020a039098169760609384938493849384939092909183018282801561182b5780601f106118005761010080835404028352916020019161182b565b820191906000526020600020905b81548152906001019060200180831161180e57829003601f168201915b505060048054604080516020601f60026000196101006001881615020190951694909404938401819004810282018101909252828152969b50919450925084019050828280156118bc5780601f10611891576101008083540402835291602001916118bc565b820191906000526020600020905b81548152906001019060200180831161189f57829003601f168201915b5050600e8054604080516020601f60026000196101006001881615020190951694909404938401819004810282018101909252828152969a509194509250840190508282801561194d5780601f106119225761010080835404028352916020019161194d565b820191906000526020600020905b81548152906001019060200180831161193057829003601f168201915b5050600f8054604080516020601f60026000196101006001881615020190951694909404938401819004810282018101909252828152969950919450925084019050828280156119de5780601f106119b3576101008083540402835291602001916119de565b820191906000526020600020905b8154815290600101906020018083116119c157829003601f168201915b505060108054604080516020601f6002600019610100600188161502019095169490940493840181900481028201810190925282815296985091945092508401905082828015611a6f5780601f10611a4457610100808354040283529160200191611a6f565b820191906000526020600020905b815481529060010190602001808311611a5257829003601f168201915b5050505050905090919293949596979899565b60606007805480602002602001604051908101604052809291908181526020018280548015611ada57602002820191906000526020600020905b8154600160a060020a03168152600190910190602001808311611abc575b5050505050905090565b600082821115611af057fe5b50900390565b81810182811015610a4f57fe5b6000821515611b1457506000610a4f565b50818102818382811515611b2457fe5b0414610a4f57fe5b828054600181600116156101000203166002900490600052602060002090601f016020900481019282601f10611b6d57805160ff1916838001178555611b9a565b82800160010185558215611b9a579182015b82811115611b9a578251825591602001919060010190611b7f565b50611ba6929150611baa565b5090565b610aa091905b80821115611ba65760008155600101611bb05600a165627a7a72305820b3db51b9228d370d4d6184087a8c9cec8fa70271f2ae547222ade947661499bf0029",
  "source": "pragma solidity ^0.4.24;\n\nimport \"openzeppelin-solidity/contracts/token/ERC20/StandardToken.sol\";\n\ncontract BoxOfficeMovie is StandardToken {\n\n    uint8 public constant decimals = 0;\n    string public name;\n    string public symbol;\n    \n    address public boxOffice;\n    address public filmmaker;\n    address[] public audienceMembers;\n    \n    uint public createdTime;\n    uint public salesEndDate;\n    uint public availableTickets;\n    uint public price;\n    uint public sales;\n    uint public fund;\n    string public logline; \n    string public poster; \n    string public trailer;\n    \n    event FilmUpdated(\n        uint salesEndDate,\n        uint availableTickets,\n        uint price,\n        string movieName,\n        string ticketSymbol,\n        string logline,\n        string poster,\n        string trailer\n    );\n    \n    event TicketSpent(\n        address indexed holder\n    );\n    \n    modifier onlyBoxOffice {\n        require(msg.sender == boxOffice);\n        _;\n    }\n    \n    modifier onlyFilmmaker {\n        require(msg.sender == filmmaker);\n        _;\n    }\n    \n    modifier onlyTicketHolder {\n        require(balanceOf(msg.sender) > 0);\n        _;\n    }\n\n    constructor(\n        address _filmmaker,\n        uint _salesEndDate,\n        uint _availableTickets,\n        uint _price,\n        uint _ticketSupply, \n        string _movieName, \n        string _ticketSymbol,\n        string _logline,\n        string _poster,\n        string _trailer\n    ) \n        public \n    {\n        boxOffice = msg.sender;\n        filmmaker = _filmmaker;\n        \n        createdTime = now;\n        sales = 0;\n        fund = 0;\n        \n        salesEndDate = _salesEndDate;\n        availableTickets = _availableTickets;\n        price = _price;\n        totalSupply_ = _ticketSupply;\n        name = _movieName;\n        symbol = _ticketSymbol;\n        logline = _logline;\n        poster = _poster;\n        trailer = _trailer;\n        \n        balances[filmmaker] = totalSupply_;\n        allowed[filmmaker][boxOffice] = totalSupply_;\n    }\n    \n    function updateFilm(\n        uint _salesEndDate,\n        uint _availableTickets,\n        uint _price,\n        string _movieName,\n        string _ticketSymbol,\n        string _logline,\n        string _poster,\n        string _trailer\n    ) \n        public \n        onlyFilmmaker\n        returns (bool)\n    {\n        if (_salesEndDate > now) salesEndDate = _salesEndDate;\n        if (_availableTickets <= totalSupply_) availableTickets = _availableTickets;\n        if (_price > 0) price = _price;\n        if (bytes(_movieName).length > 0) name = _movieName;\n        if (bytes(_ticketSymbol).length > 0) symbol = _ticketSymbol;\n        if (bytes(_logline).length > 0) logline = _logline;\n        if (bytes(_poster).length > 0) poster = _poster;\n        if (bytes(_trailer).length > 0) trailer = _trailer;\n        \n        emit FilmUpdated(\n            salesEndDate,\n            availableTickets,\n            price,\n            name,\n            symbol,\n            logline,\n            poster,\n            trailer    \n        );\n        return true;\n    } \n    \n    function spendTicket() \n        public \n        onlyTicketHolder \n        returns (bool)\n    {\n        require(balances[msg.sender] >= 1);\n        balances[msg.sender] = balances[msg.sender].sub(1);\n        balances[boxOffice] = balances[boxOffice].add(1);\n        audienceMembers.push(msg.sender);\n\n        emit TicketSpent(msg.sender);\n        emit Transfer(msg.sender, boxOffice, 1);\n        return true;\n    }\n    \n    function buyTickets(address buyer, uint quantity) external onlyBoxOffice returns (bool) {\n        require(balances[filmmaker] >= quantity);\n        balances[filmmaker] = balances[filmmaker].sub(quantity);\n        balances[buyer] = balances[buyer].add(quantity);\n        \n        availableTickets = availableTickets.sub(quantity);\n        sales = sales.add(quantity.mul(price));\n        fund = fund.add(quantity.mul(price));\n        \n        emit Transfer(filmmaker, buyer, quantity);\n        return true;\n    }\n    \n    function withdrawFund(uint amount) external onlyBoxOffice returns (bool) {\n        require(fund >= amount);\n        fund = fund.sub(amount);\n        return true;\n    }\n    \n    function getFilmSummary() public view returns (\n        address _filmmaker,\n        uint _createdTime,\n        uint _salesEndDate,\n        uint _availableTickets,\n        uint _price,\n        string _movieName,\n        string _ticketSymbol,\n        string _logline,\n        string _poster,\n        string _trailer\n    ) {\n        _filmmaker = filmmaker;\n        _createdTime = createdTime;\n        _salesEndDate = salesEndDate;\n        _availableTickets = availableTickets;\n        _price = price;\n        _movieName = name;\n        _ticketSymbol = symbol;\n        _logline = logline;\n        _poster = poster;\n        _trailer = trailer;\n    }\n    \n    function getFilmStats() public view returns (uint, uint, uint, uint, uint) {\n        return (sales, fund, balanceOf(boxOffice), balanceOf(filmmaker), totalSupply_);\n    }\n    \n    function getAudienceMembers() public view returns (address[]) {\n        return audienceMembers;\n    }\n\n}",
  "sourcePath": "/Users/heartbank/Google Drive/ConsenSys/BoxOffice/contracts/BoxOfficeMovie.sol",
  "compiler": {
    "name": "solc",
    "version": "0.4.24+commit.e67f0147.Emscripten.clang"
  },
  "schemaVersion": "2.0.1",
  "updatedAt": "2018-08-26T23:49:21.289Z"
}