{
  "contractName": "BoxOfficeMovie",
  "abi": [
    {
      "constant": true,
      "inputs": [],
      "name": "boxOffice",
      "outputs": [
        {
          "name": "",
          "type": "address"
        }
      ],
      "payable": false,
      "stateMutability": "view",
      "type": "function"
    },
    {
      "constant": true,
      "inputs": [],
      "name": "name",
      "outputs": [
        {
          "name": "",
          "type": "string"
        }
      ],
      "payable": false,
      "stateMutability": "view",
      "type": "function"
    },
    {
      "constant": false,
      "inputs": [
        {
          "name": "_spender",
          "type": "address"
        },
        {
          "name": "_value",
          "type": "uint256"
        }
      ],
      "name": "approve",
      "outputs": [
        {
          "name": "",
          "type": "bool"
        }
      ],
      "payable": false,
      "stateMutability": "nonpayable",
      "type": "function"
    },
    {
      "constant": true,
      "inputs": [],
      "name": "totalSupply",
      "outputs": [
        {
          "name": "",
          "type": "uint256"
        }
      ],
      "payable": false,
      "stateMutability": "view",
      "type": "function"
    },
    {
      "constant": true,
      "inputs": [],
      "name": "filmmaker",
      "outputs": [
        {
          "name": "",
          "type": "address"
        }
      ],
      "payable": false,
      "stateMutability": "view",
      "type": "function"
    },
    {
      "constant": false,
      "inputs": [
        {
          "name": "_from",
          "type": "address"
        },
        {
          "name": "_to",
          "type": "address"
        },
        {
          "name": "_value",
          "type": "uint256"
        }
      ],
      "name": "transferFrom",
      "outputs": [
        {
          "name": "",
          "type": "bool"
        }
      ],
      "payable": false,
      "stateMutability": "nonpayable",
      "type": "function"
    },
    {
      "constant": true,
      "inputs": [],
      "name": "decimals",
      "outputs": [
        {
          "name": "",
          "type": "uint8"
        }
      ],
      "payable": false,
      "stateMutability": "view",
      "type": "function"
    },
    {
      "constant": true,
      "inputs": [],
      "name": "availableTickets",
      "outputs": [
        {
          "name": "",
          "type": "uint256"
        }
      ],
      "payable": false,
      "stateMutability": "view",
      "type": "function"
    },
    {
      "constant": true,
      "inputs": [],
      "name": "salesEndDate",
      "outputs": [
        {
          "name": "",
          "type": "uint256"
        }
      ],
      "payable": false,
      "stateMutability": "view",
      "type": "function"
    },
    {
      "constant": true,
      "inputs": [],
      "name": "logline",
      "outputs": [
        {
          "name": "",
          "type": "string"
        }
      ],
      "payable": false,
      "stateMutability": "view",
      "type": "function"
    },
    {
      "constant": true,
      "inputs": [
        {
          "name": "",
          "type": "uint256"
        }
      ],
      "name": "members",
      "outputs": [
        {
          "name": "",
          "type": "address"
        }
      ],
      "payable": false,
      "stateMutability": "view",
      "type": "function"
    },
    {
      "constant": false,
      "inputs": [
        {
          "name": "_spender",
          "type": "address"
        },
        {
          "name": "_subtractedValue",
          "type": "uint256"
        }
      ],
      "name": "decreaseApproval",
      "outputs": [
        {
          "name": "",
          "type": "bool"
        }
      ],
      "payable": false,
      "stateMutability": "nonpayable",
      "type": "function"
    },
    {
      "constant": true,
      "inputs": [
        {
          "name": "_owner",
          "type": "address"
        }
      ],
      "name": "balanceOf",
      "outputs": [
        {
          "name": "",
          "type": "uint256"
        }
      ],
      "payable": false,
      "stateMutability": "view",
      "type": "function"
    },
    {
      "constant": true,
      "inputs": [],
      "name": "poster",
      "outputs": [
        {
          "name": "",
          "type": "string"
        }
      ],
      "payable": false,
      "stateMutability": "view",
      "type": "function"
    },
    {
      "constant": true,
      "inputs": [
        {
          "name": "",
          "type": "address"
        }
      ],
      "name": "isAudienceMember",
      "outputs": [
        {
          "name": "",
          "type": "bool"
        }
      ],
      "payable": false,
      "stateMutability": "view",
      "type": "function"
    },
    {
      "constant": true,
      "inputs": [],
      "name": "symbol",
      "outputs": [
        {
          "name": "",
          "type": "string"
        }
      ],
      "payable": false,
      "stateMutability": "view",
      "type": "function"
    },
    {
      "constant": true,
      "inputs": [],
      "name": "price",
      "outputs": [
        {
          "name": "",
          "type": "uint256"
        }
      ],
      "payable": false,
      "stateMutability": "view",
      "type": "function"
    },
    {
      "constant": true,
      "inputs": [],
      "name": "trailer",
      "outputs": [
        {
          "name": "",
          "type": "string"
        }
      ],
      "payable": false,
      "stateMutability": "view",
      "type": "function"
    },
    {
      "constant": false,
      "inputs": [
        {
          "name": "_to",
          "type": "address"
        },
        {
          "name": "_value",
          "type": "uint256"
        }
      ],
      "name": "transfer",
      "outputs": [
        {
          "name": "",
          "type": "bool"
        }
      ],
      "payable": false,
      "stateMutability": "nonpayable",
      "type": "function"
    },
    {
      "constant": true,
      "inputs": [],
      "name": "sales",
      "outputs": [
        {
          "name": "",
          "type": "uint256"
        }
      ],
      "payable": false,
      "stateMutability": "view",
      "type": "function"
    },
    {
      "constant": true,
      "inputs": [],
      "name": "createdTime",
      "outputs": [
        {
          "name": "",
          "type": "uint256"
        }
      ],
      "payable": false,
      "stateMutability": "view",
      "type": "function"
    },
    {
      "constant": true,
      "inputs": [],
      "name": "fund",
      "outputs": [
        {
          "name": "",
          "type": "uint256"
        }
      ],
      "payable": false,
      "stateMutability": "view",
      "type": "function"
    },
    {
      "constant": false,
      "inputs": [
        {
          "name": "_spender",
          "type": "address"
        },
        {
          "name": "_addedValue",
          "type": "uint256"
        }
      ],
      "name": "increaseApproval",
      "outputs": [
        {
          "name": "",
          "type": "bool"
        }
      ],
      "payable": false,
      "stateMutability": "nonpayable",
      "type": "function"
    },
    {
      "constant": true,
      "inputs": [
        {
          "name": "_owner",
          "type": "address"
        },
        {
          "name": "_spender",
          "type": "address"
        }
      ],
      "name": "allowance",
      "outputs": [
        {
          "name": "",
          "type": "uint256"
        }
      ],
      "payable": false,
      "stateMutability": "view",
      "type": "function"
    },
    {
      "inputs": [
        {
          "name": "_filmmaker",
          "type": "address"
        },
        {
          "name": "_salesEndDate",
          "type": "uint256"
        },
        {
          "name": "_availableTickets",
          "type": "uint256"
        },
        {
          "name": "_price",
          "type": "uint256"
        },
        {
          "name": "_ticketSupply",
          "type": "uint256"
        },
        {
          "name": "_movieName",
          "type": "string"
        },
        {
          "name": "_ticketSymbol",
          "type": "string"
        },
        {
          "name": "_logline",
          "type": "string"
        },
        {
          "name": "_poster",
          "type": "string"
        },
        {
          "name": "_trailer",
          "type": "string"
        }
      ],
      "payable": false,
      "stateMutability": "nonpayable",
      "type": "constructor"
    },
    {
      "anonymous": false,
      "inputs": [
        {
          "indexed": false,
          "name": "salesEndDate",
          "type": "uint256"
        },
        {
          "indexed": false,
          "name": "availableTickets",
          "type": "uint256"
        },
        {
          "indexed": false,
          "name": "price",
          "type": "uint256"
        },
        {
          "indexed": false,
          "name": "movieName",
          "type": "string"
        },
        {
          "indexed": false,
          "name": "ticketSymbol",
          "type": "string"
        },
        {
          "indexed": false,
          "name": "logline",
          "type": "string"
        },
        {
          "indexed": false,
          "name": "poster",
          "type": "string"
        },
        {
          "indexed": false,
          "name": "trailer",
          "type": "string"
        }
      ],
      "name": "FilmUpdated",
      "type": "event"
    },
    {
      "anonymous": false,
      "inputs": [
        {
          "indexed": true,
          "name": "holder",
          "type": "address"
        }
      ],
      "name": "TicketSpent",
      "type": "event"
    },
    {
      "anonymous": false,
      "inputs": [
        {
          "indexed": true,
          "name": "owner",
          "type": "address"
        },
        {
          "indexed": true,
          "name": "spender",
          "type": "address"
        },
        {
          "indexed": false,
          "name": "value",
          "type": "uint256"
        }
      ],
      "name": "Approval",
      "type": "event"
    },
    {
      "anonymous": false,
      "inputs": [
        {
          "indexed": true,
          "name": "from",
          "type": "address"
        },
        {
          "indexed": true,
          "name": "to",
          "type": "address"
        },
        {
          "indexed": false,
          "name": "value",
          "type": "uint256"
        }
      ],
      "name": "Transfer",
      "type": "event"
    },
    {
      "constant": false,
      "inputs": [
        {
          "name": "_salesEndDate",
          "type": "uint256"
        },
        {
          "name": "_availableTickets",
          "type": "uint256"
        },
        {
          "name": "_price",
          "type": "uint256"
        },
        {
          "name": "_movieName",
          "type": "string"
        },
        {
          "name": "_ticketSymbol",
          "type": "string"
        },
        {
          "name": "_logline",
          "type": "string"
        },
        {
          "name": "_poster",
          "type": "string"
        },
        {
          "name": "_trailer",
          "type": "string"
        }
      ],
      "name": "updateFilm",
      "outputs": [
        {
          "name": "",
          "type": "bool"
        }
      ],
      "payable": false,
      "stateMutability": "nonpayable",
      "type": "function"
    },
    {
      "constant": false,
      "inputs": [],
      "name": "spendTicket",
      "outputs": [
        {
          "name": "",
          "type": "bool"
        }
      ],
      "payable": false,
      "stateMutability": "nonpayable",
      "type": "function"
    },
    {
      "constant": false,
      "inputs": [
        {
          "name": "buyer",
          "type": "address"
        },
        {
          "name": "quantity",
          "type": "uint256"
        }
      ],
      "name": "buyTickets",
      "outputs": [
        {
          "name": "",
          "type": "bool"
        }
      ],
      "payable": false,
      "stateMutability": "nonpayable",
      "type": "function"
    },
    {
      "constant": false,
      "inputs": [
        {
          "name": "amount",
          "type": "uint256"
        }
      ],
      "name": "withdrawFund",
      "outputs": [
        {
          "name": "",
          "type": "bool"
        }
      ],
      "payable": false,
      "stateMutability": "nonpayable",
      "type": "function"
    },
    {
      "constant": true,
      "inputs": [],
      "name": "getFilmSummary",
      "outputs": [
        {
          "name": "_filmmaker",
          "type": "address"
        },
        {
          "name": "_salesEndDate",
          "type": "uint256"
        },
        {
          "name": "_availableTickets",
          "type": "uint256"
        },
        {
          "name": "_price",
          "type": "uint256"
        },
        {
          "name": "_ticketSupply",
          "type": "uint256"
        },
        {
          "name": "_movieName",
          "type": "string"
        },
        {
          "name": "_ticketSymbol",
          "type": "string"
        },
        {
          "name": "_logline",
          "type": "string"
        },
        {
          "name": "_poster",
          "type": "string"
        },
        {
          "name": "_trailer",
          "type": "string"
        }
      ],
      "payable": false,
      "stateMutability": "view",
      "type": "function"
    },
    {
      "constant": true,
      "inputs": [],
      "name": "getFilmStats",
      "outputs": [
        {
          "name": "_sales",
          "type": "uint256"
        },
        {
          "name": "_fund",
          "type": "uint256"
        },
        {
          "name": "_ticketsSold",
          "type": "uint256"
        },
        {
          "name": "_availableSupply",
          "type": "uint256"
        }
      ],
      "payable": false,
      "stateMutability": "view",
      "type": "function"
    },
    {
      "constant": true,
      "inputs": [],
      "name": "getAudienceMembers",
      "outputs": [
        {
          "name": "",
          "type": "address[]"
        }
      ],
      "payable": false,
      "stateMutability": "view",
      "type": "function"
    }
  ],
  "bytecode": "0x60806040523480156200001157600080fd5b5060405162001e6138038062001e618339810160409081528151602080840151928401516060850151608086015160a087015160c088015160e08901516101008a01516101208b01516005805433600160a060020a03199182161790915560068054909116600160a060020a038c16179055426007556000600b819055600c5560088b90556009889055600a8790556001869055938b018051999b9799969895979096938101959281019491810193910191620000d4916003918801906200017d565b508351620000ea9060049060208701906200017d565b5082516200010090600d9060208601906200017d565b5081516200011690600e9060208501906200017d565b5080516200012c90600f9060208401906200017d565b505060015460068054600160a060020a039081166000908152602081815260408083208690559354831682526002815283822060055490931682529190915220555062000222975050505050505050565b828054600181600116156101000203166002900490600052602060002090601f016020900481019282601f10620001c057805160ff1916838001178555620001f0565b82800160010185558215620001f0579182015b82811115620001f0578251825591602001919060010190620001d3565b50620001fe92915062000202565b5090565b6200021f91905b80821115620001fe576000815560010162000209565b90565b611c2f80620002326000396000f30060806040526004361061018a5763ffffffff7c01000000000000000000000000000000000000000000000000000000006000350416630641def2811461018f57806306fdde03146101c0578063095ea7b31461024a5780630cee17251461028257806318160ddd1461029a5780631d9d844e146102c157806323b872dd146102d6578063313ce567146103005780633840ab441461032b5780633c1db66a146103665780633cfa7e01146104c1578063452d455f146104d65780635d91922d146104eb5780635daf08ca14610500578063661884631461051857806370a082311461053c578063809597211461055d578063839dfa1f1461057257806388f5776714610587578063919d3051146105ab57806395d89b41146105cc578063a035b1fe146105e1578063a41c35f0146105f6578063a9059cbb1461060b578063aace52fe1461062f578063b2f4bdb014610644578063b60d428814610659578063d73dd6231461066e578063dd62ed3e14610692578063ee7d8370146106b9578063f63125cb14610913575b600080fd5b34801561019b57600080fd5b506101a4610978565b60408051600160a060020a039092168252519081900360200190f35b3480156101cc57600080fd5b506101d5610987565b6040805160208082528351818301528351919283929083019185019080838360005b8381101561020f5781810151838201526020016101f7565b50505050905090810190601f16801561023c5780820380516001836020036101000a031916815260200191505b509250505060405180910390f35b34801561025657600080fd5b5061026e600160a060020a0360043516602435610a15565b604080519115158252519081900360200190f35b34801561028e57600080fd5b5061026e600435610a7c565b3480156102a657600080fd5b506102af610ac3565b60408051918252519081900360200190f35b3480156102cd57600080fd5b506101a4610aca565b3480156102e257600080fd5b5061026e600160a060020a0360043581169060243516604435610ad9565b34801561030c57600080fd5b50610315610c4e565b6040805160ff9092168252519081900360200190f35b34801561033757600080fd5b50610340610c53565b604080519485526020850193909352838301919091526060830152519081900360800190f35b34801561037257600080fd5b50604080516020601f60643560048181013592830184900484028501840190955281845261026e948035946024803595604435953695608494930191819084018382808284375050604080516020601f89358b018035918201839004830284018301909452808352979a99988101979196509182019450925082915084018382808284375050604080516020601f89358b018035918201839004830284018301909452808352979a99988101979196509182019450925082915084018382808284375050604080516020601f89358b018035918201839004830284018301909452808352979a99988101979196509182019450925082915084018382808284375050604080516020601f89358b018035918201839004830284018301909452808352979a999881019791965091820194509250829150840183828082843750949750610c939650505050505050565b3480156104cd57600080fd5b506102af61104b565b3480156104e257600080fd5b506102af611051565b3480156104f757600080fd5b506101d5611057565b34801561050c57600080fd5b506101a46004356110b2565b34801561052457600080fd5b5061026e600160a060020a03600435166024356110da565b34801561054857600080fd5b506102af600160a060020a03600435166111c9565b34801561056957600080fd5b506101d56111e4565b34801561057e57600080fd5b5061026e61123f565b34801561059357600080fd5b5061026e600160a060020a03600435166024356113bd565b3480156105b757600080fd5b5061026e600160a060020a0360043516611532565b3480156105d857600080fd5b506101d5611547565b3480156105ed57600080fd5b506102af6115a2565b34801561060257600080fd5b506101d56115a8565b34801561061757600080fd5b5061026e600160a060020a0360043516602435611603565b34801561063b57600080fd5b506102af6116e2565b34801561065057600080fd5b506102af6116e8565b34801561066557600080fd5b506102af6116ee565b34801561067a57600080fd5b5061026e600160a060020a03600435166024356116f4565b34801561069e57600080fd5b506102af600160a060020a036004358116906024351661178d565b3480156106c557600080fd5b506106ce6117b8565b604051808b600160a060020a0316600160a060020a031681526020018a8152602001898152602001888152602001878152602001806020018060200180602001806020018060200186810386528b818151815260200191508051906020019080838360005b8381101561074b578181015183820152602001610733565b50505050905090810190601f1680156107785780820380516001836020036101000a031916815260200191505b5086810385528a5181528a516020918201918c019080838360005b838110156107ab578181015183820152602001610793565b50505050905090810190601f1680156107d85780820380516001836020036101000a031916815260200191505b5086810384528951815289516020918201918b019080838360005b8381101561080b5781810151838201526020016107f3565b50505050905090810190601f1680156108385780820380516001836020036101000a031916815260200191505b5086810383528851815288516020918201918a019080838360005b8381101561086b578181015183820152602001610853565b50505050905090810190601f1680156108985780820380516001836020036101000a031916815260200191505b50868103825287518152875160209182019189019080838360005b838110156108cb5781810151838201526020016108b3565b50505050905090810190601f1680156108f85780820380516001836020036101000a031916815260200191505b509f5050505050505050505050505050505060405180910390f35b34801561091f57600080fd5b50610928611ac1565b60408051602080825283518183015283519192839290830191858101910280838360005b8381101561096457818101518382015260200161094c565b505050509050019250505060405180910390f35b600554600160a060020a031681565b6003805460408051602060026001851615610100026000190190941693909304601f81018490048402820184019092528181529291830182828015610a0d5780601f106109e257610100808354040283529160200191610a0d565b820191906000526020600020905b8154815290600101906020018083116109f057829003601f168201915b505050505081565b336000818152600260209081526040808320600160a060020a038716808552908352818420869055815186815291519394909390927f8c5be1e5ebec7d5bd14f71427d1e84f3dd0314c0f7b2291e5b200ac8c7c3b925928290030190a35060015b92915050565b600554600090600160a060020a03163314610a9657600080fd5b600c54821115610aa557600080fd5b600c54610ab8908363ffffffff611b2316565b600c55506001919050565b6001545b90565b600654600160a060020a031681565b600160a060020a038316600090815260208190526040812054821115610afe57600080fd5b600160a060020a0384166000908152600260209081526040808320338452909152902054821115610b2e57600080fd5b600160a060020a0383161515610b4357600080fd5b600160a060020a038416600090815260208190526040902054610b6c908363ffffffff611b2316565b600160a060020a038086166000908152602081905260408082209390935590851681522054610ba1908363ffffffff611b3516565b600160a060020a03808516600090815260208181526040808320949094559187168152600282528281203382529091522054610be3908363ffffffff611b2316565b600160a060020a03808616600081815260026020908152604080832033845282529182902094909455805186815290519287169391927fddf252ad1be2c89b69c2b068fc378daa952ba7f163c4a11628f55a4df523b3ef929181900390910190a35060019392505050565b600081565b600b54600c546005546000908190610c7390600160a060020a03166111c9565b600654909250610c8b90600160a060020a03166111c9565b905090919293565b600654600090600160a060020a03163314610cad57600080fd5b42891115610cbb5760088990555b6001548811610cca5760098890555b6000871115610cd957600a8790555b600086511115610cf8578551610cf6906003906020890190611b6b565b505b600085511115610d17578451610d15906004906020880190611b6b565b505b600084511115610d36578351610d3490600d906020870190611b6b565b505b600083511115610d55578251610d5390600e906020860190611b6b565b505b600082511115610d74578151610d7290600f906020850190611b6b565b505b7f8cb3135083431f1ab0230b1a8e86f6ae45c0113bc0de105a4b738be9f5be4b4b600854600954600a5460036004600d600e600f60405180898152602001888152602001878152602001806020018060200180602001806020018060200186810386528b818154600181600116156101000203166002900481526020019150805460018160011615610100020316600290048015610e535780601f10610e2857610100808354040283529160200191610e53565b820191906000526020600020905b815481529060010190602001808311610e3657829003601f168201915b505086810385528a54600260001961010060018416150201909116048082526020909101908b908015610ec75780601f10610e9c57610100808354040283529160200191610ec7565b820191906000526020600020905b815481529060010190602001808311610eaa57829003601f168201915b505086810384528954600260001961010060018416150201909116048082526020909101908a908015610f3b5780601f10610f1057610100808354040283529160200191610f3b565b820191906000526020600020905b815481529060010190602001808311610f1e57829003601f168201915b5050868103835288546002600019610100600184161502019091160480825260209091019089908015610faf5780601f10610f8457610100808354040283529160200191610faf565b820191906000526020600020905b815481529060010190602001808311610f9257829003601f168201915b50508681038252875460026000196101006001841615020190911604808252602090910190889080156110235780601f10610ff857610100808354040283529160200191611023565b820191906000526020600020905b81548152906001019060200180831161100657829003601f168201915b50509d505050505050505050505050505060405180910390a150600198975050505050505050565b60095481565b60085481565b600d805460408051602060026001851615610100026000190190941693909304601f81018490048402820184019092528181529291830182828015610a0d5780601f106109e257610100808354040283529160200191610a0d565b60118054829081106110c057fe5b600091825260209091200154600160a060020a0316905081565b336000908152600260209081526040808320600160a060020a038616845290915281205480831061112e57336000908152600260209081526040808320600160a060020a0388168452909152812055611163565b61113e818463ffffffff611b2316565b336000908152600260209081526040808320600160a060020a03891684529091529020555b336000818152600260209081526040808320600160a060020a0389168085529083529281902054815190815290519293927f8c5be1e5ebec7d5bd14f71427d1e84f3dd0314c0f7b2291e5b200ac8c7c3b925929181900390910190a35060019392505050565b600160a060020a031660009081526020819052604090205490565b600e805460408051602060026001851615610100026000190190941693909304601f81018490048402820184019092528181529291830182828015610a0d5780601f106109e257610100808354040283529160200191610a0d565b60008061124b336111c9565b1161125557600080fd5b336000908152602081905260409020546001111561127257600080fd5b3360009081526020819052604090205461129390600163ffffffff611b2316565b3360009081526020819052604080822092909255600554600160a060020a0316815220546112c890600163ffffffff611b3516565b600554600160a060020a0316600090815260208181526040808320939093556011805460018181019092557f31ecc21a745e3968a04e9570e4425bc18fa8019c68028196b546d1669c200c6801805473ffffffffffffffffffffffffffffffffffffffff1916339081179091558084526010909252838320805460ff1916909117905591517f66f39243fdcc85d7a3250a7546d65477294fa6d541ec404ec0300b0b99eb10de9190a260055460408051600181529051600160a060020a039092169133917fddf252ad1be2c89b69c2b068fc378daa952ba7f163c4a11628f55a4df523b3ef919081900360200190a350600190565b600554600090600160a060020a031633146113d757600080fd5b600654600160a060020a03166000908152602081905260409020548211156113fe57600080fd5b600654600160a060020a0316600090815260208190526040902054611429908363ffffffff611b2316565b600654600160a060020a039081166000908152602081905260408082209390935590851681522054611461908363ffffffff611b3516565b600160a060020a03841660009081526020819052604090205560095461148d908363ffffffff611b2316565b600955600a546114b7906114a890849063ffffffff611b4216565b600b549063ffffffff611b3516565b600b55600a546114e1906114d290849063ffffffff611b4216565b600c549063ffffffff611b3516565b600c55600654604080518481529051600160a060020a038087169316917fddf252ad1be2c89b69c2b068fc378daa952ba7f163c4a11628f55a4df523b3ef919081900360200190a350600192915050565b60106020526000908152604090205460ff1681565b6004805460408051602060026001851615610100026000190190941693909304601f81018490048402820184019092528181529291830182828015610a0d5780601f106109e257610100808354040283529160200191610a0d565b600a5481565b600f805460408051602060026001851615610100026000190190941693909304601f81018490048402820184019092528181529291830182828015610a0d5780601f106109e257610100808354040283529160200191610a0d565b3360009081526020819052604081205482111561161f57600080fd5b600160a060020a038316151561163457600080fd5b33600090815260208190526040902054611654908363ffffffff611b2316565b3360009081526020819052604080822092909255600160a060020a03851681522054611686908363ffffffff611b3516565b600160a060020a038416600081815260208181526040918290209390935580518581529051919233927fddf252ad1be2c89b69c2b068fc378daa952ba7f163c4a11628f55a4df523b3ef9281900390910190a350600192915050565b600b5481565b60075481565b600c5481565b336000908152600260209081526040808320600160a060020a0386168452909152812054611728908363ffffffff611b3516565b336000818152600260209081526040808320600160a060020a0389168085529083529281902085905580519485525191937f8c5be1e5ebec7d5bd14f71427d1e84f3dd0314c0f7b2291e5b200ac8c7c3b925929081900390910190a350600192915050565b600160a060020a03918216600090815260026020908152604080832093909416825291909152205490565b600654600854600954600a546001805460038054604080516020600261010097851615979097026000190190931695909504601f8101839004830286018301909152808552600160a060020a03909816979293606093849384938493849390929183018282801561186a5780601f1061183f5761010080835404028352916020019161186a565b820191906000526020600020905b81548152906001019060200180831161184d57829003601f168201915b505060048054604080516020601f60026000196101006001881615020190951694909404938401819004810282018101909252828152969b50919450925084019050828280156118fb5780601f106118d0576101008083540402835291602001916118fb565b820191906000526020600020905b8154815290600101906020018083116118de57829003601f168201915b5050600d8054604080516020601f60026000196101006001881615020190951694909404938401819004810282018101909252828152969a509194509250840190508282801561198c5780601f106119615761010080835404028352916020019161198c565b820191906000526020600020905b81548152906001019060200180831161196f57829003601f168201915b5050600e8054604080516020601f6002600019610100600188161502019095169490940493840181900481028201810190925282815296995091945092508401905082828015611a1d5780601f106119f257610100808354040283529160200191611a1d565b820191906000526020600020905b815481529060010190602001808311611a0057829003601f168201915b5050600f8054604080516020601f6002600019610100600188161502019095169490940493840181900481028201810190925282815296985091945092508401905082828015611aae5780601f10611a8357610100808354040283529160200191611aae565b820191906000526020600020905b815481529060010190602001808311611a9157829003601f168201915b5050505050905090919293949596979899565b60606011805480602002602001604051908101604052809291908181526020018280548015611b1957602002820191906000526020600020905b8154600160a060020a03168152600190910190602001808311611afb575b5050505050905090565b600082821115611b2f57fe5b50900390565b81810182811015610a7657fe5b6000821515611b5357506000610a76565b50818102818382811515611b6357fe5b0414610a7657fe5b828054600181600116156101000203166002900490600052602060002090601f016020900481019282601f10611bac57805160ff1916838001178555611bd9565b82800160010185558215611bd9579182015b82811115611bd9578251825591602001919060010190611bbe565b50611be5929150611be9565b5090565b610ac791905b80821115611be55760008155600101611bef5600a165627a7a723058200b93379fc326fbba3d6044fd9efb66971587f48193d10ebd4db972ef1a9560be0029",
  "source": "pragma solidity ^0.4.24;\n\nimport \"openzeppelin-solidity/contracts/token/ERC20/StandardToken.sol\";\n\ncontract BoxOfficeMovie is StandardToken {\n\n    uint8 public constant decimals = 0;\n    string public name;\n    string public symbol;\n    \n    address public boxOffice;\n    address public filmmaker;\n    \n    uint public createdTime;\n    uint public salesEndDate;\n    uint public availableTickets;\n    uint public price;\n    uint public sales;\n    uint public fund;\n    string public logline; \n    string public poster; \n    string public trailer;\n\n    mapping (address => bool) public isAudienceMember;\n    address[] public members;\n    \n    event FilmUpdated(\n        uint salesEndDate,\n        uint availableTickets,\n        uint price,\n        string movieName,\n        string ticketSymbol,\n        string logline,\n        string poster,\n        string trailer\n    );\n    \n    event TicketSpent(\n        address indexed holder\n    );\n    \n    modifier onlyBoxOffice {\n        require(msg.sender == boxOffice);\n        _;\n    }\n    \n    modifier onlyFilmmaker {\n        require(msg.sender == filmmaker);\n        _;\n    }\n    \n    modifier onlyTicketHolder {\n        require(balanceOf(msg.sender) > 0);\n        _;\n    }\n\n    constructor(\n        address _filmmaker,\n        uint _salesEndDate,\n        uint _availableTickets,\n        uint _price,\n        uint _ticketSupply, \n        string _movieName, \n        string _ticketSymbol,\n        string _logline,\n        string _poster,\n        string _trailer\n    ) \n        public \n    {\n        boxOffice = msg.sender;\n        filmmaker = _filmmaker;\n        \n        createdTime = now;\n        sales = 0;\n        fund = 0;\n        \n        salesEndDate = _salesEndDate;\n        availableTickets = _availableTickets;\n        price = _price;\n        totalSupply_ = _ticketSupply;\n        name = _movieName;\n        symbol = _ticketSymbol;\n        logline = _logline;\n        poster = _poster;\n        trailer = _trailer;\n        \n        balances[filmmaker] = totalSupply_;\n        allowed[filmmaker][boxOffice] = totalSupply_;\n    }\n    \n    function updateFilm(\n        uint _salesEndDate,\n        uint _availableTickets,\n        uint _price,\n        string _movieName,\n        string _ticketSymbol,\n        string _logline,\n        string _poster,\n        string _trailer\n    ) \n        public \n        onlyFilmmaker\n        returns (bool)\n    {\n        if (_salesEndDate > now) salesEndDate = _salesEndDate;\n        if (_availableTickets <= totalSupply_) availableTickets = _availableTickets;\n        if (_price > 0) price = _price;\n        if (bytes(_movieName).length > 0) name = _movieName;\n        if (bytes(_ticketSymbol).length > 0) symbol = _ticketSymbol;\n        if (bytes(_logline).length > 0) logline = _logline;\n        if (bytes(_poster).length > 0) poster = _poster;\n        if (bytes(_trailer).length > 0) trailer = _trailer;\n        \n        emit FilmUpdated(\n            salesEndDate,\n            availableTickets,\n            price,\n            name,\n            symbol,\n            logline,\n            poster,\n            trailer    \n        );\n        return true;\n    } \n    \n    function spendTicket() \n        public \n        onlyTicketHolder \n        returns (bool)\n    {\n        require(balances[msg.sender] >= 1);\n        balances[msg.sender] = balances[msg.sender].sub(1);\n        balances[boxOffice] = balances[boxOffice].add(1);\n        \n        members.push(msg.sender);\n        isAudienceMember[msg.sender] = true;\n        \n        emit TicketSpent(msg.sender);\n        emit Transfer(msg.sender, boxOffice, 1);\n        return true;\n    }\n    \n    function buyTickets(address buyer, uint quantity) external onlyBoxOffice returns (bool) {\n        require(balances[filmmaker] >= quantity);\n        balances[filmmaker] = balances[filmmaker].sub(quantity);\n        balances[buyer] = balances[buyer].add(quantity);\n        \n        availableTickets = availableTickets.sub(quantity);\n        sales = sales.add(quantity.mul(price));\n        fund = fund.add(quantity.mul(price));\n        \n        emit Transfer(filmmaker, buyer, quantity);\n        return true;\n    }\n    \n    function withdrawFund(uint amount) external onlyBoxOffice returns (bool) {\n        require(fund >= amount);\n        fund = fund.sub(amount);\n        return true;\n    }\n    \n    function getFilmSummary() public view returns (\n        address _filmmaker,\n        uint _salesEndDate,\n        uint _availableTickets,\n        uint _price,\n        uint _ticketSupply,\n        string _movieName,\n        string _ticketSymbol,\n        string _logline,\n        string _poster,\n        string _trailer\n    ) {\n        _filmmaker = filmmaker;\n        _salesEndDate = salesEndDate;\n        _availableTickets = availableTickets;\n        _price = price;\n        _ticketSupply = totalSupply_;\n        _movieName = name;\n        _ticketSymbol = symbol;\n        _logline = logline;\n        _poster = poster;\n        _trailer = trailer;\n    }\n    \n    function getFilmStats() public view returns (\n        uint _sales,\n        uint _fund,\n        uint _ticketsSold,\n        uint _availableSupply\n    ) {\n        _sales = sales;\n        _fund = fund;\n        _ticketsSold = balanceOf(boxOffice);\n        _availableSupply = balanceOf(filmmaker);\n    }\n    \n    function getAudienceMembers() public view returns (address[]) {\n        return members;\n    }\n\n}",
  "sourcePath": "/Users/heartbank/Google Drive/ConsenSys/BoxOffice/contracts/BoxOfficeMovie.sol",
  "compiler": {
    "name": "solc",
    "version": "0.4.24+commit.e67f0147.Emscripten.clang"
  },
  "schemaVersion": "2.0.1",
  "updatedAt": "2018-08-25T18:17:22.575Z"
}