{
  "contractName": "BoxOfficeMovie",
  "abi": [
    {
      "constant": true,
      "inputs": [],
      "name": "boxOffice",
      "outputs": [
        {
          "name": "",
          "type": "address"
        }
      ],
      "payable": false,
      "stateMutability": "view",
      "type": "function"
    },
    {
      "constant": true,
      "inputs": [],
      "name": "salesEndTime",
      "outputs": [
        {
          "name": "",
          "type": "uint256"
        }
      ],
      "payable": false,
      "stateMutability": "view",
      "type": "function"
    },
    {
      "constant": true,
      "inputs": [],
      "name": "name",
      "outputs": [
        {
          "name": "",
          "type": "string"
        }
      ],
      "payable": false,
      "stateMutability": "view",
      "type": "function"
    },
    {
      "constant": false,
      "inputs": [
        {
          "name": "_spender",
          "type": "address"
        },
        {
          "name": "_value",
          "type": "uint256"
        }
      ],
      "name": "approve",
      "outputs": [
        {
          "name": "",
          "type": "bool"
        }
      ],
      "payable": false,
      "stateMutability": "nonpayable",
      "type": "function"
    },
    {
      "constant": true,
      "inputs": [
        {
          "name": "",
          "type": "address"
        }
      ],
      "name": "audience",
      "outputs": [
        {
          "name": "",
          "type": "bool"
        }
      ],
      "payable": false,
      "stateMutability": "view",
      "type": "function"
    },
    {
      "constant": true,
      "inputs": [],
      "name": "totalSupply",
      "outputs": [
        {
          "name": "",
          "type": "uint256"
        }
      ],
      "payable": false,
      "stateMutability": "view",
      "type": "function"
    },
    {
      "constant": true,
      "inputs": [],
      "name": "filmmaker",
      "outputs": [
        {
          "name": "",
          "type": "address"
        }
      ],
      "payable": false,
      "stateMutability": "view",
      "type": "function"
    },
    {
      "constant": false,
      "inputs": [
        {
          "name": "_from",
          "type": "address"
        },
        {
          "name": "_to",
          "type": "address"
        },
        {
          "name": "_value",
          "type": "uint256"
        }
      ],
      "name": "transferFrom",
      "outputs": [
        {
          "name": "",
          "type": "bool"
        }
      ],
      "payable": false,
      "stateMutability": "nonpayable",
      "type": "function"
    },
    {
      "constant": true,
      "inputs": [],
      "name": "decimals",
      "outputs": [
        {
          "name": "",
          "type": "uint8"
        }
      ],
      "payable": false,
      "stateMutability": "view",
      "type": "function"
    },
    {
      "constant": true,
      "inputs": [],
      "name": "logline",
      "outputs": [
        {
          "name": "",
          "type": "string"
        }
      ],
      "payable": false,
      "stateMutability": "view",
      "type": "function"
    },
    {
      "constant": false,
      "inputs": [
        {
          "name": "_spender",
          "type": "address"
        },
        {
          "name": "_subtractedValue",
          "type": "uint256"
        }
      ],
      "name": "decreaseApproval",
      "outputs": [
        {
          "name": "",
          "type": "bool"
        }
      ],
      "payable": false,
      "stateMutability": "nonpayable",
      "type": "function"
    },
    {
      "constant": true,
      "inputs": [
        {
          "name": "_owner",
          "type": "address"
        }
      ],
      "name": "balanceOf",
      "outputs": [
        {
          "name": "",
          "type": "uint256"
        }
      ],
      "payable": false,
      "stateMutability": "view",
      "type": "function"
    },
    {
      "constant": true,
      "inputs": [],
      "name": "poster",
      "outputs": [
        {
          "name": "",
          "type": "string"
        }
      ],
      "payable": false,
      "stateMutability": "view",
      "type": "function"
    },
    {
      "constant": true,
      "inputs": [],
      "name": "symbol",
      "outputs": [
        {
          "name": "",
          "type": "string"
        }
      ],
      "payable": false,
      "stateMutability": "view",
      "type": "function"
    },
    {
      "constant": true,
      "inputs": [],
      "name": "price",
      "outputs": [
        {
          "name": "",
          "type": "uint256"
        }
      ],
      "payable": false,
      "stateMutability": "view",
      "type": "function"
    },
    {
      "constant": true,
      "inputs": [],
      "name": "trailer",
      "outputs": [
        {
          "name": "",
          "type": "string"
        }
      ],
      "payable": false,
      "stateMutability": "view",
      "type": "function"
    },
    {
      "constant": false,
      "inputs": [
        {
          "name": "_to",
          "type": "address"
        },
        {
          "name": "_value",
          "type": "uint256"
        }
      ],
      "name": "transfer",
      "outputs": [
        {
          "name": "",
          "type": "bool"
        }
      ],
      "payable": false,
      "stateMutability": "nonpayable",
      "type": "function"
    },
    {
      "constant": true,
      "inputs": [],
      "name": "sales",
      "outputs": [
        {
          "name": "",
          "type": "uint256"
        }
      ],
      "payable": false,
      "stateMutability": "view",
      "type": "function"
    },
    {
      "constant": true,
      "inputs": [],
      "name": "createdTime",
      "outputs": [
        {
          "name": "",
          "type": "uint256"
        }
      ],
      "payable": false,
      "stateMutability": "view",
      "type": "function"
    },
    {
      "constant": true,
      "inputs": [],
      "name": "fund",
      "outputs": [
        {
          "name": "",
          "type": "uint256"
        }
      ],
      "payable": false,
      "stateMutability": "view",
      "type": "function"
    },
    {
      "constant": false,
      "inputs": [
        {
          "name": "_spender",
          "type": "address"
        },
        {
          "name": "_addedValue",
          "type": "uint256"
        }
      ],
      "name": "increaseApproval",
      "outputs": [
        {
          "name": "",
          "type": "bool"
        }
      ],
      "payable": false,
      "stateMutability": "nonpayable",
      "type": "function"
    },
    {
      "constant": true,
      "inputs": [
        {
          "name": "_owner",
          "type": "address"
        },
        {
          "name": "_spender",
          "type": "address"
        }
      ],
      "name": "allowance",
      "outputs": [
        {
          "name": "",
          "type": "uint256"
        }
      ],
      "payable": false,
      "stateMutability": "view",
      "type": "function"
    },
    {
      "inputs": [
        {
          "name": "_filmmaker",
          "type": "address"
        },
        {
          "name": "_salesEndTime",
          "type": "uint256"
        },
        {
          "name": "_price",
          "type": "uint256"
        },
        {
          "name": "_ticketSupply",
          "type": "uint256"
        },
        {
          "name": "_movieName",
          "type": "string"
        },
        {
          "name": "_ticketSymbol",
          "type": "string"
        },
        {
          "name": "_logline",
          "type": "string"
        },
        {
          "name": "_poster",
          "type": "string"
        },
        {
          "name": "_trailer",
          "type": "string"
        }
      ],
      "payable": false,
      "stateMutability": "nonpayable",
      "type": "constructor"
    },
    {
      "anonymous": false,
      "inputs": [
        {
          "indexed": false,
          "name": "salesEndTime",
          "type": "uint256"
        },
        {
          "indexed": false,
          "name": "price",
          "type": "uint256"
        },
        {
          "indexed": false,
          "name": "movieName",
          "type": "string"
        },
        {
          "indexed": false,
          "name": "ticketSymbol",
          "type": "string"
        },
        {
          "indexed": false,
          "name": "logline",
          "type": "string"
        },
        {
          "indexed": false,
          "name": "poster",
          "type": "string"
        },
        {
          "indexed": false,
          "name": "trailer",
          "type": "string"
        }
      ],
      "name": "FilmUpdated",
      "type": "event"
    },
    {
      "anonymous": false,
      "inputs": [
        {
          "indexed": true,
          "name": "holder",
          "type": "address"
        }
      ],
      "name": "TicketSpent",
      "type": "event"
    },
    {
      "anonymous": false,
      "inputs": [
        {
          "indexed": true,
          "name": "owner",
          "type": "address"
        },
        {
          "indexed": true,
          "name": "spender",
          "type": "address"
        },
        {
          "indexed": false,
          "name": "value",
          "type": "uint256"
        }
      ],
      "name": "Approval",
      "type": "event"
    },
    {
      "anonymous": false,
      "inputs": [
        {
          "indexed": true,
          "name": "from",
          "type": "address"
        },
        {
          "indexed": true,
          "name": "to",
          "type": "address"
        },
        {
          "indexed": false,
          "name": "value",
          "type": "uint256"
        }
      ],
      "name": "Transfer",
      "type": "event"
    },
    {
      "constant": false,
      "inputs": [
        {
          "name": "buyer",
          "type": "address"
        },
        {
          "name": "quantity",
          "type": "uint256"
        }
      ],
      "name": "buyTickets",
      "outputs": [
        {
          "name": "",
          "type": "bool"
        }
      ],
      "payable": false,
      "stateMutability": "nonpayable",
      "type": "function"
    },
    {
      "constant": false,
      "inputs": [
        {
          "name": "amount",
          "type": "uint256"
        }
      ],
      "name": "withdrawFund",
      "outputs": [
        {
          "name": "",
          "type": "bool"
        }
      ],
      "payable": false,
      "stateMutability": "nonpayable",
      "type": "function"
    },
    {
      "constant": false,
      "inputs": [
        {
          "name": "_salesEndTime",
          "type": "uint256"
        },
        {
          "name": "_price",
          "type": "uint256"
        },
        {
          "name": "_movieName",
          "type": "string"
        },
        {
          "name": "_ticketSymbol",
          "type": "string"
        },
        {
          "name": "_logline",
          "type": "string"
        },
        {
          "name": "_poster",
          "type": "string"
        },
        {
          "name": "_trailer",
          "type": "string"
        }
      ],
      "name": "updateFilm",
      "outputs": [
        {
          "name": "",
          "type": "bool"
        }
      ],
      "payable": false,
      "stateMutability": "nonpayable",
      "type": "function"
    },
    {
      "constant": false,
      "inputs": [],
      "name": "spendTicket",
      "outputs": [
        {
          "name": "",
          "type": "bool"
        }
      ],
      "payable": false,
      "stateMutability": "nonpayable",
      "type": "function"
    },
    {
      "constant": true,
      "inputs": [
        {
          "name": "",
          "type": "uint256"
        }
      ],
      "name": "members",
      "outputs": [
        {
          "name": "",
          "type": "address"
        }
      ],
      "payable": false,
      "stateMutability": "view",
      "type": "function"
    },
    {
      "constant": true,
      "inputs": [],
      "name": "members",
      "outputs": [
        {
          "name": "",
          "type": "address[]"
        }
      ],
      "payable": false,
      "stateMutability": "view",
      "type": "function"
    },
    {
      "constant": true,
      "inputs": [
        {
          "name": "member",
          "type": "address"
        }
      ],
      "name": "isAudienceMember",
      "outputs": [
        {
          "name": "",
          "type": "bool"
        }
      ],
      "payable": false,
      "stateMutability": "view",
      "type": "function"
    }
  ],
  "bytecode": "0x60806040523480156200001157600080fd5b5060405162001853380380620018538339810160409081528151602080840151928401516060850151608086015160a087015160c088015160e08901516101008a01516005805433600160a060020a03199182161790915560068054909116600160a060020a038b16179055426007556000600a819055600b5560088a905560098790556001869055938a018051989a9698959790969384019592840194918401939190910191620000ca916003919088019062000172565b508351620000e090600490602087019062000172565b508251620000f690600c90602086019062000172565b5081516200010c90600d90602085019062000172565b5080516200012290600e90602084019062000172565b505060015460068054600160a060020a0390811660009081526020818152604080832086905593548316825260028152838220600554909316825291909152205550620002179650505050505050565b828054600181600116156101000203166002900490600052602060002090601f016020900481019282601f10620001b557805160ff1916838001178555620001e5565b82800160010185558215620001e5579182015b82811115620001e5578251825591602001919060010190620001c8565b50620001f3929150620001f7565b5090565b6200021491905b80821115620001f35760008155600101620001fe565b90565b61162c80620002276000396000f3006080604052600436106101745763ffffffff7c01000000000000000000000000000000000000000000000000000000006000350416630641def28114610179578063069a0523146101aa57806306fdde03146101d1578063095ea7b31461025b5780630cee172514610293578063161bee47146102ab57806318160ddd146102cc5780631d9d844e146102e157806323b872dd146102f6578063313ce567146103205780633222c0a41461034b5780635d91922d146104a35780635daf08ca146104b857806366188463146104d057806370a08231146104f45780638095972114610515578063839dfa1f1461052a57806388f577671461053f578063919d30511461056357806395d89b4114610584578063a035b1fe14610599578063a41c35f0146105ae578063a9059cbb146105c3578063aace52fe146105e7578063b2f4bdb0146105fc578063b60d428814610611578063bdd4d18d14610626578063d73dd6231461068b578063dd62ed3e146106af575b600080fd5b34801561018557600080fd5b5061018e6106d6565b60408051600160a060020a039092168252519081900360200190f35b3480156101b657600080fd5b506101bf6106e5565b60408051918252519081900360200190f35b3480156101dd57600080fd5b506101e66106eb565b6040805160208082528351818301528351919283929083019185019080838360005b83811015610220578181015183820152602001610208565b50505050905090810190601f16801561024d5780820380516001836020036101000a031916815260200191505b509250505060405180910390f35b34801561026757600080fd5b5061027f600160a060020a0360043516602435610779565b604080519115158252519081900360200190f35b34801561029f57600080fd5b5061027f6004356107e0565b3480156102b757600080fd5b5061027f600160a060020a0360043516610827565b3480156102d857600080fd5b506101bf61083c565b3480156102ed57600080fd5b5061018e610843565b34801561030257600080fd5b5061027f600160a060020a0360043581169060243516604435610852565b34801561032c57600080fd5b506103356109c7565b6040805160ff9092168252519081900360200190f35b34801561035757600080fd5b50604080516020600460443581810135601f810184900484028501840190955284845261027f94823594602480359536959460649492019190819084018382808284375050604080516020601f89358b018035918201839004830284018301909452808352979a99988101979196509182019450925082915084018382808284375050604080516020601f89358b018035918201839004830284018301909452808352979a99988101979196509182019450925082915084018382808284375050604080516020601f89358b018035918201839004830284018301909452808352979a99988101979196509182019450925082915084018382808284375050604080516020601f89358b018035918201839004830284018301909452808352979a9998810197919650918201945092508291508401838280828437509497506109cc9650505050505050565b3480156104af57600080fd5b506101e6610d6a565b3480156104c457600080fd5b5061018e600435610dc5565b3480156104dc57600080fd5b5061027f600160a060020a0360043516602435610ded565b34801561050057600080fd5b506101bf600160a060020a0360043516610edc565b34801561052157600080fd5b506101e6610ef7565b34801561053657600080fd5b5061027f610f52565b34801561054b57600080fd5b5061027f600160a060020a03600435166024356110d0565b34801561056f57600080fd5b5061027f600160a060020a036004351661122f565b34801561059057600080fd5b506101e661124d565b3480156105a557600080fd5b506101bf6112a8565b3480156105ba57600080fd5b506101e66112ae565b3480156105cf57600080fd5b5061027f600160a060020a0360043516602435611309565b3480156105f357600080fd5b506101bf6113e8565b34801561060857600080fd5b506101bf6113ee565b34801561061d57600080fd5b506101bf6113f4565b34801561063257600080fd5b5061063b6113fa565b60408051602080825283518183015283519192839290830191858101910280838360005b8381101561067757818101518382015260200161065f565b505050509050019250505060405180910390f35b34801561069757600080fd5b5061027f600160a060020a036004351660243561145c565b3480156106bb57600080fd5b506101bf600160a060020a03600435811690602435166114f5565b600554600160a060020a031681565b60085481565b6003805460408051602060026001851615610100026000190190941693909304601f810184900484028201840190925281815292918301828280156107715780601f1061074657610100808354040283529160200191610771565b820191906000526020600020905b81548152906001019060200180831161075457829003601f168201915b505050505081565b336000818152600260209081526040808320600160a060020a038716808552908352818420869055815186815291519394909390927f8c5be1e5ebec7d5bd14f71427d1e84f3dd0314c0f7b2291e5b200ac8c7c3b925928290030190a35060015b92915050565b600554600090600160a060020a031633146107fa57600080fd5b600b5482111561080957600080fd5b600b5461081c908363ffffffff61152016565b600b55506001919050565b600f6020526000908152604090205460ff1681565b6001545b90565b600654600160a060020a031681565b600160a060020a03831660009081526020819052604081205482111561087757600080fd5b600160a060020a03841660009081526002602090815260408083203384529091529020548211156108a757600080fd5b600160a060020a03831615156108bc57600080fd5b600160a060020a0384166000908152602081905260409020546108e5908363ffffffff61152016565b600160a060020a03808616600090815260208190526040808220939093559085168152205461091a908363ffffffff61153216565b600160a060020a0380851660009081526020818152604080832094909455918716815260028252828120338252909152205461095c908363ffffffff61152016565b600160a060020a03808616600081815260026020908152604080832033845282529182902094909455805186815290519287169391927fddf252ad1be2c89b69c2b068fc378daa952ba7f163c4a11628f55a4df523b3ef929181900390910190a35060019392505050565b600081565b600654600090600160a060020a031633146109e657600080fd5b428811156109f45760088890555b6000871115610a035760098790555b600086511115610a22578551610a20906003906020890190611568565b505b600085511115610a41578451610a3f906004906020880190611568565b505b600084511115610a60578351610a5e90600c906020870190611568565b505b600083511115610a7f578251610a7d90600d906020860190611568565b505b600082511115610a9e578151610a9c90600e906020850190611568565b505b7f940ba380aa6634e8c2878bb8ca0620b4b8fd45672b23f7a7d5dc92e6ed3766ab60085460095460036004600c600d600e60405180888152602001878152602001806020018060200180602001806020018060200186810386528b818154600181600116156101000203166002900481526020019150805460018160011615610100020316600290048015610b745780601f10610b4957610100808354040283529160200191610b74565b820191906000526020600020905b815481529060010190602001808311610b5757829003601f168201915b505086810385528a54600260001961010060018416150201909116048082526020909101908b908015610be85780601f10610bbd57610100808354040283529160200191610be8565b820191906000526020600020905b815481529060010190602001808311610bcb57829003601f168201915b505086810384528954600260001961010060018416150201909116048082526020909101908a908015610c5c5780601f10610c3157610100808354040283529160200191610c5c565b820191906000526020600020905b815481529060010190602001808311610c3f57829003601f168201915b5050868103835288546002600019610100600184161502019091160480825260209091019089908015610cd05780601f10610ca557610100808354040283529160200191610cd0565b820191906000526020600020905b815481529060010190602001808311610cb357829003601f168201915b5050868103825287546002600019610100600184161502019091160480825260209091019088908015610d445780601f10610d1957610100808354040283529160200191610d44565b820191906000526020600020905b815481529060010190602001808311610d2757829003601f168201915b50509c5050505050505050505050505060405180910390a1506001979650505050505050565b600c805460408051602060026001851615610100026000190190941693909304601f810184900484028201840190925281815292918301828280156107715780601f1061074657610100808354040283529160200191610771565b6010805482908110610dd357fe5b600091825260209091200154600160a060020a0316905081565b336000908152600260209081526040808320600160a060020a0386168452909152812054808310610e4157336000908152600260209081526040808320600160a060020a0388168452909152812055610e76565b610e51818463ffffffff61152016565b336000908152600260209081526040808320600160a060020a03891684529091529020555b336000818152600260209081526040808320600160a060020a0389168085529083529281902054815190815290519293927f8c5be1e5ebec7d5bd14f71427d1e84f3dd0314c0f7b2291e5b200ac8c7c3b925929181900390910190a35060019392505050565b600160a060020a031660009081526020819052604090205490565b600d805460408051602060026001851615610100026000190190941693909304601f810184900484028201840190925281815292918301828280156107715780601f1061074657610100808354040283529160200191610771565b600080610f5e33610edc565b11610f6857600080fd5b3360009081526020819052604090205460011115610f8557600080fd5b33600090815260208190526040902054610fa690600163ffffffff61152016565b3360009081526020819052604080822092909255600554600160a060020a031681522054610fdb90600163ffffffff61153216565b600554600160a060020a0316600090815260208181526040808320939093556010805460018181019092557f1b6847dc741a1b0cd08d278845f9d819d87b734759afb55fe2de5cb82a9ae67201805473ffffffffffffffffffffffffffffffffffffffff191633908117909155808452600f909252838320805460ff1916909117905591517f66f39243fdcc85d7a3250a7546d65477294fa6d541ec404ec0300b0b99eb10de9190a260055460408051600181529051600160a060020a039092169133917fddf252ad1be2c89b69c2b068fc378daa952ba7f163c4a11628f55a4df523b3ef919081900360200190a350600190565b600554600090600160a060020a031633146110ea57600080fd5b600654600160a060020a031660009081526020819052604090205482111561111157600080fd5b600654600160a060020a031660009081526020819052604090205461113c908363ffffffff61152016565b600654600160a060020a039081166000908152602081905260408082209390935590851681522054611174908363ffffffff61153216565b600160a060020a0384166000908152602081905260409020556009546111b4906111a590849063ffffffff61153f16565b600a549063ffffffff61153216565b600a556009546111de906111cf90849063ffffffff61153f16565b600b549063ffffffff61153216565b600b55600654604080518481529051600160a060020a038087169316917fddf252ad1be2c89b69c2b068fc378daa952ba7f163c4a11628f55a4df523b3ef919081900360200190a350600192915050565b600160a060020a03166000908152600f602052604090205460ff1690565b6004805460408051602060026001851615610100026000190190941693909304601f810184900484028201840190925281815292918301828280156107715780601f1061074657610100808354040283529160200191610771565b60095481565b600e805460408051602060026001851615610100026000190190941693909304601f810184900484028201840190925281815292918301828280156107715780601f1061074657610100808354040283529160200191610771565b3360009081526020819052604081205482111561132557600080fd5b600160a060020a038316151561133a57600080fd5b3360009081526020819052604090205461135a908363ffffffff61152016565b3360009081526020819052604080822092909255600160a060020a0385168152205461138c908363ffffffff61153216565b600160a060020a038416600081815260208181526040918290209390935580518581529051919233927fddf252ad1be2c89b69c2b068fc378daa952ba7f163c4a11628f55a4df523b3ef9281900390910190a350600192915050565b600a5481565b60075481565b600b5481565b6060601080548060200260200160405190810160405280929190818152602001828054801561145257602002820191906000526020600020905b8154600160a060020a03168152600190910190602001808311611434575b5050505050905090565b336000908152600260209081526040808320600160a060020a0386168452909152812054611490908363ffffffff61153216565b336000818152600260209081526040808320600160a060020a0389168085529083529281902085905580519485525191937f8c5be1e5ebec7d5bd14f71427d1e84f3dd0314c0f7b2291e5b200ac8c7c3b925929081900390910190a350600192915050565b600160a060020a03918216600090815260026020908152604080832093909416825291909152205490565b60008282111561152c57fe5b50900390565b818101828110156107da57fe5b6000821515611550575060006107da565b5081810281838281151561156057fe5b04146107da57fe5b828054600181600116156101000203166002900490600052602060002090601f016020900481019282601f106115a957805160ff19168380011785556115d6565b828001600101855582156115d6579182015b828111156115d65782518255916020019190600101906115bb565b506115e29291506115e6565b5090565b61084091905b808211156115e257600081556001016115ec5600a165627a7a723058208ea8d103565244438491b65ac73490f81ec2711d2b76d4ba62e9908f8994e9500029",
  "source": "pragma solidity ^0.4.24;\n\nimport \"openzeppelin-solidity/contracts/token/ERC20/StandardToken.sol\";\n\ncontract BoxOfficeMovie is StandardToken {\n\n    uint8 public constant decimals = 0;\n    string public name;\n    string public symbol;\n    \n    address public boxOffice;\n    address public filmmaker;\n    \n    uint public createdTime;\n    uint public salesEndTime;\n    uint public price;\n    uint public sales;\n    uint public fund;\n    string public logline; \n    string public poster; \n    string public trailer;\n\n    mapping (address => bool) public audience;\n    address[] public members;\n    \n    event FilmUpdated(\n        uint salesEndTime,\n        uint price,\n        string movieName,\n        string ticketSymbol,\n        string logline,\n        string poster,\n        string trailer\n    );\n    \n    event TicketSpent(\n        address indexed holder\n    );\n    \n    modifier onlyBoxOffice {\n        require(msg.sender == boxOffice);\n        _;\n    }\n    \n    modifier onlyFilmmaker {\n        require(msg.sender == filmmaker);\n        _;\n    }\n    \n    modifier onlyTicketHolder {\n        require(balanceOf(msg.sender) > 0);\n        _;\n    }\n\n    constructor(\n        address _filmmaker,\n        uint _salesEndTime,\n        uint _price,\n        uint _ticketSupply, \n        string _movieName, \n        string _ticketSymbol,\n        string _logline,\n        string _poster,\n        string _trailer\n    ) \n        public \n    {\n        boxOffice = msg.sender;\n        filmmaker = _filmmaker;\n        \n        createdTime = now;\n        sales = 0;\n        fund = 0;\n        \n        salesEndTime = _salesEndTime;\n        price = _price;\n        totalSupply_ = _ticketSupply;\n        name = _movieName;\n        symbol = _ticketSymbol;\n        logline = _logline;\n        poster = _poster;\n        trailer = _trailer;\n        \n        balances[filmmaker] = totalSupply_;\n        allowed[filmmaker][boxOffice] = totalSupply_;\n    }\n    \n    function buyTickets(address buyer, uint quantity) external onlyBoxOffice returns (bool) {\n        require(balances[filmmaker] >= quantity);\n        balances[filmmaker] = balances[filmmaker].sub(quantity);\n        balances[buyer] = balances[buyer].add(quantity);\n        \n        sales = sales.add(quantity.mul(price));\n        fund = fund.add(quantity.mul(price));\n        \n        emit Transfer(filmmaker, buyer, quantity);\n        return true;\n    }\n    \n    function withdrawFund(uint amount) external onlyBoxOffice returns (bool) {\n        require(fund >= amount);\n        fund = fund.sub(amount);\n        return true;\n    }\n    \n    function updateFilm(\n        uint _salesEndTime,\n        uint _price,\n        string _movieName,\n        string _ticketSymbol,\n        string _logline,\n        string _poster,\n        string _trailer\n    ) \n        public \n        onlyFilmmaker\n        returns (bool)\n    {\n        if (_salesEndTime > now) salesEndTime = _salesEndTime;\n        if (_price > 0) price = _price;\n        if (bytes(_movieName).length > 0) name = _movieName;\n        if (bytes(_ticketSymbol).length > 0) symbol = _ticketSymbol;\n        if (bytes(_logline).length > 0) logline = _logline;\n        if (bytes(_poster).length > 0) poster = _poster;\n        if (bytes(_trailer).length > 0) trailer = _trailer;\n        \n        emit FilmUpdated(\n            salesEndTime,\n            price,\n            name,\n            symbol,\n            logline,\n            poster,\n            trailer    \n        );\n        return true;\n    } \n    \n    function spendTicket() \n        public \n        onlyTicketHolder \n        returns (bool)\n    {\n        require(balances[msg.sender] >= 1);\n        balances[msg.sender] = balances[msg.sender].sub(1);\n        balances[boxOffice] = balances[boxOffice].add(1);\n        \n        members.push(msg.sender);\n        audience[msg.sender] = true;\n        \n        emit TicketSpent(msg.sender);\n        emit Transfer(msg.sender, boxOffice, 1);\n        return true;\n    }\n    \n    function members() public view returns (address[]) {\n        return members;\n    }\n    \n    function isAudienceMember(address member) public view returns (bool) {\n        return audience[member];\n    }\n\n}",
  "sourcePath": "/Users/heartbank/Google Drive/ConsenSys/BoxOffice/contracts/BoxOfficeMovie.sol",
  "compiler": {
    "name": "solc",
    "version": "0.4.24+commit.e67f0147.Emscripten.clang"
  },
  "schemaVersion": "2.0.1",
  "updatedAt": "2018-08-20T15:23:14.538Z"
}