{
  "contractName": "BoxOffice",
  "abi": [
    {
      "constant": true,
      "inputs": [],
      "name": "listingFee",
      "outputs": [
        {
          "name": "",
          "type": "uint256"
        }
      ],
      "payable": false,
      "stateMutability": "view",
      "type": "function"
    },
    {
      "constant": true,
      "inputs": [],
      "name": "charity",
      "outputs": [
        {
          "name": "",
          "type": "uint256"
        }
      ],
      "payable": false,
      "stateMutability": "view",
      "type": "function"
    },
    {
      "constant": true,
      "inputs": [
        {
          "name": "",
          "type": "uint256"
        }
      ],
      "name": "films",
      "outputs": [
        {
          "name": "",
          "type": "address"
        }
      ],
      "payable": false,
      "stateMutability": "view",
      "type": "function"
    },
    {
      "constant": true,
      "inputs": [],
      "name": "kiitos",
      "outputs": [
        {
          "name": "",
          "type": "address"
        }
      ],
      "payable": false,
      "stateMutability": "view",
      "type": "function"
    },
    {
      "constant": true,
      "inputs": [],
      "name": "heartbank",
      "outputs": [
        {
          "name": "",
          "type": "uint256"
        }
      ],
      "payable": false,
      "stateMutability": "view",
      "type": "function"
    },
    {
      "constant": true,
      "inputs": [],
      "name": "withdrawFee",
      "outputs": [
        {
          "name": "",
          "type": "uint8"
        }
      ],
      "payable": false,
      "stateMutability": "view",
      "type": "function"
    },
    {
      "constant": true,
      "inputs": [],
      "name": "admin",
      "outputs": [
        {
          "name": "",
          "type": "address"
        }
      ],
      "payable": false,
      "stateMutability": "view",
      "type": "function"
    },
    {
      "inputs": [
        {
          "name": "token",
          "type": "address"
        }
      ],
      "payable": false,
      "stateMutability": "nonpayable",
      "type": "constructor"
    },
    {
      "payable": true,
      "stateMutability": "payable",
      "type": "fallback"
    },
    {
      "anonymous": false,
      "inputs": [
        {
          "indexed": false,
          "name": "movie",
          "type": "address"
        },
        {
          "indexed": false,
          "name": "salesEndDate",
          "type": "uint256"
        },
        {
          "indexed": false,
          "name": "availableTickets",
          "type": "uint256"
        },
        {
          "indexed": false,
          "name": "price",
          "type": "uint256"
        },
        {
          "indexed": false,
          "name": "ticketSupply",
          "type": "uint256"
        },
        {
          "indexed": false,
          "name": "movieName",
          "type": "string"
        },
        {
          "indexed": false,
          "name": "ticketSymbol",
          "type": "string"
        },
        {
          "indexed": false,
          "name": "logline",
          "type": "string"
        },
        {
          "indexed": false,
          "name": "poster",
          "type": "string"
        },
        {
          "indexed": false,
          "name": "trailer",
          "type": "string"
        }
      ],
      "name": "FilmCreated",
      "type": "event"
    },
    {
      "anonymous": false,
      "inputs": [
        {
          "indexed": false,
          "name": "movie",
          "type": "address"
        },
        {
          "indexed": false,
          "name": "buyer",
          "type": "address"
        },
        {
          "indexed": false,
          "name": "price",
          "type": "uint256"
        },
        {
          "indexed": false,
          "name": "quantity",
          "type": "uint256"
        }
      ],
      "name": "TicketsBought",
      "type": "event"
    },
    {
      "anonymous": false,
      "inputs": [
        {
          "indexed": true,
          "name": "date",
          "type": "uint256"
        },
        {
          "indexed": true,
          "name": "movie",
          "type": "address"
        },
        {
          "indexed": true,
          "name": "buyer",
          "type": "address"
        },
        {
          "indexed": false,
          "name": "excess",
          "type": "uint256"
        }
      ],
      "name": "ExcessPaid",
      "type": "event"
    },
    {
      "anonymous": false,
      "inputs": [
        {
          "indexed": true,
          "name": "date",
          "type": "uint256"
        },
        {
          "indexed": true,
          "name": "movie",
          "type": "address"
        },
        {
          "indexed": false,
          "name": "recipient",
          "type": "address"
        },
        {
          "indexed": false,
          "name": "amount",
          "type": "uint256"
        },
        {
          "indexed": false,
          "name": "expense",
          "type": "string"
        }
      ],
      "name": "FundWithdrawn",
      "type": "event"
    },
    {
      "anonymous": false,
      "inputs": [
        {
          "indexed": true,
          "name": "date",
          "type": "uint256"
        },
        {
          "indexed": true,
          "name": "recipient",
          "type": "address"
        },
        {
          "indexed": false,
          "name": "amount",
          "type": "uint256"
        }
      ],
      "name": "CharityDonated",
      "type": "event"
    },
    {
      "anonymous": false,
      "inputs": [
        {
          "indexed": false,
          "name": "recipient",
          "type": "address"
        },
        {
          "indexed": false,
          "name": "amount",
          "type": "uint256"
        }
      ],
      "name": "ExcessReturned",
      "type": "event"
    },
    {
      "anonymous": false,
      "inputs": [
        {
          "indexed": false,
          "name": "listingFee",
          "type": "uint256"
        },
        {
          "indexed": false,
          "name": "withdrawFee",
          "type": "uint256"
        }
      ],
      "name": "FeesUpdated",
      "type": "event"
    },
    {
      "anonymous": false,
      "inputs": [
        {
          "indexed": true,
          "name": "date",
          "type": "uint256"
        },
        {
          "indexed": true,
          "name": "sender",
          "type": "address"
        },
        {
          "indexed": false,
          "name": "value",
          "type": "uint256"
        }
      ],
      "name": "FallbackTriggered",
      "type": "event"
    },
    {
      "constant": false,
      "inputs": [
        {
          "name": "salesEndDate",
          "type": "uint256"
        },
        {
          "name": "availableTickets",
          "type": "uint256"
        },
        {
          "name": "price",
          "type": "uint256"
        },
        {
          "name": "ticketSupply",
          "type": "uint256"
        },
        {
          "name": "movieName",
          "type": "string"
        },
        {
          "name": "ticketSymbol",
          "type": "string"
        },
        {
          "name": "logline",
          "type": "string"
        },
        {
          "name": "poster",
          "type": "string"
        },
        {
          "name": "trailer",
          "type": "string"
        }
      ],
      "name": "makeFilm",
      "outputs": [
        {
          "name": "",
          "type": "bool"
        }
      ],
      "payable": false,
      "stateMutability": "nonpayable",
      "type": "function"
    },
    {
      "constant": false,
      "inputs": [
        {
          "name": "movie",
          "type": "address"
        },
        {
          "name": "quantity",
          "type": "uint256"
        }
      ],
      "name": "buyTickets",
      "outputs": [
        {
          "name": "",
          "type": "bool"
        }
      ],
      "payable": true,
      "stateMutability": "payable",
      "type": "function"
    },
    {
      "constant": false,
      "inputs": [
        {
          "name": "movie",
          "type": "address"
        },
        {
          "name": "recipient",
          "type": "address"
        },
        {
          "name": "amount",
          "type": "uint256"
        },
        {
          "name": "expense",
          "type": "string"
        }
      ],
      "name": "withdrawFund",
      "outputs": [
        {
          "name": "",
          "type": "bool"
        }
      ],
      "payable": false,
      "stateMutability": "nonpayable",
      "type": "function"
    },
    {
      "constant": true,
      "inputs": [],
      "name": "getFilms",
      "outputs": [
        {
          "name": "",
          "type": "address[]"
        }
      ],
      "payable": false,
      "stateMutability": "view",
      "type": "function"
    },
    {
      "constant": false,
      "inputs": [
        {
          "name": "listing",
          "type": "uint256"
        },
        {
          "name": "withdraw",
          "type": "uint8"
        }
      ],
      "name": "updateFees",
      "outputs": [
        {
          "name": "",
          "type": "bool"
        }
      ],
      "payable": false,
      "stateMutability": "nonpayable",
      "type": "function"
    },
    {
      "constant": false,
      "inputs": [
        {
          "name": "recipient",
          "type": "address"
        },
        {
          "name": "amount",
          "type": "uint256"
        }
      ],
      "name": "donateToCharity",
      "outputs": [
        {
          "name": "",
          "type": "bool"
        }
      ],
      "payable": false,
      "stateMutability": "nonpayable",
      "type": "function"
    },
    {
      "constant": false,
      "inputs": [
        {
          "name": "recipient",
          "type": "address"
        },
        {
          "name": "amount",
          "type": "uint256"
        }
      ],
      "name": "returnExcessPayment",
      "outputs": [
        {
          "name": "",
          "type": "bool"
        }
      ],
      "payable": false,
      "stateMutability": "nonpayable",
      "type": "function"
    },
    {
      "constant": true,
      "inputs": [],
      "name": "getBoxOfficeStats",
      "outputs": [
        {
          "name": "",
          "type": "uint256"
        },
        {
          "name": "",
          "type": "uint256"
        },
        {
          "name": "",
          "type": "uint256"
        },
        {
          "name": "",
          "type": "uint256"
        }
      ],
      "payable": false,
      "stateMutability": "view",
      "type": "function"
    },
    {
      "constant": false,
      "inputs": [],
      "name": "toggleEmergency",
      "outputs": [
        {
          "name": "",
          "type": "bool"
        }
      ],
      "payable": false,
      "stateMutability": "nonpayable",
      "type": "function"
    },
    {
      "constant": false,
      "inputs": [],
      "name": "shutDownBoxOffice",
      "outputs": [],
      "payable": false,
      "stateMutability": "nonpayable",
      "type": "function"
    }
  ],
  "bytecode": "0x608060405234801561001057600080fd5b50604051602080613648833981016040525160018054600160a060020a03909216600160a060020a03199283161781556000805460a060020a60ff02199316331792909216825560028281556003929092556004919091556005805460ff191690911790556135c4806100846000396000f300608060405260043610620001025763ffffffff7c0100000000000000000000000000000000000000000000000000000000600035041663267b588d81146200013b5780632d1d274414620001555780634884b4f514620001815780635b897c9414620001eb5780636a1b7ecc146200021257806388f57767146200023c578063934aa023146200025557806393aab8d8146200026d578063a33d99cf14620002a4578063a5cae036146200040a578063bb982f151462000448578063c4e47ff41462000460578063da3606be1462000478578063de77a7bd1462000499578063e941fa78146200050b578063f26574b51462000539578063f851a4401462000560575b604080513481529051339142917fb2a08a53341b8f03217245fa02bdedc8418d23624dff5502143eac1ae6a90c439181900360200190a3005b3480156200014857600080fd5b506200015362000578565b005b3480156200016257600080fd5b506200016d620005c8565b604080519115158252519081900360200190f35b3480156200018e57600080fd5b506200019962000628565b60408051602080825283518183015283519192839290830191858101910280838360005b83811015620001d7578181015183820152602001620001bd565b505050509050019250505060405180910390f35b348015620001f857600080fd5b506200016d600160a060020a03600435166024356200068c565b3480156200021f57600080fd5b506200022a6200074f565b60408051918252519081900360200190f35b6200016d600160a060020a036004351660243562000755565b3480156200026257600080fd5b506200022a62000ace565b3480156200027a57600080fd5b506200028860043562000ad4565b60408051600160a060020a039092168252519081900360200190f35b348015620002b157600080fd5b50604080516020601f6084356004818101359283018490048402850184019095528184526200016d948035946024803595604435956064359536959460a494909391019190819084018382808284375050604080516020601f89358b018035918201839004830284018301909452808352979a99988101979196509182019450925082915084018382808284375050604080516020601f89358b018035918201839004830284018301909452808352979a99988101979196509182019450925082915084018382808284375050604080516020601f89358b018035918201839004830284018301909452808352979a99988101979196509182019450925082915084018382808284375050604080516020601f89358b018035918201839004830284018301909452808352979a99988101979196509182019450925082915084018382808284375094975062000afd9650505050505050565b3480156200041757600080fd5b50620004226200124c565b604080519485526020850193909352838301919091526060830152519081900360800190f35b3480156200045557600080fd5b506200028862001264565b3480156200046d57600080fd5b506200022a62001273565b3480156200048557600080fd5b506200016d60043560ff6024351662001279565b348015620004a657600080fd5b50604080516020601f6064356004818101359283018490048402850184019095528184526200016d94600160a060020a0381358116956024803590921695604435953695608494019181908401838280828437509497506200131a9650505050505050565b3480156200051857600080fd5b506200052362001646565b6040805160ff9092168252519081900360200190f35b3480156200054657600080fd5b506200016d600160a060020a03600435166024356200164f565b3480156200056d57600080fd5b5062000288620016f2565b60005474010000000000000000000000000000000000000000900460ff161515620005a257600080fd5b600054600160a060020a03163314620005ba57600080fd5b600054600160a060020a0316ff5b60008054600160a060020a03163314620005e157600080fd5b506000805474ff0000000000000000000000000000000000000000198116740100000000000000000000000000000000000000009182900460ff1615909102179055600190565b606060068054806020026020016040519081016040528092919081815260200182805480156200068257602002820191906000526020600020905b8154600160a060020a0316815260019091019060200180831162000663575b5050505050905090565b60008054600160a060020a03163314620006a557600080fd5b600254821115620006b557600080fd5b600254620006ca908363ffffffff6200170116565b600255604080518381529051600160a060020a0385169142917eec3c7b13422666a03aaa726a042be75ab337d780acd7c9264b2a75b98fa7949181900360200190a3604051600160a060020a0384169083156108fc029084906000818181858888f1935050505015801562000743573d6000803e3d6000fd5b50600190505b92915050565b60045481565b6000805481908190819074010000000000000000000000000000000000000000900460ff16156200078557600080fd5b600085116200079357600080fd5b85925082600160a060020a031663a035b1fe6040518163ffffffff167c0100000000000000000000000000000000000000000000000000000000028152600401602060405180830381600087803b158015620007ee57600080fd5b505af115801562000803573d6000803e3d6000fd5b505050506040513d60208110156200081a57600080fd5b5051604080517f452d455f0000000000000000000000000000000000000000000000000000000081529051919350600160a060020a0385169163452d455f916004808201926020929091908290030181600087803b1580156200087c57600080fd5b505af115801562000891573d6000803e3d6000fd5b505050506040513d6020811015620008a857600080fd5b50514210620008b657600080fd5b82600160a060020a0316633cfa7e016040518163ffffffff167c0100000000000000000000000000000000000000000000000000000000028152600401602060405180830381600087803b1580156200090e57600080fd5b505af115801562000923573d6000803e3d6000fd5b505050506040513d60208110156200093a57600080fd5b50518511156200094957600080fd5b6200095b858363ffffffff6200171416565b3410156200096857600080fd5b6200098c6200097e868463ffffffff6200171416565b349063ffffffff6200170116565b90506000811115620009dc576040805182815290513391600160a060020a0389169142917fb6fbfc7e97cd407453325a4a5bc9c8d045bc0a027f7a413091c9449d1c5b6781919081900360200190a45b604080517f88f57767000000000000000000000000000000000000000000000000000000008152336004820152602481018790529051600160a060020a038516916388f577679160448083019260209291908290030181600087803b15801562000a4557600080fd5b505af115801562000a5a573d6000803e3d6000fd5b505050506040513d602081101562000a7157600080fd5b505060408051600160a060020a03881681523360208201528082018490526060810187905290517f0d1cb2f55c27cf94d1415183d6774c0a9b07d3920c2920855dac8b52c363e9b39181900360800190a150600195945050505050565b60035481565b600680548290811062000ae357fe5b600091825260209091200154600160a060020a0316905081565b60008054819074010000000000000000000000000000000000000000900460ff161562000b2957600080fd5b60048054600154604080517f70a082310000000000000000000000000000000000000000000000000000000081523394810194909452519192600160a060020a03909116916370a08231916024808201926020929091908290030181600087803b15801562000b9757600080fd5b505af115801562000bac573d6000803e3d6000fd5b505050506040513d602081101562000bc357600080fd5b5051101562000bd157600080fd5b60015460048054604080517f1afdf33b0000000000000000000000000000000000000000000000000000000081523393810193909352602483019190915251600160a060020a0390921691631afdf33b916044808201926020929091908290030181600087803b15801562000c4557600080fd5b505af115801562000c5a573d6000803e3d6000fd5b505050506040513d602081101562000c7157600080fd5b5050428b1162000c8057600080fd5b878a111562000c8e57600080fd5b6000891162000c9c57600080fd5b6000881162000caa57600080fd5b865160001062000cb957600080fd5b855160001062000cc857600080fd5b845160001062000cd757600080fd5b835160001062000ce657600080fd5b825160001062000cf557600080fd5b338b8b8b8b8b8b8b8b8b62000d0962001765565b808b600160a060020a0316600160a060020a031681526020018a8152602001898152602001888152602001878152602001806020018060200180602001806020018060200186810386528b818151815260200191508051906020019080838360005b8381101562000d8557818101518382015260200162000d6b565b50505050905090810190601f16801562000db35780820380516001836020036101000a031916815260200191505b5086810385528a5181528a516020918201918c019080838360005b8381101562000de857818101518382015260200162000dce565b50505050905090810190601f16801562000e165780820380516001836020036101000a031916815260200191505b5086810384528951815289516020918201918b019080838360005b8381101562000e4b57818101518382015260200162000e31565b50505050905090810190601f16801562000e795780820380516001836020036101000a031916815260200191505b5086810383528851815288516020918201918a019080838360005b8381101562000eae57818101518382015260200162000e94565b50505050905090810190601f16801562000edc5780820380516001836020036101000a031916815260200191505b50868103825287518152875160209182019189019080838360005b8381101562000f1157818101518382015260200162000ef7565b50505050905090810190601f16801562000f3f5780820380516001836020036101000a031916815260200191505b509f50505050505050505050505050505050604051809103906000f08015801562000f6e573d6000803e3d6000fd5b50905060068190806001815401808255809150509060018203906000526020600020016000909192909190916101000a815481600160a060020a030219169083600160a060020a03160217905550507f204a5a73bc95b002c4071f207fde4e83ad67c4d22fd145c1f42ca015002f33eb818c8c8c8c8c8c8c8c8c604051808b600160a060020a0316600160a060020a031681526020018a8152602001898152602001888152602001878152602001806020018060200180602001806020018060200186810386528b818151815260200191508051906020019080838360005b83811015620010675781810151838201526020016200104d565b50505050905090810190601f168015620010955780820380516001836020036101000a031916815260200191505b5086810385528a5181528a516020918201918c019080838360005b83811015620010ca578181015183820152602001620010b0565b50505050905090810190601f168015620010f85780820380516001836020036101000a031916815260200191505b5086810384528951815289516020918201918b019080838360005b838110156200112d57818101518382015260200162001113565b50505050905090810190601f1680156200115b5780820380516001836020036101000a031916815260200191505b5086810383528851815288516020918201918a019080838360005b838110156200119057818101518382015260200162001176565b50505050905090810190601f168015620011be5780820380516001836020036101000a031916815260200191505b50868103825287518152875160209182019189019080838360005b83811015620011f3578181015183820152602001620011d9565b50505050905090810190601f168015620012215780820380516001836020036101000a031916815260200191505b509f5050505050505050505050505050505060405180910390a15060019a9950505050505050505050565b60045460055460025460035460ff9092169190919293565b600154600160a060020a031681565b60025481565b6000805474010000000000000000000000000000000000000000900460ff1615620012a357600080fd5b600054600160a060020a03163314620012bb57600080fd5b60048390556005805460ff191660ff84811691909117918290556040805186815292909116602083015280517f5c6323bf1c2d7aaea2c091a4751c1c87af7f2864650c336507a77d0557af37a19281900390910190a150600192915050565b6000805474010000000000000000000000000000000000000000900460ff16156200134457600080fd5b8480600160a060020a0316631d9d844e6040518163ffffffff167c0100000000000000000000000000000000000000000000000000000000028152600401602060405180830381600087803b1580156200139d57600080fd5b505af1158015620013b2573d6000803e3d6000fd5b505050506040513d6020811015620013c957600080fd5b5051600160a060020a03163314620013e057600080fd5b60055484906000906200141290606490620014059060ff168563ffffffff6200171416565b9063ffffffff6200174116565b6002549091506200142a908263ffffffff6200175716565b60025560035462001442908263ffffffff6200175716565b600355600160a060020a03871615156200145b57600080fd5b600086116200146957600080fd5b84516000106200147857600080fd5b600554600160a060020a03891690630cee172590620014bc90620014ae90606490620014059060ff168c63ffffffff6200171416565b899063ffffffff6200175716565b6040518263ffffffff167c010000000000000000000000000000000000000000000000000000000002815260040180828152602001915050602060405180830381600087803b1580156200150f57600080fd5b505af115801562001524573d6000803e3d6000fd5b505050506040513d60208110156200153b57600080fd5b505060408051600160a060020a03898116825260208281018a905260609383018481528951948401949094528851918c169342937fea43979fbb8e754a543625ef9dc3b20e0287d72b7e32f3a73e7ed8c64157703a938d938d938d9392909160808401919085019080838360005b83811015620015c3578181015183820152602001620015a9565b50505050905090810190601f168015620015f15780820380516001836020036101000a031916815260200191505b5094505050505060405180910390a3604051600160a060020a0388169087156108fc029088906000818181858888f1935050505015801562001637573d6000803e3d6000fd5b50600198975050505050505050565b60055460ff1681565b60008054600160a060020a031633146200166857600080fd5b30318211156200167757600080fd5b60408051600160a060020a03851681526020810184905281517fd18251b9b6197210938833082964f0ebac7c8c9d8eb934c4675f59079476a2b2929181900390910190a1604051600160a060020a0384169083156108fc029084906000818181858888f1935050505015801562000743573d6000803e3d6000fd5b600054600160a060020a031681565b6000828211156200170e57fe5b50900390565b6000821515620017275750600062000749565b508181028183828115156200173857fe5b04146200074957fe5b600081838115156200174f57fe5b049392505050565b818101828110156200074957fe5b604051611e22806200177783390190560060806040523480156200001157600080fd5b5060405162001e2238038062001e228339810160409081528151602080840151928401516060850151608086015160a087015160c088015160e08901516101008a01516101208b01516005805433600160a060020a03199182161790915560068054909116600160a060020a038c16179055426008556000600c819055600d5560098b9055600a889055600b8790556001869055938b018051999b9799969895979096938101959281019491810193910191620000d4916003918801906200017d565b508351620000ea9060049060208701906200017d565b5082516200010090600e9060208601906200017d565b5081516200011690600f9060208501906200017d565b5080516200012c9060109060208401906200017d565b505060015460068054600160a060020a039081166000908152602081815260408083208690559354831682526002815283822060055490931682529190915220555062000222975050505050505050565b828054600181600116156101000203166002900490600052602060002090601f016020900481019282601f10620001c057805160ff1916838001178555620001f0565b82800160010185558215620001f0579182015b82811115620001f0578251825591602001919060010190620001d3565b50620001fe92915062000202565b5090565b6200021f91905b80821115620001fe576000815560010162000209565b90565b611bf080620002326000396000f30060806040526004361061017f5763ffffffff7c01000000000000000000000000000000000000000000000000000000006000350416630641def2811461018457806306fdde03146101b5578063095ea7b31461023f5780630cee17251461027757806318160ddd1461028f5780631d9d844e146102b657806323b872dd146102cb578063313ce567146102f55780633840ab44146103205780633c1db66a146103605780633cfa7e01146104bb578063452d455f146104d05780635d91922d146104e557806366188463146104fa57806370a082311461051e578063809597211461053f578063839dfa1f1461055457806388f57767146105695780638bb4ee1e1461058d57806395d89b41146105a5578063a035b1fe146105ba578063a41c35f0146105cf578063a9059cbb146105e4578063aace52fe14610608578063b2f4bdb01461061d578063b60d428814610632578063d73dd62314610647578063dd62ed3e1461066b578063ee7d837014610692578063f63125cb146108ec575b600080fd5b34801561019057600080fd5b50610199610951565b60408051600160a060020a039092168252519081900360200190f35b3480156101c157600080fd5b506101ca610960565b6040805160208082528351818301528351919283929083019185019080838360005b838110156102045781810151838201526020016101ec565b50505050905090810190601f1680156102315780820380516001836020036101000a031916815260200191505b509250505060405180910390f35b34801561024b57600080fd5b50610263600160a060020a03600435166024356109ee565b604080519115158252519081900360200190f35b34801561028357600080fd5b50610263600435610a55565b34801561029b57600080fd5b506102a4610a9c565b60408051918252519081900360200190f35b3480156102c257600080fd5b50610199610aa3565b3480156102d757600080fd5b50610263600160a060020a0360043581169060243516604435610ab2565b34801561030157600080fd5b5061030a610c27565b6040805160ff9092168252519081900360200190f35b34801561032c57600080fd5b50610335610c2c565b6040805195865260208601949094528484019290925260608401526080830152519081900360a00190f35b34801561036c57600080fd5b50604080516020601f606435600481810135928301849004840285018401909552818452610263948035946024803595604435953695608494930191819084018382808284375050604080516020601f89358b018035918201839004830284018301909452808352979a99988101979196509182019450925082915084018382808284375050604080516020601f89358b018035918201839004830284018301909452808352979a99988101979196509182019450925082915084018382808284375050604080516020601f89358b018035918201839004830284018301909452808352979a99988101979196509182019450925082915084018382808284375050604080516020601f89358b018035918201839004830284018301909452808352979a999881019791965091820194509250829150840183828082843750949750610c819650505050505050565b3480156104c757600080fd5b506102a4611039565b3480156104dc57600080fd5b506102a461103f565b3480156104f157600080fd5b506101ca611045565b34801561050657600080fd5b50610263600160a060020a03600435166024356110a0565b34801561052a57600080fd5b506102a4600160a060020a036004351661118f565b34801561054b57600080fd5b506101ca6111aa565b34801561056057600080fd5b50610263611205565b34801561057557600080fd5b50610263600160a060020a036004351660243561136e565b34801561059957600080fd5b506101996004356114e3565b3480156105b157600080fd5b506101ca61150b565b3480156105c657600080fd5b506102a4611566565b3480156105db57600080fd5b506101ca61156c565b3480156105f057600080fd5b50610263600160a060020a03600435166024356115c7565b34801561061457600080fd5b506102a46116a6565b34801561062957600080fd5b506102a46116ac565b34801561063e57600080fd5b506102a46116b2565b34801561065357600080fd5b50610263600160a060020a03600435166024356116b8565b34801561067757600080fd5b506102a4600160a060020a0360043581169060243516611751565b34801561069e57600080fd5b506106a761177c565b604051808b600160a060020a0316600160a060020a031681526020018a8152602001898152602001888152602001878152602001806020018060200180602001806020018060200186810386528b818151815260200191508051906020019080838360005b8381101561072457818101518382015260200161070c565b50505050905090810190601f1680156107515780820380516001836020036101000a031916815260200191505b5086810385528a5181528a516020918201918c019080838360005b8381101561078457818101518382015260200161076c565b50505050905090810190601f1680156107b15780820380516001836020036101000a031916815260200191505b5086810384528951815289516020918201918b019080838360005b838110156107e45781810151838201526020016107cc565b50505050905090810190601f1680156108115780820380516001836020036101000a031916815260200191505b5086810383528851815288516020918201918a019080838360005b8381101561084457818101518382015260200161082c565b50505050905090810190601f1680156108715780820380516001836020036101000a031916815260200191505b50868103825287518152875160209182019189019080838360005b838110156108a457818101518382015260200161088c565b50505050905090810190601f1680156108d15780820380516001836020036101000a031916815260200191505b509f5050505050505050505050505050505060405180910390f35b3480156108f857600080fd5b50610901611a82565b60408051602080825283518183015283519192839290830191858101910280838360005b8381101561093d578181015183820152602001610925565b505050509050019250505060405180910390f35b600554600160a060020a031681565b6003805460408051602060026001851615610100026000190190941693909304601f810184900484028201840190925281815292918301828280156109e65780601f106109bb576101008083540402835291602001916109e6565b820191906000526020600020905b8154815290600101906020018083116109c957829003601f168201915b505050505081565b336000818152600260209081526040808320600160a060020a038716808552908352818420869055815186815291519394909390927f8c5be1e5ebec7d5bd14f71427d1e84f3dd0314c0f7b2291e5b200ac8c7c3b925928290030190a35060015b92915050565b600554600090600160a060020a03163314610a6f57600080fd5b600d54821115610a7e57600080fd5b600d54610a91908363ffffffff611ae416565b600d55506001919050565b6001545b90565b600654600160a060020a031681565b600160a060020a038316600090815260208190526040812054821115610ad757600080fd5b600160a060020a0384166000908152600260209081526040808320338452909152902054821115610b0757600080fd5b600160a060020a0383161515610b1c57600080fd5b600160a060020a038416600090815260208190526040902054610b45908363ffffffff611ae416565b600160a060020a038086166000908152602081905260408082209390935590851681522054610b7a908363ffffffff611af616565b600160a060020a03808516600090815260208181526040808320949094559187168152600282528281203382529091522054610bbc908363ffffffff611ae416565b600160a060020a03808616600081815260026020908152604080832033845282529182902094909455805186815290519287169391927fddf252ad1be2c89b69c2b068fc378daa952ba7f163c4a11628f55a4df523b3ef929181900390910190a35060019392505050565b600081565b6000806000806000600c54600d54610c58600560009054906101000a9004600160a060020a031661118f565b600654610c6d90600160a060020a031661118f565b600154945094509450945094509091929394565b600654600090600160a060020a03163314610c9b57600080fd5b42891115610ca95760098990555b6001548811610cb857600a8890555b6000871115610cc757600b8790555b600086511115610ce6578551610ce4906003906020890190611b2c565b505b600085511115610d05578451610d03906004906020880190611b2c565b505b600084511115610d24578351610d2290600e906020870190611b2c565b505b600083511115610d43578251610d4190600f906020860190611b2c565b505b600082511115610d62578151610d60906010906020850190611b2c565b505b7f8cb3135083431f1ab0230b1a8e86f6ae45c0113bc0de105a4b738be9f5be4b4b600954600a54600b5460036004600e600f601060405180898152602001888152602001878152602001806020018060200180602001806020018060200186810386528b818154600181600116156101000203166002900481526020019150805460018160011615610100020316600290048015610e415780601f10610e1657610100808354040283529160200191610e41565b820191906000526020600020905b815481529060010190602001808311610e2457829003601f168201915b505086810385528a54600260001961010060018416150201909116048082526020909101908b908015610eb55780601f10610e8a57610100808354040283529160200191610eb5565b820191906000526020600020905b815481529060010190602001808311610e9857829003601f168201915b505086810384528954600260001961010060018416150201909116048082526020909101908a908015610f295780601f10610efe57610100808354040283529160200191610f29565b820191906000526020600020905b815481529060010190602001808311610f0c57829003601f168201915b5050868103835288546002600019610100600184161502019091160480825260209091019089908015610f9d5780601f10610f7257610100808354040283529160200191610f9d565b820191906000526020600020905b815481529060010190602001808311610f8057829003601f168201915b50508681038252875460026000196101006001841615020190911604808252602090910190889080156110115780601f10610fe657610100808354040283529160200191611011565b820191906000526020600020905b815481529060010190602001808311610ff457829003601f168201915b50509d505050505050505050505050505060405180910390a150600198975050505050505050565b600a5481565b60095481565b600e805460408051602060026001851615610100026000190190941693909304601f810184900484028201840190925281815292918301828280156109e65780601f106109bb576101008083540402835291602001916109e6565b336000908152600260209081526040808320600160a060020a03861684529091528120548083106110f457336000908152600260209081526040808320600160a060020a0388168452909152812055611129565b611104818463ffffffff611ae416565b336000908152600260209081526040808320600160a060020a03891684529091529020555b336000818152600260209081526040808320600160a060020a0389168085529083529281902054815190815290519293927f8c5be1e5ebec7d5bd14f71427d1e84f3dd0314c0f7b2291e5b200ac8c7c3b925929181900390910190a35060019392505050565b600160a060020a031660009081526020819052604090205490565b600f805460408051602060026001851615610100026000190190941693909304601f810184900484028201840190925281815292918301828280156109e65780601f106109bb576101008083540402835291602001916109e6565b6000806112113361118f565b1161121b57600080fd5b336000908152602081905260409020546001111561123857600080fd5b3360009081526020819052604090205461125990600163ffffffff611ae416565b3360009081526020819052604080822092909255600554600160a060020a03168152205461128e90600163ffffffff611af616565b600554600160a060020a031660009081526020819052604080822092909255600780546001810182559082527fa66cc928b5edb82af9bd49922954155ab7b0942694bea4ce44661d9a8736c68801805473ffffffffffffffffffffffffffffffffffffffff19163390811790915591517f66f39243fdcc85d7a3250a7546d65477294fa6d541ec404ec0300b0b99eb10de9190a260055460408051600181529051600160a060020a039092169133917fddf252ad1be2c89b69c2b068fc378daa952ba7f163c4a11628f55a4df523b3ef919081900360200190a350600190565b600554600090600160a060020a0316331461138857600080fd5b600654600160a060020a03166000908152602081905260409020548211156113af57600080fd5b600654600160a060020a03166000908152602081905260409020546113da908363ffffffff611ae416565b600654600160a060020a039081166000908152602081905260408082209390935590851681522054611412908363ffffffff611af616565b600160a060020a038416600090815260208190526040902055600a5461143e908363ffffffff611ae416565b600a55600b546114689061145990849063ffffffff611b0316565b600c549063ffffffff611af616565b600c55600b546114929061148390849063ffffffff611b0316565b600d549063ffffffff611af616565b600d55600654604080518481529051600160a060020a038087169316917fddf252ad1be2c89b69c2b068fc378daa952ba7f163c4a11628f55a4df523b3ef919081900360200190a350600192915050565b60078054829081106114f157fe5b600091825260209091200154600160a060020a0316905081565b6004805460408051602060026001851615610100026000190190941693909304601f810184900484028201840190925281815292918301828280156109e65780601f106109bb576101008083540402835291602001916109e6565b600b5481565b6010805460408051602060026001851615610100026000190190941693909304601f810184900484028201840190925281815292918301828280156109e65780601f106109bb576101008083540402835291602001916109e6565b336000908152602081905260408120548211156115e357600080fd5b600160a060020a03831615156115f857600080fd5b33600090815260208190526040902054611618908363ffffffff611ae416565b3360009081526020819052604080822092909255600160a060020a0385168152205461164a908363ffffffff611af616565b600160a060020a038416600081815260208181526040918290209390935580518581529051919233927fddf252ad1be2c89b69c2b068fc378daa952ba7f163c4a11628f55a4df523b3ef9281900390910190a350600192915050565b600c5481565b60085481565b600d5481565b336000908152600260209081526040808320600160a060020a03861684529091528120546116ec908363ffffffff611af616565b336000818152600260209081526040808320600160a060020a0389168085529083529281902085905580519485525191937f8c5be1e5ebec7d5bd14f71427d1e84f3dd0314c0f7b2291e5b200ac8c7c3b925929081900390910190a350600192915050565b600160a060020a03918216600090815260026020908152604080832093909416825291909152205490565b600654600854600954600a54600b5460038054604080516020601f60026000196001871615610100020190951694909404938401819004810282018101909252828152600160a060020a039098169760609384938493849384939092909183018282801561182b5780601f106118005761010080835404028352916020019161182b565b820191906000526020600020905b81548152906001019060200180831161180e57829003601f168201915b505060048054604080516020601f60026000196101006001881615020190951694909404938401819004810282018101909252828152969b50919450925084019050828280156118bc5780601f10611891576101008083540402835291602001916118bc565b820191906000526020600020905b81548152906001019060200180831161189f57829003601f168201915b5050600e8054604080516020601f60026000196101006001881615020190951694909404938401819004810282018101909252828152969a509194509250840190508282801561194d5780601f106119225761010080835404028352916020019161194d565b820191906000526020600020905b81548152906001019060200180831161193057829003601f168201915b5050600f8054604080516020601f60026000196101006001881615020190951694909404938401819004810282018101909252828152969950919450925084019050828280156119de5780601f106119b3576101008083540402835291602001916119de565b820191906000526020600020905b8154815290600101906020018083116119c157829003601f168201915b505060108054604080516020601f6002600019610100600188161502019095169490940493840181900481028201810190925282815296985091945092508401905082828015611a6f5780601f10611a4457610100808354040283529160200191611a6f565b820191906000526020600020905b815481529060010190602001808311611a5257829003601f168201915b5050505050905090919293949596979899565b60606007805480602002602001604051908101604052809291908181526020018280548015611ada57602002820191906000526020600020905b8154600160a060020a03168152600190910190602001808311611abc575b5050505050905090565b600082821115611af057fe5b50900390565b81810182811015610a4f57fe5b6000821515611b1457506000610a4f565b50818102818382811515611b2457fe5b0414610a4f57fe5b828054600181600116156101000203166002900490600052602060002090601f016020900481019282601f10611b6d57805160ff1916838001178555611b9a565b82800160010185558215611b9a579182015b82811115611b9a578251825591602001919060010190611b7f565b50611ba6929150611baa565b5090565b610aa091905b80821115611ba65760008155600101611bb05600a165627a7a72305820b3db51b9228d370d4d6184087a8c9cec8fa70271f2ae547222ade947661499bf0029a165627a7a7230582034a51cb4ec83f25d602d34caf74a604152e7ef2a031f5eb50ba3136e06bc7e1d0029",
  "source": "pragma solidity ^0.4.24;\n\nimport \"openzeppelin-solidity/contracts/math/SafeMath.sol\";\nimport {HeartBankCoinInterface as Kiitos} from \"./HeartBankCoinInterface.sol\";\nimport {BoxOfficeMovie as Movie} from \"./BoxOfficeMovie.sol\";\n\n/** @title Box Office factory that creates ERC20 movie tickets */\ncontract BoxOffice {\n    \n    using SafeMath for uint;\n    using SafeMath for uint8;\n    \n    address public admin;\n    bool private emergency;\n    \n    Kiitos public kiitos;\n    uint public heartbank;\n    uint public charity;\n    uint public listingFee;\n    uint8 public withdrawFee;\n    \n    address[] public films;\n    \n    event FilmCreated(\n        address movie,\n        uint salesEndDate,\n        uint availableTickets,\n        uint price,\n        uint ticketSupply, \n        string movieName, \n        string ticketSymbol,\n        string logline,\n        string poster,\n        string trailer\n    );\n    \n    event TicketsBought(\n        address movie, \n        address buyer,\n        uint price,\n        uint quantity\n    );\n    \n    event ExcessPaid(\n        uint indexed date,\n        address indexed movie,\n        address indexed buyer,\n        uint excess\n    );\n    \n    event FundWithdrawn(\n        uint indexed date,\n        address indexed movie, \n        address recipient, \n        uint amount, \n        string expense\n    );\n    \n    event CharityDonated(\n        uint indexed date,\n        address indexed recipient, \n        uint amount\n    );\n    \n    event ExcessReturned(\n        address recipient, \n        uint amount\n    );\n    \n    event FeesUpdated(\n        uint listingFee,\n        uint withdrawFee\n    );\n    \n    event FallbackTriggered(\n        uint indexed date,\n        address indexed sender,\n        uint value\n    );\n    \n    modifier onlyAdmin {\n        require(msg.sender == admin);\n        _;\n    }\n    \n    modifier onlyFilmmaker(address movie) {\n        require(msg.sender == Movie(movie).filmmaker());\n        _;\n    }\n    \n    modifier chargeListingFee {\n        require(kiitos.balanceOf(msg.sender) >= listingFee);\n        kiitos.transferToAdmin(msg.sender, listingFee);\n        _;\n    }\n    \n    modifier chargeWithdrawFee(uint amount) {\n        uint fee = withdrawFee.mul(amount).div(100);\n        heartbank = heartbank.add(fee);\n        charity = charity.add(fee);\n        _;\n    }\n    \n    modifier stopInEmergency { \n        require(!emergency); \n        _; \n    }\n    \n    modifier onlyInEmergency { \n        require(emergency); \n        _;\n    }\n    \n    /** @dev Instantiates a Box Office factory with initial values\n     * @param token Contract address of the HeartBank coin called Kiitos\n     */\n    constructor(address token) public {\n        kiitos = Kiitos(token);\n        admin = msg.sender;\n        emergency = false;\n        \n        heartbank = 0;\n        charity = 0;\n        listingFee = 2;\n        withdrawFee = 1;\n    }\n    \n    /** @dev Catches payment mistakes for admin to refund */\n    function() public payable {\n        emit FallbackTriggered(now, msg.sender, msg.value);\n    }\n    \n    /** @dev Creates ERC20 token per movie \n     * @param salesEndDate End date of ticket sales\n     * @param availableTickets Quantity of tickets available during sales period\n     * @param price Price of each ticket\n     * @param ticketSupply Total supply of tickets \n     * @param movieName Title of movie\n     * @param ticketSymbol Token symbol of ticket\n     * @param logline Logline of movie\n     * @param poster IPFS hash of movie poster\n     * @param trailer YouTube id of video trailer\n     * @return Boolean for testing in solidity\n     */\n    function makeFilm(\n        uint salesEndDate,\n        uint availableTickets,\n        uint price,\n        uint ticketSupply, \n        string movieName, \n        string ticketSymbol,\n        string logline,\n        string poster,\n        string trailer\n    ) \n        public \n        stopInEmergency\n        chargeListingFee\n        returns (bool)\n    {\n        require(salesEndDate > now);\n        require(availableTickets <= ticketSupply);\n        require(price > 0);\n        require(ticketSupply > 0);\n        require(bytes(movieName).length > 0);\n        require(bytes(ticketSymbol).length > 0);\n        require(bytes(logline).length > 0);\n        require(bytes(poster).length > 0);\n        require(bytes(trailer).length > 0);\n        \n        Movie film = new Movie(msg.sender, salesEndDate, availableTickets, price, ticketSupply, movieName, ticketSymbol, logline, poster, trailer);\n        films.push(film);\n        \n        emit FilmCreated(\n            film,\n            salesEndDate,\n            availableTickets,\n            price,\n            ticketSupply,\n            movieName,\n            ticketSymbol,\n            logline,\n            poster,\n            trailer    \n        );\n        return true;\n    }\n    \n    /** @dev Purchases movie tickets\n     * @param movie Address of movie token\n     * @param quantity Number of tikcets to purchase\n     * @return Boolean for testing in solidity \n     */\n    function buyTickets(address movie, uint quantity) \n        public \n        payable\n        stopInEmergency\n        returns (bool)\n    {\n        require(quantity > 0);\n        Movie film = Movie(movie);\n        uint price = film.price();\n        \n        // only during sales period\n        require(now < film.salesEndDate());\n        \n        // check available tickets\n        require(quantity <= film.availableTickets());\n        \n        // check payment amount\n        require(msg.value >= quantity.mul(price));\n        \n        // check excess payment\n        uint excess = msg.value.sub(quantity.mul(price));\n        if (excess > 0) emit ExcessPaid(now, movie, msg.sender, excess);\n        \n        film.buyTickets(msg.sender, quantity);\n        emit TicketsBought(movie, msg.sender, price, quantity);\n        return true;\n    }\n    \n    /** @dev Withdraws from fund to pay expense\n     * @param movie Address of movie token\n     * @param recipient Address of recipient to be paid\n     * @param amount Amount in wei to pay\n     * @param expense Description of expense\n     * @return Boolean for testing in solidity\n     */\n    function withdrawFund(address movie, address recipient, uint amount, string expense) \n        public \n        stopInEmergency\n        onlyFilmmaker(movie)\n        chargeWithdrawFee(amount)\n        returns (bool)\n    {\n        require(recipient != address(0));\n        require(amount > 0);\n        require(bytes(expense).length > 0);\n        Movie(movie).withdrawFund(amount.add(withdrawFee.mul(amount).div(100)));\n        \n        emit FundWithdrawn(now, movie, recipient, amount, expense);\n        recipient.transfer(amount);\n        return true;\n    }\n    \n    /** @dev Returns array of movie token addresses\n     * @return Movie token addresses\n     */\n    function getFilms() public view returns (address[]) {\n        return films;\n    }\n    \n    /** @dev Lets admin update listing fee and withdraw fee\n     * @param listing Listing fee in Kiitos for creating a movie token\n     * @param withdraw Fee as percentage of amount for withdrawing from fund\n     * @return Boolean for testing in solidity\n     */\n    function updateFees(uint listing, uint8 withdraw)\n        public\n        stopInEmergency\n        onlyAdmin\n        returns (bool)\n    {\n        listingFee = listing;\n        withdrawFee = withdraw;\n        emit FeesUpdated(listingFee, withdrawFee);\n        return true;\n    }\n    \n    /** @dev Gives admin the ability to donate widthdraw fees to any charity\n     * @param recipient Address of charity\n     * @param amount Amount in wei to donate\n     * @return Boolean for testing in solidity\n     */\n    function donateToCharity(address recipient, uint amount) public onlyAdmin returns (bool) {\n        require(amount <= heartbank);\n        heartbank = heartbank.sub(amount);\n        emit CharityDonated(now, recipient, amount);\n        recipient.transfer(amount);\n        return true;\n    }\n    \n    /** @dev Gives admin the ability to return payment in excess or mistake \n     * @param recipient Address of recipient to refund\n     * @param amount Amount in wei to refund \n     * @return Boolean for testing in solidity\n     */\n    function returnExcessPayment(address recipient, uint amount) public onlyAdmin returns (bool) {\n        require(amount <= address(this).balance);\n        emit ExcessReturned(recipient, amount);\n        recipient.transfer(amount);\n        return true;\n    }\n    \n    /** @dev Returns stats collected\n     * @return listingFee The listing fee\n     * @return withdrawFee The withdraw fee\n     * @return heartbank Balance of withdraw fees withdrawn for charity \n     * @return charity Total withdraw fees collected\n     */\n    function getBoxOfficeStats() public view returns (uint, uint, uint, uint) {\n        return (listingFee, withdrawFee, heartbank, charity); \n    }\n    \n    /** @dev Lets admin toggle the state of emergency \n     * @return Boolean for testing in solidity\n     */\n    function toggleEmergency() public onlyAdmin returns (bool) {\n        emergency = !emergency;\n        return true;\n    }\n    \n    /** @dev Lets admin destroy this contract and send excess balance to self\n     */\n    function shutDownBoxOffice() public onlyInEmergency onlyAdmin {\n        selfdestruct(admin);\n    }\n    \n}\n\n",
  "sourcePath": "/Users/heartbank/Google Drive/ConsenSys/BoxOffice/contracts/BoxOffice.sol",
  "compiler": {
    "name": "solc",
    "version": "0.4.24+commit.e67f0147.Emscripten.clang"
  },
  "schemaVersion": "2.0.1",
  "updatedAt": "2018-08-31T17:19:04.626Z"
}