{
  "contractName": "BoxOffice",
  "abi": [
    {
      "constant": true,
      "inputs": [],
      "name": "listingFee",
      "outputs": [
        {
          "name": "",
          "type": "uint256"
        }
      ],
      "payable": false,
      "stateMutability": "view",
      "type": "function"
    },
    {
      "constant": true,
      "inputs": [],
      "name": "HEARTBANK",
      "outputs": [
        {
          "name": "",
          "type": "address"
        }
      ],
      "payable": false,
      "stateMutability": "view",
      "type": "function"
    },
    {
      "constant": true,
      "inputs": [
        {
          "name": "",
          "type": "uint256"
        }
      ],
      "name": "films",
      "outputs": [
        {
          "name": "filmmaker",
          "type": "address"
        },
        {
          "name": "movie",
          "type": "address"
        },
        {
          "name": "logline",
          "type": "string"
        },
        {
          "name": "poster",
          "type": "string"
        },
        {
          "name": "trailer",
          "type": "string"
        },
        {
          "name": "createdTime",
          "type": "uint256"
        },
        {
          "name": "salesEndTime",
          "type": "uint256"
        },
        {
          "name": "price",
          "type": "uint256"
        },
        {
          "name": "sales",
          "type": "uint256"
        },
        {
          "name": "fund",
          "type": "uint256"
        },
        {
          "name": "withdraws",
          "type": "uint256"
        }
      ],
      "payable": false,
      "stateMutability": "view",
      "type": "function"
    },
    {
      "constant": true,
      "inputs": [],
      "name": "kiitos",
      "outputs": [
        {
          "name": "",
          "type": "address"
        }
      ],
      "payable": false,
      "stateMutability": "view",
      "type": "function"
    },
    {
      "constant": true,
      "inputs": [],
      "name": "withdrawFee",
      "outputs": [
        {
          "name": "",
          "type": "uint256"
        }
      ],
      "payable": false,
      "stateMutability": "view",
      "type": "function"
    },
    {
      "constant": true,
      "inputs": [],
      "name": "admin",
      "outputs": [
        {
          "name": "",
          "type": "address"
        }
      ],
      "payable": false,
      "stateMutability": "view",
      "type": "function"
    },
    {
      "inputs": [
        {
          "name": "heartbank",
          "type": "address"
        },
        {
          "name": "token",
          "type": "address"
        }
      ],
      "payable": false,
      "stateMutability": "nonpayable",
      "type": "constructor"
    },
    {
      "payable": true,
      "stateMutability": "payable",
      "type": "fallback"
    },
    {
      "anonymous": false,
      "inputs": [
        {
          "indexed": true,
          "name": "filmIndex",
          "type": "uint256"
        },
        {
          "indexed": false,
          "name": "salesEndTime",
          "type": "uint256"
        },
        {
          "indexed": false,
          "name": "price",
          "type": "uint256"
        },
        {
          "indexed": false,
          "name": "ticketSupply",
          "type": "uint256"
        },
        {
          "indexed": false,
          "name": "movieName",
          "type": "string"
        },
        {
          "indexed": false,
          "name": "ticketSymbol",
          "type": "string"
        },
        {
          "indexed": false,
          "name": "logline",
          "type": "string"
        },
        {
          "indexed": false,
          "name": "poster",
          "type": "string"
        },
        {
          "indexed": false,
          "name": "trailer",
          "type": "string"
        }
      ],
      "name": "FilmCreated",
      "type": "event"
    },
    {
      "anonymous": false,
      "inputs": [
        {
          "indexed": true,
          "name": "filmIndex",
          "type": "uint256"
        },
        {
          "indexed": false,
          "name": "salesEndTime",
          "type": "uint256"
        },
        {
          "indexed": false,
          "name": "price",
          "type": "uint256"
        },
        {
          "indexed": false,
          "name": "movieName",
          "type": "string"
        },
        {
          "indexed": false,
          "name": "ticketSymbol",
          "type": "string"
        },
        {
          "indexed": false,
          "name": "logline",
          "type": "string"
        },
        {
          "indexed": false,
          "name": "poster",
          "type": "string"
        },
        {
          "indexed": false,
          "name": "trailer",
          "type": "string"
        }
      ],
      "name": "FilmUpdated",
      "type": "event"
    },
    {
      "anonymous": false,
      "inputs": [
        {
          "indexed": true,
          "name": "filmIndex",
          "type": "uint256"
        },
        {
          "indexed": true,
          "name": "buyer",
          "type": "address"
        },
        {
          "indexed": false,
          "name": "quantity",
          "type": "uint256"
        }
      ],
      "name": "TicketsBought",
      "type": "event"
    },
    {
      "anonymous": false,
      "inputs": [
        {
          "indexed": true,
          "name": "filmIndex",
          "type": "uint256"
        },
        {
          "indexed": true,
          "name": "buyer",
          "type": "address"
        },
        {
          "indexed": false,
          "name": "excess",
          "type": "uint256"
        }
      ],
      "name": "ExcessPayment",
      "type": "event"
    },
    {
      "anonymous": false,
      "inputs": [
        {
          "indexed": true,
          "name": "filmIndex",
          "type": "uint256"
        },
        {
          "indexed": true,
          "name": "holder",
          "type": "address"
        }
      ],
      "name": "TicketSpent",
      "type": "event"
    },
    {
      "anonymous": false,
      "inputs": [
        {
          "indexed": true,
          "name": "filmIndex",
          "type": "uint256"
        },
        {
          "indexed": true,
          "name": "recipient",
          "type": "address"
        },
        {
          "indexed": false,
          "name": "amount",
          "type": "uint256"
        },
        {
          "indexed": false,
          "name": "expense",
          "type": "string"
        }
      ],
      "name": "FundWithdrawn",
      "type": "event"
    },
    {
      "anonymous": false,
      "inputs": [
        {
          "indexed": false,
          "name": "listingFee",
          "type": "uint256"
        },
        {
          "indexed": false,
          "name": "withdrawFee",
          "type": "uint256"
        }
      ],
      "name": "FeesUpdated",
      "type": "event"
    },
    {
      "anonymous": false,
      "inputs": [
        {
          "indexed": true,
          "name": "sender",
          "type": "address"
        },
        {
          "indexed": false,
          "name": "value",
          "type": "uint256"
        }
      ],
      "name": "FallbackTriggered",
      "type": "event"
    },
    {
      "constant": false,
      "inputs": [
        {
          "name": "salesEndTime",
          "type": "uint256"
        },
        {
          "name": "price",
          "type": "uint256"
        },
        {
          "name": "ticketSupply",
          "type": "uint256"
        },
        {
          "name": "movieName",
          "type": "string"
        },
        {
          "name": "ticketSymbol",
          "type": "string"
        },
        {
          "name": "logline",
          "type": "string"
        },
        {
          "name": "poster",
          "type": "string"
        },
        {
          "name": "trailer",
          "type": "string"
        }
      ],
      "name": "makeFilm",
      "outputs": [
        {
          "name": "",
          "type": "bool"
        }
      ],
      "payable": false,
      "stateMutability": "nonpayable",
      "type": "function"
    },
    {
      "constant": false,
      "inputs": [
        {
          "name": "filmIndex",
          "type": "uint256"
        },
        {
          "name": "salesEndTime",
          "type": "uint256"
        },
        {
          "name": "price",
          "type": "uint256"
        },
        {
          "name": "movieName",
          "type": "string"
        },
        {
          "name": "ticketSymbol",
          "type": "string"
        },
        {
          "name": "logline",
          "type": "string"
        },
        {
          "name": "poster",
          "type": "string"
        },
        {
          "name": "trailer",
          "type": "string"
        }
      ],
      "name": "updateFilm",
      "outputs": [
        {
          "name": "",
          "type": "bool"
        }
      ],
      "payable": false,
      "stateMutability": "nonpayable",
      "type": "function"
    },
    {
      "constant": false,
      "inputs": [
        {
          "name": "filmIndex",
          "type": "uint256"
        },
        {
          "name": "quantity",
          "type": "uint256"
        }
      ],
      "name": "buyTickets",
      "outputs": [
        {
          "name": "",
          "type": "bool"
        }
      ],
      "payable": true,
      "stateMutability": "payable",
      "type": "function"
    },
    {
      "constant": false,
      "inputs": [
        {
          "name": "filmIndex",
          "type": "uint256"
        }
      ],
      "name": "spendTicket",
      "outputs": [
        {
          "name": "",
          "type": "bool"
        }
      ],
      "payable": false,
      "stateMutability": "nonpayable",
      "type": "function"
    },
    {
      "constant": false,
      "inputs": [
        {
          "name": "filmIndex",
          "type": "uint256"
        },
        {
          "name": "recipient",
          "type": "address"
        },
        {
          "name": "amount",
          "type": "uint256"
        },
        {
          "name": "expense",
          "type": "string"
        }
      ],
      "name": "withdrawFund",
      "outputs": [
        {
          "name": "",
          "type": "bool"
        }
      ],
      "payable": false,
      "stateMutability": "nonpayable",
      "type": "function"
    },
    {
      "constant": false,
      "inputs": [
        {
          "name": "_listingFee",
          "type": "uint256"
        },
        {
          "name": "_withdrawFee",
          "type": "uint256"
        }
      ],
      "name": "updateFees",
      "outputs": [
        {
          "name": "",
          "type": "bool"
        }
      ],
      "payable": false,
      "stateMutability": "nonpayable",
      "type": "function"
    },
    {
      "constant": true,
      "inputs": [],
      "name": "getBoxOfficeStats",
      "outputs": [
        {
          "name": "totalReceipts",
          "type": "uint256"
        },
        {
          "name": "totalFilms",
          "type": "uint256"
        }
      ],
      "payable": false,
      "stateMutability": "view",
      "type": "function"
    },
    {
      "constant": true,
      "inputs": [],
      "name": "getTotalFilms",
      "outputs": [
        {
          "name": "",
          "type": "uint256"
        }
      ],
      "payable": false,
      "stateMutability": "view",
      "type": "function"
    },
    {
      "constant": true,
      "inputs": [
        {
          "name": "index",
          "type": "uint256"
        }
      ],
      "name": "getFilmSummary",
      "outputs": [
        {
          "name": "movie",
          "type": "address"
        },
        {
          "name": "filmmaker",
          "type": "address"
        },
        {
          "name": "salesEndTime",
          "type": "uint256"
        },
        {
          "name": "price",
          "type": "uint256"
        },
        {
          "name": "ticketSupply",
          "type": "uint256"
        },
        {
          "name": "movieName",
          "type": "string"
        },
        {
          "name": "ticketSymbol",
          "type": "string"
        },
        {
          "name": "logline",
          "type": "string"
        },
        {
          "name": "poster",
          "type": "string"
        },
        {
          "name": "trailer",
          "type": "string"
        }
      ],
      "payable": false,
      "stateMutability": "view",
      "type": "function"
    },
    {
      "constant": true,
      "inputs": [
        {
          "name": "index",
          "type": "uint256"
        }
      ],
      "name": "getFilmStats",
      "outputs": [
        {
          "name": "price",
          "type": "uint256"
        },
        {
          "name": "totalAudienceMembers",
          "type": "uint256"
        },
        {
          "name": "totalWithdraws",
          "type": "uint256"
        },
        {
          "name": "ticketSupply",
          "type": "uint256"
        },
        {
          "name": "ticketsAvailable",
          "type": "uint256"
        },
        {
          "name": "ticketsSold",
          "type": "uint256"
        },
        {
          "name": "filmMarketValue",
          "type": "uint256"
        },
        {
          "name": "fundsCollected",
          "type": "uint256"
        },
        {
          "name": "fundsWithdrawn",
          "type": "uint256"
        },
        {
          "name": "fundBalance",
          "type": "uint256"
        }
      ],
      "payable": false,
      "stateMutability": "view",
      "type": "function"
    },
    {
      "constant": true,
      "inputs": [
        {
          "name": "filmIndex",
          "type": "uint256"
        }
      ],
      "name": "getTotalWithdraws",
      "outputs": [
        {
          "name": "",
          "type": "uint256"
        }
      ],
      "payable": false,
      "stateMutability": "view",
      "type": "function"
    },
    {
      "constant": true,
      "inputs": [
        {
          "name": "filmIndex",
          "type": "uint256"
        },
        {
          "name": "withdrawIndex",
          "type": "uint256"
        }
      ],
      "name": "getWithdrawal",
      "outputs": [
        {
          "name": "",
          "type": "address"
        },
        {
          "name": "",
          "type": "uint256"
        },
        {
          "name": "",
          "type": "string"
        }
      ],
      "payable": false,
      "stateMutability": "view",
      "type": "function"
    },
    {
      "constant": true,
      "inputs": [
        {
          "name": "filmIndex",
          "type": "uint256"
        }
      ],
      "name": "getAudienceMembers",
      "outputs": [
        {
          "name": "",
          "type": "address[]"
        }
      ],
      "payable": false,
      "stateMutability": "view",
      "type": "function"
    },
    {
      "constant": true,
      "inputs": [
        {
          "name": "filmIndex",
          "type": "uint256"
        },
        {
          "name": "member",
          "type": "address"
        }
      ],
      "name": "isAudienceMember",
      "outputs": [
        {
          "name": "",
          "type": "bool"
        }
      ],
      "payable": false,
      "stateMutability": "view",
      "type": "function"
    },
    {
      "constant": false,
      "inputs": [
        {
          "name": "recipient",
          "type": "address"
        },
        {
          "name": "amount",
          "type": "uint256"
        }
      ],
      "name": "returnExcessPayment",
      "outputs": [
        {
          "name": "",
          "type": "bool"
        }
      ],
      "payable": false,
      "stateMutability": "nonpayable",
      "type": "function"
    },
    {
      "constant": false,
      "inputs": [],
      "name": "toggleEmergency",
      "outputs": [
        {
          "name": "",
          "type": "bool"
        }
      ],
      "payable": false,
      "stateMutability": "nonpayable",
      "type": "function"
    },
    {
      "constant": false,
      "inputs": [],
      "name": "shutDownBoxOffice",
      "outputs": [],
      "payable": false,
      "stateMutability": "nonpayable",
      "type": "function"
    }
  ],
  "bytecode": "0x608060405234801561001057600080fd5b50604051604080613d6283398101604052805160209091015160008054600160a060020a03938416600160a060020a03199182161790915560028054939092169281169290921781556001805460a060020a60ff021993163317929092168255600355600455613cdd806100856000396000f3006080604052600436106200014a5763ffffffff7c010000000000000000000000000000000000000000000000000000000060003504166301eac4f7811462000182578063055223db146200040357806316ce212d1462000432578063267b588d146200045c57806328a9ada014620004765780632d1d2744146200052f5780633c1db66a14620005475780636a1b7ecc14620006a55780636db7943714620006bd5780638342a3f214620006db5780638627df46146200074657806387a60441146200075657806393aab8d8146200078a5780639f799591146200094e578063a5cae0361462000969578063adad9ee4146200099a578063bb982f151462000af8578063c8a953ca1462000b10578063e941fa781462000b7d578063efebad751462000b95578063f26574b51462000c07578063f6c820d71462000c2e578063f851a4401462000c55575b60408051348152905133917f88f0557776a847895e33e08fed583a81cbf92cfd35b7e6b2eceb494b15fe199b919081900360200190a2005b3480156200018f57600080fd5b506200019d60043562000c6d565b604051808b600160a060020a0316600160a060020a031681526020018a600160a060020a0316600160a060020a03168152602001898152602001888152602001878152602001806020018060200180602001806020018060200186810386528b818151815260200191508051906020019080838360005b838110156200022e57818101518382015260200162000214565b50505050905090810190601f1680156200025c5780820380516001836020036101000a031916815260200191505b5086810385528a5181528a516020918201918c019080838360005b838110156200029157818101518382015260200162000277565b50505050905090810190601f168015620002bf5780820380516001836020036101000a031916815260200191505b5086810384528951815289516020918201918b019080838360005b83811015620002f4578181015183820152602001620002da565b50505050905090810190601f168015620003225780820380516001836020036101000a031916815260200191505b5086810383528851815288516020918201918a019080838360005b83811015620003575781810151838201526020016200033d565b50505050905090810190601f168015620003855780820380516001836020036101000a031916815260200191505b50868103825287518152875160209182019189019080838360005b83811015620003ba578181015183820152602001620003a0565b50505050905090810190601f168015620003e85780820380516001836020036101000a031916815260200191505b509f5050505050505050505050505050505060405180910390f35b3480156200041057600080fd5b506200041e60043562001125565b604080519115158252519081900360200190f35b3480156200043f57600080fd5b506200044a6200135d565b60408051918252519081900360200190f35b3480156200046957600080fd5b506200047462001364565b005b3480156200048357600080fd5b5062000494600435602435620013b4565b6040518084600160a060020a0316600160a060020a0316815260200183815260200180602001828103825283818151815260200191508051906020019080838360005b83811015620004f1578181015183820152602001620004d7565b50505050905090810190601f1680156200051f5780820380516001836020036101000a031916815260200191505b5094505050505060405180910390f35b3480156200053c57600080fd5b506200041e620014a3565b3480156200055457600080fd5b50604080516020601f6064356004818101359283018490048402850184019095528184526200041e948035946024803595604435953695608494930191819084018382808284375050604080516020601f89358b018035918201839004830284018301909452808352979a99988101979196509182019450925082915084018382808284375050604080516020601f89358b018035918201839004830284018301909452808352979a99988101979196509182019450925082915084018382808284375050604080516020601f89358b018035918201839004830284018301909452808352979a99988101979196509182019450925082915084018382808284375050604080516020601f89358b018035918201839004830284018301909452808352979a999881019791965091820194509250829150840183828082843750949750620015039650505050505050565b348015620006b257600080fd5b506200044a62001a8c565b348015620006ca57600080fd5b506200041e60043560243562001a92565b348015620006e857600080fd5b50620006f660043562001b25565b604080519a8b5260208b0199909952898901979097526060890195909552608088019390935260a087019190915260c086015260e085015261010084015261012083015251908190036101400190f35b6200041e60043560243562001d07565b3480156200076357600080fd5b506200076e6200200c565b60408051600160a060020a039092168252519081900360200190f35b3480156200079757600080fd5b50620007a56004356200201b565b604051808c600160a060020a0316600160a060020a031681526020018b600160a060020a0316600160a060020a031681526020018060200180602001806020018a815260200189815260200188815260200187815260200186815260200185815260200184810384528d818151815260200191508051906020019080838360005b838110156200084057818101518382015260200162000826565b50505050905090810190601f1680156200086e5780820380516001836020036101000a031916815260200191505b5084810383528c5181528c516020918201918e019080838360005b83811015620008a357818101518382015260200162000889565b50505050905090810190601f168015620008d15780820380516001836020036101000a031916815260200191505b5084810382528b5181528b516020918201918d019080838360005b8381101562000906578181015183820152602001620008ec565b50505050905090810190601f168015620009345780820380516001836020036101000a031916815260200191505b509e50505050505050505050505050505060405180910390f35b3480156200095b57600080fd5b506200044a60043562002238565b3480156200097657600080fd5b506200098162002263565b6040805192835260208301919091528051918290030190f35b348015620009a757600080fd5b50604080516020601f6064356004818101359283018490048402850184019095528184526200041e948035946024803595604435953695608494930191819084018382808284375050604080516020601f89358b018035918201839004830284018301909452808352979a99988101979196509182019450925082915084018382808284375050604080516020601f89358b018035918201839004830284018301909452808352979a99988101979196509182019450925082915084018382808284375050604080516020601f89358b018035918201839004830284018301909452808352979a99988101979196509182019450925082915084018382808284375050604080516020601f89358b018035918201839004830284018301909452808352979a999881019791965091820194509250829150840183828082843750949750620022779650505050505050565b34801562000b0557600080fd5b506200076e620029b8565b34801562000b1d57600080fd5b5062000b2b600435620029c7565b60408051602080825283518183015283519192839290830191858101910280838360005b8381101562000b6957818101518382015260200162000b4f565b505050509050019250505060405180910390f35b34801562000b8a57600080fd5b506200044a62002a4c565b34801562000ba257600080fd5b50604080516020601f6064356004818101359283018490048402850184019095528184526200041e94803594600160a060020a03602480359190911695604435953695608494930191819084018382808284375094975062002a529650505050505050565b34801562000c1457600080fd5b506200041e600160a060020a036004351660243562002d6a565b34801562000c3b57600080fd5b506200041e600435600160a060020a036024351662002dc6565b34801562000c6257600080fd5b506200076e62002e0c565b6000806000806000606080606080606060008060058d81548110151562000c9057fe5b90600052602060002090600e020191508160010160009054906101000a9004600160a060020a031690508160010160009054906101000a9004600160a060020a03169b508160000160009054906101000a9004600160a060020a03169a50816006015499508160070154985080600160a060020a03166318160ddd6040518163ffffffff167c0100000000000000000000000000000000000000000000000000000000028152600401602060405180830381600087803b15801562000d5457600080fd5b505af115801562000d69573d6000803e3d6000fd5b505050506040513d602081101562000d8057600080fd5b5051604080517f06fdde030000000000000000000000000000000000000000000000000000000081529051919950600160a060020a038316916306fdde039160048082019260009290919082900301818387803b15801562000de157600080fd5b505af115801562000df6573d6000803e3d6000fd5b505050506040513d6000823e601f3d908101601f19168201604052602081101562000e2057600080fd5b81019080805164010000000081111562000e3957600080fd5b8201602081018481111562000e4d57600080fd5b815164010000000081118282018710171562000e6857600080fd5b5050929190505050965080600160a060020a03166395d89b416040518163ffffffff167c0100000000000000000000000000000000000000000000000000000000028152600401600060405180830381600087803b15801562000eca57600080fd5b505af115801562000edf573d6000803e3d6000fd5b505050506040513d6000823e601f3d908101601f19168201604052602081101562000f0957600080fd5b81019080805164010000000081111562000f2257600080fd5b8201602081018481111562000f3657600080fd5b815164010000000081118282018710171562000f5157600080fd5b5050600286810180546040805160206001841615610100026000190190931694909404601f8101839004830285018301909152808452939c50919550935090915083018282801562000fe75780601f1062000fbb5761010080835404028352916020019162000fe7565b820191906000526020600020905b81548152906001019060200180831162000fc957829003601f168201915b5050505060038401805460408051602060026001851615610100026000190190941693909304601f81018490048402820184019092528181529499509192508301828280156200107b5780601f106200104f576101008083540402835291602001916200107b565b820191906000526020600020905b8154815290600101906020018083116200105d57829003601f168201915b5050505060048401805460408051602060026001851615610100026000190190941693909304601f81018490048402820184019092528181529498509192508301828280156200110f5780601f10620010e3576101008083540402835291602001916200110f565b820191906000526020600020905b815481529060010190602001808311620010f157829003601f168201915b5050505050925050509193959799509193959799565b600154600090819074010000000000000000000000000000000000000000900460ff16156200115357600080fd5b8260006005828154811015156200116657fe5b600091825260208083206001600e909302019190910154604080517f70a082310000000000000000000000000000000000000000000000000000000081523360048201529051600160a060020a03909216936370a082319360248084019491939192918390030190829087803b158015620011e057600080fd5b505af1158015620011f5573d6000803e3d6000fd5b505050506040513d60208110156200120c57600080fd5b5051116200121957600080fd5b60058054859081106200122857fe5b600091825260208083206001600e9093020182810154604080517fb63f6696000000000000000000000000000000000000000000000000000000008152336004820152602481019590955251919650600160a060020a03169363b63f6696936044808201949392918390030190829087803b158015620012a757600080fd5b505af1158015620012bc573d6000803e3d6000fd5b505050506040513d6020811015620012d357600080fd5b5050600d820180546001818101835560009283526020808420909201805473ffffffffffffffffffffffffffffffffffffffff191633908117909155808452600c86019092526040808420805460ff191690921790915551909186917f40c7e46fb6ec132685a55f5cbcf79ff8d3b5847b4649d916255a9d00223394b59190a35060019392505050565b6005545b90565b60015474010000000000000000000000000000000000000000900460ff1615156200138e57600080fd5b600154600160a060020a03163314620013a657600080fd5b600154600160a060020a0316ff5b60008060606000600586815481101515620013cb57fe5b60009182526020808320888452600e92909202909101600a01815260409182902080546001808301546002808501805488516101009582161595909502600019011691909104601f8101879004870284018701909752868352939650600160a060020a03909216949193909183918301828280156200148e5780601f1062001462576101008083540402835291602001916200148e565b820191906000526020600020905b8154815290600101906020018083116200147057829003601f168201915b50505050509050935093509350509250925092565b600154600090600160a060020a03163314620014be57600080fd5b506001805474ff0000000000000000000000000000000000000000198116740100000000000000000000000000000000000000009182900460ff161590910217815590565b6001546000908190819074010000000000000000000000000000000000000000900460ff16156200153357600080fd5b8a6005818154811015156200154457fe5b60009182526020909120600e9091020154600160a060020a031633146200156a57600080fd5b600580548d9081106200157957fe5b60009182526020909120600e909102016001810154909350600160a060020a03169150428b1115620015ad57600683018b90555b60008a1115620015bf57600783018a90555b600089511115620016bc576040517fff8afc8f0000000000000000000000000000000000000000000000000000000081526020600482018181528b5160248401528b51600160a060020a0386169363ff8afc8f938e939283926044019185019080838360005b838110156200163f57818101518382015260200162001625565b50505050905090810190601f1680156200166d5780820380516001836020036101000a031916815260200191505b5092505050602060405180830381600087803b1580156200168d57600080fd5b505af1158015620016a2573d6000803e3d6000fd5b505050506040513d6020811015620016b957600080fd5b50505b600088511115620017b9576040517f029f989f0000000000000000000000000000000000000000000000000000000081526020600482018181528a5160248401528a51600160a060020a0386169363029f989f938d939283926044019185019080838360005b838110156200173c57818101518382015260200162001722565b50505050905090810190601f1680156200176a5780820380516001836020036101000a031916815260200191505b5092505050602060405180830381600087803b1580156200178a57600080fd5b505af11580156200179f573d6000803e3d6000fd5b505050506040513d6020811015620017b657600080fd5b50505b600087511115620017dd578651620017db90600285019060208a019062002e7f565b505b60008651111562001801578551620017ff906003850190602089019062002e7f565b505b6000855111156200182557845162001823906004850190602088019062002e7f565b505b8b7f8cb3135083431f1ab0230b1a8e86f6ae45c0113bc0de105a4b738be9f5be4b4b8c8c8c8c8c8c8c60405180888152602001878152602001806020018060200180602001806020018060200186810386528b818151815260200191508051906020019080838360005b83811015620018a95781810151838201526020016200188f565b50505050905090810190601f168015620018d75780820380516001836020036101000a031916815260200191505b5086810385528a5181528a516020918201918c019080838360005b838110156200190c578181015183820152602001620018f2565b50505050905090810190601f1680156200193a5780820380516001836020036101000a031916815260200191505b5086810384528951815289516020918201918b019080838360005b838110156200196f57818101518382015260200162001955565b50505050905090810190601f1680156200199d5780820380516001836020036101000a031916815260200191505b5086810383528851815288516020918201918a019080838360005b83811015620019d2578181015183820152602001620019b8565b50505050905090810190601f16801562001a005780820380516001836020036101000a031916815260200191505b50868103825287518152875160209182019189019080838360005b8381101562001a3557818101518382015260200162001a1b565b50505050905090810190601f16801562001a635780820380516001836020036101000a031916815260200191505b509c5050505050505050505050505060405180910390a25060019b9a5050505050505050505050565b60035481565b60015460009074010000000000000000000000000000000000000000900460ff161562001abe57600080fd5b600154600160a060020a0316331462001ad657600080fd5b60038390556004829055604080518481526020810184905281517f5c6323bf1c2d7aaea2c091a4751c1c87af7f2864650c336507a77d0557af37a1929181900390910190a15060015b92915050565b60008060008060008060008060008060008060058d81548110151562001b4757fe5b60009182526020909120600e90910201600181015460078201549d50909250600160a060020a0316905062001b7c8d620029c7565b519a5062001b8a8d62002238565b995080600160a060020a03166318160ddd6040518163ffffffff167c0100000000000000000000000000000000000000000000000000000000028152600401602060405180830381600087803b15801562001be457600080fd5b505af115801562001bf9573d6000803e3d6000fd5b505050506040513d602081101562001c1057600080fd5b50518254604080517f70a08231000000000000000000000000000000000000000000000000000000008152600160a060020a0392831660048201529051929b50908316916370a08231916024808201926020929091908290030181600087803b15801562001c7d57600080fd5b505af115801562001c92573d6000803e3d6000fd5b505050506040513d602081101562001ca957600080fd5b5051975062001cbf898963ffffffff62002e1b16565b965062001cd38c8a63ffffffff62002e2e16565b600883015460098401549197509550925062001cf6858463ffffffff62002e1b16565b935050509193959799509193959799565b600154600090819074010000000000000000000000000000000000000000900460ff161562001d3557600080fd5b8360058181548110151562001d4657fe5b90600052602060002090600e0201600601544210151562001d6657600080fd5b84846000811162001d7657600080fd5b62001dac60058381548110151562001d8a57fe5b90600052602060002090600e0201600701548262002e2e90919063ffffffff16565b34101562001db957600080fd5b8686600060058a81548110151562001dcd57fe5b90600052602060002090600e020196508660010160009054906101000a9004600160a060020a0316600160a060020a03166323b872dd8860000160009054906101000a9004600160a060020a0316338c6040518463ffffffff167c01000000000000000000000000000000000000000000000000000000000281526004018084600160a060020a0316600160a060020a0316815260200183600160a060020a0316600160a060020a031681526020018281526020019350505050602060405180830381600087803b15801562001ea257600080fd5b505af115801562001eb7573d6000803e3d6000fd5b505050506040513d602081101562001ece57600080fd5b5050600787015462001eff9062001eed908b9063ffffffff62002e2e16565b60088901549063ffffffff62002e5b16565b6008880155600787015462001f339062001f21908b9063ffffffff62002e2e16565b60098901549063ffffffff62002e5b16565b6009880155604080518a8152905133918c917f2fe7f3fce87dc8184aed61d2307d6f46c968decd48a64b99c3d961a4c8d9b7bd9181900360200190a36001975062001fbb62001fad60058581548110151562001f8b57fe5b90600052602060002090600e0201600701548462002e2e90919063ffffffff16565b349063ffffffff62002e1b16565b9050600081111562001fff57604080518281529051339185917ff26a1f0c76c04c05da7dc2d91e9b1437fc7fd208e8d6b292e1ad18b7bdeb854f9181900360200190a35b5050505050505092915050565b600054600160a060020a031681565b60058054829081106200202a57fe5b6000918252602091829020600e9091020180546001808301546002808501805460408051601f60001997841615610100029790970190921693909304948501889004880281018801909252838252600160a060020a0394851697509190931694909190830182828015620020e25780601f10620020b657610100808354040283529160200191620020e2565b820191906000526020600020905b815481529060010190602001808311620020c457829003601f168201915b5050505060038301805460408051602060026001851615610100026000190190941693909304601f8101849004840282018401909252818152949594935090830182828015620021765780601f106200214a5761010080835404028352916020019162002176565b820191906000526020600020905b8154815290600101906020018083116200215857829003601f168201915b5050505060048301805460408051602060026001851615610100026000190190941693909304601f81018490048402820184019092528181529495949350908301828280156200220a5780601f10620021de576101008083540402835291602001916200220a565b820191906000526020600020905b815481529060010190602001808311620021ec57829003601f168201915b50505050509080600501549080600601549080600701549080600801549080600901549080600b015490508b565b60006005828154811015156200224a57fe5b90600052602060002090600e0201600b01549050919050565b30316000620022716200135d565b90509091565b60006200228362002f04565b60015474010000000000000000000000000000000000000000900460ff1615620022ac57600080fd5b600354600254604080517f70a082310000000000000000000000000000000000000000000000000000000081523360048201529051600160a060020a03909216916370a08231916024808201926020929091908290030181600087803b1580156200231657600080fd5b505af11580156200232b573d6000803e3d6000fd5b505050506040513d60208110156200234257600080fd5b505110156200235057600080fd5b600254600354604080517f1afdf33b000000000000000000000000000000000000000000000000000000008152336004820152602481019290925251600160a060020a0390921691631afdf33b916044808201926020929091908290030181600087803b158015620023c157600080fd5b505af1158015620023d6573d6000803e3d6000fd5b505050506040513d6020811015620023ed57600080fd5b5050428a11620023fc57600080fd5b600089116200240a57600080fd5b600088116200241857600080fd5b86516000106200242757600080fd5b85516000106200243657600080fd5b84516000106200244557600080fd5b83516000106200245457600080fd5b82516000106200246357600080fd5b338082528888886200247462002f78565b8085600160a060020a0316600160a060020a031681526020018481526020018060200180602001838103835285818151815260200191508051906020019080838360005b83811015620024d2578181015183820152602001620024b8565b50505050905090810190601f168015620025005780820380516001836020036101000a031916815260200191505b50838103825284518152845160209182019186019080838360005b83811015620025355781810151838201526020016200251b565b50505050905090810190601f168015620025635780820380516001836020036101000a031916815260200191505b509650505050505050604051809103906000f08015801562002589573d6000803e3d6000fd5b50600160a060020a0390811660208084019182526040840188815260608501889052608085018790524260a086015260c085018e905260e085018d905260006101008601819052610120860181905261014086018190526005805460018101808355919092528651600e9092027f036b6384b5eca791c62761152d0c79bb0604c104a5fb6f4eb0703f3154bb3db08101805493881673ffffffffffffffffffffffffffffffffffffffff1994851617815595517f036b6384b5eca791c62761152d0c79bb0604c104a5fb6f4eb0703f3154bb3db1820180549190981693169290921790955590518051869493620026a5937f036b6384b5eca791c62761152d0c79bb0604c104a5fb6f4eb0703f3154bb3db20192019062002e7f565b5060608201518051620026c391600384019160209091019062002e7f565b5060808201518051620026e191600484019160209091019062002e7f565b5060a0820151600582015560c0820151600682015560e0820151600782015561010082015160088201556101208201516009820155610140820151600b82015561016082015180516200273f91600d84019160209091019062002f89565b505050506001600580549050037f3d30953348b3d6077b8b65bbf949b560d367dbada851c5dd27ff679d1e8f20de8b8b8b8b8b8b8b8b60405180898152602001888152602001878152602001806020018060200180602001806020018060200186810386528b818151815260200191508051906020019080838360005b83811015620027d6578181015183820152602001620027bc565b50505050905090810190601f168015620028045780820380516001836020036101000a031916815260200191505b5086810385528a5181528a516020918201918c019080838360005b83811015620028395781810151838201526020016200281f565b50505050905090810190601f168015620028675780820380516001836020036101000a031916815260200191505b5086810384528951815289516020918201918b019080838360005b838110156200289c57818101518382015260200162002882565b50505050905090810190601f168015620028ca5780820380516001836020036101000a031916815260200191505b5086810383528851815288516020918201918a019080838360005b83811015620028ff578181015183820152602001620028e5565b50505050905090810190601f1680156200292d5780820380516001836020036101000a031916815260200191505b50868103825287518152875160209182019189019080838360005b838110156200296257818101518382015260200162002948565b50505050905090810190601f168015620029905780820380516001836020036101000a031916815260200191505b509d505050505050505050505050505060405180910390a25060019998505050505050505050565b600254600160a060020a031681565b6060600582815481101515620029d957fe5b90600052602060002090600e0201600d0180548060200260200160405190810160405280929190818152602001828054801562002a4057602002820191906000526020600020905b8154600160a060020a0316815260019091019060200180831162002a21575b50505050509050919050565b60045481565b6001546000908190819074010000000000000000000000000000000000000000900460ff161562002a8257600080fd5b8660058181548110151562002a9357fe5b60009182526020909120600e9091020154600160a060020a0316331462002ab957600080fd5b6000546004548791600160a060020a0316906108fc9062002af690849062002ae990606463ffffffff62002e6916565b9063ffffffff62002e2e16565b6040518115909202916000818181858888f1935050505015801562002b1f573d6000803e3d6000fd5b50600580548a90811062002b2f57fe5b60009182526020909120600e909102019350600160a060020a038816151562002b5757600080fd5b6000871162002b6557600080fd5b62002b9462002b868862002ae9606460045462002e6990919063ffffffff16565b889063ffffffff62002e5b16565b92508284600901541015151562002baa57600080fd5b855160001062002bb957600080fd5b60408051606081018252600160a060020a038a8116825260208083018b81528385018b8152600b8a01546000908152600a8b018452959095208451815473ffffffffffffffffffffffffffffffffffffffff19169416939093178355516001830155925180519293919262002c35926002850192019062002e7f565b505050600b84015462002c5090600163ffffffff62002e5b16565b600b850155600984015462002c6c908463ffffffff62002e1b16565b846009018190555087600160a060020a0316897fcd7aea926352528bd57099b0b47f29d7cbe353c99df1689ba9971a0c7ced0b2389896040518083815260200180602001828103825283818151815260200191508051906020019080838360005b8381101562002ce757818101518382015260200162002ccd565b50505050905090810190601f16801562002d155780820380516001836020036101000a031916815260200191505b50935050505060405180910390a3604051600160a060020a0389169088156108fc029089906000818181858888f1935050505015801562002d5a573d6000803e3d6000fd5b5060019998505050505050505050565b600154600090600160a060020a0316331462002d8557600080fd5b604051600160a060020a0384169083156108fc029084906000818181858888f1935050505015801562002dbc573d6000803e3d6000fd5b5060019392505050565b600060058381548110151562002dd857fe5b60009182526020808320600160a060020a0386168452600c600e90930201919091019052604090205460ff16905092915050565b600154600160a060020a031681565b60008282111562002e2857fe5b50900390565b600082151562002e415750600062001b1f565b5081810281838281151562002e5257fe5b041462001b1f57fe5b8181018281101562001b1f57fe5b6000818381151562002e7757fe5b049392505050565b828054600181600116156101000203166002900490600052602060002090601f016020900481019282601f1062002ec257805160ff191683800117855562002ef2565b8280016001018555821562002ef2579182015b8281111562002ef257825182559160200191906001019062002ed5565b5062002f0092915062002ffc565b5090565b610180604051908101604052806000600160a060020a031681526020016000600160a060020a03168152602001606081526020016060815260200160608152602001600081526020016000815260200160008152602001600081526020016000815260200160008152602001606081525090565b604051610c64806200304e83390190565b82805482825590600052602060002090810192821562002fee579160200282015b8281111562002fee578251825473ffffffffffffffffffffffffffffffffffffffff1916600160a060020a0390911617825560209092019160019091019062002faa565b5062002f0092915062003019565b6200136191905b8082111562002f00576000815560010162003003565b6200136191905b8082111562002f0057805473ffffffffffffffffffffffffffffffffffffffff19168155600101620030205600608060405234801561001057600080fd5b50604051610c64380380610c64833981016040908152815160208084015192840151606085015160058054600160a060020a03191633179055908501805193959093910191610064916003918501906100b9565b5080516100789060049060208401906100b9565b5050506001819055600160a060020a039182166000908152602081815260408083208490556002825280832060055490951683529390529190912055610154565b828054600181600116156101000203166002900490600052602060002090601f016020900481019282601f106100fa57805160ff1916838001178555610127565b82800160010185558215610127579182015b8281111561012757825182559160200191906001019061010c565b50610133929150610137565b5090565b61015191905b80821115610133576000815560010161013d565b90565b610b01806101636000396000f3006080604052600436106100cf5763ffffffff7c0100000000000000000000000000000000000000000000000000000000600035041663029f989f81146100d457806306fdde0314610108578063095ea7b31461019257806318160ddd146101b657806323b872dd146101dd578063313ce56714610207578063661884631461023257806370a082311461025657806395d89b4114610277578063a9059cbb1461028c578063b63f6696146102b0578063d73dd623146102d4578063dd62ed3e146102f8578063ff8afc8f1461031f575b600080fd5b3480156100e057600080fd5b506100f4600480356024810191013561033f565b604080519115158252519081900360200190f35b34801561011457600080fd5b5061011d61036f565b6040805160208082528351818301528351919283929083019185019080838360005b8381101561015757818101518382015260200161013f565b50505050905090810190601f1680156101845780820380516001836020036101000a031916815260200191505b509250505060405180910390f35b34801561019e57600080fd5b506100f4600160a060020a03600435166024356103fd565b3480156101c257600080fd5b506101cb610463565b60408051918252519081900360200190f35b3480156101e957600080fd5b506100f4600160a060020a036004358116906024351660443561046a565b34801561021357600080fd5b5061021c6105df565b6040805160ff9092168252519081900360200190f35b34801561023e57600080fd5b506100f4600160a060020a03600435166024356105e4565b34801561026257600080fd5b506101cb600160a060020a03600435166106d3565b34801561028357600080fd5b5061011d6106ee565b34801561029857600080fd5b506100f4600160a060020a0360043516602435610749565b3480156102bc57600080fd5b506100f4600160a060020a0360043516602435610828565b3480156102e057600080fd5b506100f4600160a060020a036004351660243561092e565b34801561030457600080fd5b506101cb600160a060020a03600435811690602435166109c7565b34801561032b57600080fd5b506100f460048035602481019101356109f2565b600554600090600160a060020a0316331461035957600080fd5b61036560048484610a3d565b5060019392505050565b6003805460408051602060026001851615610100026000190190941693909304601f810184900484028201840190925281815292918301828280156103f55780601f106103ca576101008083540402835291602001916103f5565b820191906000526020600020905b8154815290600101906020018083116103d857829003601f168201915b505050505081565b336000818152600260209081526040808320600160a060020a038716808552908352818420869055815186815291519394909390927f8c5be1e5ebec7d5bd14f71427d1e84f3dd0314c0f7b2291e5b200ac8c7c3b925928290030190a350600192915050565b6001545b90565b600160a060020a03831660009081526020819052604081205482111561048f57600080fd5b600160a060020a03841660009081526002602090815260408083203384529091529020548211156104bf57600080fd5b600160a060020a03831615156104d457600080fd5b600160a060020a0384166000908152602081905260409020546104fd908363ffffffff610a1816565b600160a060020a038086166000908152602081905260408082209390935590851681522054610532908363ffffffff610a2a16565b600160a060020a03808516600090815260208181526040808320949094559187168152600282528281203382529091522054610574908363ffffffff610a1816565b600160a060020a03808616600081815260026020908152604080832033845282529182902094909455805186815290519287169391927fddf252ad1be2c89b69c2b068fc378daa952ba7f163c4a11628f55a4df523b3ef929181900390910190a35060019392505050565b600081565b336000908152600260209081526040808320600160a060020a038616845290915281205480831061063857336000908152600260209081526040808320600160a060020a038816845290915281205561066d565b610648818463ffffffff610a1816565b336000908152600260209081526040808320600160a060020a03891684529091529020555b336000818152600260209081526040808320600160a060020a0389168085529083529281902054815190815290519293927f8c5be1e5ebec7d5bd14f71427d1e84f3dd0314c0f7b2291e5b200ac8c7c3b925929181900390910190a35060019392505050565b600160a060020a031660009081526020819052604090205490565b6004805460408051602060026001851615610100026000190190941693909304601f810184900484028201840190925281815292918301828280156103f55780601f106103ca576101008083540402835291602001916103f5565b3360009081526020819052604081205482111561076557600080fd5b600160a060020a038316151561077a57600080fd5b3360009081526020819052604090205461079a908363ffffffff610a1816565b3360009081526020819052604080822092909255600160a060020a038516815220546107cc908363ffffffff610a2a16565b600160a060020a038416600081815260208181526040918290209390935580518581529051919233927fddf252ad1be2c89b69c2b068fc378daa952ba7f163c4a11628f55a4df523b3ef9281900390910190a350600192915050565b600554600090600160a060020a0316331461084257600080fd5b600160a060020a03831660009081526020819052604090205482111561086757600080fd5b600160a060020a038316600090815260208190526040902054610890908363ffffffff610a1816565b600160a060020a0380851660009081526020819052604080822093909355600554909116815220546108c8908363ffffffff610a2a16565b60058054600160a060020a03908116600090815260208181526040918290209490945591548251868152925190821693918716927fddf252ad1be2c89b69c2b068fc378daa952ba7f163c4a11628f55a4df523b3ef92908290030190a350600192915050565b336000908152600260209081526040808320600160a060020a0386168452909152812054610962908363ffffffff610a2a16565b336000818152600260209081526040808320600160a060020a0389168085529083529281902085905580519485525191937f8c5be1e5ebec7d5bd14f71427d1e84f3dd0314c0f7b2291e5b200ac8c7c3b925929081900390910190a350600192915050565b600160a060020a03918216600090815260026020908152604080832093909416825291909152205490565b600554600090600160a060020a03163314610a0c57600080fd5b61036560038484610a3d565b600082821115610a2457fe5b50900390565b81810182811015610a3757fe5b92915050565b828054600181600116156101000203166002900490600052602060002090601f016020900481019282601f10610a7e5782800160ff19823516178555610aab565b82800160010185558215610aab579182015b82811115610aab578235825591602001919060010190610a90565b50610ab7929150610abb565b5090565b61046791905b80821115610ab75760008155600101610ac15600a165627a7a7230582037e5f0047b55e2696841409d31b65733d52e5d8d83710b05565c997416f2ef340029a165627a7a72305820b9fbf9b60f22fc695b43e88838782526636ed3f4425be79fad5071246a41afb70029",
  "source": "pragma solidity ^0.4.24;\n\nimport \"openzeppelin-solidity/contracts/math/SafeMath.sol\";\nimport {HeartBankTokenInterface as Kiitos} from \"./HeartBankTokenInterface.sol\";\nimport {BoxOfficeMovie as Movie} from \"./BoxOfficeMovie.sol\";\n\ncontract BoxOffice {\n    \n    using SafeMath for uint;\n    \n    address public HEARTBANK;\n    address public admin;\n    bool private emergency;\n    \n    Kiitos public kiitos;\n    uint public listingFee;\n    uint public withdrawFee;\n    \n    Film[] public films;\n    \n    struct Film {\n        address filmmaker;\n        address movie;\n        string logline; \n        string poster; \n        string trailer;\n        uint createdTime;\n        uint salesEndTime;\n        uint price;\n        uint sales;\n        uint fund;\n        mapping (uint => Withdrawal) withdrawals;\n        uint withdraws;\n        mapping (address => bool) audience;\n        address[] members;\n    }\n    \n    struct Withdrawal {\n        address recipient;\n        uint amount;\n        string expense;\n    }\n    \n    event FilmCreated(\n        uint indexed filmIndex,\n        uint salesEndTime,\n        uint price,\n        uint ticketSupply, \n        string movieName, \n        string ticketSymbol,\n        string logline,\n        string poster,\n        string trailer\n    );\n    \n    event FilmUpdated(\n        uint indexed filmIndex,\n        uint salesEndTime,\n        uint price,\n        string movieName,\n        string ticketSymbol,\n        string logline,\n        string poster,\n        string trailer\n    );\n    \n    event TicketsBought(\n        uint indexed filmIndex, \n        address indexed buyer, \n        uint quantity\n    );\n    \n    event ExcessPayment(\n        uint indexed filmIndex,\n        address indexed buyer,\n        uint excess\n    );\n    \n    event TicketSpent(\n        uint indexed filmIndex, \n        address indexed holder\n    );\n    \n    event FundWithdrawn(\n        uint indexed filmIndex, \n        address indexed recipient, \n        uint amount, \n        string expense\n    );\n    \n    event FeesUpdated(\n        uint listingFee,\n        uint withdrawFee\n    );\n    \n    event FallbackTriggered(\n        address indexed sender,\n        uint value\n    );\n    \n    modifier onlyAdmin {\n        require(msg.sender == admin);\n        _;\n    }\n    \n    modifier onlyFilmmaker(uint filmIndex) {\n        require(msg.sender == films[filmIndex].filmmaker);\n        _;\n    }\n    \n    modifier onlyTicketHolder(uint filmIndex) {\n        require(Movie(films[filmIndex].movie).balanceOf(msg.sender) > 0);\n        _;\n    }\n    \n    modifier onlyDuringSalesPeriod(uint filmIndex) {\n        require(now < films[filmIndex].salesEndTime);\n        _;\n    }\n    \n    modifier checkPaymentAmount(uint filmIndex, uint quantity) {\n        require(quantity > 0);\n        require(msg.value >= quantity.mul(films[filmIndex].price));\n        _;\n    }\n    \n    modifier checkExcessPayment(uint filmIndex, uint quantity) {\n        _;\n        uint excess = msg.value.sub(quantity.mul(films[filmIndex].price));\n        if (excess > 0) emit ExcessPayment(filmIndex, msg.sender, excess);\n        // if (excess > 0) msg.sender.transfer(excess);\n    }\n    \n    modifier chargeListingFee {\n        require(kiitos.balanceOf(msg.sender) >= listingFee);\n        kiitos.transferToAdmin(msg.sender, listingFee);\n        _;\n    }\n    \n    modifier chargeWithdrawFee(uint amount) {\n        HEARTBANK.transfer(withdrawFee.div(100).mul(amount));\n        _;\n    }\n    \n    modifier stopInEmergency { \n        require(!emergency); \n        _; \n    }\n    \n    modifier onlyInEmergency { \n        require(emergency); \n        _;\n    }\n    \n    constructor(address heartbank, address token) public {\n        HEARTBANK = heartbank;\n        kiitos = Kiitos(token);\n        admin = msg.sender;\n        emergency = false;\n        listingFee = 2;\n        withdrawFee = 1;\n    }\n    \n    function() public payable {\n        // if (msg.value > 0) msg.sender.transfer(msg.value);\n        emit FallbackTriggered(msg.sender, msg.value);\n    }\n    \n    function makeFilm(\n        uint salesEndTime,\n        uint price,\n        uint ticketSupply, \n        string movieName, \n        string ticketSymbol,\n        string logline,\n        string poster,\n        string trailer\n    ) \n        public \n        stopInEmergency\n        chargeListingFee\n        returns (bool)\n    {\n        require(salesEndTime > now);\n        require(price > 0);\n        require(ticketSupply > 0);\n        require(bytes(movieName).length > 0);\n        require(bytes(ticketSymbol).length > 0);\n        require(bytes(logline).length > 0);\n        require(bytes(poster).length > 0);\n        require(bytes(trailer).length > 0);\n        \n        Film memory film;\n        film.filmmaker = msg.sender;\n        film.movie = new Movie(film.filmmaker, ticketSupply, movieName, ticketSymbol);\n        film.logline = logline;\n        film.poster = poster;\n        film.trailer = trailer;\n        film.createdTime = now;\n        film.salesEndTime = salesEndTime;\n        film.price = price;\n        film.sales = 0;\n        film.fund = 0;\n        film.withdraws = 0;\n        films.push(film);\n        \n        emit FilmCreated(\n            films.length - 1,\n            salesEndTime,\n            price,\n            ticketSupply,\n            movieName,\n            ticketSymbol,\n            logline,\n            poster,\n            trailer    \n        );\n        return true;\n    }\n    \n    function updateFilm(\n        uint filmIndex,\n        uint salesEndTime,\n        uint price,\n        string movieName,\n        string ticketSymbol,\n        string logline,\n        string poster,\n        string trailer\n    ) \n        public \n        stopInEmergency\n        onlyFilmmaker(filmIndex) \n        returns (bool)\n    {\n        Film storage film = films[filmIndex];\n        Movie movie = Movie(film.movie);\n        \n        if (salesEndTime > now) film.salesEndTime = salesEndTime;\n        if (price > 0) film.price = price;\n        if (bytes(movieName).length > 0) movie.updateMovieName(movieName);\n        if (bytes(ticketSymbol).length > 0) movie.updateTicketSymbol(ticketSymbol);\n        if (bytes(logline).length > 0) film.logline = logline;\n        if (bytes(poster).length > 0) film.poster = poster;\n        if (bytes(trailer).length > 0) film.trailer = trailer;\n        \n        emit FilmUpdated(\n            filmIndex,\n            salesEndTime,\n            price,\n            movieName,\n            ticketSymbol,\n            logline,\n            poster,\n            trailer    \n        );\n        return true;\n    } \n    \n    function buyTickets(uint filmIndex, uint quantity) \n        public \n        payable\n        stopInEmergency\n        onlyDuringSalesPeriod(filmIndex)\n        checkPaymentAmount(filmIndex, quantity)\n        checkExcessPayment(filmIndex, quantity)\n        returns (bool)\n    {\n        Film storage film = films[filmIndex];\n        Movie(film.movie).transferFrom(film.filmmaker, msg.sender, quantity);\n        film.sales = film.sales.add(quantity.mul(film.price));\n        film.fund = film.fund.add(quantity.mul(film.price));\n        \n        emit TicketsBought(filmIndex, msg.sender, quantity);\n        return true;\n    }\n    \n    function spendTicket(uint filmIndex) \n        public \n        stopInEmergency\n        onlyTicketHolder(filmIndex) \n        returns (bool)\n    {\n        Film storage film = films[filmIndex];\n        Movie(film.movie).transferToBoxOffice(msg.sender, 1);\n        film.members.push(msg.sender);\n        film.audience[msg.sender] = true;\n        \n        emit TicketSpent(filmIndex, msg.sender);\n        return true;\n    }\n    \n    function withdrawFund(uint filmIndex, address recipient, uint amount, string expense) \n        public \n        stopInEmergency\n        onlyFilmmaker(filmIndex)\n        chargeWithdrawFee(amount)\n        returns (bool)\n    {\n        Film storage film = films[filmIndex];\n        require(recipient != address(0));\n        require(amount > 0);\n        uint total = amount.add(withdrawFee.div(100).mul(amount));\n        require(film.fund >= total);\n        require(bytes(expense).length > 0);\n        \n        film.withdrawals[film.withdraws] = Withdrawal(recipient, amount, expense);\n        film.withdraws = film.withdraws.add(1);\n        film.fund = film.fund.sub(total);\n        emit FundWithdrawn(filmIndex, recipient, amount, expense);\n        \n        recipient.transfer(amount);\n        return true;\n    }\n    \n    function updateFees(uint _listingFee, uint _withdrawFee)\n        public\n        stopInEmergency\n        onlyAdmin\n        returns (bool)\n    {\n        listingFee = _listingFee;\n        withdrawFee = _withdrawFee;\n        emit FeesUpdated(listingFee, withdrawFee);\n        return true;\n    }\n    \n    function getBoxOfficeStats() public view returns (\n        uint totalReceipts,\n        uint totalFilms\n    ) {\n        totalReceipts = address(this).balance;\n        totalFilms = getTotalFilms();\n    }\n    \n    function getTotalFilms() public view returns (uint) {\n        return films.length;\n    }\n    \n    function getFilmSummary(uint index) public view returns (\n        address movie,\n        address filmmaker,\n        uint salesEndTime,\n        uint price,\n        uint ticketSupply,\n        string movieName,\n        string ticketSymbol,\n        string logline,\n        string poster,\n        string trailer\n    ) {\n        Film storage film = films[index];\n        Movie movie_ = Movie(film.movie);\n        movie = film.movie;\n        filmmaker = film.filmmaker;\n        salesEndTime = film.salesEndTime;\n        price = film.price;\n        ticketSupply = movie_.totalSupply();\n        movieName = movie_.name();\n        ticketSymbol = movie_.symbol();\n        logline = film.logline;\n        poster = film.poster;\n        trailer = film.trailer;\n    }\n    \n    function getFilmStats(uint index) public view returns (\n        uint price,\n        uint totalAudienceMembers,\n        uint totalWithdraws,\n        uint ticketSupply,\n        uint ticketsAvailable,\n        uint ticketsSold,\n        uint filmMarketValue,\n        uint fundsCollected,\n        uint fundsWithdrawn,\n        uint fundBalance\n    ) {\n        Film storage film = films[index];\n        Movie movie = Movie(film.movie);\n        price = film.price;\n        totalAudienceMembers = getAudienceMembers(index).length;\n        totalWithdraws = getTotalWithdraws(index);\n        ticketSupply = movie.totalSupply();\n        ticketsAvailable = movie.balanceOf(film.filmmaker);\n        ticketsSold = ticketSupply.sub(ticketsAvailable);\n        filmMarketValue = price.mul(ticketSupply);\n        fundsCollected = film.sales;\n        fundBalance = film.fund;\n        fundsWithdrawn = fundsCollected.sub(fundBalance);\n    }\n    \n    function getTotalWithdraws(uint filmIndex) public view returns (uint) {\n        return films[filmIndex].withdraws;\n    }\n    \n    function getWithdrawal(uint filmIndex, uint withdrawIndex) public view returns (address, uint, string) {\n        Withdrawal storage withdrawal = films[filmIndex].withdrawals[withdrawIndex];\n        return (withdrawal.recipient, withdrawal.amount, withdrawal.expense);\n    }\n    \n    function getAudienceMembers(uint filmIndex) public view returns (address[]) {\n        return films[filmIndex].members;\n    }\n    \n    function isAudienceMember(uint filmIndex, address member) public view returns (bool) {\n        return films[filmIndex].audience[member];\n    }\n    \n    function returnExcessPayment(address recipient, uint amount) public onlyAdmin returns (bool) {\n        recipient.transfer(amount);\n        return true;\n    }\n    \n    function toggleEmergency() public onlyAdmin returns (bool) {\n        emergency = !emergency;\n        return true;\n    }\n    \n    function shutDownBoxOffice() public onlyInEmergency onlyAdmin {\n        selfdestruct(admin);\n    }\n    \n}\n\n",
  "sourcePath": "/Users/heartbank/Google Drive/ConsenSys/BoxOffice/contracts/BoxOffice.sol",
  "compiler": {
    "name": "solc",
    "version": "0.4.24+commit.e67f0147.Emscripten.clang"
  },
  "schemaVersion": "2.0.1",
  "updatedAt": "2018-08-18T03:45:54.318Z"
}