{
  "contractName": "BoxOfficeMovie",
  "abi": [
    {
      "constant": true,
      "inputs": [],
      "name": "name",
      "outputs": [
        {
          "name": "",
          "type": "string"
        }
      ],
      "payable": false,
      "stateMutability": "view",
      "type": "function"
    },
    {
      "constant": false,
      "inputs": [
        {
          "name": "_spender",
          "type": "address"
        },
        {
          "name": "_value",
          "type": "uint256"
        }
      ],
      "name": "approve",
      "outputs": [
        {
          "name": "",
          "type": "bool"
        }
      ],
      "payable": false,
      "stateMutability": "nonpayable",
      "type": "function"
    },
    {
      "constant": true,
      "inputs": [],
      "name": "totalSupply",
      "outputs": [
        {
          "name": "",
          "type": "uint256"
        }
      ],
      "payable": false,
      "stateMutability": "view",
      "type": "function"
    },
    {
      "constant": false,
      "inputs": [
        {
          "name": "_from",
          "type": "address"
        },
        {
          "name": "_to",
          "type": "address"
        },
        {
          "name": "_value",
          "type": "uint256"
        }
      ],
      "name": "transferFrom",
      "outputs": [
        {
          "name": "",
          "type": "bool"
        }
      ],
      "payable": false,
      "stateMutability": "nonpayable",
      "type": "function"
    },
    {
      "constant": true,
      "inputs": [],
      "name": "decimals",
      "outputs": [
        {
          "name": "",
          "type": "uint8"
        }
      ],
      "payable": false,
      "stateMutability": "view",
      "type": "function"
    },
    {
      "constant": false,
      "inputs": [
        {
          "name": "_spender",
          "type": "address"
        },
        {
          "name": "_subtractedValue",
          "type": "uint256"
        }
      ],
      "name": "decreaseApproval",
      "outputs": [
        {
          "name": "",
          "type": "bool"
        }
      ],
      "payable": false,
      "stateMutability": "nonpayable",
      "type": "function"
    },
    {
      "constant": true,
      "inputs": [
        {
          "name": "_owner",
          "type": "address"
        }
      ],
      "name": "balanceOf",
      "outputs": [
        {
          "name": "",
          "type": "uint256"
        }
      ],
      "payable": false,
      "stateMutability": "view",
      "type": "function"
    },
    {
      "constant": true,
      "inputs": [],
      "name": "symbol",
      "outputs": [
        {
          "name": "",
          "type": "string"
        }
      ],
      "payable": false,
      "stateMutability": "view",
      "type": "function"
    },
    {
      "constant": false,
      "inputs": [
        {
          "name": "_to",
          "type": "address"
        },
        {
          "name": "_value",
          "type": "uint256"
        }
      ],
      "name": "transfer",
      "outputs": [
        {
          "name": "",
          "type": "bool"
        }
      ],
      "payable": false,
      "stateMutability": "nonpayable",
      "type": "function"
    },
    {
      "constant": false,
      "inputs": [
        {
          "name": "_spender",
          "type": "address"
        },
        {
          "name": "_addedValue",
          "type": "uint256"
        }
      ],
      "name": "increaseApproval",
      "outputs": [
        {
          "name": "",
          "type": "bool"
        }
      ],
      "payable": false,
      "stateMutability": "nonpayable",
      "type": "function"
    },
    {
      "constant": true,
      "inputs": [
        {
          "name": "_owner",
          "type": "address"
        },
        {
          "name": "_spender",
          "type": "address"
        }
      ],
      "name": "allowance",
      "outputs": [
        {
          "name": "",
          "type": "uint256"
        }
      ],
      "payable": false,
      "stateMutability": "view",
      "type": "function"
    },
    {
      "inputs": [
        {
          "name": "filmmaker",
          "type": "address"
        },
        {
          "name": "ticketSupply",
          "type": "uint256"
        },
        {
          "name": "movieName",
          "type": "string"
        },
        {
          "name": "ticketSymbol",
          "type": "string"
        }
      ],
      "payable": false,
      "stateMutability": "nonpayable",
      "type": "constructor"
    },
    {
      "anonymous": false,
      "inputs": [
        {
          "indexed": true,
          "name": "owner",
          "type": "address"
        },
        {
          "indexed": true,
          "name": "spender",
          "type": "address"
        },
        {
          "indexed": false,
          "name": "value",
          "type": "uint256"
        }
      ],
      "name": "Approval",
      "type": "event"
    },
    {
      "anonymous": false,
      "inputs": [
        {
          "indexed": true,
          "name": "from",
          "type": "address"
        },
        {
          "indexed": true,
          "name": "to",
          "type": "address"
        },
        {
          "indexed": false,
          "name": "value",
          "type": "uint256"
        }
      ],
      "name": "Transfer",
      "type": "event"
    },
    {
      "constant": false,
      "inputs": [
        {
          "name": "movieName",
          "type": "string"
        }
      ],
      "name": "updateMovieName",
      "outputs": [
        {
          "name": "",
          "type": "bool"
        }
      ],
      "payable": false,
      "stateMutability": "nonpayable",
      "type": "function"
    },
    {
      "constant": false,
      "inputs": [
        {
          "name": "ticketSymbol",
          "type": "string"
        }
      ],
      "name": "updateTicketSymbol",
      "outputs": [
        {
          "name": "",
          "type": "bool"
        }
      ],
      "payable": false,
      "stateMutability": "nonpayable",
      "type": "function"
    },
    {
      "constant": false,
      "inputs": [
        {
          "name": "holder",
          "type": "address"
        },
        {
          "name": "tickets",
          "type": "uint256"
        }
      ],
      "name": "transferToBoxOffice",
      "outputs": [
        {
          "name": "",
          "type": "bool"
        }
      ],
      "payable": false,
      "stateMutability": "nonpayable",
      "type": "function"
    }
  ],
  "bytecode": "0x608060405234801561001057600080fd5b50604051610c64380380610c64833981016040908152815160208084015192840151606085015160058054600160a060020a03191633179055908501805193959093910191610064916003918501906100b9565b5080516100789060049060208401906100b9565b5050506001819055600160a060020a039182166000908152602081815260408083208490556002825280832060055490951683529390529190912055610154565b828054600181600116156101000203166002900490600052602060002090601f016020900481019282601f106100fa57805160ff1916838001178555610127565b82800160010185558215610127579182015b8281111561012757825182559160200191906001019061010c565b50610133929150610137565b5090565b61015191905b80821115610133576000815560010161013d565b90565b610b01806101636000396000f3006080604052600436106100cf5763ffffffff7c0100000000000000000000000000000000000000000000000000000000600035041663029f989f81146100d457806306fdde0314610108578063095ea7b31461019257806318160ddd146101b657806323b872dd146101dd578063313ce56714610207578063661884631461023257806370a082311461025657806395d89b4114610277578063a9059cbb1461028c578063b63f6696146102b0578063d73dd623146102d4578063dd62ed3e146102f8578063ff8afc8f1461031f575b600080fd5b3480156100e057600080fd5b506100f4600480356024810191013561033f565b604080519115158252519081900360200190f35b34801561011457600080fd5b5061011d61036f565b6040805160208082528351818301528351919283929083019185019080838360005b8381101561015757818101518382015260200161013f565b50505050905090810190601f1680156101845780820380516001836020036101000a031916815260200191505b509250505060405180910390f35b34801561019e57600080fd5b506100f4600160a060020a03600435166024356103fd565b3480156101c257600080fd5b506101cb610463565b60408051918252519081900360200190f35b3480156101e957600080fd5b506100f4600160a060020a036004358116906024351660443561046a565b34801561021357600080fd5b5061021c6105df565b6040805160ff9092168252519081900360200190f35b34801561023e57600080fd5b506100f4600160a060020a03600435166024356105e4565b34801561026257600080fd5b506101cb600160a060020a03600435166106d3565b34801561028357600080fd5b5061011d6106ee565b34801561029857600080fd5b506100f4600160a060020a0360043516602435610749565b3480156102bc57600080fd5b506100f4600160a060020a0360043516602435610828565b3480156102e057600080fd5b506100f4600160a060020a036004351660243561092e565b34801561030457600080fd5b506101cb600160a060020a03600435811690602435166109c7565b34801561032b57600080fd5b506100f460048035602481019101356109f2565b600554600090600160a060020a0316331461035957600080fd5b61036560048484610a3d565b5060019392505050565b6003805460408051602060026001851615610100026000190190941693909304601f810184900484028201840190925281815292918301828280156103f55780601f106103ca576101008083540402835291602001916103f5565b820191906000526020600020905b8154815290600101906020018083116103d857829003601f168201915b505050505081565b336000818152600260209081526040808320600160a060020a038716808552908352818420869055815186815291519394909390927f8c5be1e5ebec7d5bd14f71427d1e84f3dd0314c0f7b2291e5b200ac8c7c3b925928290030190a350600192915050565b6001545b90565b600160a060020a03831660009081526020819052604081205482111561048f57600080fd5b600160a060020a03841660009081526002602090815260408083203384529091529020548211156104bf57600080fd5b600160a060020a03831615156104d457600080fd5b600160a060020a0384166000908152602081905260409020546104fd908363ffffffff610a1816565b600160a060020a038086166000908152602081905260408082209390935590851681522054610532908363ffffffff610a2a16565b600160a060020a03808516600090815260208181526040808320949094559187168152600282528281203382529091522054610574908363ffffffff610a1816565b600160a060020a03808616600081815260026020908152604080832033845282529182902094909455805186815290519287169391927fddf252ad1be2c89b69c2b068fc378daa952ba7f163c4a11628f55a4df523b3ef929181900390910190a35060019392505050565b600081565b336000908152600260209081526040808320600160a060020a038616845290915281205480831061063857336000908152600260209081526040808320600160a060020a038816845290915281205561066d565b610648818463ffffffff610a1816565b336000908152600260209081526040808320600160a060020a03891684529091529020555b336000818152600260209081526040808320600160a060020a0389168085529083529281902054815190815290519293927f8c5be1e5ebec7d5bd14f71427d1e84f3dd0314c0f7b2291e5b200ac8c7c3b925929181900390910190a35060019392505050565b600160a060020a031660009081526020819052604090205490565b6004805460408051602060026001851615610100026000190190941693909304601f810184900484028201840190925281815292918301828280156103f55780601f106103ca576101008083540402835291602001916103f5565b3360009081526020819052604081205482111561076557600080fd5b600160a060020a038316151561077a57600080fd5b3360009081526020819052604090205461079a908363ffffffff610a1816565b3360009081526020819052604080822092909255600160a060020a038516815220546107cc908363ffffffff610a2a16565b600160a060020a038416600081815260208181526040918290209390935580518581529051919233927fddf252ad1be2c89b69c2b068fc378daa952ba7f163c4a11628f55a4df523b3ef9281900390910190a350600192915050565b600554600090600160a060020a0316331461084257600080fd5b600160a060020a03831660009081526020819052604090205482111561086757600080fd5b600160a060020a038316600090815260208190526040902054610890908363ffffffff610a1816565b600160a060020a0380851660009081526020819052604080822093909355600554909116815220546108c8908363ffffffff610a2a16565b60058054600160a060020a03908116600090815260208181526040918290209490945591548251868152925190821693918716927fddf252ad1be2c89b69c2b068fc378daa952ba7f163c4a11628f55a4df523b3ef92908290030190a350600192915050565b336000908152600260209081526040808320600160a060020a0386168452909152812054610962908363ffffffff610a2a16565b336000818152600260209081526040808320600160a060020a0389168085529083529281902085905580519485525191937f8c5be1e5ebec7d5bd14f71427d1e84f3dd0314c0f7b2291e5b200ac8c7c3b925929081900390910190a350600192915050565b600160a060020a03918216600090815260026020908152604080832093909416825291909152205490565b600554600090600160a060020a03163314610a0c57600080fd5b61036560038484610a3d565b600082821115610a2457fe5b50900390565b81810182811015610a3757fe5b92915050565b828054600181600116156101000203166002900490600052602060002090601f016020900481019282601f10610a7e5782800160ff19823516178555610aab565b82800160010185558215610aab579182015b82811115610aab578235825591602001919060010190610a90565b50610ab7929150610abb565b5090565b61046791905b80821115610ab75760008155600101610ac15600a165627a7a7230582037e5f0047b55e2696841409d31b65733d52e5d8d83710b05565c997416f2ef340029",
  "source": "pragma solidity ^0.4.24;\n\nimport \"openzeppelin-solidity/contracts/token/ERC20/StandardToken.sol\";\n\ncontract BoxOfficeMovie is StandardToken {\n\n    uint8 public constant decimals = 0;\n    string public name;\n    string public symbol;\n    address private boxOffice;\n    \n    modifier onlyBoxOffice {\n        require(msg.sender == boxOffice);\n        _;\n    }\n\n    constructor(\n        address filmmaker,\n        uint ticketSupply, \n        string movieName, \n        string ticketSymbol\n    ) \n        public \n    {\n        boxOffice = msg.sender;\n        name = movieName;\n        symbol = ticketSymbol;\n        totalSupply_ = ticketSupply;\n        balances[filmmaker] = ticketSupply;\n        allowed[filmmaker][boxOffice] = ticketSupply;\n    }\n    \n    function updateMovieName(string movieName) external onlyBoxOffice returns (bool) {\n        name = movieName;\n        return true;\n    }\n    \n    function updateTicketSymbol(string ticketSymbol) external onlyBoxOffice returns (bool) {\n        symbol = ticketSymbol;\n        return true;\n    }\n    \n    function transferToBoxOffice(address holder, uint tickets) external onlyBoxOffice returns (bool) {\n        require(tickets <= balances[holder]);\n        balances[holder] = balances[holder].sub(tickets);\n        balances[boxOffice] = balances[boxOffice].add(tickets);\n        emit Transfer(holder, boxOffice, tickets);\n        return true;\n    }\n\n}",
  "sourcePath": "/Users/heartbank/Google Drive/ConsenSys/BoxOffice/contracts/BoxOfficeMovie.sol",
  "compiler": {
    "name": "solc",
    "version": "0.4.24+commit.e67f0147.Emscripten.clang"
  },
  "schemaVersion": "2.0.1",
  "updatedAt": "2018-08-18T03:10:22.396Z"
}