{
  "contractName": "BoxOfficeOracleStorage",
  "abi": [
    {
      "constant": true,
      "inputs": [],
      "name": "owner",
      "outputs": [
        {
          "name": "",
          "type": "address"
        }
      ],
      "payable": false,
      "stateMutability": "view",
      "type": "function"
    },
    {
      "inputs": [],
      "payable": false,
      "stateMutability": "nonpayable",
      "type": "constructor"
    },
    {
      "constant": false,
      "inputs": [
        {
          "name": "admin",
          "type": "address"
        }
      ],
      "name": "addAdmin",
      "outputs": [
        {
          "name": "",
          "type": "bool"
        }
      ],
      "payable": false,
      "stateMutability": "nonpayable",
      "type": "function"
    },
    {
      "constant": true,
      "inputs": [],
      "name": "usdPriceOfEth",
      "outputs": [
        {
          "name": "",
          "type": "uint256"
        }
      ],
      "payable": false,
      "stateMutability": "view",
      "type": "function"
    },
    {
      "constant": false,
      "inputs": [
        {
          "name": "price",
          "type": "uint256"
        }
      ],
      "name": "usdPriceOfEth",
      "outputs": [
        {
          "name": "",
          "type": "bool"
        }
      ],
      "payable": false,
      "stateMutability": "nonpayable",
      "type": "function"
    },
    {
      "constant": false,
      "inputs": [],
      "name": "kill",
      "outputs": [],
      "payable": false,
      "stateMutability": "nonpayable",
      "type": "function"
    }
  ],
  "bytecode": "0x608060405234801561001057600080fd5b5060008054600160a060020a031916331790556001600255610255806100376000396000f30060806040526004361061006c5763ffffffff7c010000000000000000000000000000000000000000000000000000000060003504166341c0e1b5811461007157806370480275146100885780638c3df45e146100ca5780638da5cb5b146100f1578063c4d321d21461012f575b600080fd5b34801561007d57600080fd5b50610086610147565b005b34801561009457600080fd5b506100b673ffffffffffffffffffffffffffffffffffffffff60043516610186565b604080519115158252519081900360200190f35b3480156100d657600080fd5b506100df6101e0565b60408051918252519081900360200190f35b3480156100fd57600080fd5b506101066101e6565b6040805173ffffffffffffffffffffffffffffffffffffffff9092168252519081900360200190f35b34801561013b57600080fd5b506100b6600435610202565b60005473ffffffffffffffffffffffffffffffffffffffff16331461016b57600080fd5b60005473ffffffffffffffffffffffffffffffffffffffff16ff5b6000805473ffffffffffffffffffffffffffffffffffffffff1633146101ab57600080fd5b5073ffffffffffffffffffffffffffffffffffffffff166000908152600160208190526040909120805460ff19168217905590565b60025481565b60005473ffffffffffffffffffffffffffffffffffffffff1681565b3360009081526001602052604081205460ff16151561022057600080fd5b506002556001905600a165627a7a723058207b841f9993d129c87cc218c4ac0b725ae00b5d99e33b6f99ce8814769f6c80110029",
  "source": "pragma solidity ^0.4.24;\n\ncontract BoxOfficeOracleStorage {\n    \n    address public owner;\n    mapping (address => bool) private admins;\n    \n    uint public usdPriceOfEth;\n    \n    modifier onlyOwner {\n        require(msg.sender == owner);\n        _;\n    }\n    \n    modifier onlyAdmin {\n        require(admins[msg.sender]);\n        _;\n    }\n    \n    constructor() public {\n        owner = msg.sender;\n        usdPriceOfEth = 1;\n    }\n    \n    function addAdmin(address admin) public onlyOwner returns (bool) {\n        admins[admin] = true;\n        return true;\n    }\n    \n    function usdPriceOfEth(uint price) public onlyAdmin returns (bool) {\n        usdPriceOfEth = price;\n        return true;\n    }\n    \n    function kill() public onlyOwner {\n        selfdestruct(owner);\n    }\n    \n}",
  "sourcePath": "/Users/heartbank/Google Drive/ConsenSys/BoxOffice/contracts/BoxOfficeOracleStorage.sol",
  "compiler": {
    "name": "solc",
    "version": "0.4.24+commit.e67f0147.Emscripten.clang"
  },
  "schemaVersion": "2.0.1",
  "updatedAt": "2018-08-21T01:14:48.278Z"
}