{
  "contractName": "BoxOfficeMovie",
  "abi": [
    {
      "constant": true,
      "inputs": [],
      "name": "boxOffice",
      "outputs": [
        {
          "name": "",
          "type": "address"
        }
      ],
      "payable": false,
      "stateMutability": "view",
      "type": "function"
    },
    {
      "constant": true,
      "inputs": [],
      "name": "salesEndTime",
      "outputs": [
        {
          "name": "",
          "type": "uint256"
        }
      ],
      "payable": false,
      "stateMutability": "view",
      "type": "function"
    },
    {
      "constant": true,
      "inputs": [],
      "name": "name",
      "outputs": [
        {
          "name": "",
          "type": "string"
        }
      ],
      "payable": false,
      "stateMutability": "view",
      "type": "function"
    },
    {
      "constant": false,
      "inputs": [
        {
          "name": "_spender",
          "type": "address"
        },
        {
          "name": "_value",
          "type": "uint256"
        }
      ],
      "name": "approve",
      "outputs": [
        {
          "name": "",
          "type": "bool"
        }
      ],
      "payable": false,
      "stateMutability": "nonpayable",
      "type": "function"
    },
    {
      "constant": true,
      "inputs": [],
      "name": "totalSupply",
      "outputs": [
        {
          "name": "",
          "type": "uint256"
        }
      ],
      "payable": false,
      "stateMutability": "view",
      "type": "function"
    },
    {
      "constant": true,
      "inputs": [],
      "name": "filmmaker",
      "outputs": [
        {
          "name": "",
          "type": "address"
        }
      ],
      "payable": false,
      "stateMutability": "view",
      "type": "function"
    },
    {
      "constant": false,
      "inputs": [
        {
          "name": "_from",
          "type": "address"
        },
        {
          "name": "_to",
          "type": "address"
        },
        {
          "name": "_value",
          "type": "uint256"
        }
      ],
      "name": "transferFrom",
      "outputs": [
        {
          "name": "",
          "type": "bool"
        }
      ],
      "payable": false,
      "stateMutability": "nonpayable",
      "type": "function"
    },
    {
      "constant": true,
      "inputs": [],
      "name": "decimals",
      "outputs": [
        {
          "name": "",
          "type": "uint8"
        }
      ],
      "payable": false,
      "stateMutability": "view",
      "type": "function"
    },
    {
      "constant": true,
      "inputs": [],
      "name": "logline",
      "outputs": [
        {
          "name": "",
          "type": "string"
        }
      ],
      "payable": false,
      "stateMutability": "view",
      "type": "function"
    },
    {
      "constant": true,
      "inputs": [
        {
          "name": "",
          "type": "uint256"
        }
      ],
      "name": "members",
      "outputs": [
        {
          "name": "",
          "type": "address"
        }
      ],
      "payable": false,
      "stateMutability": "view",
      "type": "function"
    },
    {
      "constant": false,
      "inputs": [
        {
          "name": "_spender",
          "type": "address"
        },
        {
          "name": "_subtractedValue",
          "type": "uint256"
        }
      ],
      "name": "decreaseApproval",
      "outputs": [
        {
          "name": "",
          "type": "bool"
        }
      ],
      "payable": false,
      "stateMutability": "nonpayable",
      "type": "function"
    },
    {
      "constant": true,
      "inputs": [
        {
          "name": "_owner",
          "type": "address"
        }
      ],
      "name": "balanceOf",
      "outputs": [
        {
          "name": "",
          "type": "uint256"
        }
      ],
      "payable": false,
      "stateMutability": "view",
      "type": "function"
    },
    {
      "constant": true,
      "inputs": [],
      "name": "poster",
      "outputs": [
        {
          "name": "",
          "type": "string"
        }
      ],
      "payable": false,
      "stateMutability": "view",
      "type": "function"
    },
    {
      "constant": true,
      "inputs": [
        {
          "name": "",
          "type": "address"
        }
      ],
      "name": "isAudienceMember",
      "outputs": [
        {
          "name": "",
          "type": "bool"
        }
      ],
      "payable": false,
      "stateMutability": "view",
      "type": "function"
    },
    {
      "constant": true,
      "inputs": [],
      "name": "symbol",
      "outputs": [
        {
          "name": "",
          "type": "string"
        }
      ],
      "payable": false,
      "stateMutability": "view",
      "type": "function"
    },
    {
      "constant": true,
      "inputs": [],
      "name": "price",
      "outputs": [
        {
          "name": "",
          "type": "uint256"
        }
      ],
      "payable": false,
      "stateMutability": "view",
      "type": "function"
    },
    {
      "constant": true,
      "inputs": [],
      "name": "trailer",
      "outputs": [
        {
          "name": "",
          "type": "string"
        }
      ],
      "payable": false,
      "stateMutability": "view",
      "type": "function"
    },
    {
      "constant": false,
      "inputs": [
        {
          "name": "_to",
          "type": "address"
        },
        {
          "name": "_value",
          "type": "uint256"
        }
      ],
      "name": "transfer",
      "outputs": [
        {
          "name": "",
          "type": "bool"
        }
      ],
      "payable": false,
      "stateMutability": "nonpayable",
      "type": "function"
    },
    {
      "constant": true,
      "inputs": [],
      "name": "sales",
      "outputs": [
        {
          "name": "",
          "type": "uint256"
        }
      ],
      "payable": false,
      "stateMutability": "view",
      "type": "function"
    },
    {
      "constant": true,
      "inputs": [],
      "name": "createdTime",
      "outputs": [
        {
          "name": "",
          "type": "uint256"
        }
      ],
      "payable": false,
      "stateMutability": "view",
      "type": "function"
    },
    {
      "constant": true,
      "inputs": [],
      "name": "fund",
      "outputs": [
        {
          "name": "",
          "type": "uint256"
        }
      ],
      "payable": false,
      "stateMutability": "view",
      "type": "function"
    },
    {
      "constant": false,
      "inputs": [
        {
          "name": "_spender",
          "type": "address"
        },
        {
          "name": "_addedValue",
          "type": "uint256"
        }
      ],
      "name": "increaseApproval",
      "outputs": [
        {
          "name": "",
          "type": "bool"
        }
      ],
      "payable": false,
      "stateMutability": "nonpayable",
      "type": "function"
    },
    {
      "constant": true,
      "inputs": [
        {
          "name": "_owner",
          "type": "address"
        },
        {
          "name": "_spender",
          "type": "address"
        }
      ],
      "name": "allowance",
      "outputs": [
        {
          "name": "",
          "type": "uint256"
        }
      ],
      "payable": false,
      "stateMutability": "view",
      "type": "function"
    },
    {
      "inputs": [
        {
          "name": "_filmmaker",
          "type": "address"
        },
        {
          "name": "_salesEndTime",
          "type": "uint256"
        },
        {
          "name": "_price",
          "type": "uint256"
        },
        {
          "name": "_ticketSupply",
          "type": "uint256"
        },
        {
          "name": "_movieName",
          "type": "string"
        },
        {
          "name": "_ticketSymbol",
          "type": "string"
        },
        {
          "name": "_logline",
          "type": "string"
        },
        {
          "name": "_poster",
          "type": "string"
        },
        {
          "name": "_trailer",
          "type": "string"
        }
      ],
      "payable": false,
      "stateMutability": "nonpayable",
      "type": "constructor"
    },
    {
      "anonymous": false,
      "inputs": [
        {
          "indexed": false,
          "name": "salesEndTime",
          "type": "uint256"
        },
        {
          "indexed": false,
          "name": "price",
          "type": "uint256"
        },
        {
          "indexed": false,
          "name": "movieName",
          "type": "string"
        },
        {
          "indexed": false,
          "name": "ticketSymbol",
          "type": "string"
        },
        {
          "indexed": false,
          "name": "logline",
          "type": "string"
        },
        {
          "indexed": false,
          "name": "poster",
          "type": "string"
        },
        {
          "indexed": false,
          "name": "trailer",
          "type": "string"
        }
      ],
      "name": "FilmUpdated",
      "type": "event"
    },
    {
      "anonymous": false,
      "inputs": [
        {
          "indexed": true,
          "name": "holder",
          "type": "address"
        }
      ],
      "name": "TicketSpent",
      "type": "event"
    },
    {
      "anonymous": false,
      "inputs": [
        {
          "indexed": true,
          "name": "owner",
          "type": "address"
        },
        {
          "indexed": true,
          "name": "spender",
          "type": "address"
        },
        {
          "indexed": false,
          "name": "value",
          "type": "uint256"
        }
      ],
      "name": "Approval",
      "type": "event"
    },
    {
      "anonymous": false,
      "inputs": [
        {
          "indexed": true,
          "name": "from",
          "type": "address"
        },
        {
          "indexed": true,
          "name": "to",
          "type": "address"
        },
        {
          "indexed": false,
          "name": "value",
          "type": "uint256"
        }
      ],
      "name": "Transfer",
      "type": "event"
    },
    {
      "constant": false,
      "inputs": [
        {
          "name": "_salesEndTime",
          "type": "uint256"
        },
        {
          "name": "_price",
          "type": "uint256"
        },
        {
          "name": "_movieName",
          "type": "string"
        },
        {
          "name": "_ticketSymbol",
          "type": "string"
        },
        {
          "name": "_logline",
          "type": "string"
        },
        {
          "name": "_poster",
          "type": "string"
        },
        {
          "name": "_trailer",
          "type": "string"
        }
      ],
      "name": "updateFilm",
      "outputs": [
        {
          "name": "",
          "type": "bool"
        }
      ],
      "payable": false,
      "stateMutability": "nonpayable",
      "type": "function"
    },
    {
      "constant": false,
      "inputs": [
        {
          "name": "buyer",
          "type": "address"
        },
        {
          "name": "quantity",
          "type": "uint256"
        }
      ],
      "name": "buyTickets",
      "outputs": [
        {
          "name": "",
          "type": "bool"
        }
      ],
      "payable": false,
      "stateMutability": "nonpayable",
      "type": "function"
    },
    {
      "constant": false,
      "inputs": [],
      "name": "spendTicket",
      "outputs": [
        {
          "name": "",
          "type": "bool"
        }
      ],
      "payable": false,
      "stateMutability": "nonpayable",
      "type": "function"
    },
    {
      "constant": false,
      "inputs": [
        {
          "name": "amount",
          "type": "uint256"
        }
      ],
      "name": "withdrawFund",
      "outputs": [
        {
          "name": "",
          "type": "bool"
        }
      ],
      "payable": false,
      "stateMutability": "nonpayable",
      "type": "function"
    },
    {
      "constant": true,
      "inputs": [],
      "name": "getAudienceMembers",
      "outputs": [
        {
          "name": "",
          "type": "address[]"
        }
      ],
      "payable": false,
      "stateMutability": "view",
      "type": "function"
    }
  ],
  "bytecode": "0x60806040523480156200001157600080fd5b5060405162001809380380620018098339810160409081528151602080840151928401516060850151608086015160a087015160c088015160e08901516101008a01516005805433600160a060020a03199182161790915560068054909116600160a060020a038b16179055426007556000600a819055600b5560088a905560098790556001869055938a018051989a9698959790969384019592840194918401939190910191620000ca916003919088019062000172565b508351620000e090600490602087019062000172565b508251620000f690600c90602086019062000172565b5081516200010c90600d90602085019062000172565b5080516200012290600e90602084019062000172565b505060015460068054600160a060020a0390811660009081526020818152604080832086905593548316825260028152838220600554909316825291909152205550620002179650505050505050565b828054600181600116156101000203166002900490600052602060002090601f016020900481019282601f10620001b557805160ff1916838001178555620001e5565b82800160010185558215620001e5579182015b82811115620001e5578251825591602001919060010190620001c8565b50620001f3929150620001f7565b5090565b6200021491905b80821115620001f35760008155600101620001fe565b90565b6115e280620002276000396000f3006080604052600436106101695763ffffffff7c01000000000000000000000000000000000000000000000000000000006000350416630641def2811461016e578063069a05231461019f57806306fdde03146101c6578063095ea7b3146102505780630cee17251461028857806318160ddd146102a05780631d9d844e146102b557806323b872dd146102ca578063313ce567146102f45780633222c0a41461031f5780635d91922d146104775780635daf08ca1461048c57806366188463146104a457806370a08231146104c857806380959721146104e9578063839dfa1f146104fe57806388f5776714610513578063919d30511461053757806395d89b4114610558578063a035b1fe1461056d578063a41c35f014610582578063a9059cbb14610597578063aace52fe146105bb578063b2f4bdb0146105d0578063b60d4288146105e5578063d73dd623146105fa578063dd62ed3e1461061e578063f63125cb14610645575b600080fd5b34801561017a57600080fd5b506101836106aa565b60408051600160a060020a039092168252519081900360200190f35b3480156101ab57600080fd5b506101b46106b9565b60408051918252519081900360200190f35b3480156101d257600080fd5b506101db6106bf565b6040805160208082528351818301528351919283929083019185019080838360005b838110156102155781810151838201526020016101fd565b50505050905090810190601f1680156102425780820380516001836020036101000a031916815260200191505b509250505060405180910390f35b34801561025c57600080fd5b50610274600160a060020a036004351660243561074d565b604080519115158252519081900360200190f35b34801561029457600080fd5b506102746004356107b4565b3480156102ac57600080fd5b506101b46107fb565b3480156102c157600080fd5b50610183610802565b3480156102d657600080fd5b50610274600160a060020a0360043581169060243516604435610811565b34801561030057600080fd5b50610309610986565b6040805160ff9092168252519081900360200190f35b34801561032b57600080fd5b50604080516020600460443581810135601f810184900484028501840190955284845261027494823594602480359536959460649492019190819084018382808284375050604080516020601f89358b018035918201839004830284018301909452808352979a99988101979196509182019450925082915084018382808284375050604080516020601f89358b018035918201839004830284018301909452808352979a99988101979196509182019450925082915084018382808284375050604080516020601f89358b018035918201839004830284018301909452808352979a99988101979196509182019450925082915084018382808284375050604080516020601f89358b018035918201839004830284018301909452808352979a99988101979196509182019450925082915084018382808284375094975061098b9650505050505050565b34801561048357600080fd5b506101db610d29565b34801561049857600080fd5b50610183600435610d84565b3480156104b057600080fd5b50610274600160a060020a0360043516602435610dac565b3480156104d457600080fd5b506101b4600160a060020a0360043516610e9b565b3480156104f557600080fd5b506101db610eb6565b34801561050a57600080fd5b50610274610f11565b34801561051f57600080fd5b50610274600160a060020a036004351660243561108f565b34801561054357600080fd5b50610274600160a060020a03600435166111ee565b34801561056457600080fd5b506101db611203565b34801561057957600080fd5b506101b461125e565b34801561058e57600080fd5b506101db611264565b3480156105a357600080fd5b50610274600160a060020a03600435166024356112bf565b3480156105c757600080fd5b506101b461139e565b3480156105dc57600080fd5b506101b46113a4565b3480156105f157600080fd5b506101b46113aa565b34801561060657600080fd5b50610274600160a060020a03600435166024356113b0565b34801561062a57600080fd5b506101b4600160a060020a0360043581169060243516611449565b34801561065157600080fd5b5061065a611474565b60408051602080825283518183015283519192839290830191858101910280838360005b8381101561069657818101518382015260200161067e565b505050509050019250505060405180910390f35b600554600160a060020a031681565b60085481565b6003805460408051602060026001851615610100026000190190941693909304601f810184900484028201840190925281815292918301828280156107455780601f1061071a57610100808354040283529160200191610745565b820191906000526020600020905b81548152906001019060200180831161072857829003601f168201915b505050505081565b336000818152600260209081526040808320600160a060020a038716808552908352818420869055815186815291519394909390927f8c5be1e5ebec7d5bd14f71427d1e84f3dd0314c0f7b2291e5b200ac8c7c3b925928290030190a35060015b92915050565b600554600090600160a060020a031633146107ce57600080fd5b600b548211156107dd57600080fd5b600b546107f0908363ffffffff6114d616565b600b55506001919050565b6001545b90565b600654600160a060020a031681565b600160a060020a03831660009081526020819052604081205482111561083657600080fd5b600160a060020a038416600090815260026020908152604080832033845290915290205482111561086657600080fd5b600160a060020a038316151561087b57600080fd5b600160a060020a0384166000908152602081905260409020546108a4908363ffffffff6114d616565b600160a060020a0380861660009081526020819052604080822093909355908516815220546108d9908363ffffffff6114e816565b600160a060020a0380851660009081526020818152604080832094909455918716815260028252828120338252909152205461091b908363ffffffff6114d616565b600160a060020a03808616600081815260026020908152604080832033845282529182902094909455805186815290519287169391927fddf252ad1be2c89b69c2b068fc378daa952ba7f163c4a11628f55a4df523b3ef929181900390910190a35060019392505050565b600081565b600654600090600160a060020a031633146109a557600080fd5b428811156109b35760088890555b60008711156109c25760098790555b6000865111156109e15785516109df90600390602089019061151e565b505b600085511115610a005784516109fe90600490602088019061151e565b505b600084511115610a1f578351610a1d90600c90602087019061151e565b505b600083511115610a3e578251610a3c90600d90602086019061151e565b505b600082511115610a5d578151610a5b90600e90602085019061151e565b505b7f940ba380aa6634e8c2878bb8ca0620b4b8fd45672b23f7a7d5dc92e6ed3766ab60085460095460036004600c600d600e60405180888152602001878152602001806020018060200180602001806020018060200186810386528b818154600181600116156101000203166002900481526020019150805460018160011615610100020316600290048015610b335780601f10610b0857610100808354040283529160200191610b33565b820191906000526020600020905b815481529060010190602001808311610b1657829003601f168201915b505086810385528a54600260001961010060018416150201909116048082526020909101908b908015610ba75780601f10610b7c57610100808354040283529160200191610ba7565b820191906000526020600020905b815481529060010190602001808311610b8a57829003601f168201915b505086810384528954600260001961010060018416150201909116048082526020909101908a908015610c1b5780601f10610bf057610100808354040283529160200191610c1b565b820191906000526020600020905b815481529060010190602001808311610bfe57829003601f168201915b5050868103835288546002600019610100600184161502019091160480825260209091019089908015610c8f5780601f10610c6457610100808354040283529160200191610c8f565b820191906000526020600020905b815481529060010190602001808311610c7257829003601f168201915b5050868103825287546002600019610100600184161502019091160480825260209091019088908015610d035780601f10610cd857610100808354040283529160200191610d03565b820191906000526020600020905b815481529060010190602001808311610ce657829003601f168201915b50509c5050505050505050505050505060405180910390a1506001979650505050505050565b600c805460408051602060026001851615610100026000190190941693909304601f810184900484028201840190925281815292918301828280156107455780601f1061071a57610100808354040283529160200191610745565b6010805482908110610d9257fe5b600091825260209091200154600160a060020a0316905081565b336000908152600260209081526040808320600160a060020a0386168452909152812054808310610e0057336000908152600260209081526040808320600160a060020a0388168452909152812055610e35565b610e10818463ffffffff6114d616565b336000908152600260209081526040808320600160a060020a03891684529091529020555b336000818152600260209081526040808320600160a060020a0389168085529083529281902054815190815290519293927f8c5be1e5ebec7d5bd14f71427d1e84f3dd0314c0f7b2291e5b200ac8c7c3b925929181900390910190a35060019392505050565b600160a060020a031660009081526020819052604090205490565b600d805460408051602060026001851615610100026000190190941693909304601f810184900484028201840190925281815292918301828280156107455780601f1061071a57610100808354040283529160200191610745565b600080610f1d33610e9b565b11610f2757600080fd5b3360009081526020819052604090205460011115610f4457600080fd5b33600090815260208190526040902054610f6590600163ffffffff6114d616565b3360009081526020819052604080822092909255600554600160a060020a031681522054610f9a90600163ffffffff6114e816565b600554600160a060020a0316600090815260208181526040808320939093556010805460018181019092557f1b6847dc741a1b0cd08d278845f9d819d87b734759afb55fe2de5cb82a9ae67201805473ffffffffffffffffffffffffffffffffffffffff191633908117909155808452600f909252838320805460ff1916909117905591517f66f39243fdcc85d7a3250a7546d65477294fa6d541ec404ec0300b0b99eb10de9190a260055460408051600181529051600160a060020a039092169133917fddf252ad1be2c89b69c2b068fc378daa952ba7f163c4a11628f55a4df523b3ef919081900360200190a350600190565b600554600090600160a060020a031633146110a957600080fd5b600654600160a060020a03166000908152602081905260409020548211156110d057600080fd5b600654600160a060020a03166000908152602081905260409020546110fb908363ffffffff6114d616565b600654600160a060020a039081166000908152602081905260408082209390935590851681522054611133908363ffffffff6114e816565b600160a060020a0384166000908152602081905260409020556009546111739061116490849063ffffffff6114f516565b600a549063ffffffff6114e816565b600a5560095461119d9061118e90849063ffffffff6114f516565b600b549063ffffffff6114e816565b600b55600654604080518481529051600160a060020a038087169316917fddf252ad1be2c89b69c2b068fc378daa952ba7f163c4a11628f55a4df523b3ef919081900360200190a350600192915050565b600f6020526000908152604090205460ff1681565b6004805460408051602060026001851615610100026000190190941693909304601f810184900484028201840190925281815292918301828280156107455780601f1061071a57610100808354040283529160200191610745565b60095481565b600e805460408051602060026001851615610100026000190190941693909304601f810184900484028201840190925281815292918301828280156107455780601f1061071a57610100808354040283529160200191610745565b336000908152602081905260408120548211156112db57600080fd5b600160a060020a03831615156112f057600080fd5b33600090815260208190526040902054611310908363ffffffff6114d616565b3360009081526020819052604080822092909255600160a060020a03851681522054611342908363ffffffff6114e816565b600160a060020a038416600081815260208181526040918290209390935580518581529051919233927fddf252ad1be2c89b69c2b068fc378daa952ba7f163c4a11628f55a4df523b3ef9281900390910190a350600192915050565b600a5481565b60075481565b600b5481565b336000908152600260209081526040808320600160a060020a03861684529091528120546113e4908363ffffffff6114e816565b336000818152600260209081526040808320600160a060020a0389168085529083529281902085905580519485525191937f8c5be1e5ebec7d5bd14f71427d1e84f3dd0314c0f7b2291e5b200ac8c7c3b925929081900390910190a350600192915050565b600160a060020a03918216600090815260026020908152604080832093909416825291909152205490565b606060108054806020026020016040519081016040528092919081815260200182805480156114cc57602002820191906000526020600020905b8154600160a060020a031681526001909101906020018083116114ae575b5050505050905090565b6000828211156114e257fe5b50900390565b818101828110156107ae57fe5b6000821515611506575060006107ae565b5081810281838281151561151657fe5b04146107ae57fe5b828054600181600116156101000203166002900490600052602060002090601f016020900481019282601f1061155f57805160ff191683800117855561158c565b8280016001018555821561158c579182015b8281111561158c578251825591602001919060010190611571565b5061159892915061159c565b5090565b6107ff91905b8082111561159857600081556001016115a25600a165627a7a72305820e4ab7038236d29d64b3681e544278323238bf9db1f2673549f9224615d49c8e30029",
  "source": "pragma solidity ^0.4.24;\n\nimport \"openzeppelin-solidity/contracts/token/ERC20/StandardToken.sol\";\n\ncontract BoxOfficeMovie is StandardToken {\n\n    uint8 public constant decimals = 0;\n    string public name;\n    string public symbol;\n    \n    address public boxOffice;\n    address public filmmaker;\n    \n    uint public createdTime;\n    uint public salesEndTime;\n    uint public price;\n    uint public sales;\n    uint public fund;\n    string public logline; \n    string public poster; \n    string public trailer;\n\n    mapping (address => bool) public isAudienceMember;\n    address[] public members;\n    \n    event FilmUpdated(\n        uint salesEndTime,\n        uint price,\n        string movieName,\n        string ticketSymbol,\n        string logline,\n        string poster,\n        string trailer\n    );\n    \n    event TicketSpent(\n        address indexed holder\n    );\n    \n    modifier onlyBoxOffice {\n        require(msg.sender == boxOffice);\n        _;\n    }\n    \n    modifier onlyFilmmaker {\n        require(msg.sender == filmmaker);\n        _;\n    }\n    \n    modifier onlyTicketHolder {\n        require(balanceOf(msg.sender) > 0);\n        _;\n    }\n\n    constructor(\n        address _filmmaker,\n        uint _salesEndTime,\n        uint _price,\n        uint _ticketSupply, \n        string _movieName, \n        string _ticketSymbol,\n        string _logline,\n        string _poster,\n        string _trailer\n    ) \n        public \n    {\n        boxOffice = msg.sender;\n        filmmaker = _filmmaker;\n        \n        createdTime = now;\n        sales = 0;\n        fund = 0;\n        \n        salesEndTime = _salesEndTime;\n        price = _price;\n        totalSupply_ = _ticketSupply;\n        name = _movieName;\n        symbol = _ticketSymbol;\n        logline = _logline;\n        poster = _poster;\n        trailer = _trailer;\n        \n        balances[filmmaker] = totalSupply_;\n        allowed[filmmaker][boxOffice] = totalSupply_;\n    }\n    \n    function updateFilm(\n        uint _salesEndTime,\n        uint _price,\n        string _movieName,\n        string _ticketSymbol,\n        string _logline,\n        string _poster,\n        string _trailer\n    ) \n        public \n        onlyFilmmaker\n        returns (bool)\n    {\n        if (_salesEndTime > now) salesEndTime = _salesEndTime;\n        if (_price > 0) price = _price;\n        if (bytes(_movieName).length > 0) name = _movieName;\n        if (bytes(_ticketSymbol).length > 0) symbol = _ticketSymbol;\n        if (bytes(_logline).length > 0) logline = _logline;\n        if (bytes(_poster).length > 0) poster = _poster;\n        if (bytes(_trailer).length > 0) trailer = _trailer;\n        \n        emit FilmUpdated(\n            salesEndTime,\n            price,\n            name,\n            symbol,\n            logline,\n            poster,\n            trailer    \n        );\n        return true;\n    } \n    \n    function buyTickets(address buyer, uint quantity) external onlyBoxOffice returns (bool) {\n        require(balances[filmmaker] >= quantity);\n        balances[filmmaker] = balances[filmmaker].sub(quantity);\n        balances[buyer] = balances[buyer].add(quantity);\n        \n        sales = sales.add(quantity.mul(price));\n        fund = fund.add(quantity.mul(price));\n        \n        emit Transfer(filmmaker, buyer, quantity);\n        return true;\n    }\n    \n    function spendTicket() \n        public \n        onlyTicketHolder \n        returns (bool)\n    {\n        require(balances[msg.sender] >= 1);\n        balances[msg.sender] = balances[msg.sender].sub(1);\n        balances[boxOffice] = balances[boxOffice].add(1);\n        \n        members.push(msg.sender);\n        isAudienceMember[msg.sender] = true;\n        \n        emit TicketSpent(msg.sender);\n        emit Transfer(msg.sender, boxOffice, 1);\n        return true;\n    }\n    \n    function withdrawFund(uint amount) external onlyBoxOffice returns (bool) {\n        require(fund >= amount);\n        fund = fund.sub(amount);\n        return true;\n    }\n    \n    function getAudienceMembers() public view returns (address[]) {\n        return members;\n    }\n\n}",
  "sourcePath": "/Users/heartbank/Google Drive/ConsenSys/BoxOffice/contracts/BoxOfficeMovie.sol",
  "compiler": {
    "name": "solc",
    "version": "0.4.24+commit.e67f0147.Emscripten.clang"
  },
  "schemaVersion": "2.0.1",
  "updatedAt": "2018-08-21T01:10:43.114Z"
}