{
  "contractName": "BoxOffice",
  "abi": [
    {
      "constant": true,
      "inputs": [],
      "name": "listingFee",
      "outputs": [
        {
          "name": "",
          "type": "uint256"
        }
      ],
      "payable": false,
      "stateMutability": "view",
      "type": "function"
    },
    {
      "constant": true,
      "inputs": [],
      "name": "charity",
      "outputs": [
        {
          "name": "",
          "type": "uint256"
        }
      ],
      "payable": false,
      "stateMutability": "view",
      "type": "function"
    },
    {
      "constant": true,
      "inputs": [
        {
          "name": "",
          "type": "uint256"
        }
      ],
      "name": "films",
      "outputs": [
        {
          "name": "",
          "type": "address"
        }
      ],
      "payable": false,
      "stateMutability": "view",
      "type": "function"
    },
    {
      "constant": true,
      "inputs": [],
      "name": "kiitos",
      "outputs": [
        {
          "name": "",
          "type": "address"
        }
      ],
      "payable": false,
      "stateMutability": "view",
      "type": "function"
    },
    {
      "constant": true,
      "inputs": [],
      "name": "heartbank",
      "outputs": [
        {
          "name": "",
          "type": "uint256"
        }
      ],
      "payable": false,
      "stateMutability": "view",
      "type": "function"
    },
    {
      "constant": true,
      "inputs": [],
      "name": "withdrawFee",
      "outputs": [
        {
          "name": "",
          "type": "uint256"
        }
      ],
      "payable": false,
      "stateMutability": "view",
      "type": "function"
    },
    {
      "constant": true,
      "inputs": [],
      "name": "admin",
      "outputs": [
        {
          "name": "",
          "type": "address"
        }
      ],
      "payable": false,
      "stateMutability": "view",
      "type": "function"
    },
    {
      "inputs": [
        {
          "name": "token",
          "type": "address"
        }
      ],
      "payable": false,
      "stateMutability": "nonpayable",
      "type": "constructor"
    },
    {
      "payable": true,
      "stateMutability": "payable",
      "type": "fallback"
    },
    {
      "anonymous": false,
      "inputs": [
        {
          "indexed": false,
          "name": "movie",
          "type": "address"
        },
        {
          "indexed": false,
          "name": "salesEndDate",
          "type": "uint256"
        },
        {
          "indexed": false,
          "name": "availableTickets",
          "type": "uint256"
        },
        {
          "indexed": false,
          "name": "price",
          "type": "uint256"
        },
        {
          "indexed": false,
          "name": "ticketSupply",
          "type": "uint256"
        },
        {
          "indexed": false,
          "name": "movieName",
          "type": "string"
        },
        {
          "indexed": false,
          "name": "ticketSymbol",
          "type": "string"
        },
        {
          "indexed": false,
          "name": "logline",
          "type": "string"
        },
        {
          "indexed": false,
          "name": "poster",
          "type": "string"
        },
        {
          "indexed": false,
          "name": "trailer",
          "type": "string"
        }
      ],
      "name": "FilmCreated",
      "type": "event"
    },
    {
      "anonymous": false,
      "inputs": [
        {
          "indexed": false,
          "name": "movie",
          "type": "address"
        },
        {
          "indexed": false,
          "name": "buyer",
          "type": "address"
        },
        {
          "indexed": false,
          "name": "quantity",
          "type": "uint256"
        }
      ],
      "name": "TicketsBought",
      "type": "event"
    },
    {
      "anonymous": false,
      "inputs": [
        {
          "indexed": true,
          "name": "date",
          "type": "uint256"
        },
        {
          "indexed": true,
          "name": "movie",
          "type": "address"
        },
        {
          "indexed": true,
          "name": "buyer",
          "type": "address"
        },
        {
          "indexed": false,
          "name": "excess",
          "type": "uint256"
        }
      ],
      "name": "ExcessPayment",
      "type": "event"
    },
    {
      "anonymous": false,
      "inputs": [
        {
          "indexed": true,
          "name": "date",
          "type": "uint256"
        },
        {
          "indexed": true,
          "name": "movie",
          "type": "address"
        },
        {
          "indexed": false,
          "name": "recipient",
          "type": "address"
        },
        {
          "indexed": false,
          "name": "amount",
          "type": "uint256"
        },
        {
          "indexed": false,
          "name": "expense",
          "type": "string"
        }
      ],
      "name": "FundWithdrawn",
      "type": "event"
    },
    {
      "anonymous": false,
      "inputs": [
        {
          "indexed": true,
          "name": "date",
          "type": "uint256"
        },
        {
          "indexed": true,
          "name": "recipient",
          "type": "address"
        },
        {
          "indexed": false,
          "name": "amount",
          "type": "uint256"
        },
        {
          "indexed": false,
          "name": "memo",
          "type": "string"
        }
      ],
      "name": "CharityDonated",
      "type": "event"
    },
    {
      "anonymous": false,
      "inputs": [
        {
          "indexed": false,
          "name": "listingFee",
          "type": "uint256"
        },
        {
          "indexed": false,
          "name": "withdrawFee",
          "type": "uint256"
        }
      ],
      "name": "FeesUpdated",
      "type": "event"
    },
    {
      "anonymous": false,
      "inputs": [
        {
          "indexed": true,
          "name": "date",
          "type": "uint256"
        },
        {
          "indexed": true,
          "name": "sender",
          "type": "address"
        },
        {
          "indexed": false,
          "name": "value",
          "type": "uint256"
        }
      ],
      "name": "FallbackTriggered",
      "type": "event"
    },
    {
      "constant": false,
      "inputs": [
        {
          "name": "salesEndDate",
          "type": "uint256"
        },
        {
          "name": "availableTickets",
          "type": "uint256"
        },
        {
          "name": "price",
          "type": "uint256"
        },
        {
          "name": "ticketSupply",
          "type": "uint256"
        },
        {
          "name": "movieName",
          "type": "string"
        },
        {
          "name": "ticketSymbol",
          "type": "string"
        },
        {
          "name": "logline",
          "type": "string"
        },
        {
          "name": "poster",
          "type": "string"
        },
        {
          "name": "trailer",
          "type": "string"
        }
      ],
      "name": "makeFilm",
      "outputs": [
        {
          "name": "",
          "type": "bool"
        }
      ],
      "payable": false,
      "stateMutability": "nonpayable",
      "type": "function"
    },
    {
      "constant": false,
      "inputs": [
        {
          "name": "movie",
          "type": "address"
        },
        {
          "name": "quantity",
          "type": "uint256"
        }
      ],
      "name": "buyTickets",
      "outputs": [
        {
          "name": "",
          "type": "bool"
        }
      ],
      "payable": true,
      "stateMutability": "payable",
      "type": "function"
    },
    {
      "constant": false,
      "inputs": [
        {
          "name": "movie",
          "type": "address"
        },
        {
          "name": "recipient",
          "type": "address"
        },
        {
          "name": "amount",
          "type": "uint256"
        },
        {
          "name": "expense",
          "type": "string"
        }
      ],
      "name": "withdrawFund",
      "outputs": [
        {
          "name": "",
          "type": "bool"
        }
      ],
      "payable": false,
      "stateMutability": "nonpayable",
      "type": "function"
    },
    {
      "constant": true,
      "inputs": [],
      "name": "getFilms",
      "outputs": [
        {
          "name": "",
          "type": "address[]"
        }
      ],
      "payable": false,
      "stateMutability": "view",
      "type": "function"
    },
    {
      "constant": false,
      "inputs": [
        {
          "name": "listing",
          "type": "uint256"
        },
        {
          "name": "withdraw",
          "type": "uint256"
        }
      ],
      "name": "updateFees",
      "outputs": [
        {
          "name": "",
          "type": "bool"
        }
      ],
      "payable": false,
      "stateMutability": "nonpayable",
      "type": "function"
    },
    {
      "constant": false,
      "inputs": [
        {
          "name": "recipient",
          "type": "address"
        },
        {
          "name": "amount",
          "type": "uint256"
        },
        {
          "name": "memo",
          "type": "string"
        }
      ],
      "name": "donateToCharity",
      "outputs": [
        {
          "name": "",
          "type": "bool"
        }
      ],
      "payable": false,
      "stateMutability": "nonpayable",
      "type": "function"
    },
    {
      "constant": false,
      "inputs": [],
      "name": "toggleEmergency",
      "outputs": [
        {
          "name": "",
          "type": "bool"
        }
      ],
      "payable": false,
      "stateMutability": "nonpayable",
      "type": "function"
    },
    {
      "constant": false,
      "inputs": [],
      "name": "shutDownBoxOffice",
      "outputs": [],
      "payable": false,
      "stateMutability": "nonpayable",
      "type": "function"
    }
  ],
  "bytecode": "0x608060405234801561001057600080fd5b50604051602080613633833981016040525160018054600160a060020a03909216600160a060020a03199283161781556000805460a060020a60ff02199316331792909216825560029182556004919091556005556135bf806100746000396000f300608060405260043610620000ea5763ffffffff7c0100000000000000000000000000000000000000000000000000000000600035041663267b588d8114620001235780632d1d2744146200013d5780634884b4f514620001695780636a1b7ecc14620001d35780636db7943714620001fd57806388f57767146200021b578063926c6d281462000234578063934aa02314620002a057806393aab8d814620002b8578063a33d99cf14620002ef578063bb982f151462000455578063c4e47ff4146200046d578063de77a7bd1462000485578063e941fa7814620004f7578063f851a440146200050f575b604080513481529051339142917fb2a08a53341b8f03217245fa02bdedc8418d23624dff5502143eac1ae6a90c439181900360200190a3005b3480156200013057600080fd5b506200013b62000527565b005b3480156200014a57600080fd5b506200015562000577565b604080519115158252519081900360200190f35b3480156200017657600080fd5b5062000181620005d7565b60408051602080825283518183015283519192839290830191858101910280838360005b83811015620001bf578181015183820152602001620001a5565b505050509050019250505060405180910390f35b348015620001e057600080fd5b50620001eb6200063b565b60408051918252519081900360200190f35b3480156200020a57600080fd5b506200015560043560243562000641565b62000155600160a060020a0360043516602435620006d2565b3480156200024157600080fd5b50604080516020600460443581810135601f810184900484028501840190955284845262000155948235600160a060020a031694602480359536959460649492019190819084018382808284375094975062000abf9650505050505050565b348015620002ad57600080fd5b50620001eb62000bf4565b348015620002c557600080fd5b50620002d360043562000bfa565b60408051600160a060020a039092168252519081900360200190f35b348015620002fc57600080fd5b50604080516020601f60843560048181013592830184900484028501840190955281845262000155948035946024803595604435956064359536959460a494909391019190819084018382808284375050604080516020601f89358b018035918201839004830284018301909452808352979a99988101979196509182019450925082915084018382808284375050604080516020601f89358b018035918201839004830284018301909452808352979a99988101979196509182019450925082915084018382808284375050604080516020601f89358b018035918201839004830284018301909452808352979a99988101979196509182019450925082915084018382808284375050604080516020601f89358b018035918201839004830284018301909452808352979a99988101979196509182019450925082915084018382808284375094975062000c239650505050505050565b3480156200046257600080fd5b50620002d362001372565b3480156200047a57600080fd5b50620001eb62001381565b3480156200049257600080fd5b50604080516020601f6064356004818101359283018490048402850184019095528184526200015594600160a060020a038135811695602480359092169560443595369560849401918190840183828082843750949750620013879650505050505050565b3480156200050457600080fd5b50620001eb620016a8565b3480156200051c57600080fd5b50620002d3620016ae565b60005474010000000000000000000000000000000000000000900460ff1615156200055157600080fd5b600054600160a060020a031633146200056957600080fd5b600054600160a060020a0316ff5b60008054600160a060020a031633146200059057600080fd5b506000805474ff0000000000000000000000000000000000000000198116740100000000000000000000000000000000000000009182900460ff1615909102179055600190565b606060068054806020026020016040519081016040528092919081815260200182805480156200063157602002820191906000526020600020905b8154600160a060020a0316815260019091019060200180831162000612575b5050505050905090565b60045481565b6000805474010000000000000000000000000000000000000000900460ff16156200066b57600080fd5b600054600160a060020a031633146200068357600080fd5b60048390556005829055604080518481526020810184905281517f5c6323bf1c2d7aaea2c091a4751c1c87af7f2864650c336507a77d0557af37a1929181900390910190a15060015b92915050565b600080548190819074010000000000000000000000000000000000000000900460ff16156200070057600080fd5b600084116200070e57600080fd5b84915081600160a060020a031663452d455f6040518163ffffffff167c0100000000000000000000000000000000000000000000000000000000028152600401602060405180830381600087803b1580156200076957600080fd5b505af11580156200077e573d6000803e3d6000fd5b505050506040513d60208110156200079557600080fd5b50514210620007a357600080fd5b81600160a060020a0316633cfa7e016040518163ffffffff167c0100000000000000000000000000000000000000000000000000000000028152600401602060405180830381600087803b158015620007fb57600080fd5b505af115801562000810573d6000803e3d6000fd5b505050506040513d60208110156200082757600080fd5b50518411156200083657600080fd5b620008ce82600160a060020a031663a035b1fe6040518163ffffffff167c0100000000000000000000000000000000000000000000000000000000028152600401602060405180830381600087803b1580156200089257600080fd5b505af1158015620008a7573d6000803e3d6000fd5b505050506040513d6020811015620008be57600080fd5b5051859063ffffffff620016bd16565b341015620008db57600080fd5b620009856200097783600160a060020a031663a035b1fe6040518163ffffffff167c0100000000000000000000000000000000000000000000000000000000028152600401602060405180830381600087803b1580156200093b57600080fd5b505af115801562000950573d6000803e3d6000fd5b505050506040513d60208110156200096757600080fd5b5051869063ffffffff620016bd16565b349063ffffffff620016ea16565b90506000811115620009d5576040805182815290513391600160a060020a0388169142917f1365015b51ea0c2d7c0e587e9b0128a9081aa6a3c33cc12cd8f13956092d313e919081900360200190a45b604080517f88f57767000000000000000000000000000000000000000000000000000000008152336004820152602481018690529051600160a060020a038416916388f577679160448083019260209291908290030181600087803b15801562000a3e57600080fd5b505af115801562000a53573d6000803e3d6000fd5b505050506040513d602081101562000a6a57600080fd5b505060408051600160a060020a038716815233602082015280820186905290517f704cb0e5440dc5ad6055dfd48a7f302d0a797c49c16226806bf92bee2c8d97539181900360600190a1506001949350505050565b60008054600160a060020a0316331462000ad857600080fd5b60025483111562000ae857600080fd5b60025462000afd908463ffffffff620016ea16565b60028190555083600160a060020a0316427f62aa133560310672a11f60868923dd4ea8d495880a3e919012dc0402723cfd6485856040518083815260200180602001828103825283818151815260200191508051906020019080838360005b8381101562000b7657818101518382015260200162000b5c565b50505050905090810190601f16801562000ba45780820380516001836020036101000a031916815260200191505b50935050505060405180910390a3604051600160a060020a0385169084156108fc029085906000818181858888f1935050505015801562000be9573d6000803e3d6000fd5b506001949350505050565b60035481565b600680548290811062000c0957fe5b600091825260209091200154600160a060020a0316905081565b60008054819074010000000000000000000000000000000000000000900460ff161562000c4f57600080fd5b60048054600154604080517f70a082310000000000000000000000000000000000000000000000000000000081523394810194909452519192600160a060020a03909116916370a08231916024808201926020929091908290030181600087803b15801562000cbd57600080fd5b505af115801562000cd2573d6000803e3d6000fd5b505050506040513d602081101562000ce957600080fd5b5051101562000cf757600080fd5b60015460048054604080517f1afdf33b0000000000000000000000000000000000000000000000000000000081523393810193909352602483019190915251600160a060020a0390921691631afdf33b916044808201926020929091908290030181600087803b15801562000d6b57600080fd5b505af115801562000d80573d6000803e3d6000fd5b505050506040513d602081101562000d9757600080fd5b5050428b1162000da657600080fd5b878a111562000db457600080fd5b6000891162000dc257600080fd5b6000881162000dd057600080fd5b865160001062000ddf57600080fd5b855160001062000dee57600080fd5b845160001062000dfd57600080fd5b835160001062000e0c57600080fd5b825160001062000e1b57600080fd5b338b8b8b8b8b8b8b8b8b62000e2f62001721565b808b600160a060020a0316600160a060020a031681526020018a8152602001898152602001888152602001878152602001806020018060200180602001806020018060200186810386528b818151815260200191508051906020019080838360005b8381101562000eab57818101518382015260200162000e91565b50505050905090810190601f16801562000ed95780820380516001836020036101000a031916815260200191505b5086810385528a5181528a516020918201918c019080838360005b8381101562000f0e57818101518382015260200162000ef4565b50505050905090810190601f16801562000f3c5780820380516001836020036101000a031916815260200191505b5086810384528951815289516020918201918b019080838360005b8381101562000f7157818101518382015260200162000f57565b50505050905090810190601f16801562000f9f5780820380516001836020036101000a031916815260200191505b5086810383528851815288516020918201918a019080838360005b8381101562000fd457818101518382015260200162000fba565b50505050905090810190601f168015620010025780820380516001836020036101000a031916815260200191505b50868103825287518152875160209182019189019080838360005b83811015620010375781810151838201526020016200101d565b50505050905090810190601f168015620010655780820380516001836020036101000a031916815260200191505b509f50505050505050505050505050505050604051809103906000f08015801562001094573d6000803e3d6000fd5b50905060068190806001815401808255809150509060018203906000526020600020016000909192909190916101000a815481600160a060020a030219169083600160a060020a03160217905550507f204a5a73bc95b002c4071f207fde4e83ad67c4d22fd145c1f42ca015002f33eb818c8c8c8c8c8c8c8c8c604051808b600160a060020a0316600160a060020a031681526020018a8152602001898152602001888152602001878152602001806020018060200180602001806020018060200186810386528b818151815260200191508051906020019080838360005b838110156200118d57818101518382015260200162001173565b50505050905090810190601f168015620011bb5780820380516001836020036101000a031916815260200191505b5086810385528a5181528a516020918201918c019080838360005b83811015620011f0578181015183820152602001620011d6565b50505050905090810190601f1680156200121e5780820380516001836020036101000a031916815260200191505b5086810384528951815289516020918201918b019080838360005b838110156200125357818101518382015260200162001239565b50505050905090810190601f168015620012815780820380516001836020036101000a031916815260200191505b5086810383528851815288516020918201918a019080838360005b83811015620012b65781810151838201526020016200129c565b50505050905090810190601f168015620012e45780820380516001836020036101000a031916815260200191505b50868103825287518152875160209182019189019080838360005b8381101562001319578181015183820152602001620012ff565b50505050905090810190601f168015620013475780820380516001836020036101000a031916815260200191505b509f5050505050505050505050505050505060405180910390a15060019a9950505050505050505050565b600154600160a060020a031681565b60025481565b6000805474010000000000000000000000000000000000000000900460ff1615620013b157600080fd5b8480600160a060020a0316631d9d844e6040518163ffffffff167c0100000000000000000000000000000000000000000000000000000000028152600401602060405180830381600087803b1580156200140a57600080fd5b505af11580156200141f573d6000803e3d6000fd5b505050506040513d60208110156200143657600080fd5b5051600160a060020a031633146200144d57600080fd5b8360006200147a826200146d6064600554620016fd90919063ffffffff16565b9063ffffffff620016bd16565b60025490915062001492908263ffffffff6200171316565b600255600354620014aa908263ffffffff6200171316565b600355600160a060020a0387161515620014c357600080fd5b60008611620014d157600080fd5b8451600010620014e057600080fd5b87600160a060020a0316630cee17256200151e62001510896200146d6064600554620016fd90919063ffffffff16565b899063ffffffff6200171316565b6040518263ffffffff167c010000000000000000000000000000000000000000000000000000000002815260040180828152602001915050602060405180830381600087803b1580156200157157600080fd5b505af115801562001586573d6000803e3d6000fd5b505050506040513d60208110156200159d57600080fd5b505060408051600160a060020a03898116825260208281018a905260609383018481528951948401949094528851918c169342937fea43979fbb8e754a543625ef9dc3b20e0287d72b7e32f3a73e7ed8c64157703a938d938d938d9392909160808401919085019080838360005b83811015620016255781810151838201526020016200160b565b50505050905090810190601f168015620016535780820380516001836020036101000a031916815260200191505b5094505050505060405180910390a3604051600160a060020a0388169087156108fc029088906000818181858888f1935050505015801562001699573d6000803e3d6000fd5b50600198975050505050505050565b60055481565b600054600160a060020a031681565b6000821515620016d057506000620006cc565b50818102818382811515620016e157fe5b0414620006cc57fe5b600082821115620016f757fe5b50900390565b600081838115156200170b57fe5b049392505050565b81810182811015620006cc57fe5b604051611e61806200173383390190560060806040523480156200001157600080fd5b5060405162001e6138038062001e618339810160409081528151602080840151928401516060850151608086015160a087015160c088015160e08901516101008a01516101208b01516005805433600160a060020a03199182161790915560068054909116600160a060020a038c16179055426007556000600b819055600c5560088b90556009889055600a8790556001869055938b018051999b9799969895979096938101959281019491810193910191620000d4916003918801906200017d565b508351620000ea9060049060208701906200017d565b5082516200010090600d9060208601906200017d565b5081516200011690600e9060208501906200017d565b5080516200012c90600f9060208401906200017d565b505060015460068054600160a060020a039081166000908152602081815260408083208690559354831682526002815283822060055490931682529190915220555062000222975050505050505050565b828054600181600116156101000203166002900490600052602060002090601f016020900481019282601f10620001c057805160ff1916838001178555620001f0565b82800160010185558215620001f0579182015b82811115620001f0578251825591602001919060010190620001d3565b50620001fe92915062000202565b5090565b6200021f91905b80821115620001fe576000815560010162000209565b90565b611c2f80620002326000396000f30060806040526004361061018a5763ffffffff7c01000000000000000000000000000000000000000000000000000000006000350416630641def2811461018f57806306fdde03146101c0578063095ea7b31461024a5780630cee17251461028257806318160ddd1461029a5780631d9d844e146102c157806323b872dd146102d6578063313ce567146103005780633840ab441461032b5780633c1db66a146103665780633cfa7e01146104c1578063452d455f146104d65780635d91922d146104eb5780635daf08ca14610500578063661884631461051857806370a082311461053c578063809597211461055d578063839dfa1f1461057257806388f5776714610587578063919d3051146105ab57806395d89b41146105cc578063a035b1fe146105e1578063a41c35f0146105f6578063a9059cbb1461060b578063aace52fe1461062f578063b2f4bdb014610644578063b60d428814610659578063d73dd6231461066e578063dd62ed3e14610692578063ee7d8370146106b9578063f63125cb14610913575b600080fd5b34801561019b57600080fd5b506101a4610978565b60408051600160a060020a039092168252519081900360200190f35b3480156101cc57600080fd5b506101d5610987565b6040805160208082528351818301528351919283929083019185019080838360005b8381101561020f5781810151838201526020016101f7565b50505050905090810190601f16801561023c5780820380516001836020036101000a031916815260200191505b509250505060405180910390f35b34801561025657600080fd5b5061026e600160a060020a0360043516602435610a15565b604080519115158252519081900360200190f35b34801561028e57600080fd5b5061026e600435610a7c565b3480156102a657600080fd5b506102af610ac3565b60408051918252519081900360200190f35b3480156102cd57600080fd5b506101a4610aca565b3480156102e257600080fd5b5061026e600160a060020a0360043581169060243516604435610ad9565b34801561030c57600080fd5b50610315610c4e565b6040805160ff9092168252519081900360200190f35b34801561033757600080fd5b50610340610c53565b604080519485526020850193909352838301919091526060830152519081900360800190f35b34801561037257600080fd5b50604080516020601f60643560048181013592830184900484028501840190955281845261026e948035946024803595604435953695608494930191819084018382808284375050604080516020601f89358b018035918201839004830284018301909452808352979a99988101979196509182019450925082915084018382808284375050604080516020601f89358b018035918201839004830284018301909452808352979a99988101979196509182019450925082915084018382808284375050604080516020601f89358b018035918201839004830284018301909452808352979a99988101979196509182019450925082915084018382808284375050604080516020601f89358b018035918201839004830284018301909452808352979a999881019791965091820194509250829150840183828082843750949750610c939650505050505050565b3480156104cd57600080fd5b506102af61104b565b3480156104e257600080fd5b506102af611051565b3480156104f757600080fd5b506101d5611057565b34801561050c57600080fd5b506101a46004356110b2565b34801561052457600080fd5b5061026e600160a060020a03600435166024356110da565b34801561054857600080fd5b506102af600160a060020a03600435166111c9565b34801561056957600080fd5b506101d56111e4565b34801561057e57600080fd5b5061026e61123f565b34801561059357600080fd5b5061026e600160a060020a03600435166024356113bd565b3480156105b757600080fd5b5061026e600160a060020a0360043516611532565b3480156105d857600080fd5b506101d5611547565b3480156105ed57600080fd5b506102af6115a2565b34801561060257600080fd5b506101d56115a8565b34801561061757600080fd5b5061026e600160a060020a0360043516602435611603565b34801561063b57600080fd5b506102af6116e2565b34801561065057600080fd5b506102af6116e8565b34801561066557600080fd5b506102af6116ee565b34801561067a57600080fd5b5061026e600160a060020a03600435166024356116f4565b34801561069e57600080fd5b506102af600160a060020a036004358116906024351661178d565b3480156106c557600080fd5b506106ce6117b8565b604051808b600160a060020a0316600160a060020a031681526020018a8152602001898152602001888152602001878152602001806020018060200180602001806020018060200186810386528b818151815260200191508051906020019080838360005b8381101561074b578181015183820152602001610733565b50505050905090810190601f1680156107785780820380516001836020036101000a031916815260200191505b5086810385528a5181528a516020918201918c019080838360005b838110156107ab578181015183820152602001610793565b50505050905090810190601f1680156107d85780820380516001836020036101000a031916815260200191505b5086810384528951815289516020918201918b019080838360005b8381101561080b5781810151838201526020016107f3565b50505050905090810190601f1680156108385780820380516001836020036101000a031916815260200191505b5086810383528851815288516020918201918a019080838360005b8381101561086b578181015183820152602001610853565b50505050905090810190601f1680156108985780820380516001836020036101000a031916815260200191505b50868103825287518152875160209182019189019080838360005b838110156108cb5781810151838201526020016108b3565b50505050905090810190601f1680156108f85780820380516001836020036101000a031916815260200191505b509f5050505050505050505050505050505060405180910390f35b34801561091f57600080fd5b50610928611ac1565b60408051602080825283518183015283519192839290830191858101910280838360005b8381101561096457818101518382015260200161094c565b505050509050019250505060405180910390f35b600554600160a060020a031681565b6003805460408051602060026001851615610100026000190190941693909304601f81018490048402820184019092528181529291830182828015610a0d5780601f106109e257610100808354040283529160200191610a0d565b820191906000526020600020905b8154815290600101906020018083116109f057829003601f168201915b505050505081565b336000818152600260209081526040808320600160a060020a038716808552908352818420869055815186815291519394909390927f8c5be1e5ebec7d5bd14f71427d1e84f3dd0314c0f7b2291e5b200ac8c7c3b925928290030190a35060015b92915050565b600554600090600160a060020a03163314610a9657600080fd5b600c54821115610aa557600080fd5b600c54610ab8908363ffffffff611b2316565b600c55506001919050565b6001545b90565b600654600160a060020a031681565b600160a060020a038316600090815260208190526040812054821115610afe57600080fd5b600160a060020a0384166000908152600260209081526040808320338452909152902054821115610b2e57600080fd5b600160a060020a0383161515610b4357600080fd5b600160a060020a038416600090815260208190526040902054610b6c908363ffffffff611b2316565b600160a060020a038086166000908152602081905260408082209390935590851681522054610ba1908363ffffffff611b3516565b600160a060020a03808516600090815260208181526040808320949094559187168152600282528281203382529091522054610be3908363ffffffff611b2316565b600160a060020a03808616600081815260026020908152604080832033845282529182902094909455805186815290519287169391927fddf252ad1be2c89b69c2b068fc378daa952ba7f163c4a11628f55a4df523b3ef929181900390910190a35060019392505050565b600081565b600b54600c546005546000908190610c7390600160a060020a03166111c9565b600654909250610c8b90600160a060020a03166111c9565b905090919293565b600654600090600160a060020a03163314610cad57600080fd5b42891115610cbb5760088990555b6001548811610cca5760098890555b6000871115610cd957600a8790555b600086511115610cf8578551610cf6906003906020890190611b6b565b505b600085511115610d17578451610d15906004906020880190611b6b565b505b600084511115610d36578351610d3490600d906020870190611b6b565b505b600083511115610d55578251610d5390600e906020860190611b6b565b505b600082511115610d74578151610d7290600f906020850190611b6b565b505b7f8cb3135083431f1ab0230b1a8e86f6ae45c0113bc0de105a4b738be9f5be4b4b600854600954600a5460036004600d600e600f60405180898152602001888152602001878152602001806020018060200180602001806020018060200186810386528b818154600181600116156101000203166002900481526020019150805460018160011615610100020316600290048015610e535780601f10610e2857610100808354040283529160200191610e53565b820191906000526020600020905b815481529060010190602001808311610e3657829003601f168201915b505086810385528a54600260001961010060018416150201909116048082526020909101908b908015610ec75780601f10610e9c57610100808354040283529160200191610ec7565b820191906000526020600020905b815481529060010190602001808311610eaa57829003601f168201915b505086810384528954600260001961010060018416150201909116048082526020909101908a908015610f3b5780601f10610f1057610100808354040283529160200191610f3b565b820191906000526020600020905b815481529060010190602001808311610f1e57829003601f168201915b5050868103835288546002600019610100600184161502019091160480825260209091019089908015610faf5780601f10610f8457610100808354040283529160200191610faf565b820191906000526020600020905b815481529060010190602001808311610f9257829003601f168201915b50508681038252875460026000196101006001841615020190911604808252602090910190889080156110235780601f10610ff857610100808354040283529160200191611023565b820191906000526020600020905b81548152906001019060200180831161100657829003601f168201915b50509d505050505050505050505050505060405180910390a150600198975050505050505050565b60095481565b60085481565b600d805460408051602060026001851615610100026000190190941693909304601f81018490048402820184019092528181529291830182828015610a0d5780601f106109e257610100808354040283529160200191610a0d565b60118054829081106110c057fe5b600091825260209091200154600160a060020a0316905081565b336000908152600260209081526040808320600160a060020a038616845290915281205480831061112e57336000908152600260209081526040808320600160a060020a0388168452909152812055611163565b61113e818463ffffffff611b2316565b336000908152600260209081526040808320600160a060020a03891684529091529020555b336000818152600260209081526040808320600160a060020a0389168085529083529281902054815190815290519293927f8c5be1e5ebec7d5bd14f71427d1e84f3dd0314c0f7b2291e5b200ac8c7c3b925929181900390910190a35060019392505050565b600160a060020a031660009081526020819052604090205490565b600e805460408051602060026001851615610100026000190190941693909304601f81018490048402820184019092528181529291830182828015610a0d5780601f106109e257610100808354040283529160200191610a0d565b60008061124b336111c9565b1161125557600080fd5b336000908152602081905260409020546001111561127257600080fd5b3360009081526020819052604090205461129390600163ffffffff611b2316565b3360009081526020819052604080822092909255600554600160a060020a0316815220546112c890600163ffffffff611b3516565b600554600160a060020a0316600090815260208181526040808320939093556011805460018181019092557f31ecc21a745e3968a04e9570e4425bc18fa8019c68028196b546d1669c200c6801805473ffffffffffffffffffffffffffffffffffffffff1916339081179091558084526010909252838320805460ff1916909117905591517f66f39243fdcc85d7a3250a7546d65477294fa6d541ec404ec0300b0b99eb10de9190a260055460408051600181529051600160a060020a039092169133917fddf252ad1be2c89b69c2b068fc378daa952ba7f163c4a11628f55a4df523b3ef919081900360200190a350600190565b600554600090600160a060020a031633146113d757600080fd5b600654600160a060020a03166000908152602081905260409020548211156113fe57600080fd5b600654600160a060020a0316600090815260208190526040902054611429908363ffffffff611b2316565b600654600160a060020a039081166000908152602081905260408082209390935590851681522054611461908363ffffffff611b3516565b600160a060020a03841660009081526020819052604090205560095461148d908363ffffffff611b2316565b600955600a546114b7906114a890849063ffffffff611b4216565b600b549063ffffffff611b3516565b600b55600a546114e1906114d290849063ffffffff611b4216565b600c549063ffffffff611b3516565b600c55600654604080518481529051600160a060020a038087169316917fddf252ad1be2c89b69c2b068fc378daa952ba7f163c4a11628f55a4df523b3ef919081900360200190a350600192915050565b60106020526000908152604090205460ff1681565b6004805460408051602060026001851615610100026000190190941693909304601f81018490048402820184019092528181529291830182828015610a0d5780601f106109e257610100808354040283529160200191610a0d565b600a5481565b600f805460408051602060026001851615610100026000190190941693909304601f81018490048402820184019092528181529291830182828015610a0d5780601f106109e257610100808354040283529160200191610a0d565b3360009081526020819052604081205482111561161f57600080fd5b600160a060020a038316151561163457600080fd5b33600090815260208190526040902054611654908363ffffffff611b2316565b3360009081526020819052604080822092909255600160a060020a03851681522054611686908363ffffffff611b3516565b600160a060020a038416600081815260208181526040918290209390935580518581529051919233927fddf252ad1be2c89b69c2b068fc378daa952ba7f163c4a11628f55a4df523b3ef9281900390910190a350600192915050565b600b5481565b60075481565b600c5481565b336000908152600260209081526040808320600160a060020a0386168452909152812054611728908363ffffffff611b3516565b336000818152600260209081526040808320600160a060020a0389168085529083529281902085905580519485525191937f8c5be1e5ebec7d5bd14f71427d1e84f3dd0314c0f7b2291e5b200ac8c7c3b925929081900390910190a350600192915050565b600160a060020a03918216600090815260026020908152604080832093909416825291909152205490565b600654600854600954600a546001805460038054604080516020600261010097851615979097026000190190931695909504601f8101839004830286018301909152808552600160a060020a03909816979293606093849384938493849390929183018282801561186a5780601f1061183f5761010080835404028352916020019161186a565b820191906000526020600020905b81548152906001019060200180831161184d57829003601f168201915b505060048054604080516020601f60026000196101006001881615020190951694909404938401819004810282018101909252828152969b50919450925084019050828280156118fb5780601f106118d0576101008083540402835291602001916118fb565b820191906000526020600020905b8154815290600101906020018083116118de57829003601f168201915b5050600d8054604080516020601f60026000196101006001881615020190951694909404938401819004810282018101909252828152969a509194509250840190508282801561198c5780601f106119615761010080835404028352916020019161198c565b820191906000526020600020905b81548152906001019060200180831161196f57829003601f168201915b5050600e8054604080516020601f6002600019610100600188161502019095169490940493840181900481028201810190925282815296995091945092508401905082828015611a1d5780601f106119f257610100808354040283529160200191611a1d565b820191906000526020600020905b815481529060010190602001808311611a0057829003601f168201915b5050600f8054604080516020601f6002600019610100600188161502019095169490940493840181900481028201810190925282815296985091945092508401905082828015611aae5780601f10611a8357610100808354040283529160200191611aae565b820191906000526020600020905b815481529060010190602001808311611a9157829003601f168201915b5050505050905090919293949596979899565b60606011805480602002602001604051908101604052809291908181526020018280548015611b1957602002820191906000526020600020905b8154600160a060020a03168152600190910190602001808311611afb575b5050505050905090565b600082821115611b2f57fe5b50900390565b81810182811015610a7657fe5b6000821515611b5357506000610a76565b50818102818382811515611b6357fe5b0414610a7657fe5b828054600181600116156101000203166002900490600052602060002090601f016020900481019282601f10611bac57805160ff1916838001178555611bd9565b82800160010185558215611bd9579182015b82811115611bd9578251825591602001919060010190611bbe565b50611be5929150611be9565b5090565b610ac791905b80821115611be55760008155600101611bef5600a165627a7a723058200b93379fc326fbba3d6044fd9efb66971587f48193d10ebd4db972ef1a9560be0029a165627a7a72305820eb5b40cd94a4c06cb342a71341d04cbe51df5fa7abda875a8ba8fa38a6cf09aa0029",
  "source": "pragma solidity ^0.4.24;\n\nimport \"openzeppelin-solidity/contracts/math/SafeMath.sol\";\nimport {HeartBankCoinInterface as Kiitos} from \"./HeartBankCoinInterface.sol\";\nimport {BoxOfficeMovie as Movie} from \"./BoxOfficeMovie.sol\";\n\ncontract BoxOffice {\n    \n    using SafeMath for uint;\n    \n    address public admin;\n    bool private emergency;\n    \n    Kiitos public kiitos;\n    uint public heartbank;\n    uint public charity;\n    uint public listingFee;\n    uint public withdrawFee;\n    \n    address[] public films;\n    \n    event FilmCreated(\n        address movie,\n        uint salesEndDate,\n        uint availableTickets,\n        uint price,\n        uint ticketSupply, \n        string movieName, \n        string ticketSymbol,\n        string logline,\n        string poster,\n        string trailer\n    );\n    \n    event TicketsBought(\n        address movie, \n        address buyer, \n        uint quantity\n    );\n    \n    event ExcessPayment(\n        uint indexed date,\n        address indexed movie,\n        address indexed buyer,\n        uint excess\n    );\n    \n    event FundWithdrawn(\n        uint indexed date,\n        address indexed movie, \n        address recipient, \n        uint amount, \n        string expense\n    );\n    \n    event CharityDonated(\n        uint indexed date,\n        address indexed recipient, \n        uint amount, \n        string memo\n    );\n    \n    event FeesUpdated(\n        uint listingFee,\n        uint withdrawFee\n    );\n    \n    event FallbackTriggered(\n        uint indexed date,\n        address indexed sender,\n        uint value\n    );\n    \n    modifier onlyAdmin {\n        require(msg.sender == admin);\n        _;\n    }\n    \n    modifier onlyFilmmaker(address movie) {\n        require(msg.sender == Movie(movie).filmmaker());\n        _;\n    }\n    \n    modifier chargeListingFee {\n        require(kiitos.balanceOf(msg.sender) >= listingFee);\n        kiitos.transferToAdmin(msg.sender, listingFee);\n        _;\n    }\n    \n    modifier chargeWithdrawFee(uint amount) {\n        uint fee = withdrawFee.div(100).mul(amount);\n        heartbank = heartbank.add(fee);\n        charity = charity.add(fee);\n        _;\n    }\n    \n    modifier stopInEmergency { \n        require(!emergency); \n        _; \n    }\n    \n    modifier onlyInEmergency { \n        require(emergency); \n        _;\n    }\n    \n    constructor(address token) public {\n        kiitos = Kiitos(token);\n        admin = msg.sender;\n        emergency = false;\n        \n        heartbank = 0;\n        listingFee = 2;\n        withdrawFee = 1;\n    }\n    \n    function() public payable {\n        emit FallbackTriggered(now, msg.sender, msg.value);\n    }\n    \n    function makeFilm(\n        uint salesEndDate,\n        uint availableTickets,\n        uint price,\n        uint ticketSupply, \n        string movieName, \n        string ticketSymbol,\n        string logline,\n        string poster,\n        string trailer\n    ) \n        public \n        stopInEmergency\n        chargeListingFee\n        returns (bool)\n    {\n        require(salesEndDate > now);\n        require(availableTickets <= ticketSupply);\n        require(price > 0);\n        require(ticketSupply > 0);\n        require(bytes(movieName).length > 0);\n        require(bytes(ticketSymbol).length > 0);\n        require(bytes(logline).length > 0);\n        require(bytes(poster).length > 0);\n        require(bytes(trailer).length > 0);\n        \n        Movie film = new Movie(msg.sender, salesEndDate, availableTickets, price, ticketSupply, movieName, ticketSymbol, logline, poster, trailer);\n        films.push(film);\n        \n        emit FilmCreated(\n            film,\n            salesEndDate,\n            availableTickets,\n            price,\n            ticketSupply,\n            movieName,\n            ticketSymbol,\n            logline,\n            poster,\n            trailer    \n        );\n        return true;\n    }\n    \n    function buyTickets(address movie, uint quantity) \n        public \n        payable\n        stopInEmergency\n        returns (bool)\n    {\n        require(quantity > 0);\n        Movie film = Movie(movie);\n        \n        // only during sales period\n        require(now < film.salesEndDate());\n        \n        // check available tickets\n        require(quantity <= film.availableTickets());\n        \n        // check payment amount\n        require(msg.value >= quantity.mul(film.price()));\n        \n        // check excess payment\n        uint excess = msg.value.sub(quantity.mul(film.price()));\n        if (excess > 0) emit ExcessPayment(now, movie, msg.sender, excess);\n        \n        film.buyTickets(msg.sender, quantity);\n        emit TicketsBought(movie, msg.sender, quantity);\n        return true;\n    }\n    \n    function withdrawFund(address movie, address recipient, uint amount, string expense) \n        public \n        stopInEmergency\n        onlyFilmmaker(movie)\n        chargeWithdrawFee(amount)\n        returns (bool)\n    {\n        require(recipient != address(0));\n        require(amount > 0);\n        require(bytes(expense).length > 0);\n        Movie(movie).withdrawFund(amount.add(withdrawFee.div(100).mul(amount)));\n        \n        emit FundWithdrawn(now, movie, recipient, amount, expense);\n        recipient.transfer(amount);\n        return true;\n    }\n    \n    function getFilms() public view returns (address[]) {\n        return films;\n    }\n    \n    function updateFees(uint listing, uint withdraw)\n        public\n        stopInEmergency\n        onlyAdmin\n        returns (bool)\n    {\n        listingFee = listing;\n        withdrawFee = withdraw;\n        emit FeesUpdated(listingFee, withdrawFee);\n        return true;\n    }\n    \n    function donateToCharity(address recipient, uint amount, string memo) public onlyAdmin returns (bool) {\n        require(amount <= heartbank);\n        heartbank = heartbank.sub(amount);\n        emit CharityDonated(now, recipient, amount, memo);\n        recipient.transfer(amount);\n        return true;\n    }\n    \n    function toggleEmergency() public onlyAdmin returns (bool) {\n        emergency = !emergency;\n        return true;\n    }\n    \n    function shutDownBoxOffice() public onlyInEmergency onlyAdmin {\n        selfdestruct(admin);\n    }\n    \n}\n",
  "sourcePath": "/Users/heartbank/Google Drive/ConsenSys/BoxOffice/contracts/BoxOffice.sol",
  "compiler": {
    "name": "solc",
    "version": "0.4.24+commit.e67f0147.Emscripten.clang"
  },
  "schemaVersion": "2.0.1",
  "updatedAt": "2018-08-25T18:17:47.212Z"
}