{
  "contractName": "BoxOffice",
  "abi": [
    {
      "constant": true,
      "inputs": [],
      "name": "listingFee",
      "outputs": [
        {
          "name": "",
          "type": "uint256"
        }
      ],
      "payable": false,
      "stateMutability": "view",
      "type": "function"
    },
    {
      "constant": true,
      "inputs": [
        {
          "name": "",
          "type": "uint256"
        }
      ],
      "name": "films",
      "outputs": [
        {
          "name": "",
          "type": "address"
        }
      ],
      "payable": false,
      "stateMutability": "view",
      "type": "function"
    },
    {
      "constant": true,
      "inputs": [],
      "name": "kiitos",
      "outputs": [
        {
          "name": "",
          "type": "address"
        }
      ],
      "payable": false,
      "stateMutability": "view",
      "type": "function"
    },
    {
      "constant": true,
      "inputs": [],
      "name": "heartbank",
      "outputs": [
        {
          "name": "",
          "type": "uint256"
        }
      ],
      "payable": false,
      "stateMutability": "view",
      "type": "function"
    },
    {
      "constant": true,
      "inputs": [],
      "name": "withdrawFee",
      "outputs": [
        {
          "name": "",
          "type": "uint256"
        }
      ],
      "payable": false,
      "stateMutability": "view",
      "type": "function"
    },
    {
      "constant": true,
      "inputs": [],
      "name": "admin",
      "outputs": [
        {
          "name": "",
          "type": "address"
        }
      ],
      "payable": false,
      "stateMutability": "view",
      "type": "function"
    },
    {
      "inputs": [
        {
          "name": "token",
          "type": "address"
        }
      ],
      "payable": false,
      "stateMutability": "nonpayable",
      "type": "constructor"
    },
    {
      "payable": true,
      "stateMutability": "payable",
      "type": "fallback"
    },
    {
      "anonymous": false,
      "inputs": [
        {
          "indexed": false,
          "name": "movie",
          "type": "address"
        },
        {
          "indexed": false,
          "name": "salesEndTime",
          "type": "uint256"
        },
        {
          "indexed": false,
          "name": "price",
          "type": "uint256"
        },
        {
          "indexed": false,
          "name": "ticketSupply",
          "type": "uint256"
        },
        {
          "indexed": false,
          "name": "movieName",
          "type": "string"
        },
        {
          "indexed": false,
          "name": "ticketSymbol",
          "type": "string"
        },
        {
          "indexed": false,
          "name": "logline",
          "type": "string"
        },
        {
          "indexed": false,
          "name": "poster",
          "type": "string"
        },
        {
          "indexed": false,
          "name": "trailer",
          "type": "string"
        }
      ],
      "name": "FilmCreated",
      "type": "event"
    },
    {
      "anonymous": false,
      "inputs": [
        {
          "indexed": false,
          "name": "movie",
          "type": "address"
        },
        {
          "indexed": false,
          "name": "buyer",
          "type": "address"
        },
        {
          "indexed": false,
          "name": "quantity",
          "type": "uint256"
        }
      ],
      "name": "TicketsBought",
      "type": "event"
    },
    {
      "anonymous": false,
      "inputs": [
        {
          "indexed": false,
          "name": "movie",
          "type": "address"
        },
        {
          "indexed": false,
          "name": "buyer",
          "type": "address"
        },
        {
          "indexed": false,
          "name": "excess",
          "type": "uint256"
        }
      ],
      "name": "ExcessPayment",
      "type": "event"
    },
    {
      "anonymous": false,
      "inputs": [
        {
          "indexed": true,
          "name": "movie",
          "type": "address"
        },
        {
          "indexed": false,
          "name": "recipient",
          "type": "address"
        },
        {
          "indexed": false,
          "name": "amount",
          "type": "uint256"
        },
        {
          "indexed": false,
          "name": "expense",
          "type": "string"
        }
      ],
      "name": "FundWithdrawn",
      "type": "event"
    },
    {
      "anonymous": false,
      "inputs": [
        {
          "indexed": true,
          "name": "recipient",
          "type": "address"
        },
        {
          "indexed": false,
          "name": "amount",
          "type": "uint256"
        },
        {
          "indexed": false,
          "name": "reason",
          "type": "string"
        }
      ],
      "name": "BoxOfficeWithdrawn",
      "type": "event"
    },
    {
      "anonymous": false,
      "inputs": [
        {
          "indexed": false,
          "name": "listingFee",
          "type": "uint256"
        },
        {
          "indexed": false,
          "name": "withdrawFee",
          "type": "uint256"
        }
      ],
      "name": "FeesUpdated",
      "type": "event"
    },
    {
      "anonymous": false,
      "inputs": [
        {
          "indexed": true,
          "name": "sender",
          "type": "address"
        },
        {
          "indexed": false,
          "name": "value",
          "type": "uint256"
        }
      ],
      "name": "FallbackTriggered",
      "type": "event"
    },
    {
      "constant": false,
      "inputs": [
        {
          "name": "salesEndTime",
          "type": "uint256"
        },
        {
          "name": "price",
          "type": "uint256"
        },
        {
          "name": "ticketSupply",
          "type": "uint256"
        },
        {
          "name": "movieName",
          "type": "string"
        },
        {
          "name": "ticketSymbol",
          "type": "string"
        },
        {
          "name": "logline",
          "type": "string"
        },
        {
          "name": "poster",
          "type": "string"
        },
        {
          "name": "trailer",
          "type": "string"
        }
      ],
      "name": "makeFilm",
      "outputs": [
        {
          "name": "",
          "type": "bool"
        }
      ],
      "payable": false,
      "stateMutability": "nonpayable",
      "type": "function"
    },
    {
      "constant": false,
      "inputs": [
        {
          "name": "movie",
          "type": "address"
        },
        {
          "name": "quantity",
          "type": "uint256"
        }
      ],
      "name": "buyTickets",
      "outputs": [
        {
          "name": "",
          "type": "bool"
        }
      ],
      "payable": true,
      "stateMutability": "payable",
      "type": "function"
    },
    {
      "constant": false,
      "inputs": [
        {
          "name": "movie",
          "type": "address"
        },
        {
          "name": "recipient",
          "type": "address"
        },
        {
          "name": "amount",
          "type": "uint256"
        },
        {
          "name": "expense",
          "type": "string"
        }
      ],
      "name": "withdrawFund",
      "outputs": [
        {
          "name": "",
          "type": "bool"
        }
      ],
      "payable": false,
      "stateMutability": "nonpayable",
      "type": "function"
    },
    {
      "constant": true,
      "inputs": [],
      "name": "getFilms",
      "outputs": [
        {
          "name": "",
          "type": "address[]"
        }
      ],
      "payable": false,
      "stateMutability": "view",
      "type": "function"
    },
    {
      "constant": false,
      "inputs": [
        {
          "name": "listing",
          "type": "uint256"
        },
        {
          "name": "withdraw",
          "type": "uint256"
        }
      ],
      "name": "updateFees",
      "outputs": [
        {
          "name": "",
          "type": "bool"
        }
      ],
      "payable": false,
      "stateMutability": "nonpayable",
      "type": "function"
    },
    {
      "constant": false,
      "inputs": [
        {
          "name": "recipient",
          "type": "address"
        },
        {
          "name": "amount",
          "type": "uint256"
        },
        {
          "name": "reason",
          "type": "string"
        }
      ],
      "name": "withdrawBoxOffice",
      "outputs": [
        {
          "name": "",
          "type": "bool"
        }
      ],
      "payable": false,
      "stateMutability": "nonpayable",
      "type": "function"
    },
    {
      "constant": false,
      "inputs": [],
      "name": "toggleEmergency",
      "outputs": [
        {
          "name": "",
          "type": "bool"
        }
      ],
      "payable": false,
      "stateMutability": "nonpayable",
      "type": "function"
    },
    {
      "constant": false,
      "inputs": [],
      "name": "shutDownBoxOffice",
      "outputs": [],
      "payable": false,
      "stateMutability": "nonpayable",
      "type": "function"
    }
  ],
  "bytecode": "0x608060405234801561001057600080fd5b50604051602080612ebd833981016040525160018054600160a060020a03909216600160a060020a03199283161781556000805460a060020a60ff0219931633179290921682556002918255600391909155600455612e49806100746000396000f300608060405260043610620000de5763ffffffff7c0100000000000000000000000000000000000000000000000000000000600035041663267b588d81146200011657806327d46c6c14620001305780632d1d274414620001b05780634884b4f514620001c85780636a1b7ecc14620002325780636db79437146200025c57806388f57767146200027a57806393aab8d81462000293578063adad9ee414620002ca578063bb982f151462000428578063c4e47ff41462000440578063de77a7bd1462000458578063e941fa7814620004ca578063f851a44014620004e2575b60408051348152905133917f88f0557776a847895e33e08fed583a81cbf92cfd35b7e6b2eceb494b15fe199b919081900360200190a2005b3480156200012357600080fd5b506200012e620004fa565b005b3480156200013d57600080fd5b50604080516020600460443581810135601f81018490048402850184019095528484526200019c948235600160a060020a03169460248035953695946064949201919081908401838280828437509497506200054a9650505050505050565b604080519115158252519081900360200190f35b348015620001bd57600080fd5b506200019c62000653565b348015620001d557600080fd5b50620001e0620006b3565b60408051602080825283518183015283519192839290830191858101910280838360005b838110156200021e57818101518382015260200162000204565b505050509050019250505060405180910390f35b3480156200023f57600080fd5b506200024a62000717565b60408051918252519081900360200190f35b3480156200026957600080fd5b506200019c6004356024356200071d565b6200019c600160a060020a0360043516602435620007ae565b348015620002a057600080fd5b50620002ae60043562000b26565b60408051600160a060020a039092168252519081900360200190f35b348015620002d757600080fd5b50604080516020601f6064356004818101359283018490048402850184019095528184526200019c948035946024803595604435953695608494930191819084018382808284375050604080516020601f89358b018035918201839004830284018301909452808352979a99988101979196509182019450925082915084018382808284375050604080516020601f89358b018035918201839004830284018301909452808352979a99988101979196509182019450925082915084018382808284375050604080516020601f89358b018035918201839004830284018301909452808352979a99988101979196509182019450925082915084018382808284375050604080516020601f89358b018035918201839004830284018301909452808352979a99988101979196509182019450925082915084018382808284375094975062000b4f9650505050505050565b3480156200043557600080fd5b50620002ae62001278565b3480156200044d57600080fd5b506200024a62001287565b3480156200046557600080fd5b50604080516020601f6064356004818101359283018490048402850184019095528184526200019c94600160a060020a0381358116956024803590921695604435953695608494019181908401838280828437509497506200128d9650505050505050565b348015620004d757600080fd5b506200024a6200158a565b348015620004ef57600080fd5b50620002ae62001590565b60005474010000000000000000000000000000000000000000900460ff1615156200052457600080fd5b600054600160a060020a031633146200053c57600080fd5b600054600160a060020a0316ff5b60008054600160a060020a031633146200056357600080fd5b83600160a060020a03167f420ff9781b708a8e2e3c88816bc5977447192294c7d4f01c7d84786c0575268384846040518083815260200180602001828103825283818151815260200191508051906020019080838360005b83811015620005d5578181015183820152602001620005bb565b50505050905090810190601f168015620006035780820380516001836020036101000a031916815260200191505b50935050505060405180910390a2604051600160a060020a0385169084156108fc029085906000818181858888f1935050505015801562000648573d6000803e3d6000fd5b506001949350505050565b60008054600160a060020a031633146200066c57600080fd5b506000805474ff0000000000000000000000000000000000000000198116740100000000000000000000000000000000000000009182900460ff1615909102179055600190565b606060058054806020026020016040519081016040528092919081815260200182805480156200070d57602002820191906000526020600020905b8154600160a060020a03168152600190910190602001808311620006ee575b5050505050905090565b60035481565b6000805474010000000000000000000000000000000000000000900460ff16156200074757600080fd5b600054600160a060020a031633146200075f57600080fd5b60038390556004829055604080518481526020810184905281517f5c6323bf1c2d7aaea2c091a4751c1c87af7f2864650c336507a77d0557af37a1929181900390910190a15060015b92915050565b6000805474010000000000000000000000000000000000000000900460ff1615620007d857600080fd5b8280600160a060020a031663069a05236040518163ffffffff167c0100000000000000000000000000000000000000000000000000000000028152600401602060405180830381600087803b1580156200083157600080fd5b505af115801562000846573d6000803e3d6000fd5b505050506040513d60208110156200085d57600080fd5b505142106200086b57600080fd5b8383600081116200087b57600080fd5b6200091382600160a060020a031663a035b1fe6040518163ffffffff167c0100000000000000000000000000000000000000000000000000000000028152600401602060405180830381600087803b158015620008d757600080fd5b505af1158015620008ec573d6000803e3d6000fd5b505050506040513d60208110156200090357600080fd5b5051829063ffffffff6200159f16565b3410156200092057600080fd5b8585600088600160a060020a03166388f57767338a6040518363ffffffff167c01000000000000000000000000000000000000000000000000000000000281526004018083600160a060020a0316600160a060020a0316815260200182815260200192505050602060405180830381600087803b158015620009a157600080fd5b505af1158015620009b6573d6000803e3d6000fd5b505050506040513d6020811015620009cd57600080fd5b505060408051600160a060020a038b1681523360208201528082018a905290517f704cb0e5440dc5ad6055dfd48a7f302d0a797c49c16226806bf92bee2c8d97539181900360600190a16001965062000ac562000ab784600160a060020a031663a035b1fe6040518163ffffffff167c0100000000000000000000000000000000000000000000000000000000028152600401602060405180830381600087803b15801562000a7b57600080fd5b505af115801562000a90573d6000803e3d6000fd5b505050506040513d602081101562000aa757600080fd5b5051849063ffffffff6200159f16565b349063ffffffff620015cc16565b9050600081111562000b1a5760408051600160a060020a038516815233602082015280820183905290517f232a2d079e2b29ddcfc1aedaa7e02152466d632d643b6c8b33956dcb8bb741739181900360600190a15b50505050505092915050565b600580548290811062000b3557fe5b600091825260209091200154600160a060020a0316905081565b60008054819074010000000000000000000000000000000000000000900460ff161562000b7b57600080fd5b600354600154604080517f70a082310000000000000000000000000000000000000000000000000000000081523360048201529051600160a060020a03909216916370a08231916024808201926020929091908290030181600087803b15801562000be557600080fd5b505af115801562000bfa573d6000803e3d6000fd5b505050506040513d602081101562000c1157600080fd5b5051101562000c1f57600080fd5b600154600354604080517f1afdf33b000000000000000000000000000000000000000000000000000000008152336004820152602481019290925251600160a060020a0390921691631afdf33b916044808201926020929091908290030181600087803b15801562000c9057600080fd5b505af115801562000ca5573d6000803e3d6000fd5b505050506040513d602081101562000cbc57600080fd5b5050428a1162000ccb57600080fd5b6000891162000cd957600080fd5b6000881162000ce757600080fd5b865160001062000cf657600080fd5b855160001062000d0557600080fd5b845160001062000d1457600080fd5b835160001062000d2357600080fd5b825160001062000d3257600080fd5b338a8a8a8a8a8a8a8a62000d4562001603565b808a600160a060020a0316600160a060020a03168152602001898152602001888152602001878152602001806020018060200180602001806020018060200186810386528b818151815260200191508051906020019080838360005b8381101562000dbb57818101518382015260200162000da1565b50505050905090810190601f16801562000de95780820380516001836020036101000a031916815260200191505b5086810385528a5181528a516020918201918c019080838360005b8381101562000e1e57818101518382015260200162000e04565b50505050905090810190601f16801562000e4c5780820380516001836020036101000a031916815260200191505b5086810384528951815289516020918201918b019080838360005b8381101562000e8157818101518382015260200162000e67565b50505050905090810190601f16801562000eaf5780820380516001836020036101000a031916815260200191505b5086810383528851815288516020918201918a019080838360005b8381101562000ee457818101518382015260200162000eca565b50505050905090810190601f16801562000f125780820380516001836020036101000a031916815260200191505b50868103825287518152875160209182019189019080838360005b8381101562000f4757818101518382015260200162000f2d565b50505050905090810190601f16801562000f755780820380516001836020036101000a031916815260200191505b509e505050505050505050505050505050604051809103906000f08015801562000fa3573d6000803e3d6000fd5b50905060058190806001815401808255809150509060018203906000526020600020016000909192909190916101000a815481600160a060020a030219169083600160a060020a03160217905550507f3095ba9056b1100f843731de73f35679c4cfb502c1aaf0d6559f881d6697e7b0818b8b8b8b8b8b8b8b604051808a600160a060020a0316600160a060020a03168152602001898152602001888152602001878152602001806020018060200180602001806020018060200186810386528b818151815260200191508051906020019080838360005b83811015620010955781810151838201526020016200107b565b50505050905090810190601f168015620010c35780820380516001836020036101000a031916815260200191505b5086810385528a5181528a516020918201918c019080838360005b83811015620010f8578181015183820152602001620010de565b50505050905090810190601f168015620011265780820380516001836020036101000a031916815260200191505b5086810384528951815289516020918201918b019080838360005b838110156200115b57818101518382015260200162001141565b50505050905090810190601f168015620011895780820380516001836020036101000a031916815260200191505b5086810383528851815288516020918201918a019080838360005b83811015620011be578181015183820152602001620011a4565b50505050905090810190601f168015620011ec5780820380516001836020036101000a031916815260200191505b50868103825287518152875160209182019189019080838360005b838110156200122157818101518382015260200162001207565b50505050905090810190601f1680156200124f5780820380516001836020036101000a031916815260200191505b509e50505050505050505050505050505060405180910390a15060019998505050505050505050565b600154600160a060020a031681565b60025481565b6000805474010000000000000000000000000000000000000000900460ff1615620012b757600080fd5b8480600160a060020a0316631d9d844e6040518163ffffffff167c0100000000000000000000000000000000000000000000000000000000028152600401602060405180830381600087803b1580156200131057600080fd5b505af115801562001325573d6000803e3d6000fd5b505050506040513d60208110156200133c57600080fd5b5051600160a060020a031633146200135357600080fd5b83620013926200138282620013756064600454620015df90919063ffffffff16565b9063ffffffff6200159f16565b6002549063ffffffff620015f516565b600255600160a060020a0386161515620013ab57600080fd5b60008511620013b957600080fd5b8351600010620013c857600080fd5b86600160a060020a0316630cee172562001406620013f888620013756064600454620015df90919063ffffffff16565b889063ffffffff620015f516565b6040518263ffffffff167c010000000000000000000000000000000000000000000000000000000002815260040180828152602001915050602060405180830381600087803b1580156200145957600080fd5b505af11580156200146e573d6000803e3d6000fd5b505050506040513d60208110156200148557600080fd5b505060408051600160a060020a038881168252602082810189905260609383018481528851948401949094528751918b16937f15450b49a1500152d90d5187e37ad0735a72ead29ba96656a8a82f08aa513a0a938b938b938b9391608084019185019080838360005b8381101562001508578181015183820152602001620014ee565b50505050905090810190601f168015620015365780820380516001836020036101000a031916815260200191505b5094505050505060405180910390a2604051600160a060020a0387169086156108fc029087906000818181858888f193505050501580156200157c573d6000803e3d6000fd5b506001979650505050505050565b60045481565b600054600160a060020a031681565b6000821515620015b257506000620007a8565b50818102818382811515620015c357fe5b0414620007a857fe5b600082821115620015d957fe5b50900390565b60008183811515620015ed57fe5b049392505050565b81810182811015620007a857fe5b604051611809806200161583390190560060806040523480156200001157600080fd5b5060405162001809380380620018098339810160409081528151602080840151928401516060850151608086015160a087015160c088015160e08901516101008a01516005805433600160a060020a03199182161790915560068054909116600160a060020a038b16179055426007556000600a819055600b5560088a905560098790556001869055938a018051989a9698959790969384019592840194918401939190910191620000ca916003919088019062000172565b508351620000e090600490602087019062000172565b508251620000f690600c90602086019062000172565b5081516200010c90600d90602085019062000172565b5080516200012290600e90602084019062000172565b505060015460068054600160a060020a0390811660009081526020818152604080832086905593548316825260028152838220600554909316825291909152205550620002179650505050505050565b828054600181600116156101000203166002900490600052602060002090601f016020900481019282601f10620001b557805160ff1916838001178555620001e5565b82800160010185558215620001e5579182015b82811115620001e5578251825591602001919060010190620001c8565b50620001f3929150620001f7565b5090565b6200021491905b80821115620001f35760008155600101620001fe565b90565b6115e280620002276000396000f3006080604052600436106101695763ffffffff7c01000000000000000000000000000000000000000000000000000000006000350416630641def2811461016e578063069a05231461019f57806306fdde03146101c6578063095ea7b3146102505780630cee17251461028857806318160ddd146102a05780631d9d844e146102b557806323b872dd146102ca578063313ce567146102f45780633222c0a41461031f5780635d91922d146104775780635daf08ca1461048c57806366188463146104a457806370a08231146104c857806380959721146104e9578063839dfa1f146104fe57806388f5776714610513578063919d30511461053757806395d89b4114610558578063a035b1fe1461056d578063a41c35f014610582578063a9059cbb14610597578063aace52fe146105bb578063b2f4bdb0146105d0578063b60d4288146105e5578063d73dd623146105fa578063dd62ed3e1461061e578063f63125cb14610645575b600080fd5b34801561017a57600080fd5b506101836106aa565b60408051600160a060020a039092168252519081900360200190f35b3480156101ab57600080fd5b506101b46106b9565b60408051918252519081900360200190f35b3480156101d257600080fd5b506101db6106bf565b6040805160208082528351818301528351919283929083019185019080838360005b838110156102155781810151838201526020016101fd565b50505050905090810190601f1680156102425780820380516001836020036101000a031916815260200191505b509250505060405180910390f35b34801561025c57600080fd5b50610274600160a060020a036004351660243561074d565b604080519115158252519081900360200190f35b34801561029457600080fd5b506102746004356107b4565b3480156102ac57600080fd5b506101b46107fb565b3480156102c157600080fd5b50610183610802565b3480156102d657600080fd5b50610274600160a060020a0360043581169060243516604435610811565b34801561030057600080fd5b50610309610986565b6040805160ff9092168252519081900360200190f35b34801561032b57600080fd5b50604080516020600460443581810135601f810184900484028501840190955284845261027494823594602480359536959460649492019190819084018382808284375050604080516020601f89358b018035918201839004830284018301909452808352979a99988101979196509182019450925082915084018382808284375050604080516020601f89358b018035918201839004830284018301909452808352979a99988101979196509182019450925082915084018382808284375050604080516020601f89358b018035918201839004830284018301909452808352979a99988101979196509182019450925082915084018382808284375050604080516020601f89358b018035918201839004830284018301909452808352979a99988101979196509182019450925082915084018382808284375094975061098b9650505050505050565b34801561048357600080fd5b506101db610d29565b34801561049857600080fd5b50610183600435610d84565b3480156104b057600080fd5b50610274600160a060020a0360043516602435610dac565b3480156104d457600080fd5b506101b4600160a060020a0360043516610e9b565b3480156104f557600080fd5b506101db610eb6565b34801561050a57600080fd5b50610274610f11565b34801561051f57600080fd5b50610274600160a060020a036004351660243561108f565b34801561054357600080fd5b50610274600160a060020a03600435166111ee565b34801561056457600080fd5b506101db611203565b34801561057957600080fd5b506101b461125e565b34801561058e57600080fd5b506101db611264565b3480156105a357600080fd5b50610274600160a060020a03600435166024356112bf565b3480156105c757600080fd5b506101b461139e565b3480156105dc57600080fd5b506101b46113a4565b3480156105f157600080fd5b506101b46113aa565b34801561060657600080fd5b50610274600160a060020a03600435166024356113b0565b34801561062a57600080fd5b506101b4600160a060020a0360043581169060243516611449565b34801561065157600080fd5b5061065a611474565b60408051602080825283518183015283519192839290830191858101910280838360005b8381101561069657818101518382015260200161067e565b505050509050019250505060405180910390f35b600554600160a060020a031681565b60085481565b6003805460408051602060026001851615610100026000190190941693909304601f810184900484028201840190925281815292918301828280156107455780601f1061071a57610100808354040283529160200191610745565b820191906000526020600020905b81548152906001019060200180831161072857829003601f168201915b505050505081565b336000818152600260209081526040808320600160a060020a038716808552908352818420869055815186815291519394909390927f8c5be1e5ebec7d5bd14f71427d1e84f3dd0314c0f7b2291e5b200ac8c7c3b925928290030190a35060015b92915050565b600554600090600160a060020a031633146107ce57600080fd5b600b548211156107dd57600080fd5b600b546107f0908363ffffffff6114d616565b600b55506001919050565b6001545b90565b600654600160a060020a031681565b600160a060020a03831660009081526020819052604081205482111561083657600080fd5b600160a060020a038416600090815260026020908152604080832033845290915290205482111561086657600080fd5b600160a060020a038316151561087b57600080fd5b600160a060020a0384166000908152602081905260409020546108a4908363ffffffff6114d616565b600160a060020a0380861660009081526020819052604080822093909355908516815220546108d9908363ffffffff6114e816565b600160a060020a0380851660009081526020818152604080832094909455918716815260028252828120338252909152205461091b908363ffffffff6114d616565b600160a060020a03808616600081815260026020908152604080832033845282529182902094909455805186815290519287169391927fddf252ad1be2c89b69c2b068fc378daa952ba7f163c4a11628f55a4df523b3ef929181900390910190a35060019392505050565b600081565b600654600090600160a060020a031633146109a557600080fd5b428811156109b35760088890555b60008711156109c25760098790555b6000865111156109e15785516109df90600390602089019061151e565b505b600085511115610a005784516109fe90600490602088019061151e565b505b600084511115610a1f578351610a1d90600c90602087019061151e565b505b600083511115610a3e578251610a3c90600d90602086019061151e565b505b600082511115610a5d578151610a5b90600e90602085019061151e565b505b7f940ba380aa6634e8c2878bb8ca0620b4b8fd45672b23f7a7d5dc92e6ed3766ab60085460095460036004600c600d600e60405180888152602001878152602001806020018060200180602001806020018060200186810386528b818154600181600116156101000203166002900481526020019150805460018160011615610100020316600290048015610b335780601f10610b0857610100808354040283529160200191610b33565b820191906000526020600020905b815481529060010190602001808311610b1657829003601f168201915b505086810385528a54600260001961010060018416150201909116048082526020909101908b908015610ba75780601f10610b7c57610100808354040283529160200191610ba7565b820191906000526020600020905b815481529060010190602001808311610b8a57829003601f168201915b505086810384528954600260001961010060018416150201909116048082526020909101908a908015610c1b5780601f10610bf057610100808354040283529160200191610c1b565b820191906000526020600020905b815481529060010190602001808311610bfe57829003601f168201915b5050868103835288546002600019610100600184161502019091160480825260209091019089908015610c8f5780601f10610c6457610100808354040283529160200191610c8f565b820191906000526020600020905b815481529060010190602001808311610c7257829003601f168201915b5050868103825287546002600019610100600184161502019091160480825260209091019088908015610d035780601f10610cd857610100808354040283529160200191610d03565b820191906000526020600020905b815481529060010190602001808311610ce657829003601f168201915b50509c5050505050505050505050505060405180910390a1506001979650505050505050565b600c805460408051602060026001851615610100026000190190941693909304601f810184900484028201840190925281815292918301828280156107455780601f1061071a57610100808354040283529160200191610745565b6010805482908110610d9257fe5b600091825260209091200154600160a060020a0316905081565b336000908152600260209081526040808320600160a060020a0386168452909152812054808310610e0057336000908152600260209081526040808320600160a060020a0388168452909152812055610e35565b610e10818463ffffffff6114d616565b336000908152600260209081526040808320600160a060020a03891684529091529020555b336000818152600260209081526040808320600160a060020a0389168085529083529281902054815190815290519293927f8c5be1e5ebec7d5bd14f71427d1e84f3dd0314c0f7b2291e5b200ac8c7c3b925929181900390910190a35060019392505050565b600160a060020a031660009081526020819052604090205490565b600d805460408051602060026001851615610100026000190190941693909304601f810184900484028201840190925281815292918301828280156107455780601f1061071a57610100808354040283529160200191610745565b600080610f1d33610e9b565b11610f2757600080fd5b3360009081526020819052604090205460011115610f4457600080fd5b33600090815260208190526040902054610f6590600163ffffffff6114d616565b3360009081526020819052604080822092909255600554600160a060020a031681522054610f9a90600163ffffffff6114e816565b600554600160a060020a0316600090815260208181526040808320939093556010805460018181019092557f1b6847dc741a1b0cd08d278845f9d819d87b734759afb55fe2de5cb82a9ae67201805473ffffffffffffffffffffffffffffffffffffffff191633908117909155808452600f909252838320805460ff1916909117905591517f66f39243fdcc85d7a3250a7546d65477294fa6d541ec404ec0300b0b99eb10de9190a260055460408051600181529051600160a060020a039092169133917fddf252ad1be2c89b69c2b068fc378daa952ba7f163c4a11628f55a4df523b3ef919081900360200190a350600190565b600554600090600160a060020a031633146110a957600080fd5b600654600160a060020a03166000908152602081905260409020548211156110d057600080fd5b600654600160a060020a03166000908152602081905260409020546110fb908363ffffffff6114d616565b600654600160a060020a039081166000908152602081905260408082209390935590851681522054611133908363ffffffff6114e816565b600160a060020a0384166000908152602081905260409020556009546111739061116490849063ffffffff6114f516565b600a549063ffffffff6114e816565b600a5560095461119d9061118e90849063ffffffff6114f516565b600b549063ffffffff6114e816565b600b55600654604080518481529051600160a060020a038087169316917fddf252ad1be2c89b69c2b068fc378daa952ba7f163c4a11628f55a4df523b3ef919081900360200190a350600192915050565b600f6020526000908152604090205460ff1681565b6004805460408051602060026001851615610100026000190190941693909304601f810184900484028201840190925281815292918301828280156107455780601f1061071a57610100808354040283529160200191610745565b60095481565b600e805460408051602060026001851615610100026000190190941693909304601f810184900484028201840190925281815292918301828280156107455780601f1061071a57610100808354040283529160200191610745565b336000908152602081905260408120548211156112db57600080fd5b600160a060020a03831615156112f057600080fd5b33600090815260208190526040902054611310908363ffffffff6114d616565b3360009081526020819052604080822092909255600160a060020a03851681522054611342908363ffffffff6114e816565b600160a060020a038416600081815260208181526040918290209390935580518581529051919233927fddf252ad1be2c89b69c2b068fc378daa952ba7f163c4a11628f55a4df523b3ef9281900390910190a350600192915050565b600a5481565b60075481565b600b5481565b336000908152600260209081526040808320600160a060020a03861684529091528120546113e4908363ffffffff6114e816565b336000818152600260209081526040808320600160a060020a0389168085529083529281902085905580519485525191937f8c5be1e5ebec7d5bd14f71427d1e84f3dd0314c0f7b2291e5b200ac8c7c3b925929081900390910190a350600192915050565b600160a060020a03918216600090815260026020908152604080832093909416825291909152205490565b606060108054806020026020016040519081016040528092919081815260200182805480156114cc57602002820191906000526020600020905b8154600160a060020a031681526001909101906020018083116114ae575b5050505050905090565b6000828211156114e257fe5b50900390565b818101828110156107ae57fe5b6000821515611506575060006107ae565b5081810281838281151561151657fe5b04146107ae57fe5b828054600181600116156101000203166002900490600052602060002090601f016020900481019282601f1061155f57805160ff191683800117855561158c565b8280016001018555821561158c579182015b8281111561158c578251825591602001919060010190611571565b5061159892915061159c565b5090565b6107ff91905b8082111561159857600081556001016115a25600a165627a7a72305820e4ab7038236d29d64b3681e544278323238bf9db1f2673549f9224615d49c8e30029a165627a7a72305820f2b04907b7aa542565cd2c0be7cc95f9e5373b263ac66ce0ab07c861fd07b7030029",
  "source": "pragma solidity ^0.4.24;\n\nimport \"openzeppelin-solidity/contracts/math/SafeMath.sol\";\nimport {HeartBankTokenInterface as Kiitos} from \"./HeartBankTokenInterface.sol\";\nimport {BoxOfficeMovie as Movie} from \"./BoxOfficeMovie.sol\";\n\ncontract BoxOffice {\n    \n    using SafeMath for uint;\n    \n    address public admin;\n    bool private emergency;\n    \n    Kiitos public kiitos;\n    uint public heartbank;\n    uint public listingFee;\n    uint public withdrawFee;\n    \n    address[] public films;\n    \n    event FilmCreated(\n        address movie,\n        uint salesEndTime,\n        uint price,\n        uint ticketSupply, \n        string movieName, \n        string ticketSymbol,\n        string logline,\n        string poster,\n        string trailer\n    );\n    \n    event TicketsBought(\n        address movie, \n        address buyer, \n        uint quantity\n    );\n    \n    event ExcessPayment(\n        address movie,\n        address buyer,\n        uint excess\n    );\n    \n    event FundWithdrawn(\n        address indexed movie, \n        address recipient, \n        uint amount, \n        string expense\n    );\n    \n    event BoxOfficeWithdrawn(\n        address indexed recipient, \n        uint amount, \n        string reason\n    );\n    \n    event FeesUpdated(\n        uint listingFee,\n        uint withdrawFee\n    );\n    \n    event FallbackTriggered(\n        address indexed sender,\n        uint value\n    );\n    \n    modifier onlyAdmin {\n        require(msg.sender == admin);\n        _;\n    }\n    \n    modifier onlyFilmmaker(address movie) {\n        require(msg.sender == Movie(movie).filmmaker());\n        _;\n    }\n    \n    modifier onlyDuringSalesPeriod(address movie) {\n        require(now < Movie(movie).salesEndTime());\n        _;\n    }\n    \n    modifier checkPaymentAmount(address movie, uint quantity) {\n        require(quantity > 0);\n        require(msg.value >= quantity.mul(Movie(movie).price()));\n        _;\n    }\n    \n    modifier checkExcessPayment(address movie, uint quantity) {\n        _;\n        uint excess = msg.value.sub(quantity.mul(Movie(movie).price()));\n        if (excess > 0) emit ExcessPayment(movie, msg.sender, excess);\n    }\n    \n    modifier chargeListingFee {\n        require(kiitos.balanceOf(msg.sender) >= listingFee);\n        kiitos.transferToAdmin(msg.sender, listingFee);\n        _;\n    }\n    \n    modifier chargeWithdrawFee(uint amount) {\n        heartbank = heartbank.add(withdrawFee.div(100).mul(amount));\n        _;\n    }\n    \n    modifier stopInEmergency { \n        require(!emergency); \n        _; \n    }\n    \n    modifier onlyInEmergency { \n        require(emergency); \n        _;\n    }\n    \n    constructor(address token) public {\n        kiitos = Kiitos(token);\n        admin = msg.sender;\n        emergency = false;\n        \n        heartbank = 0;\n        listingFee = 2;\n        withdrawFee = 1;\n    }\n    \n    function() public payable {\n        emit FallbackTriggered(msg.sender, msg.value);\n    }\n    \n    function makeFilm(\n        uint salesEndTime,\n        uint price,\n        uint ticketSupply, \n        string movieName, \n        string ticketSymbol,\n        string logline,\n        string poster,\n        string trailer\n    ) \n        public \n        stopInEmergency\n        chargeListingFee\n        returns (bool)\n    {\n        require(salesEndTime > now);\n        require(price > 0);\n        require(ticketSupply > 0);\n        require(bytes(movieName).length > 0);\n        require(bytes(ticketSymbol).length > 0);\n        require(bytes(logline).length > 0);\n        require(bytes(poster).length > 0);\n        require(bytes(trailer).length > 0);\n        \n        Movie film = new Movie(msg.sender, salesEndTime, price, ticketSupply, movieName, ticketSymbol, logline, poster, trailer);\n        films.push(film);\n        \n        emit FilmCreated(\n            film,\n            salesEndTime,\n            price,\n            ticketSupply,\n            movieName,\n            ticketSymbol,\n            logline,\n            poster,\n            trailer    \n        );\n        return true;\n    }\n    \n    function buyTickets(address movie, uint quantity) \n        public \n        payable\n        stopInEmergency\n        onlyDuringSalesPeriod(movie)\n        checkPaymentAmount(movie, quantity)\n        checkExcessPayment(movie, quantity)\n        returns (bool)\n    {\n        Movie(movie).buyTickets(msg.sender, quantity);\n        emit TicketsBought(movie, msg.sender, quantity);\n        return true;\n    }\n    \n    function withdrawFund(address movie, address recipient, uint amount, string expense) \n        public \n        stopInEmergency\n        onlyFilmmaker(movie)\n        chargeWithdrawFee(amount)\n        returns (bool)\n    {\n        require(recipient != address(0));\n        require(amount > 0);\n        require(bytes(expense).length > 0);\n        Movie(movie).withdrawFund(amount.add(withdrawFee.div(100).mul(amount)));\n        \n        emit FundWithdrawn(movie, recipient, amount, expense);\n        recipient.transfer(amount);\n        return true;\n    }\n    \n    function getFilms() public view returns (address[]) {\n        return films;\n    }\n    \n    function updateFees(uint listing, uint withdraw)\n        public\n        stopInEmergency\n        onlyAdmin\n        returns (bool)\n    {\n        listingFee = listing;\n        withdrawFee = withdraw;\n        emit FeesUpdated(listingFee, withdrawFee);\n        return true;\n    }\n    \n    function withdrawBoxOffice(address recipient, uint amount, string reason) public onlyAdmin returns (bool) {\n        emit BoxOfficeWithdrawn(recipient, amount, reason);\n        recipient.transfer(amount);\n        return true;\n    }\n    \n    function toggleEmergency() public onlyAdmin returns (bool) {\n        emergency = !emergency;\n        return true;\n    }\n    \n    function shutDownBoxOffice() public onlyInEmergency onlyAdmin {\n        selfdestruct(admin);\n    }\n    \n}\n",
  "sourcePath": "/Users/heartbank/Google Drive/ConsenSys/BoxOffice/contracts/BoxOffice.sol",
  "compiler": {
    "name": "solc",
    "version": "0.4.24+commit.e67f0147.Emscripten.clang"
  },
  "schemaVersion": "2.0.1",
  "updatedAt": "2018-08-21T01:14:48.288Z"
}