{
  "contractName": "BoxOffice",
  "abi": [
    {
      "constant": true,
      "inputs": [],
      "name": "listingFee",
      "outputs": [
        {
          "name": "",
          "type": "uint256"
        }
      ],
      "payable": false,
      "stateMutability": "view",
      "type": "function"
    },
    {
      "constant": true,
      "inputs": [],
      "name": "charity",
      "outputs": [
        {
          "name": "",
          "type": "uint256"
        }
      ],
      "payable": false,
      "stateMutability": "view",
      "type": "function"
    },
    {
      "constant": true,
      "inputs": [
        {
          "name": "",
          "type": "uint256"
        }
      ],
      "name": "films",
      "outputs": [
        {
          "name": "",
          "type": "address"
        }
      ],
      "payable": false,
      "stateMutability": "view",
      "type": "function"
    },
    {
      "constant": true,
      "inputs": [],
      "name": "kiitos",
      "outputs": [
        {
          "name": "",
          "type": "address"
        }
      ],
      "payable": false,
      "stateMutability": "view",
      "type": "function"
    },
    {
      "constant": true,
      "inputs": [],
      "name": "heartbank",
      "outputs": [
        {
          "name": "",
          "type": "uint256"
        }
      ],
      "payable": false,
      "stateMutability": "view",
      "type": "function"
    },
    {
      "constant": true,
      "inputs": [],
      "name": "withdrawFee",
      "outputs": [
        {
          "name": "",
          "type": "uint256"
        }
      ],
      "payable": false,
      "stateMutability": "view",
      "type": "function"
    },
    {
      "constant": true,
      "inputs": [],
      "name": "admin",
      "outputs": [
        {
          "name": "",
          "type": "address"
        }
      ],
      "payable": false,
      "stateMutability": "view",
      "type": "function"
    },
    {
      "inputs": [
        {
          "name": "token",
          "type": "address"
        }
      ],
      "payable": false,
      "stateMutability": "nonpayable",
      "type": "constructor"
    },
    {
      "payable": true,
      "stateMutability": "payable",
      "type": "fallback"
    },
    {
      "anonymous": false,
      "inputs": [
        {
          "indexed": false,
          "name": "movie",
          "type": "address"
        },
        {
          "indexed": false,
          "name": "salesEndDate",
          "type": "uint256"
        },
        {
          "indexed": false,
          "name": "availableTickets",
          "type": "uint256"
        },
        {
          "indexed": false,
          "name": "price",
          "type": "uint256"
        },
        {
          "indexed": false,
          "name": "ticketSupply",
          "type": "uint256"
        },
        {
          "indexed": false,
          "name": "movieName",
          "type": "string"
        },
        {
          "indexed": false,
          "name": "ticketSymbol",
          "type": "string"
        },
        {
          "indexed": false,
          "name": "logline",
          "type": "string"
        },
        {
          "indexed": false,
          "name": "poster",
          "type": "string"
        },
        {
          "indexed": false,
          "name": "trailer",
          "type": "string"
        }
      ],
      "name": "FilmCreated",
      "type": "event"
    },
    {
      "anonymous": false,
      "inputs": [
        {
          "indexed": false,
          "name": "movie",
          "type": "address"
        },
        {
          "indexed": false,
          "name": "buyer",
          "type": "address"
        },
        {
          "indexed": false,
          "name": "price",
          "type": "uint256"
        },
        {
          "indexed": false,
          "name": "quantity",
          "type": "uint256"
        }
      ],
      "name": "TicketsBought",
      "type": "event"
    },
    {
      "anonymous": false,
      "inputs": [
        {
          "indexed": true,
          "name": "date",
          "type": "uint256"
        },
        {
          "indexed": true,
          "name": "movie",
          "type": "address"
        },
        {
          "indexed": true,
          "name": "buyer",
          "type": "address"
        },
        {
          "indexed": false,
          "name": "excess",
          "type": "uint256"
        }
      ],
      "name": "ExcessPaid",
      "type": "event"
    },
    {
      "anonymous": false,
      "inputs": [
        {
          "indexed": true,
          "name": "date",
          "type": "uint256"
        },
        {
          "indexed": true,
          "name": "movie",
          "type": "address"
        },
        {
          "indexed": false,
          "name": "recipient",
          "type": "address"
        },
        {
          "indexed": false,
          "name": "amount",
          "type": "uint256"
        },
        {
          "indexed": false,
          "name": "expense",
          "type": "string"
        }
      ],
      "name": "FundWithdrawn",
      "type": "event"
    },
    {
      "anonymous": false,
      "inputs": [
        {
          "indexed": true,
          "name": "date",
          "type": "uint256"
        },
        {
          "indexed": true,
          "name": "recipient",
          "type": "address"
        },
        {
          "indexed": false,
          "name": "amount",
          "type": "uint256"
        }
      ],
      "name": "CharityDonated",
      "type": "event"
    },
    {
      "anonymous": false,
      "inputs": [
        {
          "indexed": false,
          "name": "recipient",
          "type": "address"
        },
        {
          "indexed": false,
          "name": "amount",
          "type": "uint256"
        }
      ],
      "name": "ExcessReturned",
      "type": "event"
    },
    {
      "anonymous": false,
      "inputs": [
        {
          "indexed": false,
          "name": "listingFee",
          "type": "uint256"
        },
        {
          "indexed": false,
          "name": "withdrawFee",
          "type": "uint256"
        }
      ],
      "name": "FeesUpdated",
      "type": "event"
    },
    {
      "anonymous": false,
      "inputs": [
        {
          "indexed": true,
          "name": "date",
          "type": "uint256"
        },
        {
          "indexed": true,
          "name": "sender",
          "type": "address"
        },
        {
          "indexed": false,
          "name": "value",
          "type": "uint256"
        }
      ],
      "name": "FallbackTriggered",
      "type": "event"
    },
    {
      "constant": false,
      "inputs": [
        {
          "name": "salesEndDate",
          "type": "uint256"
        },
        {
          "name": "availableTickets",
          "type": "uint256"
        },
        {
          "name": "price",
          "type": "uint256"
        },
        {
          "name": "ticketSupply",
          "type": "uint256"
        },
        {
          "name": "movieName",
          "type": "string"
        },
        {
          "name": "ticketSymbol",
          "type": "string"
        },
        {
          "name": "logline",
          "type": "string"
        },
        {
          "name": "poster",
          "type": "string"
        },
        {
          "name": "trailer",
          "type": "string"
        }
      ],
      "name": "makeFilm",
      "outputs": [
        {
          "name": "",
          "type": "bool"
        }
      ],
      "payable": false,
      "stateMutability": "nonpayable",
      "type": "function"
    },
    {
      "constant": false,
      "inputs": [
        {
          "name": "movie",
          "type": "address"
        },
        {
          "name": "quantity",
          "type": "uint256"
        }
      ],
      "name": "buyTickets",
      "outputs": [
        {
          "name": "",
          "type": "bool"
        }
      ],
      "payable": true,
      "stateMutability": "payable",
      "type": "function"
    },
    {
      "constant": false,
      "inputs": [
        {
          "name": "movie",
          "type": "address"
        },
        {
          "name": "recipient",
          "type": "address"
        },
        {
          "name": "amount",
          "type": "uint256"
        },
        {
          "name": "expense",
          "type": "string"
        }
      ],
      "name": "withdrawFund",
      "outputs": [
        {
          "name": "",
          "type": "bool"
        }
      ],
      "payable": false,
      "stateMutability": "nonpayable",
      "type": "function"
    },
    {
      "constant": true,
      "inputs": [],
      "name": "getFilms",
      "outputs": [
        {
          "name": "",
          "type": "address[]"
        }
      ],
      "payable": false,
      "stateMutability": "view",
      "type": "function"
    },
    {
      "constant": false,
      "inputs": [
        {
          "name": "listing",
          "type": "uint256"
        },
        {
          "name": "withdraw",
          "type": "uint256"
        }
      ],
      "name": "updateFees",
      "outputs": [
        {
          "name": "",
          "type": "bool"
        }
      ],
      "payable": false,
      "stateMutability": "nonpayable",
      "type": "function"
    },
    {
      "constant": false,
      "inputs": [
        {
          "name": "recipient",
          "type": "address"
        },
        {
          "name": "amount",
          "type": "uint256"
        }
      ],
      "name": "donateToCharity",
      "outputs": [
        {
          "name": "",
          "type": "bool"
        }
      ],
      "payable": false,
      "stateMutability": "nonpayable",
      "type": "function"
    },
    {
      "constant": false,
      "inputs": [
        {
          "name": "recipient",
          "type": "address"
        },
        {
          "name": "amount",
          "type": "uint256"
        }
      ],
      "name": "returnExcessPayment",
      "outputs": [
        {
          "name": "",
          "type": "bool"
        }
      ],
      "payable": false,
      "stateMutability": "nonpayable",
      "type": "function"
    },
    {
      "constant": true,
      "inputs": [],
      "name": "getBoxOfficeStats",
      "outputs": [
        {
          "name": "",
          "type": "uint256"
        },
        {
          "name": "",
          "type": "uint256"
        },
        {
          "name": "",
          "type": "uint256"
        },
        {
          "name": "",
          "type": "uint256"
        }
      ],
      "payable": false,
      "stateMutability": "view",
      "type": "function"
    },
    {
      "constant": false,
      "inputs": [],
      "name": "toggleEmergency",
      "outputs": [
        {
          "name": "",
          "type": "bool"
        }
      ],
      "payable": false,
      "stateMutability": "nonpayable",
      "type": "function"
    },
    {
      "constant": false,
      "inputs": [],
      "name": "shutDownBoxOffice",
      "outputs": [],
      "payable": false,
      "stateMutability": "nonpayable",
      "type": "function"
    }
  ],
  "bytecode": "0x608060405234801561001057600080fd5b5060405160208061364c833981016040525160018054600160a060020a03909216600160a060020a03199283161781556000805460a060020a60ff02199316331792909216825560028281556003929092556004919091556005556135d28061007a6000396000f300608060405260043610620001025763ffffffff7c0100000000000000000000000000000000000000000000000000000000600035041663267b588d81146200013b5780632d1d274414620001555780634884b4f514620001815780635b897c9414620001eb5780636a1b7ecc14620002125780636db79437146200023c57806388f57767146200025a578063934aa023146200027357806393aab8d8146200028b578063a33d99cf14620002c2578063a5cae0361462000428578063bb982f151462000466578063c4e47ff4146200047e578063de77a7bd1462000496578063e941fa781462000508578063f26574b51462000520578063f851a4401462000547575b604080513481529051339142917fb2a08a53341b8f03217245fa02bdedc8418d23624dff5502143eac1ae6a90c439181900360200190a3005b3480156200014857600080fd5b50620001536200055f565b005b3480156200016257600080fd5b506200016d620005af565b604080519115158252519081900360200190f35b3480156200018e57600080fd5b50620001996200060f565b60408051602080825283518183015283519192839290830191858101910280838360005b83811015620001d7578181015183820152602001620001bd565b505050509050019250505060405180910390f35b348015620001f857600080fd5b506200016d600160a060020a036004351660243562000673565b3480156200021f57600080fd5b506200022a62000736565b60408051918252519081900360200190f35b3480156200024957600080fd5b506200016d6004356024356200073c565b6200016d600160a060020a0360043516602435620007cc565b3480156200028057600080fd5b506200022a62000b45565b3480156200029857600080fd5b50620002a660043562000b4b565b60408051600160a060020a039092168252519081900360200190f35b348015620002cf57600080fd5b50604080516020601f6084356004818101359283018490048402850184019095528184526200016d948035946024803595604435956064359536959460a494909391019190819084018382808284375050604080516020601f89358b018035918201839004830284018301909452808352979a99988101979196509182019450925082915084018382808284375050604080516020601f89358b018035918201839004830284018301909452808352979a99988101979196509182019450925082915084018382808284375050604080516020601f89358b018035918201839004830284018301909452808352979a99988101979196509182019450925082915084018382808284375050604080516020601f89358b018035918201839004830284018301909452808352979a99988101979196509182019450925082915084018382808284375094975062000b749650505050505050565b3480156200043557600080fd5b5062000440620012c3565b604080519485526020850193909352838301919091526060830152519081900360800190f35b3480156200047357600080fd5b50620002a6620012d5565b3480156200048b57600080fd5b506200022a620012e4565b348015620004a357600080fd5b50604080516020601f6064356004818101359283018490048402850184019095528184526200016d94600160a060020a038135811695602480359092169560443595369560849401918190840183828082843750949750620012ea9650505050505050565b3480156200051557600080fd5b506200022a6200160b565b3480156200052d57600080fd5b506200016d600160a060020a036004351660243562001611565b3480156200055457600080fd5b50620002a6620016b4565b60005474010000000000000000000000000000000000000000900460ff1615156200058957600080fd5b600054600160a060020a03163314620005a157600080fd5b600054600160a060020a0316ff5b60008054600160a060020a03163314620005c857600080fd5b506000805474ff0000000000000000000000000000000000000000198116740100000000000000000000000000000000000000009182900460ff1615909102179055600190565b606060068054806020026020016040519081016040528092919081815260200182805480156200066957602002820191906000526020600020905b8154600160a060020a031681526001909101906020018083116200064a575b5050505050905090565b60008054600160a060020a031633146200068c57600080fd5b6002548211156200069c57600080fd5b600254620006b1908363ffffffff620016c316565b600255604080518381529051600160a060020a0385169142917eec3c7b13422666a03aaa726a042be75ab337d780acd7c9264b2a75b98fa7949181900360200190a3604051600160a060020a0384169083156108fc029084906000818181858888f193505050501580156200072a573d6000803e3d6000fd5b50600190505b92915050565b60045481565b6000805474010000000000000000000000000000000000000000900460ff16156200076657600080fd5b600054600160a060020a031633146200077e57600080fd5b60048390556005829055604080518481526020810184905281517f5c6323bf1c2d7aaea2c091a4751c1c87af7f2864650c336507a77d0557af37a1929181900390910190a150600192915050565b6000805481908190819074010000000000000000000000000000000000000000900460ff1615620007fc57600080fd5b600085116200080a57600080fd5b85925082600160a060020a031663a035b1fe6040518163ffffffff167c0100000000000000000000000000000000000000000000000000000000028152600401602060405180830381600087803b1580156200086557600080fd5b505af11580156200087a573d6000803e3d6000fd5b505050506040513d60208110156200089157600080fd5b5051604080517f452d455f0000000000000000000000000000000000000000000000000000000081529051919350600160a060020a0385169163452d455f916004808201926020929091908290030181600087803b158015620008f357600080fd5b505af115801562000908573d6000803e3d6000fd5b505050506040513d60208110156200091f57600080fd5b505142106200092d57600080fd5b82600160a060020a0316633cfa7e016040518163ffffffff167c0100000000000000000000000000000000000000000000000000000000028152600401602060405180830381600087803b1580156200098557600080fd5b505af11580156200099a573d6000803e3d6000fd5b505050506040513d6020811015620009b157600080fd5b5051851115620009c057600080fd5b620009d2858363ffffffff620016d616565b341015620009df57600080fd5b62000a03620009f5868463ffffffff620016d616565b349063ffffffff620016c316565b9050600081111562000a53576040805182815290513391600160a060020a0389169142917fb6fbfc7e97cd407453325a4a5bc9c8d045bc0a027f7a413091c9449d1c5b6781919081900360200190a45b604080517f88f57767000000000000000000000000000000000000000000000000000000008152336004820152602481018790529051600160a060020a038516916388f577679160448083019260209291908290030181600087803b15801562000abc57600080fd5b505af115801562000ad1573d6000803e3d6000fd5b505050506040513d602081101562000ae857600080fd5b505060408051600160a060020a03881681523360208201528082018490526060810187905290517f0d1cb2f55c27cf94d1415183d6774c0a9b07d3920c2920855dac8b52c363e9b39181900360800190a150600195945050505050565b60035481565b600680548290811062000b5a57fe5b600091825260209091200154600160a060020a0316905081565b60008054819074010000000000000000000000000000000000000000900460ff161562000ba057600080fd5b60048054600154604080517f70a082310000000000000000000000000000000000000000000000000000000081523394810194909452519192600160a060020a03909116916370a08231916024808201926020929091908290030181600087803b15801562000c0e57600080fd5b505af115801562000c23573d6000803e3d6000fd5b505050506040513d602081101562000c3a57600080fd5b5051101562000c4857600080fd5b60015460048054604080517f1afdf33b0000000000000000000000000000000000000000000000000000000081523393810193909352602483019190915251600160a060020a0390921691631afdf33b916044808201926020929091908290030181600087803b15801562000cbc57600080fd5b505af115801562000cd1573d6000803e3d6000fd5b505050506040513d602081101562000ce857600080fd5b5050428b1162000cf757600080fd5b878a111562000d0557600080fd5b6000891162000d1357600080fd5b6000881162000d2157600080fd5b865160001062000d3057600080fd5b855160001062000d3f57600080fd5b845160001062000d4e57600080fd5b835160001062000d5d57600080fd5b825160001062000d6c57600080fd5b338b8b8b8b8b8b8b8b8b62000d8062001727565b808b600160a060020a0316600160a060020a031681526020018a8152602001898152602001888152602001878152602001806020018060200180602001806020018060200186810386528b818151815260200191508051906020019080838360005b8381101562000dfc57818101518382015260200162000de2565b50505050905090810190601f16801562000e2a5780820380516001836020036101000a031916815260200191505b5086810385528a5181528a516020918201918c019080838360005b8381101562000e5f57818101518382015260200162000e45565b50505050905090810190601f16801562000e8d5780820380516001836020036101000a031916815260200191505b5086810384528951815289516020918201918b019080838360005b8381101562000ec257818101518382015260200162000ea8565b50505050905090810190601f16801562000ef05780820380516001836020036101000a031916815260200191505b5086810383528851815288516020918201918a019080838360005b8381101562000f2557818101518382015260200162000f0b565b50505050905090810190601f16801562000f535780820380516001836020036101000a031916815260200191505b50868103825287518152875160209182019189019080838360005b8381101562000f8857818101518382015260200162000f6e565b50505050905090810190601f16801562000fb65780820380516001836020036101000a031916815260200191505b509f50505050505050505050505050505050604051809103906000f08015801562000fe5573d6000803e3d6000fd5b50905060068190806001815401808255809150509060018203906000526020600020016000909192909190916101000a815481600160a060020a030219169083600160a060020a03160217905550507f204a5a73bc95b002c4071f207fde4e83ad67c4d22fd145c1f42ca015002f33eb818c8c8c8c8c8c8c8c8c604051808b600160a060020a0316600160a060020a031681526020018a8152602001898152602001888152602001878152602001806020018060200180602001806020018060200186810386528b818151815260200191508051906020019080838360005b83811015620010de578181015183820152602001620010c4565b50505050905090810190601f1680156200110c5780820380516001836020036101000a031916815260200191505b5086810385528a5181528a516020918201918c019080838360005b838110156200114157818101518382015260200162001127565b50505050905090810190601f1680156200116f5780820380516001836020036101000a031916815260200191505b5086810384528951815289516020918201918b019080838360005b83811015620011a45781810151838201526020016200118a565b50505050905090810190601f168015620011d25780820380516001836020036101000a031916815260200191505b5086810383528851815288516020918201918a019080838360005b8381101562001207578181015183820152602001620011ed565b50505050905090810190601f168015620012355780820380516001836020036101000a031916815260200191505b50868103825287518152875160209182019189019080838360005b838110156200126a57818101518382015260200162001250565b50505050905090810190601f168015620012985780820380516001836020036101000a031916815260200191505b509f5050505050505050505050505050505060405180910390a15060019a9950505050505050505050565b60045460055460025460035490919293565b600154600160a060020a031681565b60025481565b6000805474010000000000000000000000000000000000000000900460ff16156200131457600080fd5b8480600160a060020a0316631d9d844e6040518163ffffffff167c0100000000000000000000000000000000000000000000000000000000028152600401602060405180830381600087803b1580156200136d57600080fd5b505af115801562001382573d6000803e3d6000fd5b505050506040513d60208110156200139957600080fd5b5051600160a060020a03163314620013b057600080fd5b836000620013dd6064620013d084600554620016d690919063ffffffff16565b9063ffffffff6200170316565b600254909150620013f5908263ffffffff6200171916565b6002556003546200140d908263ffffffff6200171916565b600355600160a060020a03871615156200142657600080fd5b600086116200143457600080fd5b84516000106200144357600080fd5b87600160a060020a0316630cee172562001481620014736064620013d08b600554620016d690919063ffffffff16565b899063ffffffff6200171916565b6040518263ffffffff167c010000000000000000000000000000000000000000000000000000000002815260040180828152602001915050602060405180830381600087803b158015620014d457600080fd5b505af1158015620014e9573d6000803e3d6000fd5b505050506040513d60208110156200150057600080fd5b505060408051600160a060020a03898116825260208281018a905260609383018481528951948401949094528851918c169342937fea43979fbb8e754a543625ef9dc3b20e0287d72b7e32f3a73e7ed8c64157703a938d938d938d9392909160808401919085019080838360005b83811015620015885781810151838201526020016200156e565b50505050905090810190601f168015620015b65780820380516001836020036101000a031916815260200191505b5094505050505060405180910390a3604051600160a060020a0388169087156108fc029088906000818181858888f19350505050158015620015fc573d6000803e3d6000fd5b50600198975050505050505050565b60055481565b60008054600160a060020a031633146200162a57600080fd5b30318211156200163957600080fd5b60408051600160a060020a03851681526020810184905281517fd18251b9b6197210938833082964f0ebac7c8c9d8eb934c4675f59079476a2b2929181900390910190a1604051600160a060020a0384169083156108fc029084906000818181858888f193505050501580156200072a573d6000803e3d6000fd5b600054600160a060020a031681565b600082821115620016d057fe5b50900390565b6000821515620016e95750600062000730565b50818102818382811515620016fa57fe5b04146200073057fe5b600081838115156200171157fe5b049392505050565b818101828110156200073057fe5b604051611e6e806200173983390190560060806040523480156200001157600080fd5b5060405162001e6e38038062001e6e8339810160409081528151602080840151928401516060850151608086015160a087015160c088015160e08901516101008a01516101208b01516005805433600160a060020a03199182161790915560068054909116600160a060020a038c16179055426007556000600b819055600c5560088b90556009889055600a8790556001869055938b018051999b9799969895979096938101959281019491810193910191620000d4916003918801906200017d565b508351620000ea9060049060208701906200017d565b5082516200010090600d9060208601906200017d565b5081516200011690600e9060208501906200017d565b5080516200012c90600f9060208401906200017d565b505060015460068054600160a060020a039081166000908152602081815260408083208690559354831682526002815283822060055490931682529190915220555062000222975050505050505050565b828054600181600116156101000203166002900490600052602060002090601f016020900481019282601f10620001c057805160ff1916838001178555620001f0565b82800160010185558215620001f0579182015b82811115620001f0578251825591602001919060010190620001d3565b50620001fe92915062000202565b5090565b6200021f91905b80821115620001fe576000815560010162000209565b90565b611c3c80620002326000396000f30060806040526004361061018a5763ffffffff7c01000000000000000000000000000000000000000000000000000000006000350416630641def2811461018f57806306fdde03146101c0578063095ea7b31461024a5780630cee17251461028257806318160ddd1461029a5780631d9d844e146102c157806323b872dd146102d6578063313ce567146103005780633840ab441461032b5780633c1db66a146103665780633cfa7e01146104c1578063452d455f146104d65780635d91922d146104eb5780635daf08ca14610500578063661884631461051857806370a082311461053c578063809597211461055d578063839dfa1f1461057257806388f5776714610587578063919d3051146105ab57806395d89b41146105cc578063a035b1fe146105e1578063a41c35f0146105f6578063a9059cbb1461060b578063aace52fe1461062f578063b2f4bdb014610644578063b60d428814610659578063d73dd6231461066e578063dd62ed3e14610692578063ee7d8370146106b9578063f63125cb14610913575b600080fd5b34801561019b57600080fd5b506101a4610978565b60408051600160a060020a039092168252519081900360200190f35b3480156101cc57600080fd5b506101d5610987565b6040805160208082528351818301528351919283929083019185019080838360005b8381101561020f5781810151838201526020016101f7565b50505050905090810190601f16801561023c5780820380516001836020036101000a031916815260200191505b509250505060405180910390f35b34801561025657600080fd5b5061026e600160a060020a0360043516602435610a15565b604080519115158252519081900360200190f35b34801561028e57600080fd5b5061026e600435610a7c565b3480156102a657600080fd5b506102af610ac3565b60408051918252519081900360200190f35b3480156102cd57600080fd5b506101a4610aca565b3480156102e257600080fd5b5061026e600160a060020a0360043581169060243516604435610ad9565b34801561030c57600080fd5b50610315610c4e565b6040805160ff9092168252519081900360200190f35b34801561033757600080fd5b50610340610c53565b604080519485526020850193909352838301919091526060830152519081900360800190f35b34801561037257600080fd5b50604080516020601f60643560048181013592830184900484028501840190955281845261026e948035946024803595604435953695608494930191819084018382808284375050604080516020601f89358b018035918201839004830284018301909452808352979a99988101979196509182019450925082915084018382808284375050604080516020601f89358b018035918201839004830284018301909452808352979a99988101979196509182019450925082915084018382808284375050604080516020601f89358b018035918201839004830284018301909452808352979a99988101979196509182019450925082915084018382808284375050604080516020601f89358b018035918201839004830284018301909452808352979a999881019791965091820194509250829150840183828082843750949750610ca09650505050505050565b3480156104cd57600080fd5b506102af611058565b3480156104e257600080fd5b506102af61105e565b3480156104f757600080fd5b506101d5611064565b34801561050c57600080fd5b506101a46004356110bf565b34801561052457600080fd5b5061026e600160a060020a03600435166024356110e7565b34801561054857600080fd5b506102af600160a060020a03600435166111d6565b34801561056957600080fd5b506101d56111f1565b34801561057e57600080fd5b5061026e61124c565b34801561059357600080fd5b5061026e600160a060020a03600435166024356113ca565b3480156105b757600080fd5b5061026e600160a060020a036004351661153f565b3480156105d857600080fd5b506101d5611554565b3480156105ed57600080fd5b506102af6115af565b34801561060257600080fd5b506101d56115b5565b34801561061757600080fd5b5061026e600160a060020a0360043516602435611610565b34801561063b57600080fd5b506102af6116ef565b34801561065057600080fd5b506102af6116f5565b34801561066557600080fd5b506102af6116fb565b34801561067a57600080fd5b5061026e600160a060020a0360043516602435611701565b34801561069e57600080fd5b506102af600160a060020a036004358116906024351661179a565b3480156106c557600080fd5b506106ce6117c5565b604051808b600160a060020a0316600160a060020a031681526020018a8152602001898152602001888152602001878152602001806020018060200180602001806020018060200186810386528b818151815260200191508051906020019080838360005b8381101561074b578181015183820152602001610733565b50505050905090810190601f1680156107785780820380516001836020036101000a031916815260200191505b5086810385528a5181528a516020918201918c019080838360005b838110156107ab578181015183820152602001610793565b50505050905090810190601f1680156107d85780820380516001836020036101000a031916815260200191505b5086810384528951815289516020918201918b019080838360005b8381101561080b5781810151838201526020016107f3565b50505050905090810190601f1680156108385780820380516001836020036101000a031916815260200191505b5086810383528851815288516020918201918a019080838360005b8381101561086b578181015183820152602001610853565b50505050905090810190601f1680156108985780820380516001836020036101000a031916815260200191505b50868103825287518152875160209182019189019080838360005b838110156108cb5781810151838201526020016108b3565b50505050905090810190601f1680156108f85780820380516001836020036101000a031916815260200191505b509f5050505050505050505050505050505060405180910390f35b34801561091f57600080fd5b50610928611ace565b60408051602080825283518183015283519192839290830191858101910280838360005b8381101561096457818101518382015260200161094c565b505050509050019250505060405180910390f35b600554600160a060020a031681565b6003805460408051602060026001851615610100026000190190941693909304601f81018490048402820184019092528181529291830182828015610a0d5780601f106109e257610100808354040283529160200191610a0d565b820191906000526020600020905b8154815290600101906020018083116109f057829003601f168201915b505050505081565b336000818152600260209081526040808320600160a060020a038716808552908352818420869055815186815291519394909390927f8c5be1e5ebec7d5bd14f71427d1e84f3dd0314c0f7b2291e5b200ac8c7c3b925928290030190a35060015b92915050565b600554600090600160a060020a03163314610a9657600080fd5b600c54821115610aa557600080fd5b600c54610ab8908363ffffffff611b3016565b600c55506001919050565b6001545b90565b600654600160a060020a031681565b600160a060020a038316600090815260208190526040812054821115610afe57600080fd5b600160a060020a0384166000908152600260209081526040808320338452909152902054821115610b2e57600080fd5b600160a060020a0383161515610b4357600080fd5b600160a060020a038416600090815260208190526040902054610b6c908363ffffffff611b3016565b600160a060020a038086166000908152602081905260408082209390935590851681522054610ba1908363ffffffff611b4216565b600160a060020a03808516600090815260208181526040808320949094559187168152600282528281203382529091522054610be3908363ffffffff611b3016565b600160a060020a03808616600081815260026020908152604080832033845282529182902094909455805186815290519287169391927fddf252ad1be2c89b69c2b068fc378daa952ba7f163c4a11628f55a4df523b3ef929181900390910190a35060019392505050565b600081565b600080600080600b54600c54610c7d600560009054906101000a9004600160a060020a03166111d6565b600654610c9290600160a060020a03166111d6565b935093509350935090919293565b600654600090600160a060020a03163314610cba57600080fd5b42891115610cc85760088990555b6001548811610cd75760098890555b6000871115610ce657600a8790555b600086511115610d05578551610d03906003906020890190611b78565b505b600085511115610d24578451610d22906004906020880190611b78565b505b600084511115610d43578351610d4190600d906020870190611b78565b505b600083511115610d62578251610d6090600e906020860190611b78565b505b600082511115610d81578151610d7f90600f906020850190611b78565b505b7f8cb3135083431f1ab0230b1a8e86f6ae45c0113bc0de105a4b738be9f5be4b4b600854600954600a5460036004600d600e600f60405180898152602001888152602001878152602001806020018060200180602001806020018060200186810386528b818154600181600116156101000203166002900481526020019150805460018160011615610100020316600290048015610e605780601f10610e3557610100808354040283529160200191610e60565b820191906000526020600020905b815481529060010190602001808311610e4357829003601f168201915b505086810385528a54600260001961010060018416150201909116048082526020909101908b908015610ed45780601f10610ea957610100808354040283529160200191610ed4565b820191906000526020600020905b815481529060010190602001808311610eb757829003601f168201915b505086810384528954600260001961010060018416150201909116048082526020909101908a908015610f485780601f10610f1d57610100808354040283529160200191610f48565b820191906000526020600020905b815481529060010190602001808311610f2b57829003601f168201915b5050868103835288546002600019610100600184161502019091160480825260209091019089908015610fbc5780601f10610f9157610100808354040283529160200191610fbc565b820191906000526020600020905b815481529060010190602001808311610f9f57829003601f168201915b50508681038252875460026000196101006001841615020190911604808252602090910190889080156110305780601f1061100557610100808354040283529160200191611030565b820191906000526020600020905b81548152906001019060200180831161101357829003601f168201915b50509d505050505050505050505050505060405180910390a150600198975050505050505050565b60095481565b60085481565b600d805460408051602060026001851615610100026000190190941693909304601f81018490048402820184019092528181529291830182828015610a0d5780601f106109e257610100808354040283529160200191610a0d565b60118054829081106110cd57fe5b600091825260209091200154600160a060020a0316905081565b336000908152600260209081526040808320600160a060020a038616845290915281205480831061113b57336000908152600260209081526040808320600160a060020a0388168452909152812055611170565b61114b818463ffffffff611b3016565b336000908152600260209081526040808320600160a060020a03891684529091529020555b336000818152600260209081526040808320600160a060020a0389168085529083529281902054815190815290519293927f8c5be1e5ebec7d5bd14f71427d1e84f3dd0314c0f7b2291e5b200ac8c7c3b925929181900390910190a35060019392505050565b600160a060020a031660009081526020819052604090205490565b600e805460408051602060026001851615610100026000190190941693909304601f81018490048402820184019092528181529291830182828015610a0d5780601f106109e257610100808354040283529160200191610a0d565b600080611258336111d6565b1161126257600080fd5b336000908152602081905260409020546001111561127f57600080fd5b336000908152602081905260409020546112a090600163ffffffff611b3016565b3360009081526020819052604080822092909255600554600160a060020a0316815220546112d590600163ffffffff611b4216565b600554600160a060020a0316600090815260208181526040808320939093556011805460018181019092557f31ecc21a745e3968a04e9570e4425bc18fa8019c68028196b546d1669c200c6801805473ffffffffffffffffffffffffffffffffffffffff1916339081179091558084526010909252838320805460ff1916909117905591517f66f39243fdcc85d7a3250a7546d65477294fa6d541ec404ec0300b0b99eb10de9190a260055460408051600181529051600160a060020a039092169133917fddf252ad1be2c89b69c2b068fc378daa952ba7f163c4a11628f55a4df523b3ef919081900360200190a350600190565b600554600090600160a060020a031633146113e457600080fd5b600654600160a060020a031660009081526020819052604090205482111561140b57600080fd5b600654600160a060020a0316600090815260208190526040902054611436908363ffffffff611b3016565b600654600160a060020a03908116600090815260208190526040808220939093559085168152205461146e908363ffffffff611b4216565b600160a060020a03841660009081526020819052604090205560095461149a908363ffffffff611b3016565b600955600a546114c4906114b590849063ffffffff611b4f16565b600b549063ffffffff611b4216565b600b55600a546114ee906114df90849063ffffffff611b4f16565b600c549063ffffffff611b4216565b600c55600654604080518481529051600160a060020a038087169316917fddf252ad1be2c89b69c2b068fc378daa952ba7f163c4a11628f55a4df523b3ef919081900360200190a350600192915050565b60106020526000908152604090205460ff1681565b6004805460408051602060026001851615610100026000190190941693909304601f81018490048402820184019092528181529291830182828015610a0d5780601f106109e257610100808354040283529160200191610a0d565b600a5481565b600f805460408051602060026001851615610100026000190190941693909304601f81018490048402820184019092528181529291830182828015610a0d5780601f106109e257610100808354040283529160200191610a0d565b3360009081526020819052604081205482111561162c57600080fd5b600160a060020a038316151561164157600080fd5b33600090815260208190526040902054611661908363ffffffff611b3016565b3360009081526020819052604080822092909255600160a060020a03851681522054611693908363ffffffff611b4216565b600160a060020a038416600081815260208181526040918290209390935580518581529051919233927fddf252ad1be2c89b69c2b068fc378daa952ba7f163c4a11628f55a4df523b3ef9281900390910190a350600192915050565b600b5481565b60075481565b600c5481565b336000908152600260209081526040808320600160a060020a0386168452909152812054611735908363ffffffff611b4216565b336000818152600260209081526040808320600160a060020a0389168085529083529281902085905580519485525191937f8c5be1e5ebec7d5bd14f71427d1e84f3dd0314c0f7b2291e5b200ac8c7c3b925929081900390910190a350600192915050565b600160a060020a03918216600090815260026020908152604080832093909416825291909152205490565b600654600854600954600a546001805460038054604080516020600261010097851615979097026000190190931695909504601f8101839004830286018301909152808552600160a060020a0390981697929360609384938493849384939092918301828280156118775780601f1061184c57610100808354040283529160200191611877565b820191906000526020600020905b81548152906001019060200180831161185a57829003601f168201915b505060048054604080516020601f60026000196101006001881615020190951694909404938401819004810282018101909252828152969b50919450925084019050828280156119085780601f106118dd57610100808354040283529160200191611908565b820191906000526020600020905b8154815290600101906020018083116118eb57829003601f168201915b5050600d8054604080516020601f60026000196101006001881615020190951694909404938401819004810282018101909252828152969a50919450925084019050828280156119995780601f1061196e57610100808354040283529160200191611999565b820191906000526020600020905b81548152906001019060200180831161197c57829003601f168201915b5050600e8054604080516020601f6002600019610100600188161502019095169490940493840181900481028201810190925282815296995091945092508401905082828015611a2a5780601f106119ff57610100808354040283529160200191611a2a565b820191906000526020600020905b815481529060010190602001808311611a0d57829003601f168201915b5050600f8054604080516020601f6002600019610100600188161502019095169490940493840181900481028201810190925282815296985091945092508401905082828015611abb5780601f10611a9057610100808354040283529160200191611abb565b820191906000526020600020905b815481529060010190602001808311611a9e57829003601f168201915b5050505050905090919293949596979899565b60606011805480602002602001604051908101604052809291908181526020018280548015611b2657602002820191906000526020600020905b8154600160a060020a03168152600190910190602001808311611b08575b5050505050905090565b600082821115611b3c57fe5b50900390565b81810182811015610a7657fe5b6000821515611b6057506000610a76565b50818102818382811515611b7057fe5b0414610a7657fe5b828054600181600116156101000203166002900490600052602060002090601f016020900481019282601f10611bb957805160ff1916838001178555611be6565b82800160010185558215611be6579182015b82811115611be6578251825591602001919060010190611bcb565b50611bf2929150611bf6565b5090565b610ac791905b80821115611bf25760008155600101611bfc5600a165627a7a72305820219efc8de4b5a9822ee4342534addd0aa0d9fb101984095d32d11f7ae7faaa570029a165627a7a7230582015b822b7c4e53d839177fd5fde491cdb2296b1760b9f0f8b9d4178f8e1f976670029",
  "source": "pragma solidity ^0.4.24;\n\nimport \"openzeppelin-solidity/contracts/math/SafeMath.sol\";\nimport {HeartBankCoinInterface as Kiitos} from \"./HeartBankCoinInterface.sol\";\nimport {BoxOfficeMovie as Movie} from \"./BoxOfficeMovie.sol\";\n\ncontract BoxOffice {\n    \n    using SafeMath for uint;\n    \n    address public admin;\n    bool private emergency;\n    \n    Kiitos public kiitos;\n    uint public heartbank;\n    uint public charity;\n    uint public listingFee;\n    uint public withdrawFee;\n    \n    address[] public films;\n    \n    event FilmCreated(\n        address movie,\n        uint salesEndDate,\n        uint availableTickets,\n        uint price,\n        uint ticketSupply, \n        string movieName, \n        string ticketSymbol,\n        string logline,\n        string poster,\n        string trailer\n    );\n    \n    event TicketsBought(\n        address movie, \n        address buyer, \n        uint price,\n        uint quantity\n    );\n    \n    event ExcessPaid(\n        uint indexed date,\n        address indexed movie,\n        address indexed buyer,\n        uint excess\n    );\n    \n    event FundWithdrawn(\n        uint indexed date,\n        address indexed movie, \n        address recipient, \n        uint amount, \n        string expense\n    );\n    \n    event CharityDonated(\n        uint indexed date,\n        address indexed recipient, \n        uint amount\n    );\n    \n    event ExcessReturned(\n        address recipient, \n        uint amount\n    );\n    \n    event FeesUpdated(\n        uint listingFee,\n        uint withdrawFee\n    );\n    \n    event FallbackTriggered(\n        uint indexed date,\n        address indexed sender,\n        uint value\n    );\n    \n    modifier onlyAdmin {\n        require(msg.sender == admin);\n        _;\n    }\n    \n    modifier onlyFilmmaker(address movie) {\n        require(msg.sender == Movie(movie).filmmaker());\n        _;\n    }\n    \n    modifier chargeListingFee {\n        require(kiitos.balanceOf(msg.sender) >= listingFee);\n        kiitos.transferToAdmin(msg.sender, listingFee);\n        _;\n    }\n    \n    modifier chargeWithdrawFee(uint amount) {\n        uint fee = withdrawFee.mul(amount).div(100);\n        heartbank = heartbank.add(fee);\n        charity = charity.add(fee);\n        _;\n    }\n    \n    modifier stopInEmergency { \n        require(!emergency); \n        _; \n    }\n    \n    modifier onlyInEmergency { \n        require(emergency); \n        _;\n    }\n    \n    constructor(address token) public {\n        kiitos = Kiitos(token);\n        admin = msg.sender;\n        emergency = false;\n        \n        heartbank = 0;\n        charity = 0;\n        listingFee = 2;\n        withdrawFee = 1;\n    }\n    \n    function() public payable {\n        emit FallbackTriggered(now, msg.sender, msg.value);\n    }\n    \n    function makeFilm(\n        uint salesEndDate,\n        uint availableTickets,\n        uint price,\n        uint ticketSupply, \n        string movieName, \n        string ticketSymbol,\n        string logline,\n        string poster,\n        string trailer\n    ) \n        public \n        stopInEmergency\n        chargeListingFee\n        returns (bool)\n    {\n        require(salesEndDate > now);\n        require(availableTickets <= ticketSupply);\n        require(price > 0);\n        require(ticketSupply > 0);\n        require(bytes(movieName).length > 0);\n        require(bytes(ticketSymbol).length > 0);\n        require(bytes(logline).length > 0);\n        require(bytes(poster).length > 0);\n        require(bytes(trailer).length > 0);\n        \n        Movie film = new Movie(msg.sender, salesEndDate, availableTickets, price, ticketSupply, movieName, ticketSymbol, logline, poster, trailer);\n        films.push(film);\n        \n        emit FilmCreated(\n            film,\n            salesEndDate,\n            availableTickets,\n            price,\n            ticketSupply,\n            movieName,\n            ticketSymbol,\n            logline,\n            poster,\n            trailer    \n        );\n        return true;\n    }\n    \n    function buyTickets(address movie, uint quantity) \n        public \n        payable\n        stopInEmergency\n        returns (bool)\n    {\n        require(quantity > 0);\n        Movie film = Movie(movie);\n        uint price = film.price();\n        \n        // only during sales period\n        require(now < film.salesEndDate());\n        \n        // check available tickets\n        require(quantity <= film.availableTickets());\n        \n        // check payment amount\n        require(msg.value >= quantity.mul(price));\n        \n        // check excess payment\n        uint excess = msg.value.sub(quantity.mul(price));\n        if (excess > 0) emit ExcessPaid(now, movie, msg.sender, excess);\n        \n        film.buyTickets(msg.sender, quantity);\n        emit TicketsBought(movie, msg.sender, price, quantity);\n        return true;\n    }\n    \n    function withdrawFund(address movie, address recipient, uint amount, string expense) \n        public \n        stopInEmergency\n        onlyFilmmaker(movie)\n        chargeWithdrawFee(amount)\n        returns (bool)\n    {\n        require(recipient != address(0));\n        require(amount > 0);\n        require(bytes(expense).length > 0);\n        Movie(movie).withdrawFund(amount.add(withdrawFee.mul(amount).div(100)));\n        \n        emit FundWithdrawn(now, movie, recipient, amount, expense);\n        recipient.transfer(amount);\n        return true;\n    }\n    \n    function getFilms() public view returns (address[]) {\n        return films;\n    }\n    \n    function updateFees(uint listing, uint withdraw)\n        public\n        stopInEmergency\n        onlyAdmin\n        returns (bool)\n    {\n        listingFee = listing;\n        withdrawFee = withdraw;\n        emit FeesUpdated(listingFee, withdrawFee);\n        return true;\n    }\n    \n    function donateToCharity(address recipient, uint amount) public onlyAdmin returns (bool) {\n        require(amount <= heartbank);\n        heartbank = heartbank.sub(amount);\n        emit CharityDonated(now, recipient, amount);\n        recipient.transfer(amount);\n        return true;\n    }\n    \n    function returnExcessPayment(address recipient, uint amount) public onlyAdmin returns (bool) {\n        require(amount <= address(this).balance);\n        emit ExcessReturned(recipient, amount);\n        recipient.transfer(amount);\n        return true;\n    }\n\n    function getBoxOfficeStats() public view returns (uint, uint, uint, uint) {\n        return (listingFee, withdrawFee, heartbank, charity);\n    }\n    \n    function toggleEmergency() public onlyAdmin returns (bool) {\n        emergency = !emergency;\n        return true;\n    }\n    \n    function shutDownBoxOffice() public onlyInEmergency onlyAdmin {\n        selfdestruct(admin);\n    }\n    \n}\n\n",
  "sourcePath": "/Users/heartbank/Google Drive/ConsenSys/BoxOffice/contracts/BoxOffice.sol",
  "compiler": {
    "name": "solc",
    "version": "0.4.24+commit.e67f0147.Emscripten.clang"
  },
  "schemaVersion": "2.0.1",
  "updatedAt": "2018-08-26T02:21:27.828Z"
}