{
  "contractName": "BoxOffice",
  "abi": [
    {
      "constant": true,
      "inputs": [],
      "name": "listingFee",
      "outputs": [
        {
          "name": "",
          "type": "uint256"
        }
      ],
      "payable": false,
      "stateMutability": "view",
      "type": "function"
    },
    {
      "constant": true,
      "inputs": [],
      "name": "kiitos",
      "outputs": [
        {
          "name": "",
          "type": "address"
        }
      ],
      "payable": false,
      "stateMutability": "view",
      "type": "function"
    },
    {
      "constant": true,
      "inputs": [],
      "name": "heartbank",
      "outputs": [
        {
          "name": "",
          "type": "uint256"
        }
      ],
      "payable": false,
      "stateMutability": "view",
      "type": "function"
    },
    {
      "constant": true,
      "inputs": [],
      "name": "withdrawFee",
      "outputs": [
        {
          "name": "",
          "type": "uint256"
        }
      ],
      "payable": false,
      "stateMutability": "view",
      "type": "function"
    },
    {
      "constant": true,
      "inputs": [],
      "name": "admin",
      "outputs": [
        {
          "name": "",
          "type": "address"
        }
      ],
      "payable": false,
      "stateMutability": "view",
      "type": "function"
    },
    {
      "inputs": [
        {
          "name": "token",
          "type": "address"
        }
      ],
      "payable": false,
      "stateMutability": "nonpayable",
      "type": "constructor"
    },
    {
      "payable": true,
      "stateMutability": "payable",
      "type": "fallback"
    },
    {
      "anonymous": false,
      "inputs": [
        {
          "indexed": false,
          "name": "movie",
          "type": "address"
        },
        {
          "indexed": false,
          "name": "salesEndTime",
          "type": "uint256"
        },
        {
          "indexed": false,
          "name": "price",
          "type": "uint256"
        },
        {
          "indexed": false,
          "name": "ticketSupply",
          "type": "uint256"
        },
        {
          "indexed": false,
          "name": "movieName",
          "type": "string"
        },
        {
          "indexed": false,
          "name": "ticketSymbol",
          "type": "string"
        },
        {
          "indexed": false,
          "name": "logline",
          "type": "string"
        },
        {
          "indexed": false,
          "name": "poster",
          "type": "string"
        },
        {
          "indexed": false,
          "name": "trailer",
          "type": "string"
        }
      ],
      "name": "FilmCreated",
      "type": "event"
    },
    {
      "anonymous": false,
      "inputs": [
        {
          "indexed": false,
          "name": "movie",
          "type": "address"
        },
        {
          "indexed": false,
          "name": "buyer",
          "type": "address"
        },
        {
          "indexed": false,
          "name": "quantity",
          "type": "uint256"
        }
      ],
      "name": "TicketsBought",
      "type": "event"
    },
    {
      "anonymous": false,
      "inputs": [
        {
          "indexed": false,
          "name": "movie",
          "type": "address"
        },
        {
          "indexed": false,
          "name": "buyer",
          "type": "address"
        },
        {
          "indexed": false,
          "name": "excess",
          "type": "uint256"
        }
      ],
      "name": "ExcessPayment",
      "type": "event"
    },
    {
      "anonymous": false,
      "inputs": [
        {
          "indexed": true,
          "name": "movie",
          "type": "address"
        },
        {
          "indexed": false,
          "name": "recipient",
          "type": "address"
        },
        {
          "indexed": false,
          "name": "amount",
          "type": "uint256"
        },
        {
          "indexed": false,
          "name": "expense",
          "type": "string"
        }
      ],
      "name": "FundWithdrawn",
      "type": "event"
    },
    {
      "anonymous": false,
      "inputs": [
        {
          "indexed": false,
          "name": "listingFee",
          "type": "uint256"
        },
        {
          "indexed": false,
          "name": "withdrawFee",
          "type": "uint256"
        }
      ],
      "name": "FeesUpdated",
      "type": "event"
    },
    {
      "anonymous": false,
      "inputs": [
        {
          "indexed": true,
          "name": "sender",
          "type": "address"
        },
        {
          "indexed": false,
          "name": "value",
          "type": "uint256"
        }
      ],
      "name": "FallbackTriggered",
      "type": "event"
    },
    {
      "constant": false,
      "inputs": [
        {
          "name": "salesEndTime",
          "type": "uint256"
        },
        {
          "name": "price",
          "type": "uint256"
        },
        {
          "name": "ticketSupply",
          "type": "uint256"
        },
        {
          "name": "movieName",
          "type": "string"
        },
        {
          "name": "ticketSymbol",
          "type": "string"
        },
        {
          "name": "logline",
          "type": "string"
        },
        {
          "name": "poster",
          "type": "string"
        },
        {
          "name": "trailer",
          "type": "string"
        }
      ],
      "name": "makeFilm",
      "outputs": [
        {
          "name": "",
          "type": "bool"
        }
      ],
      "payable": false,
      "stateMutability": "nonpayable",
      "type": "function"
    },
    {
      "constant": false,
      "inputs": [
        {
          "name": "movie",
          "type": "address"
        },
        {
          "name": "quantity",
          "type": "uint256"
        }
      ],
      "name": "buyTickets",
      "outputs": [
        {
          "name": "",
          "type": "bool"
        }
      ],
      "payable": true,
      "stateMutability": "payable",
      "type": "function"
    },
    {
      "constant": false,
      "inputs": [
        {
          "name": "movie",
          "type": "address"
        },
        {
          "name": "recipient",
          "type": "address"
        },
        {
          "name": "amount",
          "type": "uint256"
        },
        {
          "name": "expense",
          "type": "string"
        }
      ],
      "name": "withdrawFund",
      "outputs": [
        {
          "name": "",
          "type": "bool"
        }
      ],
      "payable": false,
      "stateMutability": "nonpayable",
      "type": "function"
    },
    {
      "constant": true,
      "inputs": [
        {
          "name": "",
          "type": "uint256"
        }
      ],
      "name": "films",
      "outputs": [
        {
          "name": "",
          "type": "address"
        }
      ],
      "payable": false,
      "stateMutability": "view",
      "type": "function"
    },
    {
      "constant": true,
      "inputs": [],
      "name": "films",
      "outputs": [
        {
          "name": "",
          "type": "address[]"
        }
      ],
      "payable": false,
      "stateMutability": "view",
      "type": "function"
    },
    {
      "constant": false,
      "inputs": [
        {
          "name": "listing",
          "type": "uint256"
        },
        {
          "name": "withdraw",
          "type": "uint256"
        }
      ],
      "name": "updateFees",
      "outputs": [
        {
          "name": "",
          "type": "bool"
        }
      ],
      "payable": false,
      "stateMutability": "nonpayable",
      "type": "function"
    },
    {
      "constant": false,
      "inputs": [
        {
          "name": "recipient",
          "type": "address"
        },
        {
          "name": "amount",
          "type": "uint256"
        }
      ],
      "name": "withdrawBoxOffice",
      "outputs": [
        {
          "name": "",
          "type": "bool"
        }
      ],
      "payable": false,
      "stateMutability": "nonpayable",
      "type": "function"
    },
    {
      "constant": false,
      "inputs": [],
      "name": "toggleEmergency",
      "outputs": [
        {
          "name": "",
          "type": "bool"
        }
      ],
      "payable": false,
      "stateMutability": "nonpayable",
      "type": "function"
    },
    {
      "constant": false,
      "inputs": [],
      "name": "shutDownBoxOffice",
      "outputs": [],
      "payable": false,
      "stateMutability": "nonpayable",
      "type": "function"
    }
  ],
  "bytecode": "0x608060405234801561001057600080fd5b50604051602080612e14833981016040525160018054600160a060020a03909216600160a060020a03199283161781556000805460a060020a60ff0219931633179290921682556002918255600391909155600455612da0806100746000396000f300608060405260043610620000de5763ffffffff7c0100000000000000000000000000000000000000000000000000000000600035041663267b588d8114620001165780632d1d2744146200013057806365117469146200015c5780636a1b7ecc14620001835780636db7943714620001ad57806388f5776714620001cb57806393aab8d814620001e4578063adad9ee4146200021b578063bb982f151462000379578063c4e47ff41462000391578063de77a7bd14620003a9578063e941fa78146200041b578063ec91635a1462000433578063f851a440146200049d575b60408051348152905133917f88f0557776a847895e33e08fed583a81cbf92cfd35b7e6b2eceb494b15fe199b919081900360200190a2005b3480156200012357600080fd5b506200012e620004b5565b005b3480156200013d57600080fd5b506200014862000505565b604080519115158252519081900360200190f35b3480156200016957600080fd5b5062000148600160a060020a036004351660243562000565565b3480156200019057600080fd5b506200019b620005c1565b60408051918252519081900360200190f35b348015620001ba57600080fd5b5062000148600435602435620005c7565b62000148600160a060020a036004351660243562000657565b348015620001f157600080fd5b50620001ff600435620009cf565b60408051600160a060020a039092168252519081900360200190f35b3480156200022857600080fd5b50604080516020601f60643560048181013592830184900484028501840190955281845262000148948035946024803595604435953695608494930191819084018382808284375050604080516020601f89358b018035918201839004830284018301909452808352979a99988101979196509182019450925082915084018382808284375050604080516020601f89358b018035918201839004830284018301909452808352979a99988101979196509182019450925082915084018382808284375050604080516020601f89358b018035918201839004830284018301909452808352979a99988101979196509182019450925082915084018382808284375050604080516020601f89358b018035918201839004830284018301909452808352979a999881019791965091820194509250829150840183828082843750949750620009f89650505050505050565b3480156200038657600080fd5b50620001ff62001121565b3480156200039e57600080fd5b506200019b62001130565b348015620003b657600080fd5b50604080516020601f6064356004818101359283018490048402850184019095528184526200014894600160a060020a038135811695602480359092169560443595369560849401918190840183828082843750949750620011369650505050505050565b3480156200042857600080fd5b506200019b62001433565b3480156200044057600080fd5b506200044b62001439565b60408051602080825283518183015283519192839290830191858101910280838360005b83811015620004895781810151838201526020016200046f565b505050509050019250505060405180910390f35b348015620004aa57600080fd5b50620001ff6200149d565b60005474010000000000000000000000000000000000000000900460ff161515620004df57600080fd5b600054600160a060020a03163314620004f757600080fd5b600054600160a060020a0316ff5b60008054600160a060020a031633146200051e57600080fd5b506000805474ff0000000000000000000000000000000000000000198116740100000000000000000000000000000000000000009182900460ff1615909102179055600190565b60008054600160a060020a031633146200057e57600080fd5b604051600160a060020a0384169083156108fc029084906000818181858888f19350505050158015620005b5573d6000803e3d6000fd5b50600190505b92915050565b60035481565b6000805474010000000000000000000000000000000000000000900460ff1615620005f157600080fd5b600054600160a060020a031633146200060957600080fd5b60038390556004829055604080518481526020810184905281517f5c6323bf1c2d7aaea2c091a4751c1c87af7f2864650c336507a77d0557af37a1929181900390910190a150600192915050565b6000805474010000000000000000000000000000000000000000900460ff16156200068157600080fd5b8280600160a060020a031663069a05236040518163ffffffff167c0100000000000000000000000000000000000000000000000000000000028152600401602060405180830381600087803b158015620006da57600080fd5b505af1158015620006ef573d6000803e3d6000fd5b505050506040513d60208110156200070657600080fd5b505142106200071457600080fd5b8383600081116200072457600080fd5b620007bc82600160a060020a031663a035b1fe6040518163ffffffff167c0100000000000000000000000000000000000000000000000000000000028152600401602060405180830381600087803b1580156200078057600080fd5b505af115801562000795573d6000803e3d6000fd5b505050506040513d6020811015620007ac57600080fd5b5051829063ffffffff620014ac16565b341015620007c957600080fd5b8585600088600160a060020a03166388f57767338a6040518363ffffffff167c01000000000000000000000000000000000000000000000000000000000281526004018083600160a060020a0316600160a060020a0316815260200182815260200192505050602060405180830381600087803b1580156200084a57600080fd5b505af11580156200085f573d6000803e3d6000fd5b505050506040513d60208110156200087657600080fd5b505060408051600160a060020a038b1681523360208201528082018a905290517f704cb0e5440dc5ad6055dfd48a7f302d0a797c49c16226806bf92bee2c8d97539181900360600190a1600196506200096e6200096084600160a060020a031663a035b1fe6040518163ffffffff167c0100000000000000000000000000000000000000000000000000000000028152600401602060405180830381600087803b1580156200092457600080fd5b505af115801562000939573d6000803e3d6000fd5b505050506040513d60208110156200095057600080fd5b5051849063ffffffff620014ac16565b349063ffffffff620014d916565b90506000811115620009c35760408051600160a060020a038516815233602082015280820183905290517f232a2d079e2b29ddcfc1aedaa7e02152466d632d643b6c8b33956dcb8bb741739181900360600190a15b50505050505092915050565b6005805482908110620009de57fe5b600091825260209091200154600160a060020a0316905081565b60008054819074010000000000000000000000000000000000000000900460ff161562000a2457600080fd5b600354600154604080517f70a082310000000000000000000000000000000000000000000000000000000081523360048201529051600160a060020a03909216916370a08231916024808201926020929091908290030181600087803b15801562000a8e57600080fd5b505af115801562000aa3573d6000803e3d6000fd5b505050506040513d602081101562000aba57600080fd5b5051101562000ac857600080fd5b600154600354604080517f1afdf33b000000000000000000000000000000000000000000000000000000008152336004820152602481019290925251600160a060020a0390921691631afdf33b916044808201926020929091908290030181600087803b15801562000b3957600080fd5b505af115801562000b4e573d6000803e3d6000fd5b505050506040513d602081101562000b6557600080fd5b5050428a1162000b7457600080fd5b6000891162000b8257600080fd5b6000881162000b9057600080fd5b865160001062000b9f57600080fd5b855160001062000bae57600080fd5b845160001062000bbd57600080fd5b835160001062000bcc57600080fd5b825160001062000bdb57600080fd5b338a8a8a8a8a8a8a8a62000bee62001510565b808a600160a060020a0316600160a060020a03168152602001898152602001888152602001878152602001806020018060200180602001806020018060200186810386528b818151815260200191508051906020019080838360005b8381101562000c6457818101518382015260200162000c4a565b50505050905090810190601f16801562000c925780820380516001836020036101000a031916815260200191505b5086810385528a5181528a516020918201918c019080838360005b8381101562000cc757818101518382015260200162000cad565b50505050905090810190601f16801562000cf55780820380516001836020036101000a031916815260200191505b5086810384528951815289516020918201918b019080838360005b8381101562000d2a57818101518382015260200162000d10565b50505050905090810190601f16801562000d585780820380516001836020036101000a031916815260200191505b5086810383528851815288516020918201918a019080838360005b8381101562000d8d57818101518382015260200162000d73565b50505050905090810190601f16801562000dbb5780820380516001836020036101000a031916815260200191505b50868103825287518152875160209182019189019080838360005b8381101562000df057818101518382015260200162000dd6565b50505050905090810190601f16801562000e1e5780820380516001836020036101000a031916815260200191505b509e505050505050505050505050505050604051809103906000f08015801562000e4c573d6000803e3d6000fd5b50905060058190806001815401808255809150509060018203906000526020600020016000909192909190916101000a815481600160a060020a030219169083600160a060020a03160217905550507f3095ba9056b1100f843731de73f35679c4cfb502c1aaf0d6559f881d6697e7b0818b8b8b8b8b8b8b8b604051808a600160a060020a0316600160a060020a03168152602001898152602001888152602001878152602001806020018060200180602001806020018060200186810386528b818151815260200191508051906020019080838360005b8381101562000f3e57818101518382015260200162000f24565b50505050905090810190601f16801562000f6c5780820380516001836020036101000a031916815260200191505b5086810385528a5181528a516020918201918c019080838360005b8381101562000fa157818101518382015260200162000f87565b50505050905090810190601f16801562000fcf5780820380516001836020036101000a031916815260200191505b5086810384528951815289516020918201918b019080838360005b838110156200100457818101518382015260200162000fea565b50505050905090810190601f168015620010325780820380516001836020036101000a031916815260200191505b5086810383528851815288516020918201918a019080838360005b83811015620010675781810151838201526020016200104d565b50505050905090810190601f168015620010955780820380516001836020036101000a031916815260200191505b50868103825287518152875160209182019189019080838360005b83811015620010ca578181015183820152602001620010b0565b50505050905090810190601f168015620010f85780820380516001836020036101000a031916815260200191505b509e50505050505050505050505050505060405180910390a15060019998505050505050505050565b600154600160a060020a031681565b60025481565b6000805474010000000000000000000000000000000000000000900460ff16156200116057600080fd5b8480600160a060020a0316631d9d844e6040518163ffffffff167c0100000000000000000000000000000000000000000000000000000000028152600401602060405180830381600087803b158015620011b957600080fd5b505af1158015620011ce573d6000803e3d6000fd5b505050506040513d6020811015620011e557600080fd5b5051600160a060020a03163314620011fc57600080fd5b836200123b6200122b826200121e6064600454620014ec90919063ffffffff16565b9063ffffffff620014ac16565b6002549063ffffffff6200150216565b600255600160a060020a03861615156200125457600080fd5b600085116200126257600080fd5b83516000106200127157600080fd5b86600160a060020a0316630cee1725620012af620012a1886200121e6064600454620014ec90919063ffffffff16565b889063ffffffff6200150216565b6040518263ffffffff167c010000000000000000000000000000000000000000000000000000000002815260040180828152602001915050602060405180830381600087803b1580156200130257600080fd5b505af115801562001317573d6000803e3d6000fd5b505050506040513d60208110156200132e57600080fd5b505060408051600160a060020a038881168252602082810189905260609383018481528851948401949094528751918b16937f15450b49a1500152d90d5187e37ad0735a72ead29ba96656a8a82f08aa513a0a938b938b938b9391608084019185019080838360005b83811015620013b157818101518382015260200162001397565b50505050905090810190601f168015620013df5780820380516001836020036101000a031916815260200191505b5094505050505060405180910390a2604051600160a060020a0387169086156108fc029087906000818181858888f1935050505015801562001425573d6000803e3d6000fd5b506001979650505050505050565b60045481565b606060058054806020026020016040519081016040528092919081815260200182805480156200149357602002820191906000526020600020905b8154600160a060020a0316815260019091019060200180831162001474575b5050505050905090565b600054600160a060020a031681565b6000821515620014bf57506000620005bb565b50818102818382811515620014d057fe5b0414620005bb57fe5b600082821115620014e657fe5b50900390565b60008183811515620014fa57fe5b049392505050565b81810182811015620005bb57fe5b604051611853806200152283390190560060806040523480156200001157600080fd5b5060405162001853380380620018538339810160409081528151602080840151928401516060850151608086015160a087015160c088015160e08901516101008a01516005805433600160a060020a03199182161790915560068054909116600160a060020a038b16179055426007556000600a819055600b5560088a905560098790556001869055938a018051989a9698959790969384019592840194918401939190910191620000ca916003919088019062000172565b508351620000e090600490602087019062000172565b508251620000f690600c90602086019062000172565b5081516200010c90600d90602085019062000172565b5080516200012290600e90602084019062000172565b505060015460068054600160a060020a0390811660009081526020818152604080832086905593548316825260028152838220600554909316825291909152205550620002179650505050505050565b828054600181600116156101000203166002900490600052602060002090601f016020900481019282601f10620001b557805160ff1916838001178555620001e5565b82800160010185558215620001e5579182015b82811115620001e5578251825591602001919060010190620001c8565b50620001f3929150620001f7565b5090565b6200021491905b80821115620001f35760008155600101620001fe565b90565b61162c80620002276000396000f3006080604052600436106101745763ffffffff7c01000000000000000000000000000000000000000000000000000000006000350416630641def28114610179578063069a0523146101aa57806306fdde03146101d1578063095ea7b31461025b5780630cee172514610293578063161bee47146102ab57806318160ddd146102cc5780631d9d844e146102e157806323b872dd146102f6578063313ce567146103205780633222c0a41461034b5780635d91922d146104a35780635daf08ca146104b857806366188463146104d057806370a08231146104f45780638095972114610515578063839dfa1f1461052a57806388f577671461053f578063919d30511461056357806395d89b4114610584578063a035b1fe14610599578063a41c35f0146105ae578063a9059cbb146105c3578063aace52fe146105e7578063b2f4bdb0146105fc578063b60d428814610611578063bdd4d18d14610626578063d73dd6231461068b578063dd62ed3e146106af575b600080fd5b34801561018557600080fd5b5061018e6106d6565b60408051600160a060020a039092168252519081900360200190f35b3480156101b657600080fd5b506101bf6106e5565b60408051918252519081900360200190f35b3480156101dd57600080fd5b506101e66106eb565b6040805160208082528351818301528351919283929083019185019080838360005b83811015610220578181015183820152602001610208565b50505050905090810190601f16801561024d5780820380516001836020036101000a031916815260200191505b509250505060405180910390f35b34801561026757600080fd5b5061027f600160a060020a0360043516602435610779565b604080519115158252519081900360200190f35b34801561029f57600080fd5b5061027f6004356107e0565b3480156102b757600080fd5b5061027f600160a060020a0360043516610827565b3480156102d857600080fd5b506101bf61083c565b3480156102ed57600080fd5b5061018e610843565b34801561030257600080fd5b5061027f600160a060020a0360043581169060243516604435610852565b34801561032c57600080fd5b506103356109c7565b6040805160ff9092168252519081900360200190f35b34801561035757600080fd5b50604080516020600460443581810135601f810184900484028501840190955284845261027f94823594602480359536959460649492019190819084018382808284375050604080516020601f89358b018035918201839004830284018301909452808352979a99988101979196509182019450925082915084018382808284375050604080516020601f89358b018035918201839004830284018301909452808352979a99988101979196509182019450925082915084018382808284375050604080516020601f89358b018035918201839004830284018301909452808352979a99988101979196509182019450925082915084018382808284375050604080516020601f89358b018035918201839004830284018301909452808352979a9998810197919650918201945092508291508401838280828437509497506109cc9650505050505050565b3480156104af57600080fd5b506101e6610d6a565b3480156104c457600080fd5b5061018e600435610dc5565b3480156104dc57600080fd5b5061027f600160a060020a0360043516602435610ded565b34801561050057600080fd5b506101bf600160a060020a0360043516610edc565b34801561052157600080fd5b506101e6610ef7565b34801561053657600080fd5b5061027f610f52565b34801561054b57600080fd5b5061027f600160a060020a03600435166024356110d0565b34801561056f57600080fd5b5061027f600160a060020a036004351661122f565b34801561059057600080fd5b506101e661124d565b3480156105a557600080fd5b506101bf6112a8565b3480156105ba57600080fd5b506101e66112ae565b3480156105cf57600080fd5b5061027f600160a060020a0360043516602435611309565b3480156105f357600080fd5b506101bf6113e8565b34801561060857600080fd5b506101bf6113ee565b34801561061d57600080fd5b506101bf6113f4565b34801561063257600080fd5b5061063b6113fa565b60408051602080825283518183015283519192839290830191858101910280838360005b8381101561067757818101518382015260200161065f565b505050509050019250505060405180910390f35b34801561069757600080fd5b5061027f600160a060020a036004351660243561145c565b3480156106bb57600080fd5b506101bf600160a060020a03600435811690602435166114f5565b600554600160a060020a031681565b60085481565b6003805460408051602060026001851615610100026000190190941693909304601f810184900484028201840190925281815292918301828280156107715780601f1061074657610100808354040283529160200191610771565b820191906000526020600020905b81548152906001019060200180831161075457829003601f168201915b505050505081565b336000818152600260209081526040808320600160a060020a038716808552908352818420869055815186815291519394909390927f8c5be1e5ebec7d5bd14f71427d1e84f3dd0314c0f7b2291e5b200ac8c7c3b925928290030190a35060015b92915050565b600554600090600160a060020a031633146107fa57600080fd5b600b5482111561080957600080fd5b600b5461081c908363ffffffff61152016565b600b55506001919050565b600f6020526000908152604090205460ff1681565b6001545b90565b600654600160a060020a031681565b600160a060020a03831660009081526020819052604081205482111561087757600080fd5b600160a060020a03841660009081526002602090815260408083203384529091529020548211156108a757600080fd5b600160a060020a03831615156108bc57600080fd5b600160a060020a0384166000908152602081905260409020546108e5908363ffffffff61152016565b600160a060020a03808616600090815260208190526040808220939093559085168152205461091a908363ffffffff61153216565b600160a060020a0380851660009081526020818152604080832094909455918716815260028252828120338252909152205461095c908363ffffffff61152016565b600160a060020a03808616600081815260026020908152604080832033845282529182902094909455805186815290519287169391927fddf252ad1be2c89b69c2b068fc378daa952ba7f163c4a11628f55a4df523b3ef929181900390910190a35060019392505050565b600081565b600654600090600160a060020a031633146109e657600080fd5b428811156109f45760088890555b6000871115610a035760098790555b600086511115610a22578551610a20906003906020890190611568565b505b600085511115610a41578451610a3f906004906020880190611568565b505b600084511115610a60578351610a5e90600c906020870190611568565b505b600083511115610a7f578251610a7d90600d906020860190611568565b505b600082511115610a9e578151610a9c90600e906020850190611568565b505b7f940ba380aa6634e8c2878bb8ca0620b4b8fd45672b23f7a7d5dc92e6ed3766ab60085460095460036004600c600d600e60405180888152602001878152602001806020018060200180602001806020018060200186810386528b818154600181600116156101000203166002900481526020019150805460018160011615610100020316600290048015610b745780601f10610b4957610100808354040283529160200191610b74565b820191906000526020600020905b815481529060010190602001808311610b5757829003601f168201915b505086810385528a54600260001961010060018416150201909116048082526020909101908b908015610be85780601f10610bbd57610100808354040283529160200191610be8565b820191906000526020600020905b815481529060010190602001808311610bcb57829003601f168201915b505086810384528954600260001961010060018416150201909116048082526020909101908a908015610c5c5780601f10610c3157610100808354040283529160200191610c5c565b820191906000526020600020905b815481529060010190602001808311610c3f57829003601f168201915b5050868103835288546002600019610100600184161502019091160480825260209091019089908015610cd05780601f10610ca557610100808354040283529160200191610cd0565b820191906000526020600020905b815481529060010190602001808311610cb357829003601f168201915b5050868103825287546002600019610100600184161502019091160480825260209091019088908015610d445780601f10610d1957610100808354040283529160200191610d44565b820191906000526020600020905b815481529060010190602001808311610d2757829003601f168201915b50509c5050505050505050505050505060405180910390a1506001979650505050505050565b600c805460408051602060026001851615610100026000190190941693909304601f810184900484028201840190925281815292918301828280156107715780601f1061074657610100808354040283529160200191610771565b6010805482908110610dd357fe5b600091825260209091200154600160a060020a0316905081565b336000908152600260209081526040808320600160a060020a0386168452909152812054808310610e4157336000908152600260209081526040808320600160a060020a0388168452909152812055610e76565b610e51818463ffffffff61152016565b336000908152600260209081526040808320600160a060020a03891684529091529020555b336000818152600260209081526040808320600160a060020a0389168085529083529281902054815190815290519293927f8c5be1e5ebec7d5bd14f71427d1e84f3dd0314c0f7b2291e5b200ac8c7c3b925929181900390910190a35060019392505050565b600160a060020a031660009081526020819052604090205490565b600d805460408051602060026001851615610100026000190190941693909304601f810184900484028201840190925281815292918301828280156107715780601f1061074657610100808354040283529160200191610771565b600080610f5e33610edc565b11610f6857600080fd5b3360009081526020819052604090205460011115610f8557600080fd5b33600090815260208190526040902054610fa690600163ffffffff61152016565b3360009081526020819052604080822092909255600554600160a060020a031681522054610fdb90600163ffffffff61153216565b600554600160a060020a0316600090815260208181526040808320939093556010805460018181019092557f1b6847dc741a1b0cd08d278845f9d819d87b734759afb55fe2de5cb82a9ae67201805473ffffffffffffffffffffffffffffffffffffffff191633908117909155808452600f909252838320805460ff1916909117905591517f66f39243fdcc85d7a3250a7546d65477294fa6d541ec404ec0300b0b99eb10de9190a260055460408051600181529051600160a060020a039092169133917fddf252ad1be2c89b69c2b068fc378daa952ba7f163c4a11628f55a4df523b3ef919081900360200190a350600190565b600554600090600160a060020a031633146110ea57600080fd5b600654600160a060020a031660009081526020819052604090205482111561111157600080fd5b600654600160a060020a031660009081526020819052604090205461113c908363ffffffff61152016565b600654600160a060020a039081166000908152602081905260408082209390935590851681522054611174908363ffffffff61153216565b600160a060020a0384166000908152602081905260409020556009546111b4906111a590849063ffffffff61153f16565b600a549063ffffffff61153216565b600a556009546111de906111cf90849063ffffffff61153f16565b600b549063ffffffff61153216565b600b55600654604080518481529051600160a060020a038087169316917fddf252ad1be2c89b69c2b068fc378daa952ba7f163c4a11628f55a4df523b3ef919081900360200190a350600192915050565b600160a060020a03166000908152600f602052604090205460ff1690565b6004805460408051602060026001851615610100026000190190941693909304601f810184900484028201840190925281815292918301828280156107715780601f1061074657610100808354040283529160200191610771565b60095481565b600e805460408051602060026001851615610100026000190190941693909304601f810184900484028201840190925281815292918301828280156107715780601f1061074657610100808354040283529160200191610771565b3360009081526020819052604081205482111561132557600080fd5b600160a060020a038316151561133a57600080fd5b3360009081526020819052604090205461135a908363ffffffff61152016565b3360009081526020819052604080822092909255600160a060020a0385168152205461138c908363ffffffff61153216565b600160a060020a038416600081815260208181526040918290209390935580518581529051919233927fddf252ad1be2c89b69c2b068fc378daa952ba7f163c4a11628f55a4df523b3ef9281900390910190a350600192915050565b600a5481565b60075481565b600b5481565b6060601080548060200260200160405190810160405280929190818152602001828054801561145257602002820191906000526020600020905b8154600160a060020a03168152600190910190602001808311611434575b5050505050905090565b336000908152600260209081526040808320600160a060020a0386168452909152812054611490908363ffffffff61153216565b336000818152600260209081526040808320600160a060020a0389168085529083529281902085905580519485525191937f8c5be1e5ebec7d5bd14f71427d1e84f3dd0314c0f7b2291e5b200ac8c7c3b925929081900390910190a350600192915050565b600160a060020a03918216600090815260026020908152604080832093909416825291909152205490565b60008282111561152c57fe5b50900390565b818101828110156107da57fe5b6000821515611550575060006107da565b5081810281838281151561156057fe5b04146107da57fe5b828054600181600116156101000203166002900490600052602060002090601f016020900481019282601f106115a957805160ff19168380011785556115d6565b828001600101855582156115d6579182015b828111156115d65782518255916020019190600101906115bb565b506115e29291506115e6565b5090565b61084091905b808211156115e257600081556001016115ec5600a165627a7a723058208ea8d103565244438491b65ac73490f81ec2711d2b76d4ba62e9908f8994e9500029a165627a7a723058203f7e2c811508d40de5d3d143e555d9171ff1151a289e20b8b3a304513397ca5a0029",
  "source": "pragma solidity ^0.4.24;\n\nimport \"openzeppelin-solidity/contracts/math/SafeMath.sol\";\nimport {HeartBankTokenInterface as Kiitos} from \"./HeartBankTokenInterface.sol\";\nimport {BoxOfficeMovie as Movie} from \"./BoxOfficeMovie.sol\";\n\ncontract BoxOffice {\n    \n    using SafeMath for uint;\n    \n    address public admin;\n    bool private emergency;\n    \n    Kiitos public kiitos;\n    uint public heartbank;\n    uint public listingFee;\n    uint public withdrawFee;\n    \n    address[] public films;\n    \n    event FilmCreated(\n        address movie,\n        uint salesEndTime,\n        uint price,\n        uint ticketSupply, \n        string movieName, \n        string ticketSymbol,\n        string logline,\n        string poster,\n        string trailer\n    );\n    \n    event TicketsBought(\n        address movie, \n        address buyer, \n        uint quantity\n    );\n    \n    event ExcessPayment(\n        address movie,\n        address buyer,\n        uint excess\n    );\n    \n    event FundWithdrawn(\n        address indexed movie, \n        address recipient, \n        uint amount, \n        string expense\n    );\n    \n    event FeesUpdated(\n        uint listingFee,\n        uint withdrawFee\n    );\n    \n    event FallbackTriggered(\n        address indexed sender,\n        uint value\n    );\n    \n    modifier onlyAdmin {\n        require(msg.sender == admin);\n        _;\n    }\n    \n    modifier onlyFilmmaker(address movie) {\n        require(msg.sender == Movie(movie).filmmaker());\n        _;\n    }\n    \n    modifier onlyDuringSalesPeriod(address movie) {\n        require(now < Movie(movie).salesEndTime());\n        _;\n    }\n    \n    modifier checkPaymentAmount(address movie, uint quantity) {\n        require(quantity > 0);\n        require(msg.value >= quantity.mul(Movie(movie).price()));\n        _;\n    }\n    \n    modifier checkExcessPayment(address movie, uint quantity) {\n        _;\n        uint excess = msg.value.sub(quantity.mul(Movie(movie).price()));\n        if (excess > 0) emit ExcessPayment(movie, msg.sender, excess);\n    }\n    \n    modifier chargeListingFee {\n        require(kiitos.balanceOf(msg.sender) >= listingFee);\n        kiitos.transferToAdmin(msg.sender, listingFee);\n        _;\n    }\n    \n    modifier chargeWithdrawFee(uint amount) {\n        heartbank = heartbank.add(withdrawFee.div(100).mul(amount));\n        _;\n    }\n    \n    modifier stopInEmergency { \n        require(!emergency); \n        _; \n    }\n    \n    modifier onlyInEmergency { \n        require(emergency); \n        _;\n    }\n    \n    constructor(address token) public {\n        kiitos = Kiitos(token);\n        admin = msg.sender;\n        emergency = false;\n        \n        heartbank = 0;\n        listingFee = 2;\n        withdrawFee = 1;\n    }\n    \n    function() public payable {\n        emit FallbackTriggered(msg.sender, msg.value);\n    }\n    \n    function makeFilm(\n        uint salesEndTime,\n        uint price,\n        uint ticketSupply, \n        string movieName, \n        string ticketSymbol,\n        string logline,\n        string poster,\n        string trailer\n    ) \n        public \n        stopInEmergency\n        chargeListingFee\n        returns (bool)\n    {\n        require(salesEndTime > now);\n        require(price > 0);\n        require(ticketSupply > 0);\n        require(bytes(movieName).length > 0);\n        require(bytes(ticketSymbol).length > 0);\n        require(bytes(logline).length > 0);\n        require(bytes(poster).length > 0);\n        require(bytes(trailer).length > 0);\n        \n        Movie film = new Movie(msg.sender, salesEndTime, price, ticketSupply, movieName, ticketSymbol, logline, poster, trailer);\n        films.push(film);\n        \n        emit FilmCreated(\n            film,\n            salesEndTime,\n            price,\n            ticketSupply,\n            movieName,\n            ticketSymbol,\n            logline,\n            poster,\n            trailer    \n        );\n        return true;\n    }\n    \n    function buyTickets(address movie, uint quantity) \n        public \n        payable\n        stopInEmergency\n        onlyDuringSalesPeriod(movie)\n        checkPaymentAmount(movie, quantity)\n        checkExcessPayment(movie, quantity)\n        returns (bool)\n    {\n        Movie(movie).buyTickets(msg.sender, quantity);\n        emit TicketsBought(movie, msg.sender, quantity);\n        return true;\n    }\n    \n    function withdrawFund(address movie, address recipient, uint amount, string expense) \n        public \n        stopInEmergency\n        onlyFilmmaker(movie)\n        chargeWithdrawFee(amount)\n        returns (bool)\n    {\n        require(recipient != address(0));\n        require(amount > 0);\n        require(bytes(expense).length > 0);\n        Movie(movie).withdrawFund(amount.add(withdrawFee.div(100).mul(amount)));\n        \n        emit FundWithdrawn(movie, recipient, amount, expense);\n        recipient.transfer(amount);\n        return true;\n    }\n    \n    function films() public view returns (address[]) {\n        return films;\n    }\n    \n    function updateFees(uint listing, uint withdraw)\n        public\n        stopInEmergency\n        onlyAdmin\n        returns (bool)\n    {\n        listingFee = listing;\n        withdrawFee = withdraw;\n        emit FeesUpdated(listingFee, withdrawFee);\n        return true;\n    }\n    \n    function withdrawBoxOffice(address recipient, uint amount) public onlyAdmin returns (bool) {\n        recipient.transfer(amount);\n        return true;\n    }\n    \n    function toggleEmergency() public onlyAdmin returns (bool) {\n        emergency = !emergency;\n        return true;\n    }\n    \n    function shutDownBoxOffice() public onlyInEmergency onlyAdmin {\n        selfdestruct(admin);\n    }\n    \n}\n\n",
  "sourcePath": "/Users/heartbank/Google Drive/ConsenSys/BoxOffice/contracts/BoxOffice.sol",
  "compiler": {
    "name": "solc",
    "version": "0.4.24+commit.e67f0147.Emscripten.clang"
  },
  "schemaVersion": "2.0.1",
  "updatedAt": "2018-08-20T15:24:38.037Z"
}