{
  "contractName": "HeartBankCoin",
  "abi": [
    {
      "constant": true,
      "inputs": [],
      "name": "name",
      "outputs": [
        {
          "name": "",
          "type": "string"
        }
      ],
      "payable": false,
      "stateMutability": "view",
      "type": "function"
    },
    {
      "constant": false,
      "inputs": [
        {
          "name": "_spender",
          "type": "address"
        },
        {
          "name": "_value",
          "type": "uint256"
        }
      ],
      "name": "approve",
      "outputs": [
        {
          "name": "",
          "type": "bool"
        }
      ],
      "payable": false,
      "stateMutability": "nonpayable",
      "type": "function"
    },
    {
      "constant": true,
      "inputs": [],
      "name": "totalSupply",
      "outputs": [
        {
          "name": "",
          "type": "uint256"
        }
      ],
      "payable": false,
      "stateMutability": "view",
      "type": "function"
    },
    {
      "constant": false,
      "inputs": [
        {
          "name": "_from",
          "type": "address"
        },
        {
          "name": "_to",
          "type": "address"
        },
        {
          "name": "_value",
          "type": "uint256"
        }
      ],
      "name": "transferFrom",
      "outputs": [
        {
          "name": "",
          "type": "bool"
        }
      ],
      "payable": false,
      "stateMutability": "nonpayable",
      "type": "function"
    },
    {
      "constant": true,
      "inputs": [],
      "name": "decimals",
      "outputs": [
        {
          "name": "",
          "type": "uint8"
        }
      ],
      "payable": false,
      "stateMutability": "view",
      "type": "function"
    },
    {
      "constant": false,
      "inputs": [
        {
          "name": "_spender",
          "type": "address"
        },
        {
          "name": "_subtractedValue",
          "type": "uint256"
        }
      ],
      "name": "decreaseApproval",
      "outputs": [
        {
          "name": "",
          "type": "bool"
        }
      ],
      "payable": false,
      "stateMutability": "nonpayable",
      "type": "function"
    },
    {
      "constant": true,
      "inputs": [
        {
          "name": "_owner",
          "type": "address"
        }
      ],
      "name": "balanceOf",
      "outputs": [
        {
          "name": "",
          "type": "uint256"
        }
      ],
      "payable": false,
      "stateMutability": "view",
      "type": "function"
    },
    {
      "constant": true,
      "inputs": [],
      "name": "symbol",
      "outputs": [
        {
          "name": "",
          "type": "string"
        }
      ],
      "payable": false,
      "stateMutability": "view",
      "type": "function"
    },
    {
      "constant": false,
      "inputs": [
        {
          "name": "_to",
          "type": "address"
        },
        {
          "name": "_value",
          "type": "uint256"
        }
      ],
      "name": "transfer",
      "outputs": [
        {
          "name": "",
          "type": "bool"
        }
      ],
      "payable": false,
      "stateMutability": "nonpayable",
      "type": "function"
    },
    {
      "constant": false,
      "inputs": [
        {
          "name": "_spender",
          "type": "address"
        },
        {
          "name": "_addedValue",
          "type": "uint256"
        }
      ],
      "name": "increaseApproval",
      "outputs": [
        {
          "name": "",
          "type": "bool"
        }
      ],
      "payable": false,
      "stateMutability": "nonpayable",
      "type": "function"
    },
    {
      "constant": true,
      "inputs": [
        {
          "name": "_owner",
          "type": "address"
        },
        {
          "name": "_spender",
          "type": "address"
        }
      ],
      "name": "allowance",
      "outputs": [
        {
          "name": "",
          "type": "uint256"
        }
      ],
      "payable": false,
      "stateMutability": "view",
      "type": "function"
    },
    {
      "inputs": [],
      "payable": false,
      "stateMutability": "nonpayable",
      "type": "constructor"
    },
    {
      "anonymous": false,
      "inputs": [
        {
          "indexed": true,
          "name": "owner",
          "type": "address"
        },
        {
          "indexed": true,
          "name": "spender",
          "type": "address"
        },
        {
          "indexed": false,
          "name": "value",
          "type": "uint256"
        }
      ],
      "name": "Approval",
      "type": "event"
    },
    {
      "anonymous": false,
      "inputs": [
        {
          "indexed": true,
          "name": "from",
          "type": "address"
        },
        {
          "indexed": true,
          "name": "to",
          "type": "address"
        },
        {
          "indexed": false,
          "name": "value",
          "type": "uint256"
        }
      ],
      "name": "Transfer",
      "type": "event"
    },
    {
      "constant": false,
      "inputs": [
        {
          "name": "admin",
          "type": "address"
        }
      ],
      "name": "addAdmin",
      "outputs": [
        {
          "name": "",
          "type": "bool"
        }
      ],
      "payable": false,
      "stateMutability": "nonpayable",
      "type": "function"
    },
    {
      "constant": false,
      "inputs": [
        {
          "name": "holder",
          "type": "address"
        },
        {
          "name": "kiitos",
          "type": "uint256"
        }
      ],
      "name": "transferToAdmin",
      "outputs": [
        {
          "name": "",
          "type": "bool"
        }
      ],
      "payable": false,
      "stateMutability": "nonpayable",
      "type": "function"
    },
    {
      "constant": false,
      "inputs": [],
      "name": "toggleAirDrop",
      "outputs": [
        {
          "name": "",
          "type": "bool"
        }
      ],
      "payable": false,
      "stateMutability": "nonpayable",
      "type": "function"
    },
    {
      "constant": false,
      "inputs": [],
      "name": "airDrop",
      "outputs": [
        {
          "name": "",
          "type": "bool"
        }
      ],
      "payable": false,
      "stateMutability": "nonpayable",
      "type": "function"
    }
  ],
  "bytecode": "0x608060405234801561001057600080fd5b50600380543361010090810261010060a860020a031960ff199093166001908117939093161792839055670de0b6b3a764000091829055909104600160a060020a0316600090815260208190526040902055610af5806100716000396000f3006080604052600436106100da5763ffffffff7c010000000000000000000000000000000000000000000000000000000060003504166306fdde0381146100df578063095ea7b31461016957806318160ddd146101a15780631afdf33b146101c857806323b872dd146101ec578063313ce567146102165780636618846314610241578063704802751461026557806370a0823114610286578063853755fc146102a757806395d89b41146102bc578063a9059cbb146102d1578063ca5d0880146102f5578063d73dd6231461030a578063dd62ed3e1461032e575b600080fd5b3480156100eb57600080fd5b506100f4610355565b6040805160208082528351818301528351919283929083019185019080838360005b8381101561012e578181015183820152602001610116565b50505050905090810190601f16801561015b5780820380516001836020036101000a031916815260200191505b509250505060405180910390f35b34801561017557600080fd5b5061018d600160a060020a036004351660243561038c565b604080519115158252519081900360200190f35b3480156101ad57600080fd5b506101b66103f2565b60408051918252519081900360200190f35b3480156101d457600080fd5b5061018d600160a060020a03600435166024356103f8565b3480156101f857600080fd5b5061018d600160a060020a03600435811690602435166044356104f2565b34801561022257600080fd5b5061022b610667565b6040805160ff9092168252519081900360200190f35b34801561024d57600080fd5b5061018d600160a060020a036004351660243561066c565b34801561027157600080fd5b5061018d600160a060020a036004351661075b565b34801561029257600080fd5b506101b6600160a060020a03600435166107a3565b3480156102b357600080fd5b5061018d6107be565b3480156102c857600080fd5b506100f46107f5565b3480156102dd57600080fd5b5061018d600160a060020a036004351660243561082c565b34801561030157600080fd5b5061018d61090b565b34801561031657600080fd5b5061018d600160a060020a03600435166024356109e0565b34801561033a57600080fd5b506101b6600160a060020a0360043581169060243516610a79565b60408051808201909152600981527f486561727442616e6b0000000000000000000000000000000000000000000000602082015281565b336000818152600260209081526040808320600160a060020a038716808552908352818420869055815186815291519394909390927f8c5be1e5ebec7d5bd14f71427d1e84f3dd0314c0f7b2291e5b200ac8c7c3b925928290030190a350600192915050565b60015490565b3360009081526004602052604081205460ff16151561041657600080fd5b600160a060020a03831660009081526020819052604090205482111561043b57600080fd5b600160a060020a038316600090815260208190526040902054610464908363ffffffff610aa416565b600160a060020a038416600090815260208190526040808220929092553381522054610496908363ffffffff610ab616565b336000818152602081815260409182902093909355805185815290519192600160a060020a038716927fddf252ad1be2c89b69c2b068fc378daa952ba7f163c4a11628f55a4df523b3ef9281900390910190a350600192915050565b600160a060020a03831660009081526020819052604081205482111561051757600080fd5b600160a060020a038416600090815260026020908152604080832033845290915290205482111561054757600080fd5b600160a060020a038316151561055c57600080fd5b600160a060020a038416600090815260208190526040902054610585908363ffffffff610aa416565b600160a060020a0380861660009081526020819052604080822093909355908516815220546105ba908363ffffffff610ab616565b600160a060020a038085166000908152602081815260408083209490945591871681526002825282812033825290915220546105fc908363ffffffff610aa416565b600160a060020a03808616600081815260026020908152604080832033845282529182902094909455805186815290519287169391927fddf252ad1be2c89b69c2b068fc378daa952ba7f163c4a11628f55a4df523b3ef929181900390910190a35060019392505050565b600081565b336000908152600260209081526040808320600160a060020a03861684529091528120548083106106c057336000908152600260209081526040808320600160a060020a03881684529091528120556106f5565b6106d0818463ffffffff610aa416565b336000908152600260209081526040808320600160a060020a03891684529091529020555b336000818152600260209081526040808320600160a060020a0389168085529083529281902054815190815290519293927f8c5be1e5ebec7d5bd14f71427d1e84f3dd0314c0f7b2291e5b200ac8c7c3b925929181900390910190a35060019392505050565b6003546000906101009004600160a060020a0316331461077a57600080fd5b50600160a060020a03166000908152600460205260409020805460ff1916600190811790915590565b600160a060020a031660009081526020819052604090205490565b6003546000906101009004600160a060020a031633146107dd57600080fd5b506003805460ff19811660ff90911615179055600190565b60408051808201909152600681527f4b6969746f730000000000000000000000000000000000000000000000000000602082015281565b3360009081526020819052604081205482111561084857600080fd5b600160a060020a038316151561085d57600080fd5b3360009081526020819052604090205461087d908363ffffffff610aa416565b3360009081526020819052604080822092909255600160a060020a038516815220546108af908363ffffffff610ab616565b600160a060020a038416600081815260208181526040918290209390935580518581529051919233927fddf252ad1be2c89b69c2b068fc378daa952ba7f163c4a11628f55a4df523b3ef9281900390910190a350600192915050565b60035460009060ff16151561091f57600080fd5b6003546101009004600160a060020a031660009081526020819052604090205461094a906064610aa4565b6003546101009004600160a060020a031660009081526020819052604080822092909255338152205461097e906064610ab6565b33600081815260208181526040918290209390935560035481516064815291519293610100909104600160a060020a0316927fddf252ad1be2c89b69c2b068fc378daa952ba7f163c4a11628f55a4df523b3ef9281900390910190a350600190565b336000908152600260209081526040808320600160a060020a0386168452909152812054610a14908363ffffffff610ab616565b336000818152600260209081526040808320600160a060020a0389168085529083529281902085905580519485525191937f8c5be1e5ebec7d5bd14f71427d1e84f3dd0314c0f7b2291e5b200ac8c7c3b925929081900390910190a350600192915050565b600160a060020a03918216600090815260026020908152604080832093909416825291909152205490565b600082821115610ab057fe5b50900390565b81810182811015610ac357fe5b929150505600a165627a7a7230582000ca678489303e88cfbaf27f4f9cbffb0963db1ae8963efa5380cc91f8f92c1d0029",
  "source": "pragma solidity ^0.4.24;\n\nimport \"openzeppelin-solidity/contracts/token/ERC20/StandardToken.sol\";\n\ncontract HeartBankCoin is StandardToken {\n\n    string public constant name = \"HeartBank\";\n    string public constant symbol = \"Kiitos\";\n    uint8 public constant decimals = 0;\n    \n    bool private airdrop;\n    address private owner;\n    mapping (address => bool) private admins;\n    \n    modifier onlyOwner {\n        require(msg.sender == owner);\n        _;\n    }\n    \n    modifier onlyAdmin {\n        require(admins[msg.sender]);\n        _;\n    }\n    \n    modifier onlyDuringAirDrop {\n        require(airdrop);\n        _;\n    }\n\n    constructor() public {\n        airdrop = true;\n        owner = msg.sender;\n        totalSupply_ = 1 ether;\n        balances[owner] = totalSupply_;\n    }\n    \n    function addAdmin(address admin) public onlyOwner returns (bool) {\n        admins[admin] = true;\n        return true;\n    }\n    \n    function transferToAdmin(address holder, uint kiitos) external onlyAdmin returns (bool) {\n        require(balances[holder] >= kiitos);\n        balances[holder] = balances[holder].sub(kiitos);\n        balances[msg.sender] = balances[msg.sender].add(kiitos);\n        emit Transfer(holder, msg.sender, kiitos);\n        return true;\n    }\n    \n    function toggleAirDrop() public onlyOwner returns (bool) {\n        airdrop = !airdrop;\n        return true;\n    }\n    \n    function airDrop() public onlyDuringAirDrop returns (bool) {\n        balances[owner] = balances[owner].sub(100);\n        balances[msg.sender] = balances[msg.sender].add(100);\n        emit Transfer(owner, msg.sender, 100);\n        return true;\n    }\n\n}",
  "sourcePath": "/Users/heartbank/Google Drive/ConsenSys/BoxOffice/contracts/HeartBankCoin.sol",
  "compiler": {
    "name": "solc",
    "version": "0.4.24+commit.e67f0147.Emscripten.clang"
  },
  "schemaVersion": "2.0.1",
  "updatedAt": "2018-08-26T23:49:22.262Z"
}