{
  "contractName": "Oracle",
  "abi": [
    {
      "constant": true,
      "inputs": [],
      "name": "oracle",
      "outputs": [
        {
          "name": "",
          "type": "address"
        }
      ],
      "payable": false,
      "stateMutability": "view",
      "type": "function"
    },
    {
      "constant": true,
      "inputs": [],
      "name": "owner",
      "outputs": [
        {
          "name": "",
          "type": "address"
        }
      ],
      "payable": false,
      "stateMutability": "view",
      "type": "function"
    },
    {
      "inputs": [
        {
          "name": "oracleStorage",
          "type": "address"
        }
      ],
      "payable": false,
      "stateMutability": "nonpayable",
      "type": "constructor"
    },
    {
      "anonymous": false,
      "inputs": [],
      "name": "GetPrice",
      "type": "event"
    },
    {
      "anonymous": false,
      "inputs": [
        {
          "indexed": false,
          "name": "price",
          "type": "uint256"
        }
      ],
      "name": "PriceUpdated",
      "type": "event"
    },
    {
      "constant": false,
      "inputs": [],
      "name": "updatePrice",
      "outputs": [
        {
          "name": "",
          "type": "bool"
        }
      ],
      "payable": false,
      "stateMutability": "nonpayable",
      "type": "function"
    },
    {
      "constant": false,
      "inputs": [
        {
          "name": "price",
          "type": "uint256"
        }
      ],
      "name": "setPrice",
      "outputs": [
        {
          "name": "",
          "type": "bool"
        }
      ],
      "payable": false,
      "stateMutability": "nonpayable",
      "type": "function"
    },
    {
      "constant": true,
      "inputs": [],
      "name": "usdPriceOfEth",
      "outputs": [
        {
          "name": "",
          "type": "uint256"
        }
      ],
      "payable": false,
      "stateMutability": "view",
      "type": "function"
    },
    {
      "constant": true,
      "inputs": [
        {
          "name": "amountInWei",
          "type": "uint256"
        }
      ],
      "name": "convertToUsd",
      "outputs": [
        {
          "name": "",
          "type": "uint256"
        }
      ],
      "payable": false,
      "stateMutability": "view",
      "type": "function"
    },
    {
      "constant": false,
      "inputs": [],
      "name": "kill",
      "outputs": [],
      "payable": false,
      "stateMutability": "nonpayable",
      "type": "function"
    }
  ],
  "bytecode": "0x608060405234801561001057600080fd5b506040516020806104ba833981016040525160008054600160a060020a0319908116331790915560018054600160a060020a039093169290911691909117905561045b8061005f6000396000f3006080604052600436106100825763ffffffff7c010000000000000000000000000000000000000000000000000000000060003504166341c0e1b58114610087578063673a7e281461009e5780637dc0d1d0146100c75780638c3df45e146101055780638da5cb5b1461012c57806391b7f5ed14610141578063dd8c3ce014610159575b600080fd5b34801561009357600080fd5b5061009c610171565b005b3480156100aa57600080fd5b506100b36101b0565b604080519115158252519081900360200190f35b3480156100d357600080fd5b506100dc610204565b6040805173ffffffffffffffffffffffffffffffffffffffff9092168252519081900360200190f35b34801561011157600080fd5b5061011a610220565b60408051918252519081900360200190f35b34801561013857600080fd5b506100dc6102d8565b34801561014d57600080fd5b506100b36004356102f4565b34801561016557600080fd5b5061011a60043561040a565b60005473ffffffffffffffffffffffffffffffffffffffff16331461019557600080fd5b60005473ffffffffffffffffffffffffffffffffffffffff16ff5b6000805473ffffffffffffffffffffffffffffffffffffffff1633146101d557600080fd5b6040517f6d90164ec1a7e597472bc6f040adfa0b8c8550fe9320f4077cc15d7540b08d6d90600090a150600190565b60015473ffffffffffffffffffffffffffffffffffffffff1681565b600154604080517fa7caef9300000000000000000000000000000000000000000000000000000000815273ffffffffffffffffffffffffffffffffffffffff90921660048301525160009173__OracleLibrary_________________________9163a7caef9391602480820192602092909190829003018186803b1580156102a757600080fd5b505af41580156102bb573d6000803e3d6000fd5b505050506040513d60208110156102d157600080fd5b5051905090565b60005473ffffffffffffffffffffffffffffffffffffffff1681565b6000805473ffffffffffffffffffffffffffffffffffffffff16331461031957600080fd5b600154604080517f21b7960c00000000000000000000000000000000000000000000000000000000815273ffffffffffffffffffffffffffffffffffffffff9092166004830152602482018490525173__OracleLibrary_________________________916321b7960c916044808301926020929190829003018186803b1580156103a357600080fd5b505af41580156103b7573d6000803e3d6000fd5b505050506040513d60208110156103cd57600080fd5b50506040805183815290517f66cbca4f3c64fecf1dcb9ce094abcf7f68c3450a1d4e3a8e917dd621edb4ebe09181900360200190a1506001919050565b6000670de0b6b3a76400008261041e610220565b0281151561042857fe5b04929150505600a165627a7a723058208ea0ad1c7980a930149d3b401158f15d741ee05dc8a9f54c3661c03845f7803a0029",
  "source": "pragma solidity ^0.4.24;\n\nimport {OracleLibrary as Library} from \"./OracleLibrary.sol\";\n\ncontract Oracle {\n    \n    using Library for address;\n    \n    address public owner;\n    address public oracle;\n    \n    event GetPrice();\n    event PriceUpdated(uint price);\n    \n    modifier onlyOwner {\n        require(msg.sender == owner);\n        _;\n    }\n    \n    constructor(address oracleStorage) public {\n        owner = msg.sender;\n        oracle = oracleStorage;\n    }\n    \n    function updatePrice() public onlyOwner returns (bool) {\n        emit GetPrice();\n        return true;\n    }\n    \n    function setPrice(uint price) public onlyOwner returns (bool) {\n        oracle.usdPriceOfEth(price);\n        emit PriceUpdated(price);\n        return true;\n    }\n    \n    function usdPriceOfEth() public view returns (uint) {\n        return oracle.usdPriceOfEth();\n    }\n    \n    function convertToUsd(uint amountInWei) public view returns (uint) {\n        return usdPriceOfEth() * amountInWei / 1 ether;\n    }\n    \n    function kill() public onlyOwner {\n        selfdestruct(owner);\n    }\n    \n}",
  "sourcePath": "/Users/heartbank/Google Drive/ConsenSys/BoxOffice/contracts/Oracle.sol",
  "compiler": {
    "name": "solc",
    "version": "0.4.24+commit.e67f0147.Emscripten.clang"
  },
  "schemaVersion": "2.0.1",
  "updatedAt": "2018-08-26T02:21:27.980Z"
}