{
  "contractName": "OracleLibrary",
  "abi": [
    {
      "constant": false,
      "inputs": [
        {
          "name": "oracle",
          "type": "address"
        },
        {
          "name": "price",
          "type": "uint256"
        }
      ],
      "name": "usdPriceOfEth",
      "outputs": [
        {
          "name": "",
          "type": "bool"
        }
      ],
      "payable": false,
      "stateMutability": "nonpayable",
      "type": "function"
    },
    {
      "constant": true,
      "inputs": [
        {
          "name": "oracle",
          "type": "address"
        }
      ],
      "name": "usdPriceOfEth",
      "outputs": [
        {
          "name": "",
          "type": "uint256"
        }
      ],
      "payable": false,
      "stateMutability": "view",
      "type": "function"
    }
  ],
  "bytecode": "0x610247610030600b82828239805160001a6073146000811461002057610022565bfe5b5030600052607381538281f30073000000000000000000000000000000000000000030146080604052600436106100625763ffffffff7c010000000000000000000000000000000000000000000000000000000060003504166321b7960c8114610067578063a7caef93146100ac575b600080fd5b81801561007357600080fd5b5061009873ffffffffffffffffffffffffffffffffffffffff600435166024356100df565b604080519115158252519081900360200190f35b6100cd73ffffffffffffffffffffffffffffffffffffffff60043516610183565b60408051918252519081900360200190f35b60008273ffffffffffffffffffffffffffffffffffffffff1663c4d321d2836040518263ffffffff167c010000000000000000000000000000000000000000000000000000000002815260040180828152602001915050602060405180830381600087803b15801561015057600080fd5b505af1158015610164573d6000803e3d6000fd5b505050506040513d602081101561017a57600080fd5b50519392505050565b60008173ffffffffffffffffffffffffffffffffffffffff16638c3df45e6040518163ffffffff167c0100000000000000000000000000000000000000000000000000000000028152600401602060405180830381600087803b1580156101e957600080fd5b505af11580156101fd573d6000803e3d6000fd5b505050506040513d602081101561021357600080fd5b5051929150505600a165627a7a723058202dd5393a65e97af819e5cbd1120fb9fa6a8c9d2249f7b5016065aa49549b278c0029",
  "source": "pragma solidity ^0.4.24;\n\nimport {OracleStorage as Storage} from \"./OracleStorage.sol\";\n\nlibrary OracleLibrary {\n    \n    function usdPriceOfEth(address oracle) public view returns (uint) {\n        return Storage(oracle).usdPriceOfEth();\n    }\n    \n    function usdPriceOfEth(address oracle, uint price) public returns (bool) {\n        return Storage(oracle).usdPriceOfEth(price);\n    }\n    \n}",
  "sourcePath": "/Users/heartbank/Google Drive/ConsenSys/BoxOffice/contracts/OracleLibrary.sol",
  "compiler": {
    "name": "solc",
    "version": "0.4.24+commit.e67f0147.Emscripten.clang"
  },
  "schemaVersion": "2.0.1",
  "updatedAt": "2018-08-26T04:56:17.945Z"
}