{
  "contractName": "OracleRegistry",
  "abi": [
    {
      "constant": true,
      "inputs": [
        {
          "name": "",
          "type": "uint256"
        }
      ],
      "name": "previousOracles",
      "outputs": [
        {
          "name": "",
          "type": "address"
        }
      ],
      "payable": false,
      "stateMutability": "view",
      "type": "function"
    },
    {
      "constant": true,
      "inputs": [],
      "name": "currentOracle",
      "outputs": [
        {
          "name": "",
          "type": "address"
        }
      ],
      "payable": false,
      "stateMutability": "view",
      "type": "function"
    },
    {
      "constant": true,
      "inputs": [],
      "name": "owner",
      "outputs": [
        {
          "name": "",
          "type": "address"
        }
      ],
      "payable": false,
      "stateMutability": "view",
      "type": "function"
    },
    {
      "inputs": [
        {
          "name": "oracle",
          "type": "address"
        }
      ],
      "payable": false,
      "stateMutability": "nonpayable",
      "type": "constructor"
    },
    {
      "anonymous": false,
      "inputs": [
        {
          "indexed": false,
          "name": "newOracle",
          "type": "address"
        }
      ],
      "name": "OracleUpgraded",
      "type": "event"
    },
    {
      "constant": false,
      "inputs": [
        {
          "name": "newOracle",
          "type": "address"
        }
      ],
      "name": "upgradeOracle",
      "outputs": [
        {
          "name": "",
          "type": "bool"
        }
      ],
      "payable": false,
      "stateMutability": "nonpayable",
      "type": "function"
    },
    {
      "constant": false,
      "inputs": [],
      "name": "kill",
      "outputs": [],
      "payable": false,
      "stateMutability": "nonpayable",
      "type": "function"
    }
  ],
  "bytecode": "0x608060405234801561001057600080fd5b5060405160208061036e833981016040525160008054600160a060020a0319908116331790915560018054600160a060020a039093169290911691909117905561030f8061005f6000396000f30060806040526004361061006c5763ffffffff7c0100000000000000000000000000000000000000000000000000000000600035041663082c6bbc81146100715780632289445e146100b257806341c0e1b5146100c75780638da5cb5b146100de57806395127634146100f3575b600080fd5b34801561007d57600080fd5b50610089600435610135565b6040805173ffffffffffffffffffffffffffffffffffffffff9092168252519081900360200190f35b3480156100be57600080fd5b5061008961016a565b3480156100d357600080fd5b506100dc610186565b005b3480156100ea57600080fd5b506100896101c5565b3480156100ff57600080fd5b5061012173ffffffffffffffffffffffffffffffffffffffff600435166101e1565b604080519115158252519081900360200190f35b600280548290811061014357fe5b60009182526020909120015473ffffffffffffffffffffffffffffffffffffffff16905081565b60015473ffffffffffffffffffffffffffffffffffffffff1681565b60005473ffffffffffffffffffffffffffffffffffffffff1633146101aa57600080fd5b60005473ffffffffffffffffffffffffffffffffffffffff16ff5b60005473ffffffffffffffffffffffffffffffffffffffff1681565b6000805473ffffffffffffffffffffffffffffffffffffffff16331461020657600080fd5b60015473ffffffffffffffffffffffffffffffffffffffff8381169116146102da57600180546002805480840182556000919091527f405787fa12a823e0f2b7631cc41b3ba8828b3321ca811111fa75cd3aa3bb5ace01805473ffffffffffffffffffffffffffffffffffffffff1990811673ffffffffffffffffffffffffffffffffffffffff9384161790915582549185169116811790915560408051918252517f699bcf58b6646cb4013b4b4217f869b2205579c8300befb6ff6a44ff9910297b9181900360200190a15060016102de565b5060005b9190505600a165627a7a723058203c4884ce7d84722a879dc2c4e1f2bf266fef360e385d2cc3c7355d884097cb410029",
  "source": "pragma solidity ^0.4.24;\n\ncontract OracleRegistry {\n    \n    address public owner;\n    address public currentOracle;\n    address[] public previousOracles;\n    \n    event OracleUpgraded(address newOracle);\n    \n    modifier onlyOwner {\n        require(msg.sender == owner);\n        _;\n    }\n\n    constructor(address oracle) public {\n        owner = msg.sender;\n        currentOracle = oracle;\n    }\n\n    function upgradeOracle(address newOracle) public onlyOwner returns (bool) {\n        if(newOracle != currentOracle) {\n            previousOracles.push(currentOracle);\n            currentOracle = newOracle;\n            emit OracleUpgraded(newOracle);\n            return true;\n        }\n        return false;\n    }\n    \n    function kill() public onlyOwner {\n        selfdestruct(owner);\n    }\n    \n}",
  "sourcePath": "/Users/heartbank/Google Drive/ConsenSys/BoxOffice/contracts/OracleRegistry.sol",
  "compiler": {
    "name": "solc",
    "version": "0.4.24+commit.e67f0147.Emscripten.clang"
  },
  "schemaVersion": "2.0.1",
  "updatedAt": "2018-08-27T15:19:14.766Z"
}