{
  "contractName": "ThrowProxy",
  "abi": [
    {
      "constant": true,
      "inputs": [],
      "name": "target",
      "outputs": [
        {
          "name": "",
          "type": "address"
        }
      ],
      "payable": false,
      "stateMutability": "view",
      "type": "function"
    },
    {
      "inputs": [
        {
          "name": "_target",
          "type": "address"
        }
      ],
      "payable": false,
      "stateMutability": "nonpayable",
      "type": "constructor"
    },
    {
      "payable": false,
      "stateMutability": "nonpayable",
      "type": "fallback"
    },
    {
      "constant": false,
      "inputs": [],
      "name": "execute",
      "outputs": [
        {
          "name": "",
          "type": "bool"
        }
      ],
      "payable": false,
      "stateMutability": "nonpayable",
      "type": "function"
    }
  ],
  "bytecode": "0x608060405234801561001057600080fd5b506040516020806102bd833981016040525160008054600160a060020a03909216600160a060020a031990921691909117905561026b806100526000396000f30060806040526004361061004b5763ffffffff7c0100000000000000000000000000000000000000000000000000000000600035041663614619548114610068578063d4b8399214610091575b34801561005757600080fd5b5061006560016000366101a7565b50005b34801561007457600080fd5b5061007d6100cf565b604080519115158252519081900360200190f35b34801561009d57600080fd5b506100a661018b565b6040805173ffffffffffffffffffffffffffffffffffffffff9092168252519081900360200190f35b60008060009054906101000a900473ffffffffffffffffffffffffffffffffffffffff1673ffffffffffffffffffffffffffffffffffffffff16600160405180828054600181600116156101000203166002900480156101705780601f1061014557610100808354040283529160200191610170565b820191906000526020600020905b81548152906001019060200180831161015357829003601f168201915b50509150506000604051808303816000865af1925050505b90565b60005473ffffffffffffffffffffffffffffffffffffffff1681565b828054600181600116156101000203166002900490600052602060002090601f016020900481019282601f106101e85782800160ff19823516178555610215565b82800160010185558215610215579182015b828111156102155782358255916020019190600101906101fa565b50610221929150610225565b5090565b61018891905b80821115610221576000815560010161022b5600a165627a7a72305820158fb50bff8e679b1e559337934b44ebfc5d2dbdad94a1d0afdeb063727acd710029",
  "source": "pragma solidity ^0.4.24;\n\n// Proxy contract for testing throws\ncontract ThrowProxy {\n  address public target;\n  bytes data;\n\n  constructor(address _target) {\n    target = _target;\n  }\n\n  //prime the data using the fallback function.\n  function() {\n    data = msg.data;\n  }\n\n  function execute() returns (bool) {\n    return target.call(data);\n  }\n}",
  "sourcePath": "/Users/heartbank/Google Drive/ConsenSys/BoxOffice/contracts/ThrowProxy.sol",
  "compiler": {
    "name": "solc",
    "version": "0.4.24+commit.e67f0147.Emscripten.clang"
  },
  "schemaVersion": "2.0.1",
  "updatedAt": "2018-08-18T03:10:22.457Z"
}